{
  "contractName": "CarbonFootprint",
  "abi": [
    {
      "inputs": [],
      "stateMutability": "nonpayable",
      "type": "constructor"
    },
    {
      "anonymous": false,
      "inputs": [
        {
          "indexed": true,
          "internalType": "address",
          "name": "owner",
          "type": "address"
        },
        {
          "indexed": true,
          "internalType": "address",
          "name": "approved",
          "type": "address"
        },
        {
          "indexed": true,
          "internalType": "uint256",
          "name": "tokenId",
          "type": "uint256"
        }
      ],
      "name": "Approval",
      "type": "event"
    },
    {
      "anonymous": false,
      "inputs": [
        {
          "indexed": true,
          "internalType": "address",
          "name": "owner",
          "type": "address"
        },
        {
          "indexed": true,
          "internalType": "address",
          "name": "operator",
          "type": "address"
        },
        {
          "indexed": false,
          "internalType": "bool",
          "name": "approved",
          "type": "bool"
        }
      ],
      "name": "ApprovalForAll",
      "type": "event"
    },
    {
      "anonymous": false,
      "inputs": [
        {
          "indexed": true,
          "internalType": "address",
          "name": "from",
          "type": "address"
        },
        {
          "indexed": true,
          "internalType": "address",
          "name": "to",
          "type": "address"
        },
        {
          "indexed": true,
          "internalType": "uint256",
          "name": "tokenId",
          "type": "uint256"
        }
      ],
      "name": "Transfer",
      "type": "event"
    },
    {
      "inputs": [
        {
          "internalType": "address",
          "name": "to",
          "type": "address"
        },
        {
          "internalType": "uint256",
          "name": "tokenId",
          "type": "uint256"
        }
      ],
      "name": "approve",
      "outputs": [],
      "stateMutability": "nonpayable",
      "type": "function"
    },
    {
      "inputs": [
        {
          "internalType": "address",
          "name": "owner",
          "type": "address"
        }
      ],
      "name": "balanceOf",
      "outputs": [
        {
          "internalType": "uint256",
          "name": "",
          "type": "uint256"
        }
      ],
      "stateMutability": "view",
      "type": "function",
      "constant": true
    },
    {
      "inputs": [
        {
          "internalType": "uint256",
          "name": "tokenId",
          "type": "uint256"
        }
      ],
      "name": "getApproved",
      "outputs": [
        {
          "internalType": "address",
          "name": "",
          "type": "address"
        }
      ],
      "stateMutability": "view",
      "type": "function",
      "constant": true
    },
    {
      "inputs": [
        {
          "internalType": "address",
          "name": "owner",
          "type": "address"
        },
        {
          "internalType": "address",
          "name": "operator",
          "type": "address"
        }
      ],
      "name": "isApprovedForAll",
      "outputs": [
        {
          "internalType": "bool",
          "name": "",
          "type": "bool"
        }
      ],
      "stateMutability": "view",
      "type": "function",
      "constant": true
    },
    {
      "inputs": [],
      "name": "name",
      "outputs": [
        {
          "internalType": "string",
          "name": "",
          "type": "string"
        }
      ],
      "stateMutability": "view",
      "type": "function",
      "constant": true
    },
    {
      "inputs": [
        {
          "internalType": "uint256",
          "name": "tokenId",
          "type": "uint256"
        }
      ],
      "name": "ownerOf",
      "outputs": [
        {
          "internalType": "address",
          "name": "",
          "type": "address"
        }
      ],
      "stateMutability": "view",
      "type": "function",
      "constant": true
    },
    {
      "inputs": [
        {
          "internalType": "address",
          "name": "from",
          "type": "address"
        },
        {
          "internalType": "address",
          "name": "to",
          "type": "address"
        },
        {
          "internalType": "uint256",
          "name": "tokenId",
          "type": "uint256"
        }
      ],
      "name": "safeTransferFrom",
      "outputs": [],
      "stateMutability": "nonpayable",
      "type": "function"
    },
    {
      "inputs": [
        {
          "internalType": "address",
          "name": "from",
          "type": "address"
        },
        {
          "internalType": "address",
          "name": "to",
          "type": "address"
        },
        {
          "internalType": "uint256",
          "name": "tokenId",
          "type": "uint256"
        },
        {
          "internalType": "bytes",
          "name": "_data",
          "type": "bytes"
        }
      ],
      "name": "safeTransferFrom",
      "outputs": [],
      "stateMutability": "nonpayable",
      "type": "function"
    },
    {
      "inputs": [
        {
          "internalType": "address",
          "name": "operator",
          "type": "address"
        },
        {
          "internalType": "bool",
          "name": "approved",
          "type": "bool"
        }
      ],
      "name": "setApprovalForAll",
      "outputs": [],
      "stateMutability": "nonpayable",
      "type": "function"
    },
    {
      "inputs": [
        {
          "internalType": "bytes4",
          "name": "interfaceId",
          "type": "bytes4"
        }
      ],
      "name": "supportsInterface",
      "outputs": [
        {
          "internalType": "bool",
          "name": "",
          "type": "bool"
        }
      ],
      "stateMutability": "view",
      "type": "function",
      "constant": true
    },
    {
      "inputs": [],
      "name": "symbol",
      "outputs": [
        {
          "internalType": "string",
          "name": "",
          "type": "string"
        }
      ],
      "stateMutability": "view",
      "type": "function",
      "constant": true
    },
    {
      "inputs": [
        {
          "internalType": "uint256",
          "name": "tokenId",
          "type": "uint256"
        }
      ],
      "name": "tokenURI",
      "outputs": [
        {
          "internalType": "string",
          "name": "",
          "type": "string"
        }
      ],
      "stateMutability": "view",
      "type": "function",
      "constant": true
    },
    {
      "inputs": [
        {
          "internalType": "address",
          "name": "from",
          "type": "address"
        },
        {
          "internalType": "address",
          "name": "to",
          "type": "address"
        },
        {
          "internalType": "uint256",
          "name": "tokenId",
          "type": "uint256"
        }
      ],
      "name": "transferFrom",
      "outputs": [],
      "stateMutability": "nonpayable",
      "type": "function"
    },
    {
      "inputs": [
        {
          "internalType": "uint256",
          "name": "_lotto",
          "type": "uint256"
        },
        {
          "internalType": "uint32",
          "name": "_valore_CO2",
          "type": "uint32"
        },
        {
          "internalType": "string[]",
          "name": "_nomi_attivita",
          "type": "string[]"
        },
        {
          "internalType": "uint32[]",
          "name": "_valori_CO2_attivita",
          "type": "uint32[]"
        },
        {
          "internalType": "string",
          "name": "_tipologia",
          "type": "string"
        },
        {
          "internalType": "address",
          "name": "_possessore",
          "type": "address"
        },
        {
          "internalType": "uint256[]",
          "name": "_lotti_materie_prime",
          "type": "uint256[]"
        },
        {
          "internalType": "string",
          "name": "_nome",
          "type": "string"
        }
      ],
      "name": "creaProdotto",
      "outputs": [
        {
          "internalType": "uint256",
          "name": "",
          "type": "uint256"
        }
      ],
      "stateMutability": "nonpayable",
      "type": "function"
    },
    {
      "inputs": [
        {
          "internalType": "uint256",
          "name": "_lotto",
          "type": "uint256"
        }
      ],
      "name": "setTipologiaUtilizzato",
      "outputs": [],
      "stateMutability": "nonpayable",
      "type": "function"
    },
    {
      "inputs": [],
      "name": "currentToken",
      "outputs": [
        {
          "internalType": "uint256",
          "name": "",
          "type": "uint256"
        }
      ],
      "stateMutability": "view",
      "type": "function",
      "constant": true
    },
    {
      "inputs": [
        {
          "internalType": "uint256",
          "name": "_token_prodotto",
          "type": "uint256"
        }
      ],
      "name": "getRisorsaByIdProdotto",
      "outputs": [
        {
          "components": [
            {
              "internalType": "string",
              "name": "nome",
              "type": "string"
            },
            {
              "internalType": "uint256",
              "name": "lotto",
              "type": "uint256"
            },
            {
              "internalType": "string[]",
              "name": "nomi_attivita",
              "type": "string[]"
            },
            {
              "internalType": "uint32[]",
              "name": "valori_CO2_attivita",
              "type": "uint32[]"
            },
            {
              "internalType": "uint32",
              "name": "valore_CO2",
              "type": "uint32"
            },
            {
              "internalType": "string",
              "name": "tipologia",
              "type": "string"
            },
            {
              "internalType": "uint256[]",
              "name": "lotti_materie_prime",
              "type": "uint256[]"
            },
            {
              "internalType": "uint256",
              "name": "token",
              "type": "uint256"
            },
            {
              "internalType": "bool",
              "name": "exists",
              "type": "bool"
            }
          ],
          "internalType": "struct CarbonFootprint.Risorsa",
          "name": "",
          "type": "tuple"
        }
      ],
      "stateMutability": "view",
      "type": "function",
      "constant": true
    },
    {
      "inputs": [
        {
          "internalType": "uint256",
          "name": "_lotto",
          "type": "uint256"
        }
      ],
      "name": "getRisorsaByLotto",
      "outputs": [
        {
          "components": [
            {
              "internalType": "string",
              "name": "nome",
              "type": "string"
            },
            {
              "internalType": "uint256",
              "name": "lotto",
              "type": "uint256"
            },
            {
              "internalType": "string[]",
              "name": "nomi_attivita",
              "type": "string[]"
            },
            {
              "internalType": "uint32[]",
              "name": "valori_CO2_attivita",
              "type": "uint32[]"
            },
            {
              "internalType": "uint32",
              "name": "valore_CO2",
              "type": "uint32"
            },
            {
              "internalType": "string",
              "name": "tipologia",
              "type": "string"
            },
            {
              "internalType": "uint256[]",
              "name": "lotti_materie_prime",
              "type": "uint256[]"
            },
            {
              "internalType": "uint256",
              "name": "token",
              "type": "uint256"
            },
            {
              "internalType": "bool",
              "name": "exists",
              "type": "bool"
            }
          ],
          "internalType": "struct CarbonFootprint.Risorsa",
          "name": "",
          "type": "tuple"
        }
      ],
      "stateMutability": "view",
      "type": "function",
      "constant": true
    }
  ],
  "bytecode": "0x60806040523480156200001157600080fd5b506040518060400160405280600f81526020017f436172626f6e466f6f747072696e7400000000000000000000000000000000008152506040518060400160405280600381526020017f4346500000000000000000000000000000000000000000000000000000000000815250816000908051906020019062000096929190620000b8565b508060019080519060200190620000af929190620000b8565b505050620001cd565b828054620000c69062000168565b90600052602060002090601f016020900481019282620000ea576000855562000136565b82601f106200010557805160ff191683800117855562000136565b8280016001018555821562000136579182015b828111156200013557825182559160200191906001019062000118565b5b50905062000145919062000149565b5090565b5b80821115620001645760008160009055506001016200014a565b5090565b600060028204905060018216806200018157607f821691505b602082108114156200019857620001976200019e565b5b50919050565b7f4e487b7100000000000000000000000000000000000000000000000000000000600052602260045260246000fd5b613c6880620001dd6000396000f3fe608060405234801561001057600080fd5b50600436106101165760003560e01c806372f74f43116100a2578063a22cb46511610071578063a22cb46514610319578063b3157ba614610335578063b88d4fde14610351578063c87b56dd1461036d578063e985e9c51461039d57610116565b806372f74f431461027d57806378e1fa8f146102ad578063836c081d146102dd57806395d89b41146102fb57610116565b806323b872dd116100e957806323b872dd146101b557806336cc4992146101d157806342842e0e146102015780636352211e1461021d57806370a082311461024d57610116565b806301ffc9a71461011b57806306fdde031461014b578063081812fc14610169578063095ea7b314610199575b600080fd5b610135600480360381019061013091906128ca565b6103cd565b6040516101429190613070565b60405180910390f35b6101536104af565b604051610160919061308b565b60405180910390f35b610183600480360381019061017e919061291c565b610541565b6040516101909190613009565b60405180910390f35b6101b360048036038101906101ae919061288e565b6105c6565b005b6101cf60048036038101906101ca9190612788565b6106de565b005b6101eb60048036038101906101e69190612945565b61073e565b6040516101f8919061328f565b60405180910390f35b61021b60048036038101906102169190612788565b6109c8565b005b6102376004803603810190610232919061291c565b6109e8565b6040516102449190613009565b60405180910390f35b61026760048036038101906102629190612723565b610a9a565b604051610274919061328f565b60405180910390f35b6102976004803603810190610292919061291c565b610b52565b6040516102a4919061326d565b60405180910390f35b6102c760048036038101906102c2919061291c565b610eae565b6040516102d4919061326d565b60405180910390f35b6102e561120a565b6040516102f2919061328f565b60405180910390f35b61030361121b565b604051610310919061308b565b60405180910390f35b610333600480360381019061032e9190612852565b6112ad565b005b61034f600480360381019061034a919061291c565b6112c3565b005b61036b600480360381019061036691906127d7565b6113a2565b005b6103876004803603810190610382919061291c565b611404565b604051610394919061308b565b60405180910390f35b6103b760048036038101906103b2919061274c565b6114ab565b6040516103c49190613070565b60405180910390f35b60007f80ac58cd000000000000000000000000000000000000000000000000000000007bffffffffffffffffffffffffffffffffffffffffffffffffffffffff1916827bffffffffffffffffffffffffffffffffffffffffffffffffffffffff1916148061049857507f5b5e139f000000000000000000000000000000000000000000000000000000007bffffffffffffffffffffffffffffffffffffffffffffffffffffffff1916827bffffffffffffffffffffffffffffffffffffffffffffffffffffffff1916145b806104a857506104a78261153f565b5b9050919050565b6060600080546104be90613635565b80601f01602080910402602001604051908101604052809291908181526020018280546104ea90613635565b80156105375780601f1061050c57610100808354040283529160200191610537565b820191906000526020600020905b81548152906001019060200180831161051a57829003601f168201915b5050505050905090565b600061054c826115a9565b61058b576040517f08c379a0000000000000000000000000000000000000000000000000000000008152600401610582906131ed565b60405180910390fd5b6004600083815260200190815260200160002060009054906101000a900473ffffffffffffffffffffffffffffffffffffffff169050919050565b60006105d1826109e8565b90508073ffffffffffffffffffffffffffffffffffffffff168373ffffffffffffffffffffffffffffffffffffffff161415610642576040517f08c379a00000000000000000000000000000000000000000000000000000000081526004016106399061322d565b60405180910390fd5b8073ffffffffffffffffffffffffffffffffffffffff16610661611615565b73ffffffffffffffffffffffffffffffffffffffff161480610690575061068f8161068a611615565b6114ab565b5b6106cf576040517f08c379a00000000000000000000000000000000000000000000000000000000081526004016106c69061316d565b60405180910390fd5b6106d9838361161d565b505050565b6106ef6106e9611615565b826116d6565b61072e576040517f08c379a00000000000000000000000000000000000000000000000000000000081526004016107259061324d565b60405180910390fd5b6107398383836117b4565b505050565b600061074a6006611a1b565b60006107566006611a31565b905060006040518061012001604052808581526020018c81526020018a81526020018981526020018b63ffffffff16815260200188815260200186815260200183815260200160011515815250905080600760008d815260200190815260200160002060008201518160000190805190602001906107d592919061216a565b506020820151816001015560408201518160020190805190602001906107fc9291906121f0565b506060820151816003019080519060200190610819929190612250565b5060808201518160040160006101000a81548163ffffffff021916908363ffffffff16021790555060a082015181600501908051906020019061085d92919061216a565b5060c082015181600601908051906020019061087a929190612300565b5060e082015181600701556101008201518160080160006101000a81548160ff021916908315150217905550905050806008600084815260200190815260200160002060008201518160000190805190602001906108d992919061216a565b506020820151816001015560408201518160020190805190602001906109009291906121f0565b50606082015181600301908051906020019061091d929190612250565b5060808201518160040160006101000a81548163ffffffff021916908363ffffffff16021790555060a082015181600501908051906020019061096192919061216a565b5060c082015181600601908051906020019061097e929190612300565b5060e082015181600701556101008201518160080160006101000a81548160ff0219169083151502179055509050506109b78683611a3f565b819250505098975050505050505050565b6109e3838383604051806020016040528060008152506113a2565b505050565b6000806002600084815260200190815260200160002060009054906101000a900473ffffffffffffffffffffffffffffffffffffffff169050600073ffffffffffffffffffffffffffffffffffffffff168173ffffffffffffffffffffffffffffffffffffffff161415610a91576040517f08c379a0000000000000000000000000000000000000000000000000000000008152600401610a88906131ad565b60405180910390fd5b80915050919050565b60008073ffffffffffffffffffffffffffffffffffffffff168273ffffffffffffffffffffffffffffffffffffffff161415610b0b576040517f08c379a0000000000000000000000000000000000000000000000000000000008152600401610b029061318d565b60405180910390fd5b600360008373ffffffffffffffffffffffffffffffffffffffff1673ffffffffffffffffffffffffffffffffffffffff168152602001908152602001600020549050919050565b610b5a61234d565b6007600083815260200190815260200160002060405180610120016040529081600082018054610b8990613635565b80601f0160208091040260200160405190810160405280929190818152602001828054610bb590613635565b8015610c025780601f10610bd757610100808354040283529160200191610c02565b820191906000526020600020905b815481529060010190602001808311610be557829003601f168201915b505050505081526020016001820154815260200160028201805480602002602001604051908101604052809291908181526020016000905b82821015610ce6578382906000526020600020018054610c5990613635565b80601f0160208091040260200160405190810160405280929190818152602001828054610c8590613635565b8015610cd25780601f10610ca757610100808354040283529160200191610cd2565b820191906000526020600020905b815481529060010190602001808311610cb557829003601f168201915b505050505081526020019060010190610c3a565b50505050815260200160038201805480602002602001604051908101604052809291908181526020018280548015610d6957602002820191906000526020600020906000905b82829054906101000a900463ffffffff1663ffffffff1681526020019060040190602082600301049283019260010382029150808411610d2c5790505b505050505081526020016004820160009054906101000a900463ffffffff1663ffffffff1663ffffffff168152602001600582018054610da890613635565b80601f0160208091040260200160405190810160405280929190818152602001828054610dd490613635565b8015610e215780601f10610df657610100808354040283529160200191610e21565b820191906000526020600020905b815481529060010190602001808311610e0457829003601f168201915b5050505050815260200160068201805480602002602001604051908101604052809291908181526020018280548015610e7957602002820191906000526020600020905b815481526020019060010190808311610e65575b50505050508152602001600782015481526020016008820160009054906101000a900460ff1615151515815250509050919050565b610eb661234d565b6008600083815260200190815260200160002060405180610120016040529081600082018054610ee590613635565b80601f0160208091040260200160405190810160405280929190818152602001828054610f1190613635565b8015610f5e5780601f10610f3357610100808354040283529160200191610f5e565b820191906000526020600020905b815481529060010190602001808311610f4157829003601f168201915b505050505081526020016001820154815260200160028201805480602002602001604051908101604052809291908181526020016000905b82821015611042578382906000526020600020018054610fb590613635565b80601f0160208091040260200160405190810160405280929190818152602001828054610fe190613635565b801561102e5780601f106110035761010080835404028352916020019161102e565b820191906000526020600020905b81548152906001019060200180831161101157829003601f168201915b505050505081526020019060010190610f96565b505050508152602001600382018054806020026020016040519081016040528092919081815260200182805480156110c557602002820191906000526020600020906000905b82829054906101000a900463ffffffff1663ffffffff16815260200190600401906020826003010492830192600103820291508084116110885790505b505050505081526020016004820160009054906101000a900463ffffffff1663ffffffff1663ffffffff16815260200160058201805461110490613635565b80601f016020809104026020016040519081016040528092919081815260200182805461113090613635565b801561117d5780601f106111525761010080835404028352916020019161117d565b820191906000526020600020905b81548152906001019060200180831161116057829003601f168201915b50505050508152602001600682018054806020026020016040519081016040528092919081815260200182805480156111d557602002820191906000526020600020905b8154815260200190600101908083116111c1575b50505050508152602001600782015481526020016008820160009054906101000a900460ff1615151515815250509050919050565b60006112166006611a31565b905090565b60606001805461122a90613635565b80601f016020809104026020016040519081016040528092919081815260200182805461125690613635565b80156112a35780601f10611278576101008083540402835291602001916112a3565b820191906000526020600020905b81548152906001019060200180831161128657829003601f168201915b5050505050905090565b6112bf6112b8611615565b8383611c19565b5050565b6040518060400160405280600a81526020017f7574696c697a7a6174610000000000000000000000000000000000000000000081525060076000838152602001908152602001600020600501908051906020019061132292919061216a565b506000600760008381526020019081526020016000206007015490506040518060400160405280600a81526020017f7574696c697a7a6174610000000000000000000000000000000000000000000081525060086000838152602001908152602001600020600501908051906020019061139d92919061216a565b505050565b6113b36113ad611615565b836116d6565b6113f2576040517f08c379a00000000000000000000000000000000000000000000000000000000081526004016113e99061324d565b60405180910390fd5b6113fe84848484611d86565b50505050565b606061140f826115a9565b61144e576040517f08c379a00000000000000000000000000000000000000000000000000000000081526004016114459061320d565b60405180910390fd5b6000611458611de2565b9050600081511161147857604051806020016040528060008152506114a3565b8061148284611df9565b604051602001611493929190612fe5565b6040516020818303038152906040525b915050919050565b6000600560008473ffffffffffffffffffffffffffffffffffffffff1673ffffffffffffffffffffffffffffffffffffffff16815260200190815260200160002060008373ffffffffffffffffffffffffffffffffffffffff1673ffffffffffffffffffffffffffffffffffffffff16815260200190815260200160002060009054906101000a900460ff16905092915050565b60007f01ffc9a7000000000000000000000000000000000000000000000000000000007bffffffffffffffffffffffffffffffffffffffffffffffffffffffff1916827bffffffffffffffffffffffffffffffffffffffffffffffffffffffff1916149050919050565b60008073ffffffffffffffffffffffffffffffffffffffff166002600084815260200190815260200160002060009054906101000a900473ffffffffffffffffffffffffffffffffffffffff1673ffffffffffffffffffffffffffffffffffffffff1614159050919050565b600033905090565b816004600083815260200190815260200160002060006101000a81548173ffffffffffffffffffffffffffffffffffffffff021916908373ffffffffffffffffffffffffffffffffffffffff160217905550808273ffffffffffffffffffffffffffffffffffffffff16611690836109e8565b73ffffffffffffffffffffffffffffffffffffffff167f8c5be1e5ebec7d5bd14f71427d1e84f3dd0314c0f7b2291e5b200ac8c7c3b92560405160405180910390a45050565b60006116e1826115a9565b611720576040517f08c379a00000000000000000000000000000000000000000000000000000000081526004016117179061314d565b60405180910390fd5b600061172b836109e8565b90508073ffffffffffffffffffffffffffffffffffffffff168473ffffffffffffffffffffffffffffffffffffffff16148061179a57508373ffffffffffffffffffffffffffffffffffffffff1661178284610541565b73ffffffffffffffffffffffffffffffffffffffff16145b806117ab57506117aa81856114ab565b5b91505092915050565b8273ffffffffffffffffffffffffffffffffffffffff166117d4826109e8565b73ffffffffffffffffffffffffffffffffffffffff161461182a576040517f08c379a0000000000000000000000000000000000000000000000000000000008152600401611821906130cd565b60405180910390fd5b600073ffffffffffffffffffffffffffffffffffffffff168273ffffffffffffffffffffffffffffffffffffffff16141561189a576040517f08c379a00000000000000000000000000000000000000000000000000000000081526004016118919061310d565b60405180910390fd5b6118a5838383611fa6565b6118b060008261161d565b6001600360008573ffffffffffffffffffffffffffffffffffffffff1673ffffffffffffffffffffffffffffffffffffffff1681526020019081526020016000206000828254611900919061353b565b925050819055506001600360008473ffffffffffffffffffffffffffffffffffffffff1673ffffffffffffffffffffffffffffffffffffffff168152602001908152602001600020600082825461195791906134b4565b92505081905550816002600083815260200190815260200160002060006101000a81548173ffffffffffffffffffffffffffffffffffffffff021916908373ffffffffffffffffffffffffffffffffffffffff160217905550808273ffffffffffffffffffffffffffffffffffffffff168473ffffffffffffffffffffffffffffffffffffffff167fddf252ad1be2c89b69c2b068fc378daa952ba7f163c4a11628f55a4df523b3ef60405160405180910390a4611a16838383611fab565b505050565b6001816000016000828254019250508190555050565b600081600001549050919050565b600073ffffffffffffffffffffffffffffffffffffffff168273ffffffffffffffffffffffffffffffffffffffff161415611aaf576040517f08c379a0000000000000000000000000000000000000000000000000000000008152600401611aa6906131cd565b60405180910390fd5b611ab8816115a9565b15611af8576040517f08c379a0000000000000000000000000000000000000000000000000000000008152600401611aef906130ed565b60405180910390fd5b611b0460008383611fa6565b6001600360008473ffffffffffffffffffffffffffffffffffffffff1673ffffffffffffffffffffffffffffffffffffffff1681526020019081526020016000206000828254611b5491906134b4565b92505081905550816002600083815260200190815260200160002060006101000a81548173ffffffffffffffffffffffffffffffffffffffff021916908373ffffffffffffffffffffffffffffffffffffffff160217905550808273ffffffffffffffffffffffffffffffffffffffff16600073ffffffffffffffffffffffffffffffffffffffff167fddf252ad1be2c89b69c2b068fc378daa952ba7f163c4a11628f55a4df523b3ef60405160405180910390a4611c1560008383611fab565b5050565b8173ffffffffffffffffffffffffffffffffffffffff168373ffffffffffffffffffffffffffffffffffffffff161415611c88576040517f08c379a0000000000000000000000000000000000000000000000000000000008152600401611c7f9061312d565b60405180910390fd5b80600560008573ffffffffffffffffffffffffffffffffffffffff1673ffffffffffffffffffffffffffffffffffffffff16815260200190815260200160002060008473ffffffffffffffffffffffffffffffffffffffff1673ffffffffffffffffffffffffffffffffffffffff16815260200190815260200160002060006101000a81548160ff0219169083151502179055508173ffffffffffffffffffffffffffffffffffffffff168373ffffffffffffffffffffffffffffffffffffffff167f17307eab39ab6107e8899845ad3d59bd9653f200f220920489ca2b5937696c3183604051611d799190613070565b60405180910390a3505050565b611d918484846117b4565b611d9d84848484611fb0565b611ddc576040517f08c379a0000000000000000000000000000000000000000000000000000000008152600401611dd3906130ad565b60405180910390fd5b50505050565b606060405180602001604052806000815250905090565b60606000821415611e41576040518060400160405280600181526020017f30000000000000000000000000000000000000000000000000000000000000008152509050611fa1565b600082905060005b60008214611e73578080611e5c90613698565b915050600a82611e6c919061350a565b9150611e49565b60008167ffffffffffffffff811115611eb5577f4e487b7100000000000000000000000000000000000000000000000000000000600052604160045260246000fd5b6040519080825280601f01601f191660200182016040528015611ee75781602001600182028036833780820191505090505b5090505b60008514611f9a57600182611f00919061353b565b9150600a85611f0f91906136e1565b6030611f1b91906134b4565b60f81b818381518110611f57577f4e487b7100000000000000000000000000000000000000000000000000000000600052603260045260246000fd5b60200101907effffffffffffffffffffffffffffffffffffffffffffffffffffffffffffff1916908160001a905350600a85611f93919061350a565b9450611eeb565b8093505050505b919050565b505050565b505050565b6000611fd18473ffffffffffffffffffffffffffffffffffffffff16612147565b1561213a578373ffffffffffffffffffffffffffffffffffffffff1663150b7a02611ffa611615565b8786866040518563ffffffff1660e01b815260040161201c9493929190613024565b602060405180830381600087803b15801561203657600080fd5b505af192505050801561206757506040513d601f19601f8201168201806040525081019061206491906128f3565b60015b6120ea573d8060008114612097576040519150601f19603f3d011682016040523d82523d6000602084013e61209c565b606091505b506000815114156120e2576040517f08c379a00000000000000000000000000000000000000000000000000000000081526004016120d9906130ad565b60405180910390fd5b805181602001fd5b63150b7a0260e01b7bffffffffffffffffffffffffffffffffffffffffffffffffffffffff1916817bffffffffffffffffffffffffffffffffffffffffffffffffffffffff19161491505061213f565b600190505b949350505050565b6000808273ffffffffffffffffffffffffffffffffffffffff163b119050919050565b82805461217690613635565b90600052602060002090601f01602090048101928261219857600085556121df565b82601f106121b157805160ff19168380011785556121df565b828001600101855582156121df579182015b828111156121de5782518255916020019190600101906121c3565b5b5090506121ec91906123a1565b5090565b82805482825590600052602060002090810192821561223f579160200282015b8281111561223e57825182908051906020019061222e92919061216a565b5091602001919060010190612210565b5b50905061224c91906123be565b5090565b828054828255906000526020600020906007016008900481019282156122ef5791602002820160005b838211156122bd57835183826101000a81548163ffffffff021916908363ffffffff1602179055509260200192600401602081600301049283019260010302612279565b80156122ed5782816101000a81549063ffffffff02191690556004016020816003010492830192600103026122bd565b505b5090506122fc91906123a1565b5090565b82805482825590600052602060002090810192821561233c579160200282015b8281111561233b578251825591602001919060010190612320565b5b50905061234991906123a1565b5090565b60405180610120016040528060608152602001600081526020016060815260200160608152602001600063ffffffff1681526020016060815260200160608152602001600081526020016000151581525090565b5b808211156123ba5760008160009055506001016123a2565b5090565b5b808211156123de57600081816123d591906123e2565b506001016123bf565b5090565b5080546123ee90613635565b6000825580601f10612400575061241f565b601f01602090049060005260206000209081019061241e91906123a1565b5b50565b6000612435612430846132cf565b6132aa565b9050808382526020820190508260005b85811015612475578135850161245b88826126cf565b845260208401935060208301925050600181019050612445565b5050509392505050565b600061249261248d846132fb565b6132aa565b905080838252602082019050828560208602820111156124b157600080fd5b60005b858110156124e157816124c788826126f9565b8452602084019350602083019250506001810190506124b4565b5050509392505050565b60006124fe6124f984613327565b6132aa565b9050808382526020820190508285602086028201111561251d57600080fd5b60005b8581101561254d5781612533888261270e565b845260208401935060208301925050600181019050612520565b5050509392505050565b600061256a61256584613353565b6132aa565b90508281526020810184848401111561258257600080fd5b61258d8482856135f3565b509392505050565b60006125a86125a384613384565b6132aa565b9050828152602081018484840111156125c057600080fd5b6125cb8482856135f3565b509392505050565b6000813590506125e281613bbf565b92915050565b600082601f8301126125f957600080fd5b8135612609848260208601612422565b91505092915050565b600082601f83011261262357600080fd5b813561263384826020860161247f565b91505092915050565b600082601f83011261264d57600080fd5b813561265d8482602086016124eb565b91505092915050565b60008135905061267581613bd6565b92915050565b60008135905061268a81613bed565b92915050565b60008151905061269f81613bed565b92915050565b600082601f8301126126b657600080fd5b81356126c6848260208601612557565b91505092915050565b600082601f8301126126e057600080fd5b81356126f0848260208601612595565b91505092915050565b60008135905061270881613c04565b92915050565b60008135905061271d81613c1b565b92915050565b60006020828403121561273557600080fd5b6000612743848285016125d3565b91505092915050565b6000806040838503121561275f57600080fd5b600061276d858286016125d3565b925050602061277e858286016125d3565b9150509250929050565b60008060006060848603121561279d57600080fd5b60006127ab868287016125d3565b93505060206127bc868287016125d3565b92505060406127cd868287016126f9565b9150509250925092565b600080600080608085870312156127ed57600080fd5b60006127fb878288016125d3565b945050602061280c878288016125d3565b935050604061281d878288016126f9565b925050606085013567ffffffffffffffff81111561283a57600080fd5b612846878288016126a5565b91505092959194509250565b6000806040838503121561286557600080fd5b6000612873858286016125d3565b925050602061288485828601612666565b9150509250929050565b600080604083850312156128a157600080fd5b60006128af858286016125d3565b92505060206128c0858286016126f9565b9150509250929050565b6000602082840312156128dc57600080fd5b60006128ea8482850161267b565b91505092915050565b60006020828403121561290557600080fd5b600061291384828501612690565b91505092915050565b60006020828403121561292e57600080fd5b600061293c848285016126f9565b91505092915050565b600080600080600080600080610100898b03121561296257600080fd5b60006129708b828c016126f9565b98505060206129818b828c0161270e565b975050604089013567ffffffffffffffff81111561299e57600080fd5b6129aa8b828c016125e8565b965050606089013567ffffffffffffffff8111156129c757600080fd5b6129d38b828c0161263c565b955050608089013567ffffffffffffffff8111156129f057600080fd5b6129fc8b828c016126cf565b94505060a0612a0d8b828c016125d3565b93505060c089013567ffffffffffffffff811115612a2a57600080fd5b612a368b828c01612612565b92505060e089013567ffffffffffffffff811115612a5357600080fd5b612a5f8b828c016126cf565b9150509295985092959890939650565b6000612a7b8383612c4a565b905092915050565b6000612a8f8383612fb8565b60208301905092915050565b6000612aa78383612fd6565b60208301905092915050565b612abc8161356f565b82525050565b6000612acd826133e5565b612ad78185613443565b935083602082028501612ae9856133b5565b8060005b85811015612b255784840389528151612b068582612a6f565b9450612b118361341c565b925060208a01995050600181019050612aed565b50829750879550505050505092915050565b6000612b42826133f0565b612b4c8185613454565b9350612b57836133c5565b8060005b83811015612b88578151612b6f8882612a83565b9750612b7a83613429565b925050600181019050612b5b565b5085935050505092915050565b6000612ba0826133fb565b612baa8185613465565b9350612bb5836133d5565b8060005b83811015612be6578151612bcd8882612a9b565b9750612bd883613436565b925050600181019050612bb9565b5085935050505092915050565b612bfc81613581565b82525050565b612c0b81613581565b82525050565b6000612c1c82613406565b612c268185613476565b9350612c36818560208601613602565b612c3f816137ce565b840191505092915050565b6000612c5582613411565b612c5f8185613487565b9350612c6f818560208601613602565b612c78816137ce565b840191505092915050565b6000612c8e82613411565b612c988185613498565b9350612ca8818560208601613602565b612cb1816137ce565b840191505092915050565b6000612cc782613411565b612cd181856134a9565b9350612ce1818560208601613602565b80840191505092915050565b6000612cfa603283613498565b9150612d05826137df565b604082019050919050565b6000612d1d602583613498565b9150612d288261382e565b604082019050919050565b6000612d40601c83613498565b9150612d4b8261387d565b602082019050919050565b6000612d63602483613498565b9150612d6e826138a6565b604082019050919050565b6000612d86601983613498565b9150612d91826138f5565b602082019050919050565b6000612da9602c83613498565b9150612db48261391e565b604082019050919050565b6000612dcc603883613498565b9150612dd78261396d565b604082019050919050565b6000612def602a83613498565b9150612dfa826139bc565b604082019050919050565b6000612e12602983613498565b9150612e1d82613a0b565b604082019050919050565b6000612e35602083613498565b9150612e4082613a5a565b602082019050919050565b6000612e58602c83613498565b9150612e6382613a83565b604082019050919050565b6000612e7b602f83613498565b9150612e8682613ad2565b604082019050919050565b6000612e9e602183613498565b9150612ea982613b21565b604082019050919050565b6000612ec1603183613498565b9150612ecc82613b70565b604082019050919050565b6000610120830160008301518482036000860152612ef58282612c4a565b9150506020830151612f0a6020860182612fb8565b5060408301518482036040860152612f228282612ac2565b91505060608301518482036060860152612f3c8282612b95565b9150506080830151612f516080860182612fd6565b5060a083015184820360a0860152612f698282612c4a565b91505060c083015184820360c0860152612f838282612b37565b91505060e0830151612f9860e0860182612fb8565b50610100830151612fad610100860182612bf3565b508091505092915050565b612fc1816135d9565b82525050565b612fd0816135d9565b82525050565b612fdf816135e3565b82525050565b6000612ff18285612cbc565b9150612ffd8284612cbc565b91508190509392505050565b600060208201905061301e6000830184612ab3565b92915050565b60006080820190506130396000830187612ab3565b6130466020830186612ab3565b6130536040830185612fc7565b81810360608301526130658184612c11565b905095945050505050565b60006020820190506130856000830184612c02565b92915050565b600060208201905081810360008301526130a58184612c83565b905092915050565b600060208201905081810360008301526130c681612ced565b9050919050565b600060208201905081810360008301526130e681612d10565b9050919050565b6000602082019050818103600083015261310681612d33565b9050919050565b6000602082019050818103600083015261312681612d56565b9050919050565b6000602082019050818103600083015261314681612d79565b9050919050565b6000602082019050818103600083015261316681612d9c565b9050919050565b6000602082019050818103600083015261318681612dbf565b9050919050565b600060208201905081810360008301526131a681612de2565b9050919050565b600060208201905081810360008301526131c681612e05565b9050919050565b600060208201905081810360008301526131e681612e28565b9050919050565b6000602082019050818103600083015261320681612e4b565b9050919050565b6000602082019050818103600083015261322681612e6e565b9050919050565b6000602082019050818103600083015261324681612e91565b9050919050565b6000602082019050818103600083015261326681612eb4565b9050919050565b600060208201905081810360008301526132878184612ed7565b905092915050565b60006020820190506132a46000830184612fc7565b92915050565b60006132b46132c5565b90506132c08282613667565b919050565b6000604051905090565b600067ffffffffffffffff8211156132ea576132e961379f565b5b602082029050602081019050919050565b600067ffffffffffffffff8211156133165761331561379f565b5b602082029050602081019050919050565b600067ffffffffffffffff8211156133425761334161379f565b5b602082029050602081019050919050565b600067ffffffffffffffff82111561336e5761336d61379f565b5b613377826137ce565b9050602081019050919050565b600067ffffffffffffffff82111561339f5761339e61379f565b5b6133a8826137ce565b9050602081019050919050565b6000819050602082019050919050565b6000819050602082019050919050565b6000819050602082019050919050565b600081519050919050565b600081519050919050565b600081519050919050565b600081519050919050565b600081519050919050565b6000602082019050919050565b6000602082019050919050565b6000602082019050919050565b600082825260208201905092915050565b600082825260208201905092915050565b600082825260208201905092915050565b600082825260208201905092915050565b600082825260208201905092915050565b600082825260208201905092915050565b600081905092915050565b60006134bf826135d9565b91506134ca836135d9565b9250827fffffffffffffffffffffffffffffffffffffffffffffffffffffffffffffffff038211156134ff576134fe613712565b5b828201905092915050565b6000613515826135d9565b9150613520836135d9565b9250826135305761352f613741565b5b828204905092915050565b6000613546826135d9565b9150613551836135d9565b92508282101561356457613563613712565b5b828203905092915050565b600061357a826135b9565b9050919050565b60008115159050919050565b60007fffffffff0000000000000000000000000000000000000000000000000000000082169050919050565b600073ffffffffffffffffffffffffffffffffffffffff82169050919050565b6000819050919050565b600063ffffffff82169050919050565b82818337600083830152505050565b60005b83811015613620578082015181840152602081019050613605565b8381111561362f576000848401525b50505050565b6000600282049050600182168061364d57607f821691505b6020821081141561366157613660613770565b5b50919050565b613670826137ce565b810181811067ffffffffffffffff8211171561368f5761368e61379f565b5b80604052505050565b60006136a3826135d9565b91507fffffffffffffffffffffffffffffffffffffffffffffffffffffffffffffffff8214156136d6576136d5613712565b5b600182019050919050565b60006136ec826135d9565b91506136f7836135d9565b92508261370757613706613741565b5b828206905092915050565b7f4e487b7100000000000000000000000000000000000000000000000000000000600052601160045260246000fd5b7f4e487b7100000000000000000000000000000000000000000000000000000000600052601260045260246000fd5b7f4e487b7100000000000000000000000000000000000000000000000000000000600052602260045260246000fd5b7f4e487b7100000000000000000000000000000000000000000000000000000000600052604160045260246000fd5b6000601f19601f8301169050919050565b7f4552433732313a207472616e7366657220746f206e6f6e20455243373231526560008201527f63656976657220696d706c656d656e7465720000000000000000000000000000602082015250565b7f4552433732313a207472616e736665722066726f6d20696e636f72726563742060008201527f6f776e6572000000000000000000000000000000000000000000000000000000602082015250565b7f4552433732313a20746f6b656e20616c7265616479206d696e74656400000000600082015250565b7f4552433732313a207472616e7366657220746f20746865207a65726f2061646460008201527f7265737300000000000000000000000000000000000000000000000000000000602082015250565b7f4552433732313a20617070726f766520746f2063616c6c657200000000000000600082015250565b7f4552433732313a206f70657261746f7220717565727920666f72206e6f6e657860008201527f697374656e7420746f6b656e0000000000000000000000000000000000000000602082015250565b7f4552433732313a20617070726f76652063616c6c6572206973206e6f74206f7760008201527f6e6572206e6f7220617070726f76656420666f7220616c6c0000000000000000602082015250565b7f4552433732313a2062616c616e636520717565727920666f7220746865207a6560008201527f726f206164647265737300000000000000000000000000000000000000000000602082015250565b7f4552433732313a206f776e657220717565727920666f72206e6f6e657869737460008201527f656e7420746f6b656e0000000000000000000000000000000000000000000000602082015250565b7f4552433732313a206d696e7420746f20746865207a65726f2061646472657373600082015250565b7f4552433732313a20617070726f76656420717565727920666f72206e6f6e657860008201527f697374656e7420746f6b656e0000000000000000000000000000000000000000602082015250565b7f4552433732314d657461646174613a2055524920717565727920666f72206e6f60008201527f6e6578697374656e7420746f6b656e0000000000000000000000000000000000602082015250565b7f4552433732313a20617070726f76616c20746f2063757272656e74206f776e6560008201527f7200000000000000000000000000000000000000000000000000000000000000602082015250565b7f4552433732313a207472616e736665722063616c6c6572206973206e6f74206f60008201527f776e6572206e6f7220617070726f766564000000000000000000000000000000602082015250565b613bc88161356f565b8114613bd357600080fd5b50565b613bdf81613581565b8114613bea57600080fd5b50565b613bf68161358d565b8114613c0157600080fd5b50565b613c0d816135d9565b8114613c1857600080fd5b50565b613c24816135e3565b8114613c2f57600080fd5b5056fea26469706673582212207e6c3fcac458df8a84838b237e99afa566738670438dea9dc76d3c18487796ce64736f6c63430008010033",
  "immutableReferences": {},
  "source": "// SPDX-License-Identifier: MIT\r\n\r\npragma solidity>=0.5.16;\r\n\r\nimport \"@openzeppelin/contracts/token/ERC721/ERC721.sol\";\r\nimport \"@openzeppelin/contracts/utils/Counters.sol\";\r\n\r\n\r\ncontract CarbonFootprint is ERC721 {\r\n\r\n\r\n\r\n    // per tenere il conteggio dei token prodotti fino ad ora (e quindi delle materie prima/prodotti nel catalogo)\r\n    using Counters for Counters.Counter;\r\n    Counters.Counter private _tokenIds;\r\n\r\n    // struttura che contiene le informazioni della risorsa\r\n    struct Risorsa {\r\n        string nome; // nome risorsa\r\n        uint256 lotto; // lotto che identifica la risorsa (inserito dall'utente)\r\n        string[] nomi_attivita; // vettore che contiene i nomi delle attivit svolte per produrre la risorsa (se presenti)\r\n        uint32[] valori_CO2_attivita; // vettore che contiene i consumi delle attivit svolte per produrre la risorsa (se presenti)\r\n        uint32 valore_CO2; // valore di CO2 della risorsa\r\n        string tipologia; // tipologia di risorsa (materia prima, prodotto o utilizzata)\r\n        uint256[] lotti_materie_prime; // materie prime utilizzate per produrre la risorsa (se presenti)\r\n        uint256 token; // token che identifica la risorsa (prodotto nel momento in cui la risorsa  inserita nella bc)\r\n        bool exists; // attributo che serve per capire se la risorsa esiste o meno\r\n    }\r\n\r\n    \r\n    mapping(uint256=>Risorsa) private risorsaByLotto; // sapendo il lotto ricavo la risorsa\r\n    mapping(uint256=>Risorsa) private risorsaByToken_prodotto; // sapendo il token ricavo la risorsa\r\n\r\n\r\n    // costruttore del token \r\n    constructor () ERC721(\"CarbonFootprint\", \"CFP\"){\r\n    }\r\n\r\n\r\n\r\n    // tale funzione crea la risorsa (sia materia prima che trasformato) e la inserisce nelle mapping per \r\n    // poterne poi estrarre le informazioni\r\n    function creaProdotto(\r\n        uint256 _lotto, uint32 _valore_CO2, string[] memory _nomi_attivita, \r\n        uint32[] memory _valori_CO2_attivita, string memory _tipologia, \r\n        address _possessore, uint256[] memory _lotti_materie_prime, string memory _nome\r\n        )\r\n        public returns(uint256){\r\n\r\n        // il token della risorsa  uguale al token corrente + 1\r\n        _tokenIds.increment();\r\n        uint256 id_nuovo_prodotto = _tokenIds.current();\r\n\r\n        // creo un'istanza di Risorsa \r\n        Risorsa memory risorsa = Risorsa(\r\n            _nome,\r\n            _lotto,\r\n            _nomi_attivita,\r\n            _valori_CO2_attivita,\r\n            _valore_CO2,\r\n            _tipologia,\r\n            _lotti_materie_prime,\r\n            id_nuovo_prodotto,\r\n            true\r\n        );\r\n\r\n        // inserisco l'istanza di risorsa nei due mapping (conoscendone il lotto ed il token)\r\n        risorsaByLotto[_lotto] = risorsa;\r\n        risorsaByToken_prodotto[id_nuovo_prodotto] = risorsa;\r\n        // assegno la risorsa al possessore\r\n        _mint(_possessore, id_nuovo_prodotto);\r\n\r\n        return id_nuovo_prodotto;\r\n    }\r\n\r\n\r\n\r\n    // funzione che riceve un lotto e contrassegna la relativa risorsa come \"utilizzata\"\r\n    function setTipologiaUtilizzato(\r\n        uint256 _lotto\r\n    ) external {\r\n\r\n        // setto la risorsa come utilizzata in entrambi i mapping\r\n        risorsaByLotto[_lotto].tipologia = \"utilizzata\";\r\n        uint256 token = risorsaByLotto[_lotto].token;\r\n        risorsaByToken_prodotto[token].tipologia = \"utilizzata\";\r\n\r\n    }\r\n\r\n\r\n\r\n\r\n\r\n    // restituisce il numero di token prodotti fino ad ora\r\n    function currentToken(\r\n    ) external view returns(uint256) {\r\n\r\n        return _tokenIds.current();\r\n\r\n    }\r\n\r\n\r\n    // funzione che riceve un token e restituisce la risorsa con quel token\r\n    function getRisorsaByIdProdotto(\r\n        uint256 _token_prodotto\r\n    ) external view returns(Risorsa memory) {\r\n\r\n        return risorsaByToken_prodotto[_token_prodotto];\r\n\r\n    }\r\n\r\n\r\n\r\n    // funzione che riceve un lotto e restituisce la risorsa con quel lotto\r\n    function getRisorsaByLotto(\r\n        uint256 _lotto\r\n    ) external view returns(Risorsa memory) {\r\n\r\n        return risorsaByLotto[_lotto];\r\n          \r\n    }\r\n\r\n\r\n}",
  "sourcePath": "C:\\Windows\\System32\\network\\3-nodes-istanbul-tessera-docker-compose\\contracts\\CarbonFootprint.sol",
  "compiler": {
    "name": "solc",
    "version": "0.8.1+commit.df193b15.Emscripten.clang"
  },
  "schemaVersion": "3.4.4",
  "updatedAt": "2022-02-19T19:00:03.723Z",
  "networkType": "quorum",
  "devdoc": {
    "kind": "dev",
    "methods": {
      "approve(address,uint256)": {
        "details": "See {IERC721-approve}."
      },
      "balanceOf(address)": {
        "details": "See {IERC721-balanceOf}."
      },
      "getApproved(uint256)": {
        "details": "See {IERC721-getApproved}."
      },
      "isApprovedForAll(address,address)": {
        "details": "See {IERC721-isApprovedForAll}."
      },
      "name()": {
        "details": "See {IERC721Metadata-name}."
      },
      "ownerOf(uint256)": {
        "details": "See {IERC721-ownerOf}."
      },
      "safeTransferFrom(address,address,uint256)": {
        "details": "See {IERC721-safeTransferFrom}."
      },
      "safeTransferFrom(address,address,uint256,bytes)": {
        "details": "See {IERC721-safeTransferFrom}."
      },
      "setApprovalForAll(address,bool)": {
        "details": "See {IERC721-setApprovalForAll}."
      },
      "supportsInterface(bytes4)": {
        "details": "See {IERC165-supportsInterface}."
      },
      "symbol()": {
        "details": "See {IERC721Metadata-symbol}."
      },
      "tokenURI(uint256)": {
        "details": "See {IERC721Metadata-tokenURI}."
      },
      "transferFrom(address,address,uint256)": {
        "details": "See {IERC721-transferFrom}."
      }
    },
    "version": 1
  },
  "userdoc": {
    "kind": "user",
    "methods": {},
    "version": 1
  }
}