{
  "contractName": "CarbonFootprint",
  "abi": [
    {
      "inputs": [],
      "stateMutability": "nonpayable",
      "type": "constructor"
    },
    {
      "anonymous": false,
      "inputs": [
        {
          "indexed": true,
          "internalType": "address",
          "name": "owner",
          "type": "address"
        },
        {
          "indexed": true,
          "internalType": "address",
          "name": "approved",
          "type": "address"
        },
        {
          "indexed": true,
          "internalType": "uint256",
          "name": "tokenId",
          "type": "uint256"
        }
      ],
      "name": "Approval",
      "type": "event"
    },
    {
      "anonymous": false,
      "inputs": [
        {
          "indexed": true,
          "internalType": "address",
          "name": "owner",
          "type": "address"
        },
        {
          "indexed": true,
          "internalType": "address",
          "name": "operator",
          "type": "address"
        },
        {
          "indexed": false,
          "internalType": "bool",
          "name": "approved",
          "type": "bool"
        }
      ],
      "name": "ApprovalForAll",
      "type": "event"
    },
    {
      "anonymous": false,
      "inputs": [
        {
          "indexed": true,
          "internalType": "address",
          "name": "from",
          "type": "address"
        },
        {
          "indexed": true,
          "internalType": "address",
          "name": "to",
          "type": "address"
        },
        {
          "indexed": true,
          "internalType": "uint256",
          "name": "tokenId",
          "type": "uint256"
        }
      ],
      "name": "Transfer",
      "type": "event"
    },
    {
      "inputs": [
        {
          "internalType": "address",
          "name": "to",
          "type": "address"
        },
        {
          "internalType": "uint256",
          "name": "tokenId",
          "type": "uint256"
        }
      ],
      "name": "approve",
      "outputs": [],
      "stateMutability": "nonpayable",
      "type": "function"
    },
    {
      "inputs": [
        {
          "internalType": "address",
          "name": "owner",
          "type": "address"
        }
      ],
      "name": "balanceOf",
      "outputs": [
        {
          "internalType": "uint256",
          "name": "",
          "type": "uint256"
        }
      ],
      "stateMutability": "view",
      "type": "function",
      "constant": true
    },
    {
      "inputs": [
        {
          "internalType": "uint256",
          "name": "tokenId",
          "type": "uint256"
        }
      ],
      "name": "getApproved",
      "outputs": [
        {
          "internalType": "address",
          "name": "",
          "type": "address"
        }
      ],
      "stateMutability": "view",
      "type": "function",
      "constant": true
    },
    {
      "inputs": [
        {
          "internalType": "address",
          "name": "owner",
          "type": "address"
        },
        {
          "internalType": "address",
          "name": "operator",
          "type": "address"
        }
      ],
      "name": "isApprovedForAll",
      "outputs": [
        {
          "internalType": "bool",
          "name": "",
          "type": "bool"
        }
      ],
      "stateMutability": "view",
      "type": "function",
      "constant": true
    },
    {
      "inputs": [],
      "name": "name",
      "outputs": [
        {
          "internalType": "string",
          "name": "",
          "type": "string"
        }
      ],
      "stateMutability": "view",
      "type": "function",
      "constant": true
    },
    {
      "inputs": [
        {
          "internalType": "uint256",
          "name": "tokenId",
          "type": "uint256"
        }
      ],
      "name": "ownerOf",
      "outputs": [
        {
          "internalType": "address",
          "name": "",
          "type": "address"
        }
      ],
      "stateMutability": "view",
      "type": "function",
      "constant": true
    },
    {
      "inputs": [
        {
          "internalType": "address",
          "name": "from",
          "type": "address"
        },
        {
          "internalType": "address",
          "name": "to",
          "type": "address"
        },
        {
          "internalType": "uint256",
          "name": "tokenId",
          "type": "uint256"
        }
      ],
      "name": "safeTransferFrom",
      "outputs": [],
      "stateMutability": "nonpayable",
      "type": "function"
    },
    {
      "inputs": [
        {
          "internalType": "address",
          "name": "from",
          "type": "address"
        },
        {
          "internalType": "address",
          "name": "to",
          "type": "address"
        },
        {
          "internalType": "uint256",
          "name": "tokenId",
          "type": "uint256"
        },
        {
          "internalType": "bytes",
          "name": "_data",
          "type": "bytes"
        }
      ],
      "name": "safeTransferFrom",
      "outputs": [],
      "stateMutability": "nonpayable",
      "type": "function"
    },
    {
      "inputs": [
        {
          "internalType": "address",
          "name": "operator",
          "type": "address"
        },
        {
          "internalType": "bool",
          "name": "approved",
          "type": "bool"
        }
      ],
      "name": "setApprovalForAll",
      "outputs": [],
      "stateMutability": "nonpayable",
      "type": "function"
    },
    {
      "inputs": [
        {
          "internalType": "bytes4",
          "name": "interfaceId",
          "type": "bytes4"
        }
      ],
      "name": "supportsInterface",
      "outputs": [
        {
          "internalType": "bool",
          "name": "",
          "type": "bool"
        }
      ],
      "stateMutability": "view",
      "type": "function",
      "constant": true
    },
    {
      "inputs": [],
      "name": "symbol",
      "outputs": [
        {
          "internalType": "string",
          "name": "",
          "type": "string"
        }
      ],
      "stateMutability": "view",
      "type": "function",
      "constant": true
    },
    {
      "inputs": [
        {
          "internalType": "uint256",
          "name": "tokenId",
          "type": "uint256"
        }
      ],
      "name": "tokenURI",
      "outputs": [
        {
          "internalType": "string",
          "name": "",
          "type": "string"
        }
      ],
      "stateMutability": "view",
      "type": "function",
      "constant": true
    },
    {
      "inputs": [
        {
          "internalType": "address",
          "name": "from",
          "type": "address"
        },
        {
          "internalType": "address",
          "name": "to",
          "type": "address"
        },
        {
          "internalType": "uint256",
          "name": "tokenId",
          "type": "uint256"
        }
      ],
      "name": "transferFrom",
      "outputs": [],
      "stateMutability": "nonpayable",
      "type": "function"
    },
    {
      "inputs": [
        {
          "internalType": "uint256",
          "name": "_lotto",
          "type": "uint256"
        },
        {
          "internalType": "uint32",
          "name": "_valore_CO2",
          "type": "uint32"
        },
        {
          "internalType": "string",
          "name": "_tipologia",
          "type": "string"
        },
        {
          "internalType": "address",
          "name": "_possessore",
          "type": "address"
        },
        {
          "internalType": "uint256[2]",
          "name": "_id_materia_prima",
          "type": "uint256[2]"
        },
        {
          "internalType": "string",
          "name": "_nome",
          "type": "string"
        }
      ],
      "name": "creaProdotto",
      "outputs": [
        {
          "internalType": "uint256",
          "name": "",
          "type": "uint256"
        }
      ],
      "stateMutability": "nonpayable",
      "type": "function"
    },
    {
      "inputs": [
        {
          "internalType": "uint256",
          "name": "_lotto",
          "type": "uint256"
        }
      ],
      "name": "setTipologiaUtilizzato",
      "outputs": [],
      "stateMutability": "nonpayable",
      "type": "function"
    },
    {
      "inputs": [],
      "name": "currentToken",
      "outputs": [
        {
          "internalType": "uint256",
          "name": "",
          "type": "uint256"
        }
      ],
      "stateMutability": "view",
      "type": "function",
      "constant": true
    },
    {
      "inputs": [
        {
          "internalType": "uint256",
          "name": "_id_prodotto",
          "type": "uint256"
        }
      ],
      "name": "getRisorsaByIdProdotto",
      "outputs": [
        {
          "components": [
            {
              "internalType": "string",
              "name": "nome",
              "type": "string"
            },
            {
              "internalType": "uint256",
              "name": "lotto",
              "type": "uint256"
            },
            {
              "internalType": "uint32",
              "name": "valore_CO2",
              "type": "uint32"
            },
            {
              "internalType": "string",
              "name": "tipologia",
              "type": "string"
            },
            {
              "internalType": "uint256[2]",
              "name": "id_materie_prime",
              "type": "uint256[2]"
            },
            {
              "internalType": "uint256",
              "name": "token",
              "type": "uint256"
            },
            {
              "internalType": "bool",
              "name": "exists",
              "type": "bool"
            }
          ],
          "internalType": "struct CarbonFootprint.Risorsa",
          "name": "",
          "type": "tuple"
        }
      ],
      "stateMutability": "view",
      "type": "function",
      "constant": true
    },
    {
      "inputs": [
        {
          "internalType": "uint256",
          "name": "_lotto",
          "type": "uint256"
        }
      ],
      "name": "getRisorsaByLotto",
      "outputs": [
        {
          "components": [
            {
              "internalType": "string",
              "name": "nome",
              "type": "string"
            },
            {
              "internalType": "uint256",
              "name": "lotto",
              "type": "uint256"
            },
            {
              "internalType": "uint32",
              "name": "valore_CO2",
              "type": "uint32"
            },
            {
              "internalType": "string",
              "name": "tipologia",
              "type": "string"
            },
            {
              "internalType": "uint256[2]",
              "name": "id_materie_prime",
              "type": "uint256[2]"
            },
            {
              "internalType": "uint256",
              "name": "token",
              "type": "uint256"
            },
            {
              "internalType": "bool",
              "name": "exists",
              "type": "bool"
            }
          ],
          "internalType": "struct CarbonFootprint.Risorsa",
          "name": "",
          "type": "tuple"
        }
      ],
      "stateMutability": "view",
      "type": "function",
      "constant": true
    }
  ],
  "bytecode": "0x60806040523480156200001157600080fd5b506040518060400160405280600f81526020017f436172626f6e466f6f747072696e7400000000000000000000000000000000008152506040518060400160405280600381526020017f4346500000000000000000000000000000000000000000000000000000000000815250816000908051906020019062000096929190620000b8565b508060019080519060200190620000af929190620000b8565b505050620001cd565b828054620000c69062000168565b90600052602060002090601f016020900481019282620000ea576000855562000136565b82601f106200010557805160ff191683800117855562000136565b8280016001018555821562000136579182015b828111156200013557825182559160200191906001019062000118565b5b50905062000145919062000149565b5090565b5b80821115620001645760008160009055506001016200014a565b5090565b600060028204905060018216806200018157607f821691505b602082108114156200019857620001976200019e565b5b50919050565b7f4e487b7100000000000000000000000000000000000000000000000000000000600052602260045260246000fd5b6133d680620001dd6000396000f3fe608060405234801561001057600080fd5b50600436106101165760003560e01c806378e1fa8f116100a2578063b0472bc011610071578063b0472bc014610305578063b3157ba614610335578063b88d4fde14610351578063c87b56dd1461036d578063e985e9c51461039d57610116565b806378e1fa8f1461027d578063836c081d146102ad57806395d89b41146102cb578063a22cb465146102e957610116565b806323b872dd116100e957806323b872dd146101b557806342842e0e146101d15780636352211e146101ed57806370a082311461021d57806372f74f431461024d57610116565b806301ffc9a71461011b57806306fdde031461014b578063081812fc14610169578063095ea7b314610199575b600080fd5b610135600480360381019061013091906122c8565b6103cd565b60405161014291906128ba565b60405180910390f35b6101536104af565b60405161016091906128d5565b60405180910390f35b610183600480360381019061017e919061231a565b610541565b6040516101909190612853565b60405180910390f35b6101b360048036038101906101ae919061228c565b6105c6565b005b6101cf60048036038101906101ca9190612186565b6106de565b005b6101eb60048036038101906101e69190612186565b61073e565b005b6102076004803603810190610202919061231a565b61075e565b6040516102149190612853565b60405180910390f35b61023760048036038101906102329190612121565b610810565b6040516102449190612ad9565b60405180910390f35b6102676004803603810190610262919061231a565b6108c8565b6040516102749190612ab7565b60405180910390f35b6102976004803603810190610292919061231a565b610ab3565b6040516102a49190612ab7565b60405180910390f35b6102b5610c9e565b6040516102c29190612ad9565b60405180910390f35b6102d3610caf565b6040516102e091906128d5565b60405180910390f35b61030360048036038101906102fe9190612250565b610d41565b005b61031f600480360381019061031a9190612343565b610d57565b60405161032c9190612ad9565b60405180910390f35b61034f600480360381019061034a919061231a565b610f52565b005b61036b600480360381019061036691906121d5565b611031565b005b6103876004803603810190610382919061231a565b611093565b60405161039491906128d5565b60405180910390f35b6103b760048036038101906103b2919061214a565b61113a565b6040516103c491906128ba565b60405180910390f35b60007f80ac58cd000000000000000000000000000000000000000000000000000000007bffffffffffffffffffffffffffffffffffffffffffffffffffffffff1916827bffffffffffffffffffffffffffffffffffffffffffffffffffffffff1916148061049857507f5b5e139f000000000000000000000000000000000000000000000000000000007bffffffffffffffffffffffffffffffffffffffffffffffffffffffff1916827bffffffffffffffffffffffffffffffffffffffffffffffffffffffff1916145b806104a857506104a7826111ce565b5b9050919050565b6060600080546104be90612da3565b80601f01602080910402602001604051908101604052809291908181526020018280546104ea90612da3565b80156105375780601f1061050c57610100808354040283529160200191610537565b820191906000526020600020905b81548152906001019060200180831161051a57829003601f168201915b5050505050905090565b600061054c82611238565b61058b576040517f08c379a000000000000000000000000000000000000000000000000000000000815260040161058290612a37565b60405180910390fd5b6004600083815260200190815260200160002060009054906101000a900473ffffffffffffffffffffffffffffffffffffffff169050919050565b60006105d18261075e565b90508073ffffffffffffffffffffffffffffffffffffffff168373ffffffffffffffffffffffffffffffffffffffff161415610642576040517f08c379a000000000000000000000000000000000000000000000000000000000815260040161063990612a77565b60405180910390fd5b8073ffffffffffffffffffffffffffffffffffffffff166106616112a4565b73ffffffffffffffffffffffffffffffffffffffff161480610690575061068f8161068a6112a4565b61113a565b5b6106cf576040517f08c379a00000000000000000000000000000000000000000000000000000000081526004016106c6906129b7565b60405180910390fd5b6106d983836112ac565b505050565b6106ef6106e96112a4565b82611365565b61072e576040517f08c379a000000000000000000000000000000000000000000000000000000000815260040161072590612a97565b60405180910390fd5b610739838383611443565b505050565b61075983838360405180602001604052806000815250611031565b505050565b6000806002600084815260200190815260200160002060009054906101000a900473ffffffffffffffffffffffffffffffffffffffff169050600073ffffffffffffffffffffffffffffffffffffffff168173ffffffffffffffffffffffffffffffffffffffff161415610807576040517f08c379a00000000000000000000000000000000000000000000000000000000081526004016107fe906129f7565b60405180910390fd5b80915050919050565b60008073ffffffffffffffffffffffffffffffffffffffff168273ffffffffffffffffffffffffffffffffffffffff161415610881576040517f08c379a0000000000000000000000000000000000000000000000000000000008152600401610878906129d7565b60405180910390fd5b600360008373ffffffffffffffffffffffffffffffffffffffff1673ffffffffffffffffffffffffffffffffffffffff168152602001908152602001600020549050919050565b6108d0611df9565b600760008381526020019081526020016000206040518060e00160405290816000820180546108fe90612da3565b80601f016020809104026020016040519081016040528092919081815260200182805461092a90612da3565b80156109775780601f1061094c57610100808354040283529160200191610977565b820191906000526020600020905b81548152906001019060200180831161095a57829003601f168201915b50505050508152602001600182015481526020016002820160009054906101000a900463ffffffff1663ffffffff1663ffffffff1681526020016003820180546109c090612da3565b80601f01602080910402602001604051908101604052809291908181526020018280546109ec90612da3565b8015610a395780601f10610a0e57610100808354040283529160200191610a39565b820191906000526020600020905b815481529060010190602001808311610a1c57829003601f168201915b5050505050815260200160048201600280602002604051908101604052809291908260028015610a7e576020028201915b815481526020019060010190808311610a6a575b50505050508152602001600682015481526020016007820160009054906101000a900460ff1615151515815250509050919050565b610abb611df9565b600860008381526020019081526020016000206040518060e0016040529081600082018054610ae990612da3565b80601f0160208091040260200160405190810160405280929190818152602001828054610b1590612da3565b8015610b625780601f10610b3757610100808354040283529160200191610b62565b820191906000526020600020905b815481529060010190602001808311610b4557829003601f168201915b50505050508152602001600182015481526020016002820160009054906101000a900463ffffffff1663ffffffff1663ffffffff168152602001600382018054610bab90612da3565b80601f0160208091040260200160405190810160405280929190818152602001828054610bd790612da3565b8015610c245780601f10610bf957610100808354040283529160200191610c24565b820191906000526020600020905b815481529060010190602001808311610c0757829003601f168201915b5050505050815260200160048201600280602002604051908101604052809291908260028015610c69576020028201915b815481526020019060010190808311610c55575b50505050508152602001600682015481526020016007820160009054906101000a900460ff1615151515815250509050919050565b6000610caa60066116aa565b905090565b606060018054610cbe90612da3565b80601f0160208091040260200160405190810160405280929190818152602001828054610cea90612da3565b8015610d375780601f10610d0c57610100808354040283529160200191610d37565b820191906000526020600020905b815481529060010190602001808311610d1a57829003601f168201915b5050505050905090565b610d53610d4c6112a4565b83836116b8565b5050565b6000610d636006611825565b6000610d6f60066116aa565b905060006040518060e001604052808581526020018a81526020018963ffffffff16815260200188815260200186815260200183815260200160011515815250905080600760008b81526020019081526020016000206000820151816000019080519060200190610de1929190611e44565b506020820151816001015560408201518160020160006101000a81548163ffffffff021916908363ffffffff1602179055506060820151816003019080519060200190610e2f929190611e44565b50608082015181600401906002610e47929190611eca565b5060a0820151816006015560c08201518160070160006101000a81548160ff02191690831515021790555090505080600860008481526020019081526020016000206000820151816000019080519060200190610ea5929190611e44565b506020820151816001015560408201518160020160006101000a81548163ffffffff021916908363ffffffff1602179055506060820151816003019080519060200190610ef3929190611e44565b50608082015181600401906002610f0b929190611eca565b5060a0820151816006015560c08201518160070160006101000a81548160ff021916908315150217905550905050610f43868361183b565b81925050509695505050505050565b6040518060400160405280600a81526020017f7574696c697a7a61746100000000000000000000000000000000000000000000815250600760008381526020019081526020016000206003019080519060200190610fb1929190611e44565b506000600760008381526020019081526020016000206006015490506040518060400160405280600a81526020017f7574696c697a7a6174610000000000000000000000000000000000000000000081525060086000838152602001908152602001600020600301908051906020019061102c929190611e44565b505050565b61104261103c6112a4565b83611365565b611081576040517f08c379a000000000000000000000000000000000000000000000000000000000815260040161107890612a97565b60405180910390fd5b61108d84848484611a15565b50505050565b606061109e82611238565b6110dd576040517f08c379a00000000000000000000000000000000000000000000000000000000081526004016110d490612a57565b60405180910390fd5b60006110e7611a71565b905060008151116111075760405180602001604052806000815250611132565b8061111184611a88565b60405160200161112292919061282f565b6040516020818303038152906040525b915050919050565b6000600560008473ffffffffffffffffffffffffffffffffffffffff1673ffffffffffffffffffffffffffffffffffffffff16815260200190815260200160002060008373ffffffffffffffffffffffffffffffffffffffff1673ffffffffffffffffffffffffffffffffffffffff16815260200190815260200160002060009054906101000a900460ff16905092915050565b60007f01ffc9a7000000000000000000000000000000000000000000000000000000007bffffffffffffffffffffffffffffffffffffffffffffffffffffffff1916827bffffffffffffffffffffffffffffffffffffffffffffffffffffffff1916149050919050565b60008073ffffffffffffffffffffffffffffffffffffffff166002600084815260200190815260200160002060009054906101000a900473ffffffffffffffffffffffffffffffffffffffff1673ffffffffffffffffffffffffffffffffffffffff1614159050919050565b600033905090565b816004600083815260200190815260200160002060006101000a81548173ffffffffffffffffffffffffffffffffffffffff021916908373ffffffffffffffffffffffffffffffffffffffff160217905550808273ffffffffffffffffffffffffffffffffffffffff1661131f8361075e565b73ffffffffffffffffffffffffffffffffffffffff167f8c5be1e5ebec7d5bd14f71427d1e84f3dd0314c0f7b2291e5b200ac8c7c3b92560405160405180910390a45050565b600061137082611238565b6113af576040517f08c379a00000000000000000000000000000000000000000000000000000000081526004016113a690612997565b60405180910390fd5b60006113ba8361075e565b90508073ffffffffffffffffffffffffffffffffffffffff168473ffffffffffffffffffffffffffffffffffffffff16148061142957508373ffffffffffffffffffffffffffffffffffffffff1661141184610541565b73ffffffffffffffffffffffffffffffffffffffff16145b8061143a5750611439818561113a565b5b91505092915050565b8273ffffffffffffffffffffffffffffffffffffffff166114638261075e565b73ffffffffffffffffffffffffffffffffffffffff16146114b9576040517f08c379a00000000000000000000000000000000000000000000000000000000081526004016114b090612917565b60405180910390fd5b600073ffffffffffffffffffffffffffffffffffffffff168273ffffffffffffffffffffffffffffffffffffffff161415611529576040517f08c379a000000000000000000000000000000000000000000000000000000000815260040161152090612957565b60405180910390fd5b611534838383611c35565b61153f6000826112ac565b6001600360008573ffffffffffffffffffffffffffffffffffffffff1673ffffffffffffffffffffffffffffffffffffffff168152602001908152602001600020600082825461158f9190612ca9565b925050819055506001600360008473ffffffffffffffffffffffffffffffffffffffff1673ffffffffffffffffffffffffffffffffffffffff16815260200190815260200160002060008282546115e69190612c22565b92505081905550816002600083815260200190815260200160002060006101000a81548173ffffffffffffffffffffffffffffffffffffffff021916908373ffffffffffffffffffffffffffffffffffffffff160217905550808273ffffffffffffffffffffffffffffffffffffffff168473ffffffffffffffffffffffffffffffffffffffff167fddf252ad1be2c89b69c2b068fc378daa952ba7f163c4a11628f55a4df523b3ef60405160405180910390a46116a5838383611c3a565b505050565b600081600001549050919050565b8173ffffffffffffffffffffffffffffffffffffffff168373ffffffffffffffffffffffffffffffffffffffff161415611727576040517f08c379a000000000000000000000000000000000000000000000000000000000815260040161171e90612977565b60405180910390fd5b80600560008573ffffffffffffffffffffffffffffffffffffffff1673ffffffffffffffffffffffffffffffffffffffff16815260200190815260200160002060008473ffffffffffffffffffffffffffffffffffffffff1673ffffffffffffffffffffffffffffffffffffffff16815260200190815260200160002060006101000a81548160ff0219169083151502179055508173ffffffffffffffffffffffffffffffffffffffff168373ffffffffffffffffffffffffffffffffffffffff167f17307eab39ab6107e8899845ad3d59bd9653f200f220920489ca2b5937696c318360405161181891906128ba565b60405180910390a3505050565b6001816000016000828254019250508190555050565b600073ffffffffffffffffffffffffffffffffffffffff168273ffffffffffffffffffffffffffffffffffffffff1614156118ab576040517f08c379a00000000000000000000000000000000000000000000000000000000081526004016118a290612a17565b60405180910390fd5b6118b481611238565b156118f4576040517f08c379a00000000000000000000000000000000000000000000000000000000081526004016118eb90612937565b60405180910390fd5b61190060008383611c35565b6001600360008473ffffffffffffffffffffffffffffffffffffffff1673ffffffffffffffffffffffffffffffffffffffff16815260200190815260200160002060008282546119509190612c22565b92505081905550816002600083815260200190815260200160002060006101000a81548173ffffffffffffffffffffffffffffffffffffffff021916908373ffffffffffffffffffffffffffffffffffffffff160217905550808273ffffffffffffffffffffffffffffffffffffffff16600073ffffffffffffffffffffffffffffffffffffffff167fddf252ad1be2c89b69c2b068fc378daa952ba7f163c4a11628f55a4df523b3ef60405160405180910390a4611a1160008383611c3a565b5050565b611a20848484611443565b611a2c84848484611c3f565b611a6b576040517f08c379a0000000000000000000000000000000000000000000000000000000008152600401611a62906128f7565b60405180910390fd5b50505050565b606060405180602001604052806000815250905090565b60606000821415611ad0576040518060400160405280600181526020017f30000000000000000000000000000000000000000000000000000000000000008152509050611c30565b600082905060005b60008214611b02578080611aeb90612e06565b915050600a82611afb9190612c78565b9150611ad8565b60008167ffffffffffffffff811115611b44577f4e487b7100000000000000000000000000000000000000000000000000000000600052604160045260246000fd5b6040519080825280601f01601f191660200182016040528015611b765781602001600182028036833780820191505090505b5090505b60008514611c2957600182611b8f9190612ca9565b9150600a85611b9e9190612e4f565b6030611baa9190612c22565b60f81b818381518110611be6577f4e487b7100000000000000000000000000000000000000000000000000000000600052603260045260246000fd5b60200101907effffffffffffffffffffffffffffffffffffffffffffffffffffffffffffff1916908160001a905350600a85611c229190612c78565b9450611b7a565b8093505050505b919050565b505050565b505050565b6000611c608473ffffffffffffffffffffffffffffffffffffffff16611dd6565b15611dc9578373ffffffffffffffffffffffffffffffffffffffff1663150b7a02611c896112a4565b8786866040518563ffffffff1660e01b8152600401611cab949392919061286e565b602060405180830381600087803b158015611cc557600080fd5b505af1925050508015611cf657506040513d601f19601f82011682018060405250810190611cf391906122f1565b60015b611d79573d8060008114611d26576040519150601f19603f3d011682016040523d82523d6000602084013e611d2b565b606091505b50600081511415611d71576040517f08c379a0000000000000000000000000000000000000000000000000000000008152600401611d68906128f7565b60405180910390fd5b805181602001fd5b63150b7a0260e01b7bffffffffffffffffffffffffffffffffffffffffffffffffffffffff1916817bffffffffffffffffffffffffffffffffffffffffffffffffffffffff191614915050611dce565b600190505b949350505050565b6000808273ffffffffffffffffffffffffffffffffffffffff163b119050919050565b6040518060e001604052806060815260200160008152602001600063ffffffff16815260200160608152602001611e2e611f0a565b8152602001600081526020016000151581525090565b828054611e5090612da3565b90600052602060002090601f016020900481019282611e725760008555611eb9565b82601f10611e8b57805160ff1916838001178555611eb9565b82800160010185558215611eb9579182015b82811115611eb8578251825591602001919060010190611e9d565b5b509050611ec69190611f2c565b5090565b8260028101928215611ef9579160200282015b82811115611ef8578251825591602001919060010190611edd565b5b509050611f069190611f2c565b5090565b6040518060400160405280600290602082028036833780820191505090505090565b5b80821115611f45576000816000905550600101611f2d565b5090565b6000611f5c611f5784612b19565b612af4565b90508082856020860282011115611f7257600080fd5b60005b85811015611fa25781611f8888826120f7565b845260208401935060208301925050600181019050611f75565b5050509392505050565b6000611fbf611fba84612b3f565b612af4565b905082815260208101848484011115611fd757600080fd5b611fe2848285612d61565b509392505050565b6000611ffd611ff884612b70565b612af4565b90508281526020810184848401111561201557600080fd5b612020848285612d61565b509392505050565b6000813590506120378161332d565b92915050565b600082601f83011261204e57600080fd5b600261205b848285611f49565b91505092915050565b60008135905061207381613344565b92915050565b6000813590506120888161335b565b92915050565b60008151905061209d8161335b565b92915050565b600082601f8301126120b457600080fd5b81356120c4848260208601611fac565b91505092915050565b600082601f8301126120de57600080fd5b81356120ee848260208601611fea565b91505092915050565b60008135905061210681613372565b92915050565b60008135905061211b81613389565b92915050565b60006020828403121561213357600080fd5b600061214184828501612028565b91505092915050565b6000806040838503121561215d57600080fd5b600061216b85828601612028565b925050602061217c85828601612028565b9150509250929050565b60008060006060848603121561219b57600080fd5b60006121a986828701612028565b93505060206121ba86828701612028565b92505060406121cb868287016120f7565b9150509250925092565b600080600080608085870312156121eb57600080fd5b60006121f987828801612028565b945050602061220a87828801612028565b935050604061221b878288016120f7565b925050606085013567ffffffffffffffff81111561223857600080fd5b612244878288016120a3565b91505092959194509250565b6000806040838503121561226357600080fd5b600061227185828601612028565b925050602061228285828601612064565b9150509250929050565b6000806040838503121561229f57600080fd5b60006122ad85828601612028565b92505060206122be858286016120f7565b9150509250929050565b6000602082840312156122da57600080fd5b60006122e884828501612079565b91505092915050565b60006020828403121561230357600080fd5b60006123118482850161208e565b91505092915050565b60006020828403121561232c57600080fd5b600061233a848285016120f7565b91505092915050565b60008060008060008060e0878903121561235c57600080fd5b600061236a89828a016120f7565b965050602061237b89828a0161210c565b955050604087013567ffffffffffffffff81111561239857600080fd5b6123a489828a016120cd565b94505060606123b589828a01612028565b93505060806123c689828a0161203d565b92505060c087013567ffffffffffffffff8111156123e357600080fd5b6123ef89828a016120cd565b9150509295509295509295565b60006124088383612802565b60208301905092915050565b61241d81612cdd565b82525050565b61242c81612bab565b6124368184612bd9565b925061244182612ba1565b8060005b8381101561247257815161245987826123fc565b965061246483612bcc565b925050600181019050612445565b505050505050565b61248381612cef565b82525050565b61249281612cef565b82525050565b60006124a382612bb6565b6124ad8185612be4565b93506124bd818560208601612d70565b6124c681612f3c565b840191505092915050565b60006124dc82612bc1565b6124e68185612bf5565b93506124f6818560208601612d70565b6124ff81612f3c565b840191505092915050565b600061251582612bc1565b61251f8185612c06565b935061252f818560208601612d70565b61253881612f3c565b840191505092915050565b600061254e82612bc1565b6125588185612c17565b9350612568818560208601612d70565b80840191505092915050565b6000612581603283612c06565b915061258c82612f4d565b604082019050919050565b60006125a4602583612c06565b91506125af82612f9c565b604082019050919050565b60006125c7601c83612c06565b91506125d282612feb565b602082019050919050565b60006125ea602483612c06565b91506125f582613014565b604082019050919050565b600061260d601983612c06565b915061261882613063565b602082019050919050565b6000612630602c83612c06565b915061263b8261308c565b604082019050919050565b6000612653603883612c06565b915061265e826130db565b604082019050919050565b6000612676602a83612c06565b91506126818261312a565b604082019050919050565b6000612699602983612c06565b91506126a482613179565b604082019050919050565b60006126bc602083612c06565b91506126c7826131c8565b602082019050919050565b60006126df602c83612c06565b91506126ea826131f1565b604082019050919050565b6000612702602f83612c06565b915061270d82613240565b604082019050919050565b6000612725602183612c06565b91506127308261328f565b604082019050919050565b6000612748603183612c06565b9150612753826132de565b604082019050919050565b600061010083016000830151848203600086015261277c82826124d1565b91505060208301516127916020860182612802565b5060408301516127a46040860182612820565b50606083015184820360608601526127bc82826124d1565b91505060808301516127d16080860182612423565b5060a08301516127e460c0860182612802565b5060c08301516127f760e086018261247a565b508091505092915050565b61280b81612d47565b82525050565b61281a81612d47565b82525050565b61282981612d51565b82525050565b600061283b8285612543565b91506128478284612543565b91508190509392505050565b60006020820190506128686000830184612414565b92915050565b60006080820190506128836000830187612414565b6128906020830186612414565b61289d6040830185612811565b81810360608301526128af8184612498565b905095945050505050565b60006020820190506128cf6000830184612489565b92915050565b600060208201905081810360008301526128ef818461250a565b905092915050565b6000602082019050818103600083015261291081612574565b9050919050565b6000602082019050818103600083015261293081612597565b9050919050565b60006020820190508181036000830152612950816125ba565b9050919050565b60006020820190508181036000830152612970816125dd565b9050919050565b6000602082019050818103600083015261299081612600565b9050919050565b600060208201905081810360008301526129b081612623565b9050919050565b600060208201905081810360008301526129d081612646565b9050919050565b600060208201905081810360008301526129f081612669565b9050919050565b60006020820190508181036000830152612a108161268c565b9050919050565b60006020820190508181036000830152612a30816126af565b9050919050565b60006020820190508181036000830152612a50816126d2565b9050919050565b60006020820190508181036000830152612a70816126f5565b9050919050565b60006020820190508181036000830152612a9081612718565b9050919050565b60006020820190508181036000830152612ab08161273b565b9050919050565b60006020820190508181036000830152612ad1818461275e565b905092915050565b6000602082019050612aee6000830184612811565b92915050565b6000612afe612b0f565b9050612b0a8282612dd5565b919050565b6000604051905090565b600067ffffffffffffffff821115612b3457612b33612f0d565b5b602082029050919050565b600067ffffffffffffffff821115612b5a57612b59612f0d565b5b612b6382612f3c565b9050602081019050919050565b600067ffffffffffffffff821115612b8b57612b8a612f0d565b5b612b9482612f3c565b9050602081019050919050565b6000819050919050565b600060029050919050565b600081519050919050565b600081519050919050565b6000602082019050919050565b600081905092915050565b600082825260208201905092915050565b600082825260208201905092915050565b600082825260208201905092915050565b600081905092915050565b6000612c2d82612d47565b9150612c3883612d47565b9250827fffffffffffffffffffffffffffffffffffffffffffffffffffffffffffffffff03821115612c6d57612c6c612e80565b5b828201905092915050565b6000612c8382612d47565b9150612c8e83612d47565b925082612c9e57612c9d612eaf565b5b828204905092915050565b6000612cb482612d47565b9150612cbf83612d47565b925082821015612cd257612cd1612e80565b5b828203905092915050565b6000612ce882612d27565b9050919050565b60008115159050919050565b60007fffffffff0000000000000000000000000000000000000000000000000000000082169050919050565b600073ffffffffffffffffffffffffffffffffffffffff82169050919050565b6000819050919050565b600063ffffffff82169050919050565b82818337600083830152505050565b60005b83811015612d8e578082015181840152602081019050612d73565b83811115612d9d576000848401525b50505050565b60006002820490506001821680612dbb57607f821691505b60208210811415612dcf57612dce612ede565b5b50919050565b612dde82612f3c565b810181811067ffffffffffffffff82111715612dfd57612dfc612f0d565b5b80604052505050565b6000612e1182612d47565b91507fffffffffffffffffffffffffffffffffffffffffffffffffffffffffffffffff821415612e4457612e43612e80565b5b600182019050919050565b6000612e5a82612d47565b9150612e6583612d47565b925082612e7557612e74612eaf565b5b828206905092915050565b7f4e487b7100000000000000000000000000000000000000000000000000000000600052601160045260246000fd5b7f4e487b7100000000000000000000000000000000000000000000000000000000600052601260045260246000fd5b7f4e487b7100000000000000000000000000000000000000000000000000000000600052602260045260246000fd5b7f4e487b7100000000000000000000000000000000000000000000000000000000600052604160045260246000fd5b6000601f19601f8301169050919050565b7f4552433732313a207472616e7366657220746f206e6f6e20455243373231526560008201527f63656976657220696d706c656d656e7465720000000000000000000000000000602082015250565b7f4552433732313a207472616e736665722066726f6d20696e636f72726563742060008201527f6f776e6572000000000000000000000000000000000000000000000000000000602082015250565b7f4552433732313a20746f6b656e20616c7265616479206d696e74656400000000600082015250565b7f4552433732313a207472616e7366657220746f20746865207a65726f2061646460008201527f7265737300000000000000000000000000000000000000000000000000000000602082015250565b7f4552433732313a20617070726f766520746f2063616c6c657200000000000000600082015250565b7f4552433732313a206f70657261746f7220717565727920666f72206e6f6e657860008201527f697374656e7420746f6b656e0000000000000000000000000000000000000000602082015250565b7f4552433732313a20617070726f76652063616c6c6572206973206e6f74206f7760008201527f6e6572206e6f7220617070726f76656420666f7220616c6c0000000000000000602082015250565b7f4552433732313a2062616c616e636520717565727920666f7220746865207a6560008201527f726f206164647265737300000000000000000000000000000000000000000000602082015250565b7f4552433732313a206f776e657220717565727920666f72206e6f6e657869737460008201527f656e7420746f6b656e0000000000000000000000000000000000000000000000602082015250565b7f4552433732313a206d696e7420746f20746865207a65726f2061646472657373600082015250565b7f4552433732313a20617070726f76656420717565727920666f72206e6f6e657860008201527f697374656e7420746f6b656e0000000000000000000000000000000000000000602082015250565b7f4552433732314d657461646174613a2055524920717565727920666f72206e6f60008201527f6e6578697374656e7420746f6b656e0000000000000000000000000000000000602082015250565b7f4552433732313a20617070726f76616c20746f2063757272656e74206f776e6560008201527f7200000000000000000000000000000000000000000000000000000000000000602082015250565b7f4552433732313a207472616e736665722063616c6c6572206973206e6f74206f60008201527f776e6572206e6f7220617070726f766564000000000000000000000000000000602082015250565b61333681612cdd565b811461334157600080fd5b50565b61334d81612cef565b811461335857600080fd5b50565b61336481612cfb565b811461336f57600080fd5b50565b61337b81612d47565b811461338657600080fd5b50565b61339281612d51565b811461339d57600080fd5b5056fea26469706673582212209a33be16d4423639699e98779163ffd970478c894dcc456d12a864c4fa182a0a64736f6c63430008010033",
  "immutableReferences": {},
  "source": "// SPDX-License-Identifier: MIT\r\n\r\npragma solidity>=0.5.16;\r\n\r\nimport \"@openzeppelin/contracts/token/ERC721/ERC721.sol\";\r\nimport \"@openzeppelin/contracts/utils/Counters.sol\";\r\n\r\n\r\ncontract CarbonFootprint is ERC721 {\r\n\r\n\r\n    //numero massimo di attivit per prodotto\r\n    uint8 constant MATERIE_MASSIME = 2;\r\n\r\n    // per tenere il conteggio dei token prodotti fino ad ora\r\n    using Counters for Counters.Counter;\r\n    Counters.Counter private _tokenIds;\r\n\r\n    // struttura che contiene le informazioni della risorsa\r\n    struct Risorsa {\r\n        string nome;\r\n        uint256 lotto;\r\n        uint32 valore_CO2; \r\n        string tipologia;\r\n        uint256[MATERIE_MASSIME] id_materie_prime;\r\n        uint256 token;\r\n        bool exists;\r\n    }\r\n\r\n    // per ottenere la risorsa in base al lotto ed in base al token\r\n    mapping(uint256=>Risorsa) private risorsaByLotto; \r\n    mapping(uint256=>Risorsa) private risorsaById_prodotto; \r\n\r\n    constructor () ERC721(\"CarbonFootprint\", \"CFP\"){\r\n    }\r\n\r\n\r\n\r\n    //tale funzione crea il certificato per un prodotto (sia materia prima che trasformato)\r\n    function creaProdotto(\r\n        uint256 _lotto, uint32 _valore_CO2, string memory _tipologia, \r\n        address _possessore, uint256[MATERIE_MASSIME] memory _id_materia_prima, string memory _nome\r\n        )\r\n        public returns(uint256){\r\n\r\n\r\n        _tokenIds.increment();\r\n        uint256 id_nuovo_prodotto = _tokenIds.current();\r\n\r\n        Risorsa memory risorsa = Risorsa(\r\n            _nome,\r\n            _lotto,\r\n            _valore_CO2,\r\n            _tipologia,\r\n            _id_materia_prima,\r\n            id_nuovo_prodotto,\r\n            true\r\n        );\r\n\r\n\r\n        risorsaByLotto[_lotto] = risorsa;\r\n        risorsaById_prodotto[id_nuovo_prodotto] = risorsa;\r\n        _mint(_possessore, id_nuovo_prodotto);\r\n\r\n        return id_nuovo_prodotto;\r\n    }\r\n\r\n\r\n    function setTipologiaUtilizzato(\r\n        uint256 _lotto\r\n    ) external {\r\n\r\n        risorsaByLotto[_lotto].tipologia = \"utilizzata\";\r\n        uint256 token = risorsaByLotto[_lotto].token;\r\n        risorsaById_prodotto[token].tipologia = \"utilizzata\";\r\n\r\n    }\r\n\r\n\r\n\r\n\r\n\r\n    // restituisce il numero di token prodotti fino ad ora\r\n    function currentToken(\r\n    ) external view returns(uint256) {\r\n\r\n        return _tokenIds.current();\r\n\r\n    }\r\n\r\n\r\n    // restituisce la risorsa a partire dall'id\r\n    function getRisorsaByIdProdotto(\r\n        uint256 _id_prodotto\r\n    ) external view returns(Risorsa memory) {\r\n\r\n        return risorsaById_prodotto[_id_prodotto];\r\n\r\n    }\r\n\r\n\r\n    // restituisce la risorsa a partire dal lotto\r\n    function getRisorsaByLotto(\r\n        uint256 _lotto\r\n    ) external view returns(Risorsa memory) {\r\n\r\n        return risorsaByLotto[_lotto];\r\n          \r\n    }\r\n\r\n\r\n}",
  "sourcePath": "C:\\Windows\\System32\\network\\3-nodes-istanbul-tessera-docker-compose\\contracts\\CarbonFootprint.sol",
  "compiler": {
    "name": "solc",
    "version": "0.8.1+commit.df193b15.Emscripten.clang"
  },
  "schemaVersion": "3.4.1",
  "updatedAt": "2022-02-17T16:01:17.574Z",
  "networkType": "quorum",
  "devdoc": {
    "kind": "dev",
    "methods": {
      "approve(address,uint256)": {
        "details": "See {IERC721-approve}."
      },
      "balanceOf(address)": {
        "details": "See {IERC721-balanceOf}."
      },
      "getApproved(uint256)": {
        "details": "See {IERC721-getApproved}."
      },
      "isApprovedForAll(address,address)": {
        "details": "See {IERC721-isApprovedForAll}."
      },
      "name()": {
        "details": "See {IERC721Metadata-name}."
      },
      "ownerOf(uint256)": {
        "details": "See {IERC721-ownerOf}."
      },
      "safeTransferFrom(address,address,uint256)": {
        "details": "See {IERC721-safeTransferFrom}."
      },
      "safeTransferFrom(address,address,uint256,bytes)": {
        "details": "See {IERC721-safeTransferFrom}."
      },
      "setApprovalForAll(address,bool)": {
        "details": "See {IERC721-setApprovalForAll}."
      },
      "supportsInterface(bytes4)": {
        "details": "See {IERC165-supportsInterface}."
      },
      "symbol()": {
        "details": "See {IERC721Metadata-symbol}."
      },
      "tokenURI(uint256)": {
        "details": "See {IERC721Metadata-tokenURI}."
      },
      "transferFrom(address,address,uint256)": {
        "details": "See {IERC721-transferFrom}."
      }
    },
    "version": 1
  },
  "userdoc": {
    "kind": "user",
    "methods": {},
    "version": 1
  }
}