{
  "contractName": "CarbonFootprint",
  "abi": [
    {
      "inputs": [],
      "stateMutability": "nonpayable",
      "type": "constructor"
    },
    {
      "anonymous": false,
      "inputs": [
        {
          "indexed": true,
          "internalType": "address",
          "name": "owner",
          "type": "address"
        },
        {
          "indexed": true,
          "internalType": "address",
          "name": "approved",
          "type": "address"
        },
        {
          "indexed": true,
          "internalType": "uint256",
          "name": "tokenId",
          "type": "uint256"
        }
      ],
      "name": "Approval",
      "type": "event"
    },
    {
      "anonymous": false,
      "inputs": [
        {
          "indexed": true,
          "internalType": "address",
          "name": "owner",
          "type": "address"
        },
        {
          "indexed": true,
          "internalType": "address",
          "name": "operator",
          "type": "address"
        },
        {
          "indexed": false,
          "internalType": "bool",
          "name": "approved",
          "type": "bool"
        }
      ],
      "name": "ApprovalForAll",
      "type": "event"
    },
    {
      "anonymous": false,
      "inputs": [
        {
          "indexed": true,
          "internalType": "address",
          "name": "from",
          "type": "address"
        },
        {
          "indexed": true,
          "internalType": "address",
          "name": "to",
          "type": "address"
        },
        {
          "indexed": true,
          "internalType": "uint256",
          "name": "tokenId",
          "type": "uint256"
        }
      ],
      "name": "Transfer",
      "type": "event"
    },
    {
      "inputs": [
        {
          "internalType": "address",
          "name": "to",
          "type": "address"
        },
        {
          "internalType": "uint256",
          "name": "tokenId",
          "type": "uint256"
        }
      ],
      "name": "approve",
      "outputs": [],
      "stateMutability": "nonpayable",
      "type": "function"
    },
    {
      "inputs": [
        {
          "internalType": "address",
          "name": "owner",
          "type": "address"
        }
      ],
      "name": "balanceOf",
      "outputs": [
        {
          "internalType": "uint256",
          "name": "",
          "type": "uint256"
        }
      ],
      "stateMutability": "view",
      "type": "function",
      "constant": true
    },
    {
      "inputs": [
        {
          "internalType": "uint256",
          "name": "tokenId",
          "type": "uint256"
        }
      ],
      "name": "getApproved",
      "outputs": [
        {
          "internalType": "address",
          "name": "",
          "type": "address"
        }
      ],
      "stateMutability": "view",
      "type": "function",
      "constant": true
    },
    {
      "inputs": [
        {
          "internalType": "address",
          "name": "owner",
          "type": "address"
        },
        {
          "internalType": "address",
          "name": "operator",
          "type": "address"
        }
      ],
      "name": "isApprovedForAll",
      "outputs": [
        {
          "internalType": "bool",
          "name": "",
          "type": "bool"
        }
      ],
      "stateMutability": "view",
      "type": "function",
      "constant": true
    },
    {
      "inputs": [],
      "name": "name",
      "outputs": [
        {
          "internalType": "string",
          "name": "",
          "type": "string"
        }
      ],
      "stateMutability": "view",
      "type": "function",
      "constant": true
    },
    {
      "inputs": [
        {
          "internalType": "uint256",
          "name": "tokenId",
          "type": "uint256"
        }
      ],
      "name": "ownerOf",
      "outputs": [
        {
          "internalType": "address",
          "name": "",
          "type": "address"
        }
      ],
      "stateMutability": "view",
      "type": "function",
      "constant": true
    },
    {
      "inputs": [
        {
          "internalType": "address",
          "name": "from",
          "type": "address"
        },
        {
          "internalType": "address",
          "name": "to",
          "type": "address"
        },
        {
          "internalType": "uint256",
          "name": "tokenId",
          "type": "uint256"
        }
      ],
      "name": "safeTransferFrom",
      "outputs": [],
      "stateMutability": "nonpayable",
      "type": "function"
    },
    {
      "inputs": [
        {
          "internalType": "address",
          "name": "from",
          "type": "address"
        },
        {
          "internalType": "address",
          "name": "to",
          "type": "address"
        },
        {
          "internalType": "uint256",
          "name": "tokenId",
          "type": "uint256"
        },
        {
          "internalType": "bytes",
          "name": "_data",
          "type": "bytes"
        }
      ],
      "name": "safeTransferFrom",
      "outputs": [],
      "stateMutability": "nonpayable",
      "type": "function"
    },
    {
      "inputs": [
        {
          "internalType": "address",
          "name": "operator",
          "type": "address"
        },
        {
          "internalType": "bool",
          "name": "approved",
          "type": "bool"
        }
      ],
      "name": "setApprovalForAll",
      "outputs": [],
      "stateMutability": "nonpayable",
      "type": "function"
    },
    {
      "inputs": [
        {
          "internalType": "bytes4",
          "name": "interfaceId",
          "type": "bytes4"
        }
      ],
      "name": "supportsInterface",
      "outputs": [
        {
          "internalType": "bool",
          "name": "",
          "type": "bool"
        }
      ],
      "stateMutability": "view",
      "type": "function",
      "constant": true
    },
    {
      "inputs": [],
      "name": "symbol",
      "outputs": [
        {
          "internalType": "string",
          "name": "",
          "type": "string"
        }
      ],
      "stateMutability": "view",
      "type": "function",
      "constant": true
    },
    {
      "inputs": [
        {
          "internalType": "uint256",
          "name": "tokenId",
          "type": "uint256"
        }
      ],
      "name": "tokenURI",
      "outputs": [
        {
          "internalType": "string",
          "name": "",
          "type": "string"
        }
      ],
      "stateMutability": "view",
      "type": "function",
      "constant": true
    },
    {
      "inputs": [
        {
          "internalType": "uint256",
          "name": "_lotto",
          "type": "uint256"
        },
        {
          "internalType": "uint32",
          "name": "_valore_CO2",
          "type": "uint32"
        },
        {
          "internalType": "string[]",
          "name": "_nomi_attivita",
          "type": "string[]"
        },
        {
          "internalType": "uint32[]",
          "name": "_valori_CO2_attivita",
          "type": "uint32[]"
        },
        {
          "internalType": "string",
          "name": "_tipologia",
          "type": "string"
        },
        {
          "internalType": "address",
          "name": "_possessore",
          "type": "address"
        },
        {
          "internalType": "uint256[]",
          "name": "_lotti_materie_prime",
          "type": "uint256[]"
        },
        {
          "internalType": "string",
          "name": "_nome",
          "type": "string"
        }
      ],
      "name": "creaProdotto",
      "outputs": [
        {
          "internalType": "uint256",
          "name": "",
          "type": "uint256"
        }
      ],
      "stateMutability": "nonpayable",
      "type": "function"
    },
    {
      "inputs": [
        {
          "internalType": "uint256",
          "name": "_lotto",
          "type": "uint256"
        }
      ],
      "name": "setTipologiaUtilizzato",
      "outputs": [],
      "stateMutability": "nonpayable",
      "type": "function"
    },
    {
      "inputs": [],
      "name": "currentToken",
      "outputs": [
        {
          "internalType": "uint256",
          "name": "",
          "type": "uint256"
        }
      ],
      "stateMutability": "view",
      "type": "function",
      "constant": true
    },
    {
      "inputs": [
        {
          "internalType": "uint256",
          "name": "_token_prodotto",
          "type": "uint256"
        }
      ],
      "name": "getRisorsaByIdProdotto",
      "outputs": [
        {
          "components": [
            {
              "internalType": "string",
              "name": "nome",
              "type": "string"
            },
            {
              "internalType": "uint256",
              "name": "lotto",
              "type": "uint256"
            },
            {
              "internalType": "string[]",
              "name": "nomi_attivita",
              "type": "string[]"
            },
            {
              "internalType": "uint32[]",
              "name": "valori_CO2_attivita",
              "type": "uint32[]"
            },
            {
              "internalType": "uint32",
              "name": "valore_CO2",
              "type": "uint32"
            },
            {
              "internalType": "string",
              "name": "tipologia",
              "type": "string"
            },
            {
              "internalType": "uint256[]",
              "name": "lotti_materie_prime",
              "type": "uint256[]"
            },
            {
              "internalType": "uint256",
              "name": "token",
              "type": "uint256"
            },
            {
              "internalType": "bool",
              "name": "exists",
              "type": "bool"
            }
          ],
          "internalType": "struct CarbonFootprint.Risorsa",
          "name": "",
          "type": "tuple"
        }
      ],
      "stateMutability": "view",
      "type": "function",
      "constant": true
    },
    {
      "inputs": [
        {
          "internalType": "uint256",
          "name": "_lotto",
          "type": "uint256"
        }
      ],
      "name": "getRisorsaByLotto",
      "outputs": [
        {
          "components": [
            {
              "internalType": "string",
              "name": "nome",
              "type": "string"
            },
            {
              "internalType": "uint256",
              "name": "lotto",
              "type": "uint256"
            },
            {
              "internalType": "string[]",
              "name": "nomi_attivita",
              "type": "string[]"
            },
            {
              "internalType": "uint32[]",
              "name": "valori_CO2_attivita",
              "type": "uint32[]"
            },
            {
              "internalType": "uint32",
              "name": "valore_CO2",
              "type": "uint32"
            },
            {
              "internalType": "string",
              "name": "tipologia",
              "type": "string"
            },
            {
              "internalType": "uint256[]",
              "name": "lotti_materie_prime",
              "type": "uint256[]"
            },
            {
              "internalType": "uint256",
              "name": "token",
              "type": "uint256"
            },
            {
              "internalType": "bool",
              "name": "exists",
              "type": "bool"
            }
          ],
          "internalType": "struct CarbonFootprint.Risorsa",
          "name": "",
          "type": "tuple"
        }
      ],
      "stateMutability": "view",
      "type": "function",
      "constant": true
    },
    {
      "inputs": [
        {
          "internalType": "address",
          "name": "from",
          "type": "address"
        },
        {
          "internalType": "address",
          "name": "to",
          "type": "address"
        },
        {
          "internalType": "uint256",
          "name": "tokenId",
          "type": "uint256"
        }
      ],
      "name": "transferFrom",
      "outputs": [],
      "stateMutability": "nonpayable",
      "type": "function"
    }
  ],
  "bytecode": "0x60806040523480156200001157600080fd5b506040518060400160405280600f81526020017f436172626f6e466f6f747072696e7400000000000000000000000000000000008152506040518060400160405280600381526020017f4346500000000000000000000000000000000000000000000000000000000000815250816000908051906020019062000096929190620000b8565b508060019080519060200190620000af929190620000b8565b505050620001cd565b828054620000c69062000168565b90600052602060002090601f016020900481019282620000ea576000855562000136565b82601f106200010557805160ff191683800117855562000136565b8280016001018555821562000136579182015b828111156200013557825182559160200191906001019062000118565b5b50905062000145919062000149565b5090565b5b80821115620001645760008160009055506001016200014a565b5090565b600060028204905060018216806200018157607f821691505b602082108114156200019857620001976200019e565b5b50919050565b7f4e487b7100000000000000000000000000000000000000000000000000000000600052602260045260246000fd5b613c1880620001dd6000396000f3fe608060405234801561001057600080fd5b50600436106101165760003560e01c806372f74f43116100a2578063a22cb46511610071578063a22cb46514610319578063b3157ba614610335578063b88d4fde14610351578063c87b56dd1461036d578063e985e9c51461039d57610116565b806372f74f431461027d57806378e1fa8f146102ad578063836c081d146102dd57806395d89b41146102fb57610116565b806323b872dd116100e957806323b872dd146101b557806336cc4992146101d157806342842e0e146102015780636352211e1461021d57806370a082311461024d57610116565b806301ffc9a71461011b57806306fdde031461014b578063081812fc14610169578063095ea7b314610199575b600080fd5b6101356004803603810190610130919061287a565b6103cd565b6040516101429190613020565b60405180910390f35b6101536104af565b604051610160919061303b565b60405180910390f35b610183600480360381019061017e91906128cc565b610541565b6040516101909190612fb9565b60405180910390f35b6101b360048036038101906101ae919061283e565b6105c6565b005b6101cf60048036038101906101ca9190612738565b6106de565b005b6101eb60048036038101906101e691906128f5565b6106ee565b6040516101f8919061323f565b60405180910390f35b61021b60048036038101906102169190612738565b610978565b005b610237600480360381019061023291906128cc565b610998565b6040516102449190612fb9565b60405180910390f35b610267600480360381019061026291906126d3565b610a4a565b604051610274919061323f565b60405180910390f35b610297600480360381019061029291906128cc565b610b02565b6040516102a4919061321d565b60405180910390f35b6102c760048036038101906102c291906128cc565b610e5e565b6040516102d4919061321d565b60405180910390f35b6102e56111ba565b6040516102f2919061323f565b60405180910390f35b6103036111cb565b604051610310919061303b565b60405180910390f35b610333600480360381019061032e9190612802565b61125d565b005b61034f600480360381019061034a91906128cc565b611273565b005b61036b60048036038101906103669190612787565b611352565b005b610387600480360381019061038291906128cc565b6113b4565b604051610394919061303b565b60405180910390f35b6103b760048036038101906103b291906126fc565b61145b565b6040516103c49190613020565b60405180910390f35b60007f80ac58cd000000000000000000000000000000000000000000000000000000007bffffffffffffffffffffffffffffffffffffffffffffffffffffffff1916827bffffffffffffffffffffffffffffffffffffffffffffffffffffffff1916148061049857507f5b5e139f000000000000000000000000000000000000000000000000000000007bffffffffffffffffffffffffffffffffffffffffffffffffffffffff1916827bffffffffffffffffffffffffffffffffffffffffffffffffffffffff1916145b806104a857506104a7826114ef565b5b9050919050565b6060600080546104be906135e5565b80601f01602080910402602001604051908101604052809291908181526020018280546104ea906135e5565b80156105375780601f1061050c57610100808354040283529160200191610537565b820191906000526020600020905b81548152906001019060200180831161051a57829003601f168201915b5050505050905090565b600061054c82611559565b61058b576040517f08c379a00000000000000000000000000000000000000000000000000000000081526004016105829061319d565b60405180910390fd5b6004600083815260200190815260200160002060009054906101000a900473ffffffffffffffffffffffffffffffffffffffff169050919050565b60006105d182610998565b90508073ffffffffffffffffffffffffffffffffffffffff168373ffffffffffffffffffffffffffffffffffffffff161415610642576040517f08c379a0000000000000000000000000000000000000000000000000000000008152600401610639906131dd565b60405180910390fd5b8073ffffffffffffffffffffffffffffffffffffffff166106616115c5565b73ffffffffffffffffffffffffffffffffffffffff161480610690575061068f8161068a6115c5565b61145b565b5b6106cf576040517f08c379a00000000000000000000000000000000000000000000000000000000081526004016106c69061311d565b60405180910390fd5b6106d983836115cd565b505050565b6106e9838383611686565b505050565b60006106fa60066118ed565b60006107066006611903565b905060006040518061012001604052808581526020018c81526020018a81526020018981526020018b63ffffffff16815260200188815260200186815260200183815260200160011515815250905080600760008d8152602001908152602001600020600082015181600001908051906020019061078592919061211a565b506020820151816001015560408201518160020190805190602001906107ac9291906121a0565b5060608201518160030190805190602001906107c9929190612200565b5060808201518160040160006101000a81548163ffffffff021916908363ffffffff16021790555060a082015181600501908051906020019061080d92919061211a565b5060c082015181600601908051906020019061082a9291906122b0565b5060e082015181600701556101008201518160080160006101000a81548160ff0219169083151502179055509050508060086000848152602001908152602001600020600082015181600001908051906020019061088992919061211a565b506020820151816001015560408201518160020190805190602001906108b09291906121a0565b5060608201518160030190805190602001906108cd929190612200565b5060808201518160040160006101000a81548163ffffffff021916908363ffffffff16021790555060a082015181600501908051906020019061091192919061211a565b5060c082015181600601908051906020019061092e9291906122b0565b5060e082015181600701556101008201518160080160006101000a81548160ff0219169083151502179055509050506109678683611911565b819250505098975050505050505050565b61099383838360405180602001604052806000815250611352565b505050565b6000806002600084815260200190815260200160002060009054906101000a900473ffffffffffffffffffffffffffffffffffffffff169050600073ffffffffffffffffffffffffffffffffffffffff168173ffffffffffffffffffffffffffffffffffffffff161415610a41576040517f08c379a0000000000000000000000000000000000000000000000000000000008152600401610a389061315d565b60405180910390fd5b80915050919050565b60008073ffffffffffffffffffffffffffffffffffffffff168273ffffffffffffffffffffffffffffffffffffffff161415610abb576040517f08c379a0000000000000000000000000000000000000000000000000000000008152600401610ab29061313d565b60405180910390fd5b600360008373ffffffffffffffffffffffffffffffffffffffff1673ffffffffffffffffffffffffffffffffffffffff168152602001908152602001600020549050919050565b610b0a6122fd565b6007600083815260200190815260200160002060405180610120016040529081600082018054610b39906135e5565b80601f0160208091040260200160405190810160405280929190818152602001828054610b65906135e5565b8015610bb25780601f10610b8757610100808354040283529160200191610bb2565b820191906000526020600020905b815481529060010190602001808311610b9557829003601f168201915b505050505081526020016001820154815260200160028201805480602002602001604051908101604052809291908181526020016000905b82821015610c96578382906000526020600020018054610c09906135e5565b80601f0160208091040260200160405190810160405280929190818152602001828054610c35906135e5565b8015610c825780601f10610c5757610100808354040283529160200191610c82565b820191906000526020600020905b815481529060010190602001808311610c6557829003601f168201915b505050505081526020019060010190610bea565b50505050815260200160038201805480602002602001604051908101604052809291908181526020018280548015610d1957602002820191906000526020600020906000905b82829054906101000a900463ffffffff1663ffffffff1681526020019060040190602082600301049283019260010382029150808411610cdc5790505b505050505081526020016004820160009054906101000a900463ffffffff1663ffffffff1663ffffffff168152602001600582018054610d58906135e5565b80601f0160208091040260200160405190810160405280929190818152602001828054610d84906135e5565b8015610dd15780601f10610da657610100808354040283529160200191610dd1565b820191906000526020600020905b815481529060010190602001808311610db457829003601f168201915b5050505050815260200160068201805480602002602001604051908101604052809291908181526020018280548015610e2957602002820191906000526020600020905b815481526020019060010190808311610e15575b50505050508152602001600782015481526020016008820160009054906101000a900460ff1615151515815250509050919050565b610e666122fd565b6008600083815260200190815260200160002060405180610120016040529081600082018054610e95906135e5565b80601f0160208091040260200160405190810160405280929190818152602001828054610ec1906135e5565b8015610f0e5780601f10610ee357610100808354040283529160200191610f0e565b820191906000526020600020905b815481529060010190602001808311610ef157829003601f168201915b505050505081526020016001820154815260200160028201805480602002602001604051908101604052809291908181526020016000905b82821015610ff2578382906000526020600020018054610f65906135e5565b80601f0160208091040260200160405190810160405280929190818152602001828054610f91906135e5565b8015610fde5780601f10610fb357610100808354040283529160200191610fde565b820191906000526020600020905b815481529060010190602001808311610fc157829003601f168201915b505050505081526020019060010190610f46565b5050505081526020016003820180548060200260200160405190810160405280929190818152602001828054801561107557602002820191906000526020600020906000905b82829054906101000a900463ffffffff1663ffffffff16815260200190600401906020826003010492830192600103820291508084116110385790505b505050505081526020016004820160009054906101000a900463ffffffff1663ffffffff1663ffffffff1681526020016005820180546110b4906135e5565b80601f01602080910402602001604051908101604052809291908181526020018280546110e0906135e5565b801561112d5780601f106111025761010080835404028352916020019161112d565b820191906000526020600020905b81548152906001019060200180831161111057829003601f168201915b505050505081526020016006820180548060200260200160405190810160405280929190818152602001828054801561118557602002820191906000526020600020905b815481526020019060010190808311611171575b50505050508152602001600782015481526020016008820160009054906101000a900460ff1615151515815250509050919050565b60006111c66006611903565b905090565b6060600180546111da906135e5565b80601f0160208091040260200160405190810160405280929190818152602001828054611206906135e5565b80156112535780601f1061122857610100808354040283529160200191611253565b820191906000526020600020905b81548152906001019060200180831161123657829003601f168201915b5050505050905090565b61126f6112686115c5565b8383611aeb565b5050565b6040518060400160405280600a81526020017f7574696c697a7a617461000000000000000000000000000000000000000000008152506007600083815260200190815260200160002060050190805190602001906112d292919061211a565b506000600760008381526020019081526020016000206007015490506040518060400160405280600a81526020017f7574696c697a7a6174610000000000000000000000000000000000000000000081525060086000838152602001908152602001600020600501908051906020019061134d92919061211a565b505050565b61136361135d6115c5565b83611c58565b6113a2576040517f08c379a0000000000000000000000000000000000000000000000000000000008152600401611399906131fd565b60405180910390fd5b6113ae84848484611d36565b50505050565b60606113bf82611559565b6113fe576040517f08c379a00000000000000000000000000000000000000000000000000000000081526004016113f5906131bd565b60405180910390fd5b6000611408611d92565b905060008151116114285760405180602001604052806000815250611453565b8061143284611da9565b604051602001611443929190612f95565b6040516020818303038152906040525b915050919050565b6000600560008473ffffffffffffffffffffffffffffffffffffffff1673ffffffffffffffffffffffffffffffffffffffff16815260200190815260200160002060008373ffffffffffffffffffffffffffffffffffffffff1673ffffffffffffffffffffffffffffffffffffffff16815260200190815260200160002060009054906101000a900460ff16905092915050565b60007f01ffc9a7000000000000000000000000000000000000000000000000000000007bffffffffffffffffffffffffffffffffffffffffffffffffffffffff1916827bffffffffffffffffffffffffffffffffffffffffffffffffffffffff1916149050919050565b60008073ffffffffffffffffffffffffffffffffffffffff166002600084815260200190815260200160002060009054906101000a900473ffffffffffffffffffffffffffffffffffffffff1673ffffffffffffffffffffffffffffffffffffffff1614159050919050565b600033905090565b816004600083815260200190815260200160002060006101000a81548173ffffffffffffffffffffffffffffffffffffffff021916908373ffffffffffffffffffffffffffffffffffffffff160217905550808273ffffffffffffffffffffffffffffffffffffffff1661164083610998565b73ffffffffffffffffffffffffffffffffffffffff167f8c5be1e5ebec7d5bd14f71427d1e84f3dd0314c0f7b2291e5b200ac8c7c3b92560405160405180910390a45050565b8273ffffffffffffffffffffffffffffffffffffffff166116a682610998565b73ffffffffffffffffffffffffffffffffffffffff16146116fc576040517f08c379a00000000000000000000000000000000000000000000000000000000081526004016116f39061307d565b60405180910390fd5b600073ffffffffffffffffffffffffffffffffffffffff168273ffffffffffffffffffffffffffffffffffffffff16141561176c576040517f08c379a0000000000000000000000000000000000000000000000000000000008152600401611763906130bd565b60405180910390fd5b611777838383611f56565b6117826000826115cd565b6001600360008573ffffffffffffffffffffffffffffffffffffffff1673ffffffffffffffffffffffffffffffffffffffff16815260200190815260200160002060008282546117d291906134eb565b925050819055506001600360008473ffffffffffffffffffffffffffffffffffffffff1673ffffffffffffffffffffffffffffffffffffffff16815260200190815260200160002060008282546118299190613464565b92505081905550816002600083815260200190815260200160002060006101000a81548173ffffffffffffffffffffffffffffffffffffffff021916908373ffffffffffffffffffffffffffffffffffffffff160217905550808273ffffffffffffffffffffffffffffffffffffffff168473ffffffffffffffffffffffffffffffffffffffff167fddf252ad1be2c89b69c2b068fc378daa952ba7f163c4a11628f55a4df523b3ef60405160405180910390a46118e8838383611f5b565b505050565b6001816000016000828254019250508190555050565b600081600001549050919050565b600073ffffffffffffffffffffffffffffffffffffffff168273ffffffffffffffffffffffffffffffffffffffff161415611981576040517f08c379a00000000000000000000000000000000000000000000000000000000081526004016119789061317d565b60405180910390fd5b61198a81611559565b156119ca576040517f08c379a00000000000000000000000000000000000000000000000000000000081526004016119c19061309d565b60405180910390fd5b6119d660008383611f56565b6001600360008473ffffffffffffffffffffffffffffffffffffffff1673ffffffffffffffffffffffffffffffffffffffff1681526020019081526020016000206000828254611a269190613464565b92505081905550816002600083815260200190815260200160002060006101000a81548173ffffffffffffffffffffffffffffffffffffffff021916908373ffffffffffffffffffffffffffffffffffffffff160217905550808273ffffffffffffffffffffffffffffffffffffffff16600073ffffffffffffffffffffffffffffffffffffffff167fddf252ad1be2c89b69c2b068fc378daa952ba7f163c4a11628f55a4df523b3ef60405160405180910390a4611ae760008383611f5b565b5050565b8173ffffffffffffffffffffffffffffffffffffffff168373ffffffffffffffffffffffffffffffffffffffff161415611b5a576040517f08c379a0000000000000000000000000000000000000000000000000000000008152600401611b51906130dd565b60405180910390fd5b80600560008573ffffffffffffffffffffffffffffffffffffffff1673ffffffffffffffffffffffffffffffffffffffff16815260200190815260200160002060008473ffffffffffffffffffffffffffffffffffffffff1673ffffffffffffffffffffffffffffffffffffffff16815260200190815260200160002060006101000a81548160ff0219169083151502179055508173ffffffffffffffffffffffffffffffffffffffff168373ffffffffffffffffffffffffffffffffffffffff167f17307eab39ab6107e8899845ad3d59bd9653f200f220920489ca2b5937696c3183604051611c4b9190613020565b60405180910390a3505050565b6000611c6382611559565b611ca2576040517f08c379a0000000000000000000000000000000000000000000000000000000008152600401611c99906130fd565b60405180910390fd5b6000611cad83610998565b90508073ffffffffffffffffffffffffffffffffffffffff168473ffffffffffffffffffffffffffffffffffffffff161480611d1c57508373ffffffffffffffffffffffffffffffffffffffff16611d0484610541565b73ffffffffffffffffffffffffffffffffffffffff16145b80611d2d5750611d2c818561145b565b5b91505092915050565b611d41848484611686565b611d4d84848484611f60565b611d8c576040517f08c379a0000000000000000000000000000000000000000000000000000000008152600401611d839061305d565b60405180910390fd5b50505050565b606060405180602001604052806000815250905090565b60606000821415611df1576040518060400160405280600181526020017f30000000000000000000000000000000000000000000000000000000000000008152509050611f51565b600082905060005b60008214611e23578080611e0c90613648565b915050600a82611e1c91906134ba565b9150611df9565b60008167ffffffffffffffff811115611e65577f4e487b7100000000000000000000000000000000000000000000000000000000600052604160045260246000fd5b6040519080825280601f01601f191660200182016040528015611e975781602001600182028036833780820191505090505b5090505b60008514611f4a57600182611eb091906134eb565b9150600a85611ebf9190613691565b6030611ecb9190613464565b60f81b818381518110611f07577f4e487b7100000000000000000000000000000000000000000000000000000000600052603260045260246000fd5b60200101907effffffffffffffffffffffffffffffffffffffffffffffffffffffffffffff1916908160001a905350600a85611f4391906134ba565b9450611e9b565b8093505050505b919050565b505050565b505050565b6000611f818473ffffffffffffffffffffffffffffffffffffffff166120f7565b156120ea578373ffffffffffffffffffffffffffffffffffffffff1663150b7a02611faa6115c5565b8786866040518563ffffffff1660e01b8152600401611fcc9493929190612fd4565b602060405180830381600087803b158015611fe657600080fd5b505af192505050801561201757506040513d601f19601f8201168201806040525081019061201491906128a3565b60015b61209a573d8060008114612047576040519150601f19603f3d011682016040523d82523d6000602084013e61204c565b606091505b50600081511415612092576040517f08c379a00000000000000000000000000000000000000000000000000000000081526004016120899061305d565b60405180910390fd5b805181602001fd5b63150b7a0260e01b7bffffffffffffffffffffffffffffffffffffffffffffffffffffffff1916817bffffffffffffffffffffffffffffffffffffffffffffffffffffffff1916149150506120ef565b600190505b949350505050565b6000808273ffffffffffffffffffffffffffffffffffffffff163b119050919050565b828054612126906135e5565b90600052602060002090601f016020900481019282612148576000855561218f565b82601f1061216157805160ff191683800117855561218f565b8280016001018555821561218f579182015b8281111561218e578251825591602001919060010190612173565b5b50905061219c9190612351565b5090565b8280548282559060005260206000209081019282156121ef579160200282015b828111156121ee5782518290805190602001906121de92919061211a565b50916020019190600101906121c0565b5b5090506121fc919061236e565b5090565b8280548282559060005260206000209060070160089004810192821561229f5791602002820160005b8382111561226d57835183826101000a81548163ffffffff021916908363ffffffff1602179055509260200192600401602081600301049283019260010302612229565b801561229d5782816101000a81549063ffffffff021916905560040160208160030104928301926001030261226d565b505b5090506122ac9190612351565b5090565b8280548282559060005260206000209081019282156122ec579160200282015b828111156122eb5782518255916020019190600101906122d0565b5b5090506122f99190612351565b5090565b60405180610120016040528060608152602001600081526020016060815260200160608152602001600063ffffffff1681526020016060815260200160608152602001600081526020016000151581525090565b5b8082111561236a576000816000905550600101612352565b5090565b5b8082111561238e57600081816123859190612392565b5060010161236f565b5090565b50805461239e906135e5565b6000825580601f106123b057506123cf565b601f0160209004906000526020600020908101906123ce9190612351565b5b50565b60006123e56123e08461327f565b61325a565b9050808382526020820190508260005b85811015612425578135850161240b888261267f565b8452602084019350602083019250506001810190506123f5565b5050509392505050565b600061244261243d846132ab565b61325a565b9050808382526020820190508285602086028201111561246157600080fd5b60005b85811015612491578161247788826126a9565b845260208401935060208301925050600181019050612464565b5050509392505050565b60006124ae6124a9846132d7565b61325a565b905080838252602082019050828560208602820111156124cd57600080fd5b60005b858110156124fd57816124e388826126be565b8452602084019350602083019250506001810190506124d0565b5050509392505050565b600061251a61251584613303565b61325a565b90508281526020810184848401111561253257600080fd5b61253d8482856135a3565b509392505050565b600061255861255384613334565b61325a565b90508281526020810184848401111561257057600080fd5b61257b8482856135a3565b509392505050565b60008135905061259281613b6f565b92915050565b600082601f8301126125a957600080fd5b81356125b98482602086016123d2565b91505092915050565b600082601f8301126125d357600080fd5b81356125e384826020860161242f565b91505092915050565b600082601f8301126125fd57600080fd5b813561260d84826020860161249b565b91505092915050565b60008135905061262581613b86565b92915050565b60008135905061263a81613b9d565b92915050565b60008151905061264f81613b9d565b92915050565b600082601f83011261266657600080fd5b8135612676848260208601612507565b91505092915050565b600082601f83011261269057600080fd5b81356126a0848260208601612545565b91505092915050565b6000813590506126b881613bb4565b92915050565b6000813590506126cd81613bcb565b92915050565b6000602082840312156126e557600080fd5b60006126f384828501612583565b91505092915050565b6000806040838503121561270f57600080fd5b600061271d85828601612583565b925050602061272e85828601612583565b9150509250929050565b60008060006060848603121561274d57600080fd5b600061275b86828701612583565b935050602061276c86828701612583565b925050604061277d868287016126a9565b9150509250925092565b6000806000806080858703121561279d57600080fd5b60006127ab87828801612583565b94505060206127bc87828801612583565b93505060406127cd878288016126a9565b925050606085013567ffffffffffffffff8111156127ea57600080fd5b6127f687828801612655565b91505092959194509250565b6000806040838503121561281557600080fd5b600061282385828601612583565b925050602061283485828601612616565b9150509250929050565b6000806040838503121561285157600080fd5b600061285f85828601612583565b9250506020612870858286016126a9565b9150509250929050565b60006020828403121561288c57600080fd5b600061289a8482850161262b565b91505092915050565b6000602082840312156128b557600080fd5b60006128c384828501612640565b91505092915050565b6000602082840312156128de57600080fd5b60006128ec848285016126a9565b91505092915050565b600080600080600080600080610100898b03121561291257600080fd5b60006129208b828c016126a9565b98505060206129318b828c016126be565b975050604089013567ffffffffffffffff81111561294e57600080fd5b61295a8b828c01612598565b965050606089013567ffffffffffffffff81111561297757600080fd5b6129838b828c016125ec565b955050608089013567ffffffffffffffff8111156129a057600080fd5b6129ac8b828c0161267f565b94505060a06129bd8b828c01612583565b93505060c089013567ffffffffffffffff8111156129da57600080fd5b6129e68b828c016125c2565b92505060e089013567ffffffffffffffff811115612a0357600080fd5b612a0f8b828c0161267f565b9150509295985092959890939650565b6000612a2b8383612bfa565b905092915050565b6000612a3f8383612f68565b60208301905092915050565b6000612a578383612f86565b60208301905092915050565b612a6c8161351f565b82525050565b6000612a7d82613395565b612a8781856133f3565b935083602082028501612a9985613365565b8060005b85811015612ad55784840389528151612ab68582612a1f565b9450612ac1836133cc565b925060208a01995050600181019050612a9d565b50829750879550505050505092915050565b6000612af2826133a0565b612afc8185613404565b9350612b0783613375565b8060005b83811015612b38578151612b1f8882612a33565b9750612b2a836133d9565b925050600181019050612b0b565b5085935050505092915050565b6000612b50826133ab565b612b5a8185613415565b9350612b6583613385565b8060005b83811015612b96578151612b7d8882612a4b565b9750612b88836133e6565b925050600181019050612b69565b5085935050505092915050565b612bac81613531565b82525050565b612bbb81613531565b82525050565b6000612bcc826133b6565b612bd68185613426565b9350612be68185602086016135b2565b612bef8161377e565b840191505092915050565b6000612c05826133c1565b612c0f8185613437565b9350612c1f8185602086016135b2565b612c288161377e565b840191505092915050565b6000612c3e826133c1565b612c488185613448565b9350612c588185602086016135b2565b612c618161377e565b840191505092915050565b6000612c77826133c1565b612c818185613459565b9350612c918185602086016135b2565b80840191505092915050565b6000612caa603283613448565b9150612cb58261378f565b604082019050919050565b6000612ccd602583613448565b9150612cd8826137de565b604082019050919050565b6000612cf0601c83613448565b9150612cfb8261382d565b602082019050919050565b6000612d13602483613448565b9150612d1e82613856565b604082019050919050565b6000612d36601983613448565b9150612d41826138a5565b602082019050919050565b6000612d59602c83613448565b9150612d64826138ce565b604082019050919050565b6000612d7c603883613448565b9150612d878261391d565b604082019050919050565b6000612d9f602a83613448565b9150612daa8261396c565b604082019050919050565b6000612dc2602983613448565b9150612dcd826139bb565b604082019050919050565b6000612de5602083613448565b9150612df082613a0a565b602082019050919050565b6000612e08602c83613448565b9150612e1382613a33565b604082019050919050565b6000612e2b602f83613448565b9150612e3682613a82565b604082019050919050565b6000612e4e602183613448565b9150612e5982613ad1565b604082019050919050565b6000612e71603183613448565b9150612e7c82613b20565b604082019050919050565b6000610120830160008301518482036000860152612ea58282612bfa565b9150506020830151612eba6020860182612f68565b5060408301518482036040860152612ed28282612a72565b91505060608301518482036060860152612eec8282612b45565b9150506080830151612f016080860182612f86565b5060a083015184820360a0860152612f198282612bfa565b91505060c083015184820360c0860152612f338282612ae7565b91505060e0830151612f4860e0860182612f68565b50610100830151612f5d610100860182612ba3565b508091505092915050565b612f7181613589565b82525050565b612f8081613589565b82525050565b612f8f81613593565b82525050565b6000612fa18285612c6c565b9150612fad8284612c6c565b91508190509392505050565b6000602082019050612fce6000830184612a63565b92915050565b6000608082019050612fe96000830187612a63565b612ff66020830186612a63565b6130036040830185612f77565b81810360608301526130158184612bc1565b905095945050505050565b60006020820190506130356000830184612bb2565b92915050565b600060208201905081810360008301526130558184612c33565b905092915050565b6000602082019050818103600083015261307681612c9d565b9050919050565b6000602082019050818103600083015261309681612cc0565b9050919050565b600060208201905081810360008301526130b681612ce3565b9050919050565b600060208201905081810360008301526130d681612d06565b9050919050565b600060208201905081810360008301526130f681612d29565b9050919050565b6000602082019050818103600083015261311681612d4c565b9050919050565b6000602082019050818103600083015261313681612d6f565b9050919050565b6000602082019050818103600083015261315681612d92565b9050919050565b6000602082019050818103600083015261317681612db5565b9050919050565b6000602082019050818103600083015261319681612dd8565b9050919050565b600060208201905081810360008301526131b681612dfb565b9050919050565b600060208201905081810360008301526131d681612e1e565b9050919050565b600060208201905081810360008301526131f681612e41565b9050919050565b6000602082019050818103600083015261321681612e64565b9050919050565b600060208201905081810360008301526132378184612e87565b905092915050565b60006020820190506132546000830184612f77565b92915050565b6000613264613275565b90506132708282613617565b919050565b6000604051905090565b600067ffffffffffffffff82111561329a5761329961374f565b5b602082029050602081019050919050565b600067ffffffffffffffff8211156132c6576132c561374f565b5b602082029050602081019050919050565b600067ffffffffffffffff8211156132f2576132f161374f565b5b602082029050602081019050919050565b600067ffffffffffffffff82111561331e5761331d61374f565b5b6133278261377e565b9050602081019050919050565b600067ffffffffffffffff82111561334f5761334e61374f565b5b6133588261377e565b9050602081019050919050565b6000819050602082019050919050565b6000819050602082019050919050565b6000819050602082019050919050565b600081519050919050565b600081519050919050565b600081519050919050565b600081519050919050565b600081519050919050565b6000602082019050919050565b6000602082019050919050565b6000602082019050919050565b600082825260208201905092915050565b600082825260208201905092915050565b600082825260208201905092915050565b600082825260208201905092915050565b600082825260208201905092915050565b600082825260208201905092915050565b600081905092915050565b600061346f82613589565b915061347a83613589565b9250827fffffffffffffffffffffffffffffffffffffffffffffffffffffffffffffffff038211156134af576134ae6136c2565b5b828201905092915050565b60006134c582613589565b91506134d083613589565b9250826134e0576134df6136f1565b5b828204905092915050565b60006134f682613589565b915061350183613589565b925082821015613514576135136136c2565b5b828203905092915050565b600061352a82613569565b9050919050565b60008115159050919050565b60007fffffffff0000000000000000000000000000000000000000000000000000000082169050919050565b600073ffffffffffffffffffffffffffffffffffffffff82169050919050565b6000819050919050565b600063ffffffff82169050919050565b82818337600083830152505050565b60005b838110156135d05780820151818401526020810190506135b5565b838111156135df576000848401525b50505050565b600060028204905060018216806135fd57607f821691505b6020821081141561361157613610613720565b5b50919050565b6136208261377e565b810181811067ffffffffffffffff8211171561363f5761363e61374f565b5b80604052505050565b600061365382613589565b91507fffffffffffffffffffffffffffffffffffffffffffffffffffffffffffffffff821415613686576136856136c2565b5b600182019050919050565b600061369c82613589565b91506136a783613589565b9250826136b7576136b66136f1565b5b828206905092915050565b7f4e487b7100000000000000000000000000000000000000000000000000000000600052601160045260246000fd5b7f4e487b7100000000000000000000000000000000000000000000000000000000600052601260045260246000fd5b7f4e487b7100000000000000000000000000000000000000000000000000000000600052602260045260246000fd5b7f4e487b7100000000000000000000000000000000000000000000000000000000600052604160045260246000fd5b6000601f19601f8301169050919050565b7f4552433732313a207472616e7366657220746f206e6f6e20455243373231526560008201527f63656976657220696d706c656d656e7465720000000000000000000000000000602082015250565b7f4552433732313a207472616e736665722066726f6d20696e636f72726563742060008201527f6f776e6572000000000000000000000000000000000000000000000000000000602082015250565b7f4552433732313a20746f6b656e20616c7265616479206d696e74656400000000600082015250565b7f4552433732313a207472616e7366657220746f20746865207a65726f2061646460008201527f7265737300000000000000000000000000000000000000000000000000000000602082015250565b7f4552433732313a20617070726f766520746f2063616c6c657200000000000000600082015250565b7f4552433732313a206f70657261746f7220717565727920666f72206e6f6e657860008201527f697374656e7420746f6b656e0000000000000000000000000000000000000000602082015250565b7f4552433732313a20617070726f76652063616c6c6572206973206e6f74206f7760008201527f6e6572206e6f7220617070726f76656420666f7220616c6c0000000000000000602082015250565b7f4552433732313a2062616c616e636520717565727920666f7220746865207a6560008201527f726f206164647265737300000000000000000000000000000000000000000000602082015250565b7f4552433732313a206f776e657220717565727920666f72206e6f6e657869737460008201527f656e7420746f6b656e0000000000000000000000000000000000000000000000602082015250565b7f4552433732313a206d696e7420746f20746865207a65726f2061646472657373600082015250565b7f4552433732313a20617070726f76656420717565727920666f72206e6f6e657860008201527f697374656e7420746f6b656e0000000000000000000000000000000000000000602082015250565b7f4552433732314d657461646174613a2055524920717565727920666f72206e6f60008201527f6e6578697374656e7420746f6b656e0000000000000000000000000000000000602082015250565b7f4552433732313a20617070726f76616c20746f2063757272656e74206f776e6560008201527f7200000000000000000000000000000000000000000000000000000000000000602082015250565b7f4552433732313a207472616e736665722063616c6c6572206973206e6f74206f60008201527f776e6572206e6f7220617070726f766564000000000000000000000000000000602082015250565b613b788161351f565b8114613b8357600080fd5b50565b613b8f81613531565b8114613b9a57600080fd5b50565b613ba68161353d565b8114613bb157600080fd5b50565b613bbd81613589565b8114613bc857600080fd5b50565b613bd481613593565b8114613bdf57600080fd5b5056fea2646970667358221220589ef47ef73d898e4f8b9a983815579c6520753afa660742c6c1199b84b0436c64736f6c63430008010033",
  "immutableReferences": {},
  "source": "// SPDX-License-Identifier: MIT\r\n\r\npragma solidity>=0.5.16;\r\n\r\nimport \"@openzeppelin/contracts/token/ERC721/ERC721.sol\";\r\nimport \"@openzeppelin/contracts/utils/Counters.sol\";\r\n\r\n\r\ncontract CarbonFootprint is ERC721 {\r\n\r\n\r\n\r\n    // per tenere il conteggio dei token prodotti fino ad ora (e quindi delle materie prima/prodotti nel catalogo)\r\n    using Counters for Counters.Counter;\r\n    Counters.Counter private _tokenIds;\r\n\r\n    // struttura che contiene le informazioni della risorsa\r\n    struct Risorsa {\r\n        string nome; // nome risorsa\r\n        uint256 lotto; // lotto che identifica la risorsa (inserito dall'utente)\r\n        string[] nomi_attivita; // vettore che contiene i nomi delle attivit svolte per produrre la risorsa (se presenti)\r\n        uint32[] valori_CO2_attivita; // vettore che contiene i consumi delle attivit svolte per produrre la risorsa (se presenti)\r\n        uint32 valore_CO2; // valore di CO2 della risorsa\r\n        string tipologia; // tipologia di risorsa (materia prima, prodotto o utilizzata)\r\n        uint256[] lotti_materie_prime; // materie prime utilizzate per produrre la risorsa (se presenti)\r\n        uint256 token; // token che identifica la risorsa (prodotto nel momento in cui la risorsa  inserita nella bc)\r\n        bool exists; // attributo che serve per capire se la risorsa esiste o meno\r\n    }\r\n\r\n    \r\n    mapping(uint256=>Risorsa) private risorsaByLotto; // sapendo il lotto ricavo la risorsa\r\n    mapping(uint256=>Risorsa) private risorsaByToken_prodotto; // sapendo il token ricavo la risorsa\r\n\r\n\r\n    // costruttore del token \r\n    constructor () ERC721(\"CarbonFootprint\", \"CFP\"){\r\n    }\r\n\r\n\r\n\r\n    // tale funzione crea la risorsa (sia materia prima che trasformato) e la inserisce nelle mapping per \r\n    // poterne poi estrarre le informazioni\r\n    function creaProdotto(\r\n        uint256 _lotto, uint32 _valore_CO2, string[] memory _nomi_attivita, \r\n        uint32[] memory _valori_CO2_attivita, string memory _tipologia, \r\n        address _possessore, uint256[] memory _lotti_materie_prime, string memory _nome\r\n        )\r\n        public returns(uint256){\r\n\r\n        // il token della risorsa  uguale al token corrente + 1\r\n        _tokenIds.increment();\r\n        uint256 id_nuovo_prodotto = _tokenIds.current();\r\n\r\n        // creo un'istanza di Risorsa \r\n        Risorsa memory risorsa = Risorsa(\r\n            _nome,\r\n            _lotto,\r\n            _nomi_attivita,\r\n            _valori_CO2_attivita,\r\n            _valore_CO2,\r\n            _tipologia,\r\n            _lotti_materie_prime,\r\n            id_nuovo_prodotto,\r\n            true\r\n        );\r\n\r\n        // inserisco l'istanza di risorsa nei due mapping (conoscendone il lotto ed il token)\r\n        risorsaByLotto[_lotto] = risorsa;\r\n        risorsaByToken_prodotto[id_nuovo_prodotto] = risorsa;\r\n        // assegno la risorsa al possessore\r\n        _mint(_possessore, id_nuovo_prodotto);\r\n\r\n        return id_nuovo_prodotto;\r\n    }\r\n\r\n\r\n\r\n    // funzione che riceve un lotto e contrassegna la relativa risorsa come \"utilizzata\"\r\n    function setTipologiaUtilizzato(\r\n        uint256 _lotto\r\n    ) external {\r\n\r\n        // setto la risorsa come utilizzata in entrambi i mapping\r\n        risorsaByLotto[_lotto].tipologia = \"utilizzata\";\r\n        uint256 token = risorsaByLotto[_lotto].token;\r\n        risorsaByToken_prodotto[token].tipologia = \"utilizzata\";\r\n\r\n    }\r\n\r\n\r\n\r\n\r\n\r\n    // restituisce il numero di token prodotti fino ad ora\r\n    function currentToken(\r\n    ) external view returns(uint256) {\r\n\r\n        return _tokenIds.current();\r\n\r\n    }\r\n\r\n\r\n    // funzione che riceve un token e restituisce la risorsa con quel token\r\n    function getRisorsaByIdProdotto(\r\n        uint256 _token_prodotto\r\n    ) external view returns(Risorsa memory) {\r\n\r\n        return risorsaByToken_prodotto[_token_prodotto];\r\n\r\n    }\r\n\r\n\r\n\r\n    // funzione che riceve un lotto e restituisce la risorsa con quel lotto\r\n    function getRisorsaByLotto(\r\n        uint256 _lotto\r\n    ) external view returns(Risorsa memory) {\r\n\r\n        return risorsaByLotto[_lotto];\r\n          \r\n    }\r\n\r\n    function transferFrom(address from,address to,uint256 tokenId) public virtual override { \r\n        _transfer(from, to, tokenId);\r\n    }\r\n\r\n}",
  "sourcePath": "C:\\Users\\lucry\\Desktop\\3-nodes-istanbul-tessera-docker-compose\\contracts\\CarbonFootprint.sol",
  "compiler": {
    "name": "solc",
    "version": "0.8.1+commit.df193b15.Emscripten.clang"
  },
  "schemaVersion": "3.4.1",
  "updatedAt": "2022-02-23T18:32:35.288Z",
  "networkType": "quorum",
  "devdoc": {
    "kind": "dev",
    "methods": {
      "approve(address,uint256)": {
        "details": "See {IERC721-approve}."
      },
      "balanceOf(address)": {
        "details": "See {IERC721-balanceOf}."
      },
      "getApproved(uint256)": {
        "details": "See {IERC721-getApproved}."
      },
      "isApprovedForAll(address,address)": {
        "details": "See {IERC721-isApprovedForAll}."
      },
      "name()": {
        "details": "See {IERC721Metadata-name}."
      },
      "ownerOf(uint256)": {
        "details": "See {IERC721-ownerOf}."
      },
      "safeTransferFrom(address,address,uint256)": {
        "details": "See {IERC721-safeTransferFrom}."
      },
      "safeTransferFrom(address,address,uint256,bytes)": {
        "details": "See {IERC721-safeTransferFrom}."
      },
      "setApprovalForAll(address,bool)": {
        "details": "See {IERC721-setApprovalForAll}."
      },
      "supportsInterface(bytes4)": {
        "details": "See {IERC165-supportsInterface}."
      },
      "symbol()": {
        "details": "See {IERC721Metadata-symbol}."
      },
      "tokenURI(uint256)": {
        "details": "See {IERC721Metadata-tokenURI}."
      },
      "transferFrom(address,address,uint256)": {
        "details": "See {IERC721-transferFrom}."
      }
    },
    "version": 1
  },
  "userdoc": {
    "kind": "user",
    "methods": {},
    "version": 1
  }
}