{
  "contractName": "CarbonFootprint",
  "abi": [
    {
      "inputs": [],
      "stateMutability": "nonpayable",
      "type": "constructor"
    },
    {
      "anonymous": false,
      "inputs": [
        {
          "indexed": true,
          "internalType": "address",
          "name": "owner",
          "type": "address"
        },
        {
          "indexed": true,
          "internalType": "address",
          "name": "approved",
          "type": "address"
        },
        {
          "indexed": true,
          "internalType": "uint256",
          "name": "tokenId",
          "type": "uint256"
        }
      ],
      "name": "Approval",
      "type": "event"
    },
    {
      "anonymous": false,
      "inputs": [
        {
          "indexed": true,
          "internalType": "address",
          "name": "owner",
          "type": "address"
        },
        {
          "indexed": true,
          "internalType": "address",
          "name": "operator",
          "type": "address"
        },
        {
          "indexed": false,
          "internalType": "bool",
          "name": "approved",
          "type": "bool"
        }
      ],
      "name": "ApprovalForAll",
      "type": "event"
    },
    {
      "anonymous": false,
      "inputs": [
        {
          "indexed": true,
          "internalType": "address",
          "name": "from",
          "type": "address"
        },
        {
          "indexed": true,
          "internalType": "address",
          "name": "to",
          "type": "address"
        },
        {
          "indexed": true,
          "internalType": "uint256",
          "name": "tokenId",
          "type": "uint256"
        }
      ],
      "name": "Transfer",
      "type": "event"
    },
    {
      "inputs": [
        {
          "internalType": "address",
          "name": "to",
          "type": "address"
        },
        {
          "internalType": "uint256",
          "name": "tokenId",
          "type": "uint256"
        }
      ],
      "name": "approve",
      "outputs": [],
      "stateMutability": "nonpayable",
      "type": "function"
    },
    {
      "inputs": [
        {
          "internalType": "address",
          "name": "owner",
          "type": "address"
        }
      ],
      "name": "balanceOf",
      "outputs": [
        {
          "internalType": "uint256",
          "name": "",
          "type": "uint256"
        }
      ],
      "stateMutability": "view",
      "type": "function",
      "constant": true
    },
    {
      "inputs": [
        {
          "internalType": "uint256",
          "name": "tokenId",
          "type": "uint256"
        }
      ],
      "name": "getApproved",
      "outputs": [
        {
          "internalType": "address",
          "name": "",
          "type": "address"
        }
      ],
      "stateMutability": "view",
      "type": "function",
      "constant": true
    },
    {
      "inputs": [
        {
          "internalType": "address",
          "name": "owner",
          "type": "address"
        },
        {
          "internalType": "address",
          "name": "operator",
          "type": "address"
        }
      ],
      "name": "isApprovedForAll",
      "outputs": [
        {
          "internalType": "bool",
          "name": "",
          "type": "bool"
        }
      ],
      "stateMutability": "view",
      "type": "function",
      "constant": true
    },
    {
      "inputs": [],
      "name": "name",
      "outputs": [
        {
          "internalType": "string",
          "name": "",
          "type": "string"
        }
      ],
      "stateMutability": "view",
      "type": "function",
      "constant": true
    },
    {
      "inputs": [
        {
          "internalType": "uint256",
          "name": "tokenId",
          "type": "uint256"
        }
      ],
      "name": "ownerOf",
      "outputs": [
        {
          "internalType": "address",
          "name": "",
          "type": "address"
        }
      ],
      "stateMutability": "view",
      "type": "function",
      "constant": true
    },
    {
      "inputs": [
        {
          "internalType": "address",
          "name": "from",
          "type": "address"
        },
        {
          "internalType": "address",
          "name": "to",
          "type": "address"
        },
        {
          "internalType": "uint256",
          "name": "tokenId",
          "type": "uint256"
        }
      ],
      "name": "safeTransferFrom",
      "outputs": [],
      "stateMutability": "nonpayable",
      "type": "function"
    },
    {
      "inputs": [
        {
          "internalType": "address",
          "name": "from",
          "type": "address"
        },
        {
          "internalType": "address",
          "name": "to",
          "type": "address"
        },
        {
          "internalType": "uint256",
          "name": "tokenId",
          "type": "uint256"
        },
        {
          "internalType": "bytes",
          "name": "_data",
          "type": "bytes"
        }
      ],
      "name": "safeTransferFrom",
      "outputs": [],
      "stateMutability": "nonpayable",
      "type": "function"
    },
    {
      "inputs": [
        {
          "internalType": "address",
          "name": "operator",
          "type": "address"
        },
        {
          "internalType": "bool",
          "name": "approved",
          "type": "bool"
        }
      ],
      "name": "setApprovalForAll",
      "outputs": [],
      "stateMutability": "nonpayable",
      "type": "function"
    },
    {
      "inputs": [
        {
          "internalType": "bytes4",
          "name": "interfaceId",
          "type": "bytes4"
        }
      ],
      "name": "supportsInterface",
      "outputs": [
        {
          "internalType": "bool",
          "name": "",
          "type": "bool"
        }
      ],
      "stateMutability": "view",
      "type": "function",
      "constant": true
    },
    {
      "inputs": [],
      "name": "symbol",
      "outputs": [
        {
          "internalType": "string",
          "name": "",
          "type": "string"
        }
      ],
      "stateMutability": "view",
      "type": "function",
      "constant": true
    },
    {
      "inputs": [
        {
          "internalType": "uint256",
          "name": "tokenId",
          "type": "uint256"
        }
      ],
      "name": "tokenURI",
      "outputs": [
        {
          "internalType": "string",
          "name": "",
          "type": "string"
        }
      ],
      "stateMutability": "view",
      "type": "function",
      "constant": true
    },
    {
      "inputs": [
        {
          "internalType": "address",
          "name": "from",
          "type": "address"
        },
        {
          "internalType": "address",
          "name": "to",
          "type": "address"
        },
        {
          "internalType": "uint256",
          "name": "tokenId",
          "type": "uint256"
        }
      ],
      "name": "transferFrom",
      "outputs": [],
      "stateMutability": "nonpayable",
      "type": "function"
    },
    {
      "inputs": [
        {
          "internalType": "uint256",
          "name": "_lotto",
          "type": "uint256"
        },
        {
          "internalType": "uint32",
          "name": "_valore_CO2",
          "type": "uint32"
        },
        {
          "internalType": "string",
          "name": "_tipologia",
          "type": "string"
        },
        {
          "internalType": "address",
          "name": "_possessore",
          "type": "address"
        },
        {
          "internalType": "uint256[]",
          "name": "_id_materia_prima",
          "type": "uint256[]"
        },
        {
          "internalType": "string",
          "name": "_nome",
          "type": "string"
        }
      ],
      "name": "creaProdotto",
      "outputs": [
        {
          "internalType": "uint256",
          "name": "",
          "type": "uint256"
        }
      ],
      "stateMutability": "nonpayable",
      "type": "function"
    },
    {
      "inputs": [
        {
          "internalType": "uint256",
          "name": "_lotto",
          "type": "uint256"
        }
      ],
      "name": "setTipologiaUtilizzato",
      "outputs": [],
      "stateMutability": "nonpayable",
      "type": "function"
    },
    {
      "inputs": [],
      "name": "currentToken",
      "outputs": [
        {
          "internalType": "uint256",
          "name": "",
          "type": "uint256"
        }
      ],
      "stateMutability": "view",
      "type": "function",
      "constant": true
    },
    {
      "inputs": [
        {
          "internalType": "uint256",
          "name": "_id_prodotto",
          "type": "uint256"
        }
      ],
      "name": "getRisorsaByIdProdotto",
      "outputs": [
        {
          "components": [
            {
              "internalType": "string",
              "name": "nome",
              "type": "string"
            },
            {
              "internalType": "uint256",
              "name": "lotto",
              "type": "uint256"
            },
            {
              "internalType": "uint32",
              "name": "valore_CO2",
              "type": "uint32"
            },
            {
              "internalType": "string",
              "name": "tipologia",
              "type": "string"
            },
            {
              "internalType": "uint256[]",
              "name": "id_materie_prime",
              "type": "uint256[]"
            },
            {
              "internalType": "uint256",
              "name": "token",
              "type": "uint256"
            },
            {
              "internalType": "bool",
              "name": "exists",
              "type": "bool"
            }
          ],
          "internalType": "struct CarbonFootprint.Risorsa",
          "name": "",
          "type": "tuple"
        }
      ],
      "stateMutability": "view",
      "type": "function",
      "constant": true
    },
    {
      "inputs": [
        {
          "internalType": "uint256",
          "name": "_lotto",
          "type": "uint256"
        }
      ],
      "name": "getRisorsaByLotto",
      "outputs": [
        {
          "components": [
            {
              "internalType": "string",
              "name": "nome",
              "type": "string"
            },
            {
              "internalType": "uint256",
              "name": "lotto",
              "type": "uint256"
            },
            {
              "internalType": "uint32",
              "name": "valore_CO2",
              "type": "uint32"
            },
            {
              "internalType": "string",
              "name": "tipologia",
              "type": "string"
            },
            {
              "internalType": "uint256[]",
              "name": "id_materie_prime",
              "type": "uint256[]"
            },
            {
              "internalType": "uint256",
              "name": "token",
              "type": "uint256"
            },
            {
              "internalType": "bool",
              "name": "exists",
              "type": "bool"
            }
          ],
          "internalType": "struct CarbonFootprint.Risorsa",
          "name": "",
          "type": "tuple"
        }
      ],
      "stateMutability": "view",
      "type": "function",
      "constant": true
    }
  ],
  "bytecode": "0x60806040523480156200001157600080fd5b506040518060400160405280600f81526020017f436172626f6e466f6f747072696e7400000000000000000000000000000000008152506040518060400160405280600381526020017f4346500000000000000000000000000000000000000000000000000000000000815250816000908051906020019062000096929190620000b8565b508060019080519060200190620000af929190620000b8565b505050620001cd565b828054620000c69062000168565b90600052602060002090601f016020900481019282620000ea576000855562000136565b82601f106200010557805160ff191683800117855562000136565b8280016001018555821562000136579182015b828111156200013557825182559160200191906001019062000118565b5b50905062000145919062000149565b5090565b5b80821115620001645760008160009055506001016200014a565b5090565b600060028204905060018216806200018157607f821691505b602082108114156200019857620001976200019e565b5b50919050565b7f4e487b7100000000000000000000000000000000000000000000000000000000600052602260045260246000fd5b61342e80620001dd6000396000f3fe608060405234801561001057600080fd5b50600436106101165760003560e01c806378e1fa8f116100a2578063b3157ba611610071578063b3157ba614610305578063b88d4fde14610321578063c87b56dd1461033d578063e985e9c51461036d578063eb3b58361461039d57610116565b806378e1fa8f1461027d578063836c081d146102ad57806395d89b41146102cb578063a22cb465146102e957610116565b806323b872dd116100e957806323b872dd146101b557806342842e0e146101d15780636352211e146101ed57806370a082311461021d57806372f74f431461024d57610116565b806301ffc9a71461011b57806306fdde031461014b578063081812fc14610169578063095ea7b314610199575b600080fd5b610135600480360381019061013091906122e9565b6103cd565b6040516101429190612900565b60405180910390f35b6101536104af565b604051610160919061291b565b60405180910390f35b610183600480360381019061017e919061233b565b610541565b6040516101909190612899565b60405180910390f35b6101b360048036038101906101ae91906122ad565b6105c6565b005b6101cf60048036038101906101ca91906121a7565b6106de565b005b6101eb60048036038101906101e691906121a7565b61073e565b005b6102076004803603810190610202919061233b565b61075e565b6040516102149190612899565b60405180910390f35b61023760048036038101906102329190612142565b610810565b6040516102449190612b1f565b60405180910390f35b6102676004803603810190610262919061233b565b6108c8565b6040516102749190612afd565b60405180910390f35b6102976004803603810190610292919061233b565b610ac6565b6040516102a49190612afd565b60405180910390f35b6102b5610cc4565b6040516102c29190612b1f565b60405180910390f35b6102d3610cd5565b6040516102e0919061291b565b60405180910390f35b61030360048036038101906102fe9190612271565b610d67565b005b61031f600480360381019061031a919061233b565b610d7d565b005b61033b600480360381019061033691906121f6565b610e5c565b005b6103576004803603810190610352919061233b565b610ebe565b604051610364919061291b565b60405180910390f35b6103876004803603810190610382919061216b565b610f65565b6040516103949190612900565b60405180910390f35b6103b760048036038101906103b29190612364565b610ff9565b6040516103c49190612b1f565b60405180910390f35b60007f80ac58cd000000000000000000000000000000000000000000000000000000007bffffffffffffffffffffffffffffffffffffffffffffffffffffffff1916827bffffffffffffffffffffffffffffffffffffffffffffffffffffffff1916148061049857507f5b5e139f000000000000000000000000000000000000000000000000000000007bffffffffffffffffffffffffffffffffffffffffffffffffffffffff1916827bffffffffffffffffffffffffffffffffffffffffffffffffffffffff1916145b806104a857506104a7826111fe565b5b9050919050565b6060600080546104be90612dfb565b80601f01602080910402602001604051908101604052809291908181526020018280546104ea90612dfb565b80156105375780601f1061050c57610100808354040283529160200191610537565b820191906000526020600020905b81548152906001019060200180831161051a57829003601f168201915b5050505050905090565b600061054c82611268565b61058b576040517f08c379a000000000000000000000000000000000000000000000000000000000815260040161058290612a7d565b60405180910390fd5b6004600083815260200190815260200160002060009054906101000a900473ffffffffffffffffffffffffffffffffffffffff169050919050565b60006105d18261075e565b90508073ffffffffffffffffffffffffffffffffffffffff168373ffffffffffffffffffffffffffffffffffffffff161415610642576040517f08c379a000000000000000000000000000000000000000000000000000000000815260040161063990612abd565b60405180910390fd5b8073ffffffffffffffffffffffffffffffffffffffff166106616112d4565b73ffffffffffffffffffffffffffffffffffffffff161480610690575061068f8161068a6112d4565b610f65565b5b6106cf576040517f08c379a00000000000000000000000000000000000000000000000000000000081526004016106c6906129fd565b60405180910390fd5b6106d983836112dc565b505050565b6106ef6106e96112d4565b82611395565b61072e576040517f08c379a000000000000000000000000000000000000000000000000000000000815260040161072590612add565b60405180910390fd5b610739838383611473565b505050565b61075983838360405180602001604052806000815250610e5c565b505050565b6000806002600084815260200190815260200160002060009054906101000a900473ffffffffffffffffffffffffffffffffffffffff169050600073ffffffffffffffffffffffffffffffffffffffff168173ffffffffffffffffffffffffffffffffffffffff161415610807576040517f08c379a00000000000000000000000000000000000000000000000000000000081526004016107fe90612a3d565b60405180910390fd5b80915050919050565b60008073ffffffffffffffffffffffffffffffffffffffff168273ffffffffffffffffffffffffffffffffffffffff161415610881576040517f08c379a000000000000000000000000000000000000000000000000000000000815260040161087890612a1d565b60405180910390fd5b600360008373ffffffffffffffffffffffffffffffffffffffff1673ffffffffffffffffffffffffffffffffffffffff168152602001908152602001600020549050919050565b6108d0611e29565b600760008381526020019081526020016000206040518060e00160405290816000820180546108fe90612dfb565b80601f016020809104026020016040519081016040528092919081815260200182805461092a90612dfb565b80156109775780601f1061094c57610100808354040283529160200191610977565b820191906000526020600020905b81548152906001019060200180831161095a57829003601f168201915b50505050508152602001600182015481526020016002820160009054906101000a900463ffffffff1663ffffffff1663ffffffff1681526020016003820180546109c090612dfb565b80601f01602080910402602001604051908101604052809291908181526020018280546109ec90612dfb565b8015610a395780601f10610a0e57610100808354040283529160200191610a39565b820191906000526020600020905b815481529060010190602001808311610a1c57829003601f168201915b5050505050815260200160048201805480602002602001604051908101604052809291908181526020018280548015610a9157602002820191906000526020600020905b815481526020019060010190808311610a7d575b50505050508152602001600582015481526020016006820160009054906101000a900460ff1615151515815250509050919050565b610ace611e29565b600860008381526020019081526020016000206040518060e0016040529081600082018054610afc90612dfb565b80601f0160208091040260200160405190810160405280929190818152602001828054610b2890612dfb565b8015610b755780601f10610b4a57610100808354040283529160200191610b75565b820191906000526020600020905b815481529060010190602001808311610b5857829003601f168201915b50505050508152602001600182015481526020016002820160009054906101000a900463ffffffff1663ffffffff1663ffffffff168152602001600382018054610bbe90612dfb565b80601f0160208091040260200160405190810160405280929190818152602001828054610bea90612dfb565b8015610c375780601f10610c0c57610100808354040283529160200191610c37565b820191906000526020600020905b815481529060010190602001808311610c1a57829003601f168201915b5050505050815260200160048201805480602002602001604051908101604052809291908181526020018280548015610c8f57602002820191906000526020600020905b815481526020019060010190808311610c7b575b50505050508152602001600582015481526020016006820160009054906101000a900460ff1615151515815250509050919050565b6000610cd060066116da565b905090565b606060018054610ce490612dfb565b80601f0160208091040260200160405190810160405280929190818152602001828054610d1090612dfb565b8015610d5d5780601f10610d3257610100808354040283529160200191610d5d565b820191906000526020600020905b815481529060010190602001808311610d4057829003601f168201915b5050505050905090565b610d79610d726112d4565b83836116e8565b5050565b6040518060400160405280600a81526020017f7574696c697a7a61746100000000000000000000000000000000000000000000815250600760008381526020019081526020016000206003019080519060200190610ddc929190611e6e565b506000600760008381526020019081526020016000206005015490506040518060400160405280600a81526020017f7574696c697a7a61746100000000000000000000000000000000000000000000815250600860008381526020019081526020016000206003019080519060200190610e57929190611e6e565b505050565b610e6d610e676112d4565b83611395565b610eac576040517f08c379a0000000000000000000000000000000000000000000000000000000008152600401610ea390612add565b60405180910390fd5b610eb884848484611855565b50505050565b6060610ec982611268565b610f08576040517f08c379a0000000000000000000000000000000000000000000000000000000008152600401610eff90612a9d565b60405180910390fd5b6000610f126118b1565b90506000815111610f325760405180602001604052806000815250610f5d565b80610f3c846118c8565b604051602001610f4d929190612875565b6040516020818303038152906040525b915050919050565b6000600560008473ffffffffffffffffffffffffffffffffffffffff1673ffffffffffffffffffffffffffffffffffffffff16815260200190815260200160002060008373ffffffffffffffffffffffffffffffffffffffff1673ffffffffffffffffffffffffffffffffffffffff16815260200190815260200160002060009054906101000a900460ff16905092915050565b60006110056006611a75565b600061101160066116da565b905060006040518060e001604052808581526020018a81526020018963ffffffff16815260200188815260200186815260200183815260200160011515815250905080600760008b81526020019081526020016000206000820151816000019080519060200190611083929190611e6e565b506020820151816001015560408201518160020160006101000a81548163ffffffff021916908363ffffffff16021790555060608201518160030190805190602001906110d1929190611e6e565b5060808201518160040190805190602001906110ee929190611ef4565b5060a0820151816005015560c08201518160060160006101000a81548160ff0219169083151502179055509050508060086000848152602001908152602001600020600082015181600001908051906020019061114c929190611e6e565b506020820151816001015560408201518160020160006101000a81548163ffffffff021916908363ffffffff160217905550606082015181600301908051906020019061119a929190611e6e565b5060808201518160040190805190602001906111b7929190611ef4565b5060a0820151816005015560c08201518160060160006101000a81548160ff0219169083151502179055509050506111ef8683611a8b565b81925050509695505050505050565b60007f01ffc9a7000000000000000000000000000000000000000000000000000000007bffffffffffffffffffffffffffffffffffffffffffffffffffffffff1916827bffffffffffffffffffffffffffffffffffffffffffffffffffffffff1916149050919050565b60008073ffffffffffffffffffffffffffffffffffffffff166002600084815260200190815260200160002060009054906101000a900473ffffffffffffffffffffffffffffffffffffffff1673ffffffffffffffffffffffffffffffffffffffff1614159050919050565b600033905090565b816004600083815260200190815260200160002060006101000a81548173ffffffffffffffffffffffffffffffffffffffff021916908373ffffffffffffffffffffffffffffffffffffffff160217905550808273ffffffffffffffffffffffffffffffffffffffff1661134f8361075e565b73ffffffffffffffffffffffffffffffffffffffff167f8c5be1e5ebec7d5bd14f71427d1e84f3dd0314c0f7b2291e5b200ac8c7c3b92560405160405180910390a45050565b60006113a082611268565b6113df576040517f08c379a00000000000000000000000000000000000000000000000000000000081526004016113d6906129dd565b60405180910390fd5b60006113ea8361075e565b90508073ffffffffffffffffffffffffffffffffffffffff168473ffffffffffffffffffffffffffffffffffffffff16148061145957508373ffffffffffffffffffffffffffffffffffffffff1661144184610541565b73ffffffffffffffffffffffffffffffffffffffff16145b8061146a57506114698185610f65565b5b91505092915050565b8273ffffffffffffffffffffffffffffffffffffffff166114938261075e565b73ffffffffffffffffffffffffffffffffffffffff16146114e9576040517f08c379a00000000000000000000000000000000000000000000000000000000081526004016114e09061295d565b60405180910390fd5b600073ffffffffffffffffffffffffffffffffffffffff168273ffffffffffffffffffffffffffffffffffffffff161415611559576040517f08c379a00000000000000000000000000000000000000000000000000000000081526004016115509061299d565b60405180910390fd5b611564838383611c65565b61156f6000826112dc565b6001600360008573ffffffffffffffffffffffffffffffffffffffff1673ffffffffffffffffffffffffffffffffffffffff16815260200190815260200160002060008282546115bf9190612d01565b925050819055506001600360008473ffffffffffffffffffffffffffffffffffffffff1673ffffffffffffffffffffffffffffffffffffffff16815260200190815260200160002060008282546116169190612c7a565b92505081905550816002600083815260200190815260200160002060006101000a81548173ffffffffffffffffffffffffffffffffffffffff021916908373ffffffffffffffffffffffffffffffffffffffff160217905550808273ffffffffffffffffffffffffffffffffffffffff168473ffffffffffffffffffffffffffffffffffffffff167fddf252ad1be2c89b69c2b068fc378daa952ba7f163c4a11628f55a4df523b3ef60405160405180910390a46116d5838383611c6a565b505050565b600081600001549050919050565b8173ffffffffffffffffffffffffffffffffffffffff168373ffffffffffffffffffffffffffffffffffffffff161415611757576040517f08c379a000000000000000000000000000000000000000000000000000000000815260040161174e906129bd565b60405180910390fd5b80600560008573ffffffffffffffffffffffffffffffffffffffff1673ffffffffffffffffffffffffffffffffffffffff16815260200190815260200160002060008473ffffffffffffffffffffffffffffffffffffffff1673ffffffffffffffffffffffffffffffffffffffff16815260200190815260200160002060006101000a81548160ff0219169083151502179055508173ffffffffffffffffffffffffffffffffffffffff168373ffffffffffffffffffffffffffffffffffffffff167f17307eab39ab6107e8899845ad3d59bd9653f200f220920489ca2b5937696c31836040516118489190612900565b60405180910390a3505050565b611860848484611473565b61186c84848484611c6f565b6118ab576040517f08c379a00000000000000000000000000000000000000000000000000000000081526004016118a29061293d565b60405180910390fd5b50505050565b606060405180602001604052806000815250905090565b60606000821415611910576040518060400160405280600181526020017f30000000000000000000000000000000000000000000000000000000000000008152509050611a70565b600082905060005b6000821461194257808061192b90612e5e565b915050600a8261193b9190612cd0565b9150611918565b60008167ffffffffffffffff811115611984577f4e487b7100000000000000000000000000000000000000000000000000000000600052604160045260246000fd5b6040519080825280601f01601f1916602001820160405280156119b65781602001600182028036833780820191505090505b5090505b60008514611a69576001826119cf9190612d01565b9150600a856119de9190612ea7565b60306119ea9190612c7a565b60f81b818381518110611a26577f4e487b7100000000000000000000000000000000000000000000000000000000600052603260045260246000fd5b60200101907effffffffffffffffffffffffffffffffffffffffffffffffffffffffffffff1916908160001a905350600a85611a629190612cd0565b94506119ba565b8093505050505b919050565b6001816000016000828254019250508190555050565b600073ffffffffffffffffffffffffffffffffffffffff168273ffffffffffffffffffffffffffffffffffffffff161415611afb576040517f08c379a0000000000000000000000000000000000000000000000000000000008152600401611af290612a5d565b60405180910390fd5b611b0481611268565b15611b44576040517f08c379a0000000000000000000000000000000000000000000000000000000008152600401611b3b9061297d565b60405180910390fd5b611b5060008383611c65565b6001600360008473ffffffffffffffffffffffffffffffffffffffff1673ffffffffffffffffffffffffffffffffffffffff1681526020019081526020016000206000828254611ba09190612c7a565b92505081905550816002600083815260200190815260200160002060006101000a81548173ffffffffffffffffffffffffffffffffffffffff021916908373ffffffffffffffffffffffffffffffffffffffff160217905550808273ffffffffffffffffffffffffffffffffffffffff16600073ffffffffffffffffffffffffffffffffffffffff167fddf252ad1be2c89b69c2b068fc378daa952ba7f163c4a11628f55a4df523b3ef60405160405180910390a4611c6160008383611c6a565b5050565b505050565b505050565b6000611c908473ffffffffffffffffffffffffffffffffffffffff16611e06565b15611df9578373ffffffffffffffffffffffffffffffffffffffff1663150b7a02611cb96112d4565b8786866040518563ffffffff1660e01b8152600401611cdb94939291906128b4565b602060405180830381600087803b158015611cf557600080fd5b505af1925050508015611d2657506040513d601f19601f82011682018060405250810190611d239190612312565b60015b611da9573d8060008114611d56576040519150601f19603f3d011682016040523d82523d6000602084013e611d5b565b606091505b50600081511415611da1576040517f08c379a0000000000000000000000000000000000000000000000000000000008152600401611d989061293d565b60405180910390fd5b805181602001fd5b63150b7a0260e01b7bffffffffffffffffffffffffffffffffffffffffffffffffffffffff1916817bffffffffffffffffffffffffffffffffffffffffffffffffffffffff191614915050611dfe565b600190505b949350505050565b6000808273ffffffffffffffffffffffffffffffffffffffff163b119050919050565b6040518060e001604052806060815260200160008152602001600063ffffffff1681526020016060815260200160608152602001600081526020016000151581525090565b828054611e7a90612dfb565b90600052602060002090601f016020900481019282611e9c5760008555611ee3565b82601f10611eb557805160ff1916838001178555611ee3565b82800160010185558215611ee3579182015b82811115611ee2578251825591602001919060010190611ec7565b5b509050611ef09190611f41565b5090565b828054828255906000526020600020908101928215611f30579160200282015b82811115611f2f578251825591602001919060010190611f14565b5b509050611f3d9190611f41565b5090565b5b80821115611f5a576000816000905550600101611f42565b5090565b6000611f71611f6c84612b5f565b612b3a565b90508083825260208201905082856020860282011115611f9057600080fd5b60005b85811015611fc05781611fa68882612118565b845260208401935060208301925050600181019050611f93565b5050509392505050565b6000611fdd611fd884612b8b565b612b3a565b905082815260208101848484011115611ff557600080fd5b612000848285612db9565b509392505050565b600061201b61201684612bbc565b612b3a565b90508281526020810184848401111561203357600080fd5b61203e848285612db9565b509392505050565b60008135905061205581613385565b92915050565b600082601f83011261206c57600080fd5b813561207c848260208601611f5e565b91505092915050565b6000813590506120948161339c565b92915050565b6000813590506120a9816133b3565b92915050565b6000815190506120be816133b3565b92915050565b600082601f8301126120d557600080fd5b81356120e5848260208601611fca565b91505092915050565b600082601f8301126120ff57600080fd5b813561210f848260208601612008565b91505092915050565b600081359050612127816133ca565b92915050565b60008135905061213c816133e1565b92915050565b60006020828403121561215457600080fd5b600061216284828501612046565b91505092915050565b6000806040838503121561217e57600080fd5b600061218c85828601612046565b925050602061219d85828601612046565b9150509250929050565b6000806000606084860312156121bc57600080fd5b60006121ca86828701612046565b93505060206121db86828701612046565b92505060406121ec86828701612118565b9150509250925092565b6000806000806080858703121561220c57600080fd5b600061221a87828801612046565b945050602061222b87828801612046565b935050604061223c87828801612118565b925050606085013567ffffffffffffffff81111561225957600080fd5b612265878288016120c4565b91505092959194509250565b6000806040838503121561228457600080fd5b600061229285828601612046565b92505060206122a385828601612085565b9150509250929050565b600080604083850312156122c057600080fd5b60006122ce85828601612046565b92505060206122df85828601612118565b9150509250929050565b6000602082840312156122fb57600080fd5b60006123098482850161209a565b91505092915050565b60006020828403121561232457600080fd5b6000612332848285016120af565b91505092915050565b60006020828403121561234d57600080fd5b600061235b84828501612118565b91505092915050565b60008060008060008060c0878903121561237d57600080fd5b600061238b89828a01612118565b965050602061239c89828a0161212d565b955050604087013567ffffffffffffffff8111156123b957600080fd5b6123c589828a016120ee565b94505060606123d689828a01612046565b935050608087013567ffffffffffffffff8111156123f357600080fd5b6123ff89828a0161205b565b92505060a087013567ffffffffffffffff81111561241c57600080fd5b61242889828a016120ee565b9150509295509295509295565b60006124418383612848565b60208301905092915050565b61245681612d35565b82525050565b600061246782612bfd565b6124718185612c2b565b935061247c83612bed565b8060005b838110156124ad5781516124948882612435565b975061249f83612c1e565b925050600181019050612480565b5085935050505092915050565b6124c381612d47565b82525050565b6124d281612d47565b82525050565b60006124e382612c08565b6124ed8185612c3c565b93506124fd818560208601612dc8565b61250681612f94565b840191505092915050565b600061251c82612c13565b6125268185612c4d565b9350612536818560208601612dc8565b61253f81612f94565b840191505092915050565b600061255582612c13565b61255f8185612c5e565b935061256f818560208601612dc8565b61257881612f94565b840191505092915050565b600061258e82612c13565b6125988185612c6f565b93506125a8818560208601612dc8565b80840191505092915050565b60006125c1603283612c5e565b91506125cc82612fa5565b604082019050919050565b60006125e4602583612c5e565b91506125ef82612ff4565b604082019050919050565b6000612607601c83612c5e565b915061261282613043565b602082019050919050565b600061262a602483612c5e565b91506126358261306c565b604082019050919050565b600061264d601983612c5e565b9150612658826130bb565b602082019050919050565b6000612670602c83612c5e565b915061267b826130e4565b604082019050919050565b6000612693603883612c5e565b915061269e82613133565b604082019050919050565b60006126b6602a83612c5e565b91506126c182613182565b604082019050919050565b60006126d9602983612c5e565b91506126e4826131d1565b604082019050919050565b60006126fc602083612c5e565b915061270782613220565b602082019050919050565b600061271f602c83612c5e565b915061272a82613249565b604082019050919050565b6000612742602f83612c5e565b915061274d82613298565b604082019050919050565b6000612765602183612c5e565b9150612770826132e7565b604082019050919050565b6000612788603183612c5e565b915061279382613336565b604082019050919050565b600060e08301600083015184820360008601526127bb8282612511565b91505060208301516127d06020860182612848565b5060408301516127e36040860182612866565b50606083015184820360608601526127fb8282612511565b91505060808301518482036080860152612815828261245c565b91505060a083015161282a60a0860182612848565b5060c083015161283d60c08601826124ba565b508091505092915050565b61285181612d9f565b82525050565b61286081612d9f565b82525050565b61286f81612da9565b82525050565b60006128818285612583565b915061288d8284612583565b91508190509392505050565b60006020820190506128ae600083018461244d565b92915050565b60006080820190506128c9600083018761244d565b6128d6602083018661244d565b6128e36040830185612857565b81810360608301526128f581846124d8565b905095945050505050565b600060208201905061291560008301846124c9565b92915050565b60006020820190508181036000830152612935818461254a565b905092915050565b60006020820190508181036000830152612956816125b4565b9050919050565b60006020820190508181036000830152612976816125d7565b9050919050565b60006020820190508181036000830152612996816125fa565b9050919050565b600060208201905081810360008301526129b68161261d565b9050919050565b600060208201905081810360008301526129d681612640565b9050919050565b600060208201905081810360008301526129f681612663565b9050919050565b60006020820190508181036000830152612a1681612686565b9050919050565b60006020820190508181036000830152612a36816126a9565b9050919050565b60006020820190508181036000830152612a56816126cc565b9050919050565b60006020820190508181036000830152612a76816126ef565b9050919050565b60006020820190508181036000830152612a9681612712565b9050919050565b60006020820190508181036000830152612ab681612735565b9050919050565b60006020820190508181036000830152612ad681612758565b9050919050565b60006020820190508181036000830152612af68161277b565b9050919050565b60006020820190508181036000830152612b17818461279e565b905092915050565b6000602082019050612b346000830184612857565b92915050565b6000612b44612b55565b9050612b508282612e2d565b919050565b6000604051905090565b600067ffffffffffffffff821115612b7a57612b79612f65565b5b602082029050602081019050919050565b600067ffffffffffffffff821115612ba657612ba5612f65565b5b612baf82612f94565b9050602081019050919050565b600067ffffffffffffffff821115612bd757612bd6612f65565b5b612be082612f94565b9050602081019050919050565b6000819050602082019050919050565b600081519050919050565b600081519050919050565b600081519050919050565b6000602082019050919050565b600082825260208201905092915050565b600082825260208201905092915050565b600082825260208201905092915050565b600082825260208201905092915050565b600081905092915050565b6000612c8582612d9f565b9150612c9083612d9f565b9250827fffffffffffffffffffffffffffffffffffffffffffffffffffffffffffffffff03821115612cc557612cc4612ed8565b5b828201905092915050565b6000612cdb82612d9f565b9150612ce683612d9f565b925082612cf657612cf5612f07565b5b828204905092915050565b6000612d0c82612d9f565b9150612d1783612d9f565b925082821015612d2a57612d29612ed8565b5b828203905092915050565b6000612d4082612d7f565b9050919050565b60008115159050919050565b60007fffffffff0000000000000000000000000000000000000000000000000000000082169050919050565b600073ffffffffffffffffffffffffffffffffffffffff82169050919050565b6000819050919050565b600063ffffffff82169050919050565b82818337600083830152505050565b60005b83811015612de6578082015181840152602081019050612dcb565b83811115612df5576000848401525b50505050565b60006002820490506001821680612e1357607f821691505b60208210811415612e2757612e26612f36565b5b50919050565b612e3682612f94565b810181811067ffffffffffffffff82111715612e5557612e54612f65565b5b80604052505050565b6000612e6982612d9f565b91507fffffffffffffffffffffffffffffffffffffffffffffffffffffffffffffffff821415612e9c57612e9b612ed8565b5b600182019050919050565b6000612eb282612d9f565b9150612ebd83612d9f565b925082612ecd57612ecc612f07565b5b828206905092915050565b7f4e487b7100000000000000000000000000000000000000000000000000000000600052601160045260246000fd5b7f4e487b7100000000000000000000000000000000000000000000000000000000600052601260045260246000fd5b7f4e487b7100000000000000000000000000000000000000000000000000000000600052602260045260246000fd5b7f4e487b7100000000000000000000000000000000000000000000000000000000600052604160045260246000fd5b6000601f19601f8301169050919050565b7f4552433732313a207472616e7366657220746f206e6f6e20455243373231526560008201527f63656976657220696d706c656d656e7465720000000000000000000000000000602082015250565b7f4552433732313a207472616e736665722066726f6d20696e636f72726563742060008201527f6f776e6572000000000000000000000000000000000000000000000000000000602082015250565b7f4552433732313a20746f6b656e20616c7265616479206d696e74656400000000600082015250565b7f4552433732313a207472616e7366657220746f20746865207a65726f2061646460008201527f7265737300000000000000000000000000000000000000000000000000000000602082015250565b7f4552433732313a20617070726f766520746f2063616c6c657200000000000000600082015250565b7f4552433732313a206f70657261746f7220717565727920666f72206e6f6e657860008201527f697374656e7420746f6b656e0000000000000000000000000000000000000000602082015250565b7f4552433732313a20617070726f76652063616c6c6572206973206e6f74206f7760008201527f6e6572206e6f7220617070726f76656420666f7220616c6c0000000000000000602082015250565b7f4552433732313a2062616c616e636520717565727920666f7220746865207a6560008201527f726f206164647265737300000000000000000000000000000000000000000000602082015250565b7f4552433732313a206f776e657220717565727920666f72206e6f6e657869737460008201527f656e7420746f6b656e0000000000000000000000000000000000000000000000602082015250565b7f4552433732313a206d696e7420746f20746865207a65726f2061646472657373600082015250565b7f4552433732313a20617070726f76656420717565727920666f72206e6f6e657860008201527f697374656e7420746f6b656e0000000000000000000000000000000000000000602082015250565b7f4552433732314d657461646174613a2055524920717565727920666f72206e6f60008201527f6e6578697374656e7420746f6b656e0000000000000000000000000000000000602082015250565b7f4552433732313a20617070726f76616c20746f2063757272656e74206f776e6560008201527f7200000000000000000000000000000000000000000000000000000000000000602082015250565b7f4552433732313a207472616e736665722063616c6c6572206973206e6f74206f60008201527f776e6572206e6f7220617070726f766564000000000000000000000000000000602082015250565b61338e81612d35565b811461339957600080fd5b50565b6133a581612d47565b81146133b057600080fd5b50565b6133bc81612d53565b81146133c757600080fd5b50565b6133d381612d9f565b81146133de57600080fd5b50565b6133ea81612da9565b81146133f557600080fd5b5056fea264697066735822122010e6ee829b5127b75f2e45645d8ed24b444650c8007ce48876c814de702e219f64736f6c63430008010033",
  "immutableReferences": {},
  "source": "// SPDX-License-Identifier: MIT\r\n\r\npragma solidity>=0.5.16;\r\n\r\nimport \"@openzeppelin/contracts/token/ERC721/ERC721.sol\";\r\nimport \"@openzeppelin/contracts/utils/Counters.sol\";\r\n\r\n\r\ncontract CarbonFootprint is ERC721 {\r\n\r\n\r\n\r\n    // per tenere il conteggio dei token prodotti fino ad ora\r\n    using Counters for Counters.Counter;\r\n    Counters.Counter private _tokenIds;\r\n\r\n    // struttura che contiene le informazioni della risorsa\r\n    struct Risorsa {\r\n        string nome;\r\n        uint256 lotto;\r\n        uint32 valore_CO2; \r\n        string tipologia;\r\n        uint256[] id_materie_prime;\r\n        uint256 token;\r\n        bool exists;\r\n    }\r\n\r\n    // per ottenere la risorsa in base al lotto ed in base al token\r\n    mapping(uint256=>Risorsa) private risorsaByLotto; \r\n    mapping(uint256=>Risorsa) private risorsaById_prodotto; \r\n\r\n    constructor () ERC721(\"CarbonFootprint\", \"CFP\"){\r\n    }\r\n\r\n\r\n\r\n    //tale funzione crea il certificato per un prodotto (sia materia prima che trasformato)\r\n    function creaProdotto(\r\n        uint256 _lotto, uint32 _valore_CO2, string memory _tipologia, \r\n        address _possessore, uint256[] memory _id_materia_prima, string memory _nome\r\n        )\r\n        public returns(uint256){\r\n\r\n\r\n        _tokenIds.increment();\r\n        uint256 id_nuovo_prodotto = _tokenIds.current();\r\n\r\n        Risorsa memory risorsa = Risorsa(\r\n            _nome,\r\n            _lotto,\r\n            _valore_CO2,\r\n            _tipologia,\r\n            _id_materia_prima,\r\n            id_nuovo_prodotto,\r\n            true\r\n        );\r\n\r\n\r\n        risorsaByLotto[_lotto] = risorsa;\r\n        risorsaById_prodotto[id_nuovo_prodotto] = risorsa;\r\n        _mint(_possessore, id_nuovo_prodotto);\r\n\r\n        return id_nuovo_prodotto;\r\n    }\r\n\r\n\r\n    function setTipologiaUtilizzato(\r\n        uint256 _lotto\r\n    ) external {\r\n\r\n        risorsaByLotto[_lotto].tipologia = \"utilizzata\";\r\n        uint256 token = risorsaByLotto[_lotto].token;\r\n        risorsaById_prodotto[token].tipologia = \"utilizzata\";\r\n\r\n    }\r\n\r\n\r\n\r\n\r\n\r\n    // restituisce il numero di token prodotti fino ad ora\r\n    function currentToken(\r\n    ) external view returns(uint256) {\r\n\r\n        return _tokenIds.current();\r\n\r\n    }\r\n\r\n\r\n    // restituisce la risorsa a partire dall'id\r\n    function getRisorsaByIdProdotto(\r\n        uint256 _id_prodotto\r\n    ) external view returns(Risorsa memory) {\r\n\r\n        return risorsaById_prodotto[_id_prodotto];\r\n\r\n    }\r\n\r\n\r\n    // restituisce la risorsa a partire dal lotto\r\n    function getRisorsaByLotto(\r\n        uint256 _lotto\r\n    ) external view returns(Risorsa memory) {\r\n\r\n        return risorsaByLotto[_lotto];\r\n          \r\n    }\r\n\r\n\r\n}",
  "sourcePath": "C:\\Windows\\System32\\network\\3-nodes-istanbul-tessera-docker-compose\\contracts\\CarbonFootprint.sol",
  "compiler": {
    "name": "solc",
    "version": "0.8.1+commit.df193b15.Emscripten.clang"
  },
  "schemaVersion": "3.4.4",
  "updatedAt": "2022-02-19T01:02:45.914Z",
  "networkType": "quorum",
  "devdoc": {
    "kind": "dev",
    "methods": {
      "approve(address,uint256)": {
        "details": "See {IERC721-approve}."
      },
      "balanceOf(address)": {
        "details": "See {IERC721-balanceOf}."
      },
      "getApproved(uint256)": {
        "details": "See {IERC721-getApproved}."
      },
      "isApprovedForAll(address,address)": {
        "details": "See {IERC721-isApprovedForAll}."
      },
      "name()": {
        "details": "See {IERC721Metadata-name}."
      },
      "ownerOf(uint256)": {
        "details": "See {IERC721-ownerOf}."
      },
      "safeTransferFrom(address,address,uint256)": {
        "details": "See {IERC721-safeTransferFrom}."
      },
      "safeTransferFrom(address,address,uint256,bytes)": {
        "details": "See {IERC721-safeTransferFrom}."
      },
      "setApprovalForAll(address,bool)": {
        "details": "See {IERC721-setApprovalForAll}."
      },
      "supportsInterface(bytes4)": {
        "details": "See {IERC165-supportsInterface}."
      },
      "symbol()": {
        "details": "See {IERC721Metadata-symbol}."
      },
      "tokenURI(uint256)": {
        "details": "See {IERC721Metadata-tokenURI}."
      },
      "transferFrom(address,address,uint256)": {
        "details": "See {IERC721-transferFrom}."
      }
    },
    "version": 1
  },
  "userdoc": {
    "kind": "user",
    "methods": {},
    "version": 1
  }
}