{
  "contractName": "Generica",
  "abi": [
    {
      "inputs": [
        {
          "internalType": "string",
          "name": "s1",
          "type": "string"
        },
        {
          "internalType": "string",
          "name": "s2",
          "type": "string"
        }
      ],
      "name": "stringCompare",
      "outputs": [
        {
          "internalType": "bool",
          "name": "",
          "type": "bool"
        }
      ],
      "stateMutability": "pure",
      "type": "function",
      "constant": true
    },
    {
      "inputs": [
        {
          "internalType": "string",
          "name": "a",
          "type": "string"
        },
        {
          "internalType": "string",
          "name": "b",
          "type": "string"
        }
      ],
      "name": "concatenate",
      "outputs": [
        {
          "internalType": "string",
          "name": "",
          "type": "string"
        }
      ],
      "stateMutability": "pure",
      "type": "function",
      "constant": true
    }
  ],
  "bytecode": "0x610461610053600b82828239805160001a607314610046577f4e487b7100000000000000000000000000000000000000000000000000000000600052600060045260246000fd5b30600052607381538281f3fe73000000000000000000000000000000000000000030146080604052600436106100405760003560e01c8063266001d31461004557806360353db914610075575b600080fd5b61005f600480360381019061005a9190610192565b6100a5565b60405161006c91906102cd565b60405180910390f35b61008f600480360381019061008a9190610192565b6100d1565b60405161009c91906102b2565b60405180910390f35b606082826040516020016100ba92919061028e565b604051602081830303815290604052905092915050565b6000816040516020016100e49190610277565b604051602081830303815290604052805190602001208360405160200161010b9190610277565b6040516020818303038152906040528051906020012014905092915050565b600061013d61013884610314565b6102ef565b90508281526020810184848401111561015557600080fd5b610160848285610378565b509392505050565b600082601f83011261017957600080fd5b813561018984826020860161012a565b91505092915050565b600080604083850312156101a557600080fd5b600083013567ffffffffffffffff8111156101bf57600080fd5b6101cb85828601610168565b925050602083013567ffffffffffffffff8111156101e857600080fd5b6101f485828601610168565b9150509250929050565b6102078161036c565b82525050565b600061021882610345565b6102228185610350565b9350610232818560208601610387565b61023b8161041a565b840191505092915050565b600061025182610345565b61025b8185610361565b935061026b818560208601610387565b80840191505092915050565b60006102838284610246565b915081905092915050565b600061029a8285610246565b91506102a68284610246565b91508190509392505050565b60006020820190506102c760008301846101fe565b92915050565b600060208201905081810360008301526102e7818461020d565b905092915050565b60006102f961030a565b905061030582826103ba565b919050565b6000604051905090565b600067ffffffffffffffff82111561032f5761032e6103eb565b5b6103388261041a565b9050602081019050919050565b600081519050919050565b600082825260208201905092915050565b600081905092915050565b60008115159050919050565b82818337600083830152505050565b60005b838110156103a557808201518184015260208101905061038a565b838111156103b4576000848401525b50505050565b6103c38261041a565b810181811067ffffffffffffffff821117156103e2576103e16103eb565b5b80604052505050565b7f4e487b7100000000000000000000000000000000000000000000000000000000600052604160045260246000fd5b6000601f19601f830116905091905056fea2646970667358221220e483246e1fc6633b1d1901a7164fa69ca69f035362b188dc2df767c22de1c23264736f6c63430008010033",
  "immutableReferences": {},
  "source": "// SPDX-License-Identifier: MIT\r\n\r\npragma solidity>=0.5.16;\r\n\r\nlibrary Generica {\r\n\r\n    //funzione per comparare stringhe\r\n    function stringCompare(\r\n        string memory s1, string memory s2\r\n    ) \r\n    external pure returns(bool){\r\n\r\n        return keccak256(abi.encodePacked(s1)) == keccak256(abi.encodePacked(s2));\r\n    }\r\n\r\n\r\n\r\n    function toString(uint256 value) internal pure returns (string memory) {\r\n        \r\n        if (value == 0) {\r\n            return \"0\";\r\n        }\r\n        uint256 temp = value;\r\n        uint256 digits;\r\n        while (temp != 0) {\r\n            digits++;\r\n            temp /= 10;\r\n        }\r\n        bytes memory buffer = new bytes(digits);\r\n        while (value != 0) {\r\n            digits -= 1;\r\n            buffer[digits] = bytes1(uint8(48 + uint256(value % 10)));\r\n            value /= 10;\r\n        }\r\n        return string(buffer);\r\n    }\r\n\r\n\r\n    function concatenate(string memory a,string memory b) public pure returns (string memory){\r\n        return string(abi.encodePacked(a,b));\r\n    } \r\n\r\n\r\n}",
  "sourcePath": "C:\\Users\\lucry\\Desktop\\3-nodes-istanbul-tessera-docker-compose\\contracts\\Generica.sol",
  "compiler": {
    "name": "solc",
    "version": "0.8.1+commit.df193b15.Emscripten.clang"
  },
  "schemaVersion": "3.4.1",
  "updatedAt": "2022-02-23T18:32:35.309Z",
  "networkType": "quorum",
  "devdoc": {
    "kind": "dev",
    "methods": {},
    "version": 1
  },
  "userdoc": {
    "kind": "user",
    "methods": {},
    "version": 1
  }
}