{
  "contractName": "Generica",
  "abi": [
    {
      "inputs": [
        {
          "internalType": "string",
          "name": "s1",
          "type": "string"
        },
        {
          "internalType": "string",
          "name": "s2",
          "type": "string"
        }
      ],
      "name": "stringCompare",
      "outputs": [
        {
          "internalType": "bool",
          "name": "",
          "type": "bool"
        }
      ],
      "stateMutability": "pure",
      "type": "function",
      "constant": true
    },
    {
      "inputs": [
        {
          "internalType": "string",
          "name": "_str",
          "type": "string"
        }
      ],
      "name": "strToUint",
      "outputs": [
        {
          "internalType": "uint256",
          "name": "res",
          "type": "uint256"
        }
      ],
      "stateMutability": "pure",
      "type": "function",
      "constant": true
    }
  ],
  "bytecode": "0x6108ba610053600b82828239805160001a607314610046577f4e487b7100000000000000000000000000000000000000000000000000000000600052600060045260246000fd5b30600052607381538281f3fe73000000000000000000000000000000000000000030146080604052600436106100405760003560e01c806360353db914610045578063c5ef3ec514610075575b600080fd5b61005f600480360381019061005a919061032c565b6100a5565b60405161006c91906103fe565b60405180910390f35b61008f600480360381019061008a91906102eb565b6100fe565b60405161009c9190610419565b60405180910390f35b6000816040516020016100b891906103e7565b60405160208183030381529060405280519060200120836040516020016100df91906103e7565b6040516020818303038152906040528051906020012014905092915050565b600080600090505b825181101561027c576000603084838151811061014c577f4e487b7100000000000000000000000000000000000000000000000000000000600052603260045260246000fd5b602001015160f81c60f81b60f81c61016491906106f5565b60ff1610806101c85750600960308483815181106101ab577f4e487b7100000000000000000000000000000000000000000000000000000000600052603260045260246000fd5b602001015160f81c60f81b60f81c6101c391906106f5565b60ff16115b156101d757600091505061027e565b60018184516101e691906106c1565b6101f091906106c1565b600a6101fc9190610549565b6030848381518110610237577f4e487b7100000000000000000000000000000000000000000000000000000000600052603260045260246000fd5b602001015160f81c60f81b60f81c61024f91906106f5565b60ff1661025c9190610667565b8261026791906104a0565b91508080610274906107bf565b915050610106565b505b919050565b600061029661029184610459565b610434565b9050828152602081018484840111156102ae57600080fd5b6102b984828561074c565b509392505050565b600082601f8301126102d257600080fd5b81356102e2848260208601610283565b91505092915050565b6000602082840312156102fd57600080fd5b600082013567ffffffffffffffff81111561031757600080fd5b610323848285016102c1565b91505092915050565b6000806040838503121561033f57600080fd5b600083013567ffffffffffffffff81111561035957600080fd5b610365858286016102c1565b925050602083013567ffffffffffffffff81111561038257600080fd5b61038e858286016102c1565b9150509250929050565b6103a181610729565b82525050565b60006103b28261048a565b6103bc8185610495565b93506103cc81856020860161075b565b80840191505092915050565b6103e181610735565b82525050565b60006103f382846103a7565b915081905092915050565b60006020820190506104136000830184610398565b92915050565b600060208201905061042e60008301846103d8565b92915050565b600061043e61044f565b905061044a828261078e565b919050565b6000604051905090565b600067ffffffffffffffff82111561047457610473610837565b5b61047d82610866565b9050602081019050919050565b600081519050919050565b600081905092915050565b60006104ab82610735565b91506104b683610735565b9250827fffffffffffffffffffffffffffffffffffffffffffffffffffffffffffffffff038211156104eb576104ea610808565b5b828201905092915050565b6000808291508390505b60018511156105405780860481111561051c5761051b610808565b5b600185161561052b5780820291505b808102905061053985610877565b9450610500565b94509492505050565b600061055482610735565b915061055f83610735565b925061058c7fffffffffffffffffffffffffffffffffffffffffffffffffffffffffffffffff8484610594565b905092915050565b6000826105a45760019050610660565b816105b25760009050610660565b81600181146105c857600281146105d257610601565b6001915050610660565b60ff8411156105e4576105e3610808565b5b8360020a9150848211156105fb576105fa610808565b5b50610660565b5060208310610133831016604e8410600b84101617156106365782820a90508381111561063157610630610808565b5b610660565b61064384848460016104f6565b9250905081840481111561065a57610659610808565b5b81810290505b9392505050565b600061067282610735565b915061067d83610735565b9250817fffffffffffffffffffffffffffffffffffffffffffffffffffffffffffffffff04831182151516156106b6576106b5610808565b5b828202905092915050565b60006106cc82610735565b91506106d783610735565b9250828210156106ea576106e9610808565b5b828203905092915050565b60006107008261073f565b915061070b8361073f565b92508282101561071e5761071d610808565b5b828203905092915050565b60008115159050919050565b6000819050919050565b600060ff82169050919050565b82818337600083830152505050565b60005b8381101561077957808201518184015260208101905061075e565b83811115610788576000848401525b50505050565b61079782610866565b810181811067ffffffffffffffff821117156107b6576107b5610837565b5b80604052505050565b60006107ca82610735565b91507fffffffffffffffffffffffffffffffffffffffffffffffffffffffffffffffff8214156107fd576107fc610808565b5b600182019050919050565b7f4e487b7100000000000000000000000000000000000000000000000000000000600052601160045260246000fd5b7f4e487b7100000000000000000000000000000000000000000000000000000000600052604160045260246000fd5b6000601f19601f8301169050919050565b60008160011c905091905056fea2646970667358221220df6c2a9abc9407d340179c2978f827167892725834c10df4afcdb8f5fb5ffdcc64736f6c63430008010033",
  "immutableReferences": {},
  "source": "// SPDX-License-Identifier: MIT\r\n\r\npragma solidity>=0.5.16;\r\n\r\nlibrary Generica {\r\n\r\n    //funzione per comparare stringhe\r\n    function stringCompare(\r\n        string memory s1, string memory s2\r\n    ) \r\n    external pure returns(bool){\r\n\r\n        return keccak256(abi.encodePacked(s1)) == keccak256(abi.encodePacked(s2));\r\n    }\r\n\r\n\r\n\r\n    function strToUint(string memory _str) public pure returns(uint256 res) {\r\n    \r\n    for (uint256 i = 0; i < bytes(_str).length; i++) {\r\n        if ((uint8(bytes(_str)[i]) - 48) < 0 || (uint8(bytes(_str)[i]) - 48) > 9) {\r\n            return 0;\r\n        }\r\n        res += (uint8(bytes(_str)[i]) - 48) * 10**(bytes(_str).length - i - 1);\r\n    }\r\n    \r\n    return res;\r\n    }\r\n\r\n\r\n}\r\n",
  "sourcePath": "C:\\Windows\\System32\\network\\3-nodes-istanbul-tessera-docker-compose\\contracts\\Generica.sol",
  "compiler": {
    "name": "solc",
    "version": "0.8.1+commit.df193b15.Emscripten.clang"
  },
  "schemaVersion": "3.4.1",
  "updatedAt": "2022-02-18T15:38:53.695Z",
  "networkType": "quorum",
  "devdoc": {
    "kind": "dev",
    "methods": {},
    "version": 1
  },
  "userdoc": {
    "kind": "user",
    "methods": {},
    "version": 1
  }
}