{
  "contractName": "Gestore_nft",
  "abi": [
    {
      "anonymous": false,
      "inputs": [
        {
          "indexed": true,
          "internalType": "address",
          "name": "previousOwner",
          "type": "address"
        },
        {
          "indexed": true,
          "internalType": "address",
          "name": "newOwner",
          "type": "address"
        }
      ],
      "name": "OwnershipTransferred",
      "type": "event"
    },
    {
      "inputs": [
        {
          "internalType": "uint256",
          "name": "",
          "type": "uint256"
        }
      ],
      "name": "clienti",
      "outputs": [
        {
          "internalType": "address",
          "name": "",
          "type": "address"
        }
      ],
      "stateMutability": "view",
      "type": "function",
      "constant": true
    },
    {
      "inputs": [],
      "name": "owner",
      "outputs": [
        {
          "internalType": "address",
          "name": "",
          "type": "address"
        }
      ],
      "stateMutability": "view",
      "type": "function",
      "constant": true
    },
    {
      "inputs": [
        {
          "internalType": "uint256",
          "name": "",
          "type": "uint256"
        }
      ],
      "name": "produttori",
      "outputs": [
        {
          "internalType": "address",
          "name": "",
          "type": "address"
        }
      ],
      "stateMutability": "view",
      "type": "function",
      "constant": true
    },
    {
      "inputs": [],
      "name": "renounceOwnership",
      "outputs": [],
      "stateMutability": "nonpayable",
      "type": "function"
    },
    {
      "inputs": [
        {
          "internalType": "address",
          "name": "newOwner",
          "type": "address"
        }
      ],
      "name": "transferOwnership",
      "outputs": [],
      "stateMutability": "nonpayable",
      "type": "function"
    },
    {
      "inputs": [
        {
          "internalType": "uint256",
          "name": "",
          "type": "uint256"
        }
      ],
      "name": "trasformatori",
      "outputs": [
        {
          "internalType": "address",
          "name": "",
          "type": "address"
        }
      ],
      "stateMutability": "view",
      "type": "function",
      "constant": true
    },
    {
      "inputs": [
        {
          "internalType": "string",
          "name": "_tipo",
          "type": "string"
        },
        {
          "internalType": "address",
          "name": "_indirizzo_account",
          "type": "address"
        }
      ],
      "name": "aggiungiAttore",
      "outputs": [],
      "stateMutability": "nonpayable",
      "type": "function"
    },
    {
      "inputs": [
        {
          "internalType": "uint256",
          "name": "_lotto",
          "type": "uint256"
        },
        {
          "internalType": "uint32",
          "name": "_valore_CO2",
          "type": "uint32"
        },
        {
          "internalType": "string",
          "name": "_nome",
          "type": "string"
        }
      ],
      "name": "creaMateriaPrima",
      "outputs": [],
      "stateMutability": "nonpayable",
      "type": "function"
    },
    {
      "inputs": [
        {
          "internalType": "address",
          "name": "_destinatario",
          "type": "address"
        },
        {
          "internalType": "uint256",
          "name": "_lotto",
          "type": "uint256"
        },
        {
          "internalType": "address",
          "name": "_contract",
          "type": "address"
        }
      ],
      "name": "trasferimentoMateriaPrima",
      "outputs": [],
      "stateMutability": "nonpayable",
      "type": "function"
    },
    {
      "inputs": [
        {
          "internalType": "string[]",
          "name": "_nomi_attivita",
          "type": "string[]"
        },
        {
          "internalType": "uint32[]",
          "name": "_valori_CO2_attivita",
          "type": "uint32[]"
        },
        {
          "internalType": "string",
          "name": "_nome",
          "type": "string"
        },
        {
          "internalType": "uint256[]",
          "name": "_lotti_materie_prime",
          "type": "uint256[]"
        },
        {
          "internalType": "uint256",
          "name": "_lotto",
          "type": "uint256"
        }
      ],
      "name": "creaProdotto",
      "outputs": [],
      "stateMutability": "nonpayable",
      "type": "function"
    },
    {
      "inputs": [
        {
          "internalType": "uint256",
          "name": "_token",
          "type": "uint256"
        }
      ],
      "name": "getOwnerByToken",
      "outputs": [
        {
          "internalType": "address",
          "name": "",
          "type": "address"
        }
      ],
      "stateMutability": "view",
      "type": "function",
      "constant": true
    },
    {
      "inputs": [
        {
          "internalType": "uint256",
          "name": "_token",
          "type": "uint256"
        }
      ],
      "name": "getInfoByToken",
      "outputs": [
        {
          "internalType": "string",
          "name": "",
          "type": "string"
        },
        {
          "internalType": "uint256",
          "name": "",
          "type": "uint256"
        },
        {
          "internalType": "string[]",
          "name": "",
          "type": "string[]"
        },
        {
          "internalType": "uint32[]",
          "name": "",
          "type": "uint32[]"
        },
        {
          "internalType": "uint32",
          "name": "",
          "type": "uint32"
        },
        {
          "internalType": "string",
          "name": "",
          "type": "string"
        },
        {
          "internalType": "uint256[]",
          "name": "",
          "type": "uint256[]"
        },
        {
          "internalType": "uint256",
          "name": "",
          "type": "uint256"
        }
      ],
      "stateMutability": "view",
      "type": "function",
      "constant": true
    },
    {
      "inputs": [
        {
          "internalType": "uint256",
          "name": "_lotto",
          "type": "uint256"
        }
      ],
      "name": "getInfoByLotto",
      "outputs": [
        {
          "internalType": "string",
          "name": "",
          "type": "string"
        },
        {
          "internalType": "uint256",
          "name": "",
          "type": "uint256"
        },
        {
          "internalType": "string[]",
          "name": "",
          "type": "string[]"
        },
        {
          "internalType": "uint32[]",
          "name": "",
          "type": "uint32[]"
        },
        {
          "internalType": "uint32",
          "name": "",
          "type": "uint32"
        },
        {
          "internalType": "string",
          "name": "",
          "type": "string"
        },
        {
          "internalType": "uint256[]",
          "name": "",
          "type": "uint256[]"
        },
        {
          "internalType": "uint256",
          "name": "",
          "type": "uint256"
        }
      ],
      "stateMutability": "view",
      "type": "function",
      "constant": true
    },
    {
      "inputs": [
        {
          "internalType": "string",
          "name": "_nome",
          "type": "string"
        }
      ],
      "name": "getInfoByNome",
      "outputs": [
        {
          "components": [
            {
              "internalType": "string",
              "name": "nome",
              "type": "string"
            },
            {
              "internalType": "uint256",
              "name": "lotto",
              "type": "uint256"
            },
            {
              "internalType": "string[]",
              "name": "nomi_attivita",
              "type": "string[]"
            },
            {
              "internalType": "uint32[]",
              "name": "valori_CO2_attivita",
              "type": "uint32[]"
            },
            {
              "internalType": "uint32",
              "name": "valore_CO2",
              "type": "uint32"
            },
            {
              "internalType": "string",
              "name": "tipologia",
              "type": "string"
            },
            {
              "internalType": "uint256[]",
              "name": "lotti_materie_prime",
              "type": "uint256[]"
            },
            {
              "internalType": "uint256",
              "name": "token",
              "type": "uint256"
            },
            {
              "internalType": "bool",
              "name": "exists",
              "type": "bool"
            }
          ],
          "internalType": "struct CarbonFootprint.Risorsa[]",
          "name": "",
          "type": "tuple[]"
        }
      ],
      "stateMutability": "view",
      "type": "function",
      "constant": true
    },
    {
      "inputs": [
        {
          "internalType": "string",
          "name": "_tipo",
          "type": "string"
        },
        {
          "internalType": "address",
          "name": "_indirizzo_account",
          "type": "address"
        }
      ],
      "name": "nonEsistente",
      "outputs": [
        {
          "internalType": "bool",
          "name": "",
          "type": "bool"
        }
      ],
      "stateMutability": "view",
      "type": "function",
      "constant": true
    }
  ],
  "bytecode": "0x608060405260006004556000600555600060065560405162000021906200017f565b604051809103906000f0801580156200003e573d6000803e3d6000fd5b50600760006101000a81548173ffffffffffffffffffffffffffffffffffffffff021916908373ffffffffffffffffffffffffffffffffffffffff1602179055503480156200008c57600080fd5b50620000ad620000a1620000b360201b60201c565b620000bb60201b60201c565b6200018d565b600033905090565b60008060009054906101000a900473ffffffffffffffffffffffffffffffffffffffff169050816000806101000a81548173ffffffffffffffffffffffffffffffffffffffff021916908373ffffffffffffffffffffffffffffffffffffffff1602179055508173ffffffffffffffffffffffffffffffffffffffff168173ffffffffffffffffffffffffffffffffffffffff167f8be0079c531659141344cd1fd0a4f28419497f9722a3daafe3b4186f6b6457e060405160405180910390a35050565b613e45806200493f83390190565b6147a2806200019d6000396000f3fe608060405234801561001057600080fd5b50600436106100f55760003560e01c80638da5cb5b11610097578063e7ddd4ea11610066578063e7ddd4ea14610290578063eb2cc752146102c0578063f2fde38b146102f0578063f6f9d0551461030c576100f5565b80638da5cb5b1461020a57806399213e27146102285780639b1414c014610244578063ae6c17f314610260576100f5565b8063602ef7ed116100d3578063602ef7ed14610191578063715018a6146101ad578063789ce91f146101b75780637f824152146101ee576100f5565b80631896a5af146100fa57806320cf45f81461012a5780634e3bb97c14610161575b600080fd5b610114600480360381019061010f9190612e65565b61033c565b604051610121919061378a565b60405180910390f35b610144600480360381019061013f9190612e65565b61036f565b60405161015898979695949392919061394d565b60405180910390f35b61017b60048036038101906101769190612dd0565b6104ce565b6040516101889190613827565b60405180910390f35b6101ab60048036038101906101a69190612c40565b610842565b005b6101b5610a6d565b005b6101d160048036038101906101cc9190612e65565b610af5565b6040516101e598979695949392919061394d565b60405180910390f35b61020860048036038101906102039190612c8f565b610ce9565b005b610212611350565b60405161021f919061378a565b60405180910390f35b610242600480360381019061023d9190612eb7565b611379565b005b61025e60048036038101906102599190612dd0565b611659565b005b61027a60048036038101906102759190612d8f565b611bef565b6040516102879190613805565b60405180910390f35b6102aa60048036038101906102a59190612e65565b611fb9565b6040516102b7919061378a565b60405180910390f35b6102da60048036038101906102d59190612e65565b612192565b6040516102e7919061378a565b60405180910390f35b61030a60048036038101906103059190612bee565b6121c5565b005b61032660048036038101906103219190612e65565b6122bd565b604051610333919061378a565b60405180910390f35b60026020528060005260406000206000915054906101000a900473ffffffffffffffffffffffffffffffffffffffff1681565b606060006060806000606080600080600760009054906101000a900473ffffffffffffffffffffffffffffffffffffffff1673ffffffffffffffffffffffffffffffffffffffff166372f74f438b6040518263ffffffff1660e01b81526004016103d99190613c2e565b60006040518083038186803b1580156103f157600080fd5b505afa158015610405573d6000803e3d6000fd5b505050506040513d6000823e3d601f19601f8201168201806040525081019061042e9190612e24565b905060008a1415801561044b575060001515816101000151151514155b61048a576040517f08c379a000000000000000000000000000000000000000000000000000000000815260040161048190613a4e565b60405180910390fd5b806000015181602001518260400151836060015184608001518560a001518660c001518760e001519850985098509850985098509850985050919395975091939597565b600073__Generica______________________________6360353db9846040518263ffffffff1660e01b81526004016105079190613879565b60206040518083038186803b15801561051f57600080fd5b505af4158015610533573d6000803e3d6000fd5b505050506040513d601f19601f820116820180604052508101906105579190612d66565b156105f35760005b6004548110156105ed576001600082815260200190815260200160002060009054906101000a900473ffffffffffffffffffffffffffffffffffffffff1673ffffffffffffffffffffffffffffffffffffffff168373ffffffffffffffffffffffffffffffffffffffff1614156105da57600091505061083c565b80806105e5906140bb565b91505061055f565b50610837565b73__Generica______________________________6360353db9846040518263ffffffff1660e01b815260040161062a91906138ae565b60206040518083038186803b15801561064257600080fd5b505af4158015610656573d6000803e3d6000fd5b505050506040513d601f19601f8201168201806040525081019061067a9190612d66565b156107165760005b600554811015610710576002600082815260200190815260200160002060009054906101000a900473ffffffffffffffffffffffffffffffffffffffff1673ffffffffffffffffffffffffffffffffffffffff168373ffffffffffffffffffffffffffffffffffffffff1614156106fd57600091505061083c565b8080610708906140bb565b915050610682565b50610836565b73__Generica______________________________6360353db9846040518263ffffffff1660e01b815260040161074d91906138e3565b60206040518083038186803b15801561076557600080fd5b505af4158015610779573d6000803e3d6000fd5b505050506040513d601f19601f8201168201806040525081019061079d9190612d66565b156108355760005b600654811015610833576003600082815260200190815260200160002060009054906101000a900473ffffffffffffffffffffffffffffffffffffffff1673ffffffffffffffffffffffffffffffffffffffff168373ffffffffffffffffffffffffffffffffffffffff16141561082057600091505061083c565b808061082b906140bb565b9150506107a5565b505b5b5b600190505b92915050565b6000600760009054906101000a900473ffffffffffffffffffffffffffffffffffffffff1673ffffffffffffffffffffffffffffffffffffffff166372f74f43846040518263ffffffff1660e01b815260040161089f9190613c2e565b60006040518083038186803b1580156108b757600080fd5b505afa1580156108cb573d6000803e3d6000fd5b505050506040513d6000823e3d601f19601f820116820180604052508101906108f49190612e24565b90506108ff846122f0565b1561093f576040517f08c379a000000000000000000000000000000000000000000000000000000000815260040161093690613aee565b60405180910390fd5b600760009054906101000a900473ffffffffffffffffffffffffffffffffffffffff1673ffffffffffffffffffffffffffffffffffffffff1663095ea7b3838360e001516040518363ffffffff1660e01b81526004016109a09291906137dc565b600060405180830381600087803b1580156109ba57600080fd5b505af11580156109ce573d6000803e3d6000fd5b50505050600760009054906101000a900473ffffffffffffffffffffffffffffffffffffffff1673ffffffffffffffffffffffffffffffffffffffff166342842e0e33868460e001516040518463ffffffff1660e01b8152600401610a35939291906137a5565b600060405180830381600087803b158015610a4f57600080fd5b505af1158015610a63573d6000803e3d6000fd5b5050505050505050565b610a756124b1565b73ffffffffffffffffffffffffffffffffffffffff16610a93611350565b73ffffffffffffffffffffffffffffffffffffffff1614610ae9576040517f08c379a0000000000000000000000000000000000000000000000000000000008152600401610ae090613b6e565b60405180910390fd5b610af360006124b9565b565b6060600060608060006060806000808914158015610bb25750600760009054906101000a900473ffffffffffffffffffffffffffffffffffffffff1673ffffffffffffffffffffffffffffffffffffffff1663836c081d6040518163ffffffff1660e01b815260040160206040518083038186803b158015610b7657600080fd5b505afa158015610b8a573d6000803e3d6000fd5b505050506040513d601f19601f82011682018060405250810190610bae9190612e8e565b8911155b610bf1576040517f08c379a0000000000000000000000000000000000000000000000000000000008152600401610be8906139ee565b60405180910390fd5b6000600760009054906101000a900473ffffffffffffffffffffffffffffffffffffffff1673ffffffffffffffffffffffffffffffffffffffff166378e1fa8f8b6040518263ffffffff1660e01b8152600401610c4e9190613c2e565b60006040518083038186803b158015610c6657600080fd5b505afa158015610c7a573d6000803e3d6000fd5b505050506040513d6000823e3d601f19601f82011682018060405250810190610ca39190612e24565b9050806000015181602001518260400151836060015184608001518560a001518660c001518760e001519850985098509850985098509850985050919395975091939597565b60001515600760009054906101000a900473ffffffffffffffffffffffffffffffffffffffff1673ffffffffffffffffffffffffffffffffffffffff166372f74f43836040518263ffffffff1660e01b8152600401610d489190613c2e565b60006040518083038186803b158015610d6057600080fd5b505afa158015610d74573d6000803e3d6000fd5b505050506040513d6000823e3d601f19601f82011682018060405250810190610d9d9190612e24565b6101000151151514610de4576040517f08c379a0000000000000000000000000000000000000000000000000000000008152600401610ddb90613b0e565b60405180910390fd5b610e236040518060400160405280600d81526020017f74726173666f726d61746f726500000000000000000000000000000000000000815250336104ce565b15610e63576040517f08c379a0000000000000000000000000000000000000000000000000000000008152600401610e5a90613bce565b60405180910390fd5b6000805b835181101561121f576000600760009054906101000a900473ffffffffffffffffffffffffffffffffffffffff1673ffffffffffffffffffffffffffffffffffffffff166372f74f43868481518110610ee9577f4e487b7100000000000000000000000000000000000000000000000000000000600052603260045260246000fd5b60200260200101516040518263ffffffff1660e01b8152600401610f0d9190613c2e565b60006040518083038186803b158015610f2557600080fd5b505afa158015610f39573d6000803e3d6000fd5b505050506040513d6000823e3d601f19601f82011682018060405250810190610f629190612e24565b90506000858381518110610f9f577f4e487b7100000000000000000000000000000000000000000000000000000000600052603260045260246000fd5b60200260200101511415610fe8576040517f08c379a0000000000000000000000000000000000000000000000000000000008152600401610fdf90613aae565b60405180910390fd5b3373ffffffffffffffffffffffffffffffffffffffff1661100c8260e00151611fb9565b73ffffffffffffffffffffffffffffffffffffffff1614611062576040517f08c379a000000000000000000000000000000000000000000000000000000000815260040161105990613a6e565b60405180910390fd5b73__Generica______________________________6360353db98260a001516040518263ffffffff1660e01b815260040161109d9190613918565b60206040518083038186803b1580156110b557600080fd5b505af41580156110c9573d6000803e3d6000fd5b505050506040513d601f19601f820116820180604052508101906110ed9190612d66565b61112c576040517f08c379a000000000000000000000000000000000000000000000000000000000815260040161112390613c0e565b60405180910390fd5b600760009054906101000a900473ffffffffffffffffffffffffffffffffffffffff1673ffffffffffffffffffffffffffffffffffffffff1663b3157ba68684815181106111a3577f4e487b7100000000000000000000000000000000000000000000000000000000600052603260045260246000fd5b60200260200101516040518263ffffffff1660e01b81526004016111c79190613c2e565b600060405180830381600087803b1580156111e157600080fd5b505af11580156111f5573d6000803e3d6000fd5b505050508060800151836112099190613fb6565b9250508080611217906140bb565b915050610e67565b5060005b855181101561128d57858181518110611265577f4e487b7100000000000000000000000000000000000000000000000000000000600052603260045260246000fd5b6020026020010151826112789190613fb6565b91508080611285906140bb565b915050611223565b50600760009054906101000a900473ffffffffffffffffffffffffffffffffffffffff1673ffffffffffffffffffffffffffffffffffffffff166336cc49928383898933898b6040518863ffffffff1660e01b81526004016112f59796959493929190613c49565b602060405180830381600087803b15801561130f57600080fd5b505af1158015611323573d6000803e3d6000fd5b505050506040513d601f19601f820116820180604052508101906113479190612e8e565b50505050505050565b60008060009054906101000a900473ffffffffffffffffffffffffffffffffffffffff16905090565b6113b86040518060400160405280600a81526020017f70726f647574746f726500000000000000000000000000000000000000000000815250336104ce565b156113f8576040517f08c379a00000000000000000000000000000000000000000000000000000000081526004016113ef90613bee565b60405180910390fd5b600083141561143c576040517f08c379a000000000000000000000000000000000000000000000000000000000815260040161143390613ace565b60405180910390fd5b60008263ffffffff16118015611458575060648263ffffffff16105b611497576040517f08c379a000000000000000000000000000000000000000000000000000000000815260040161148e90613b4e565b60405180910390fd5b60001515600760009054906101000a900473ffffffffffffffffffffffffffffffffffffffff1673ffffffffffffffffffffffffffffffffffffffff166372f74f43856040518263ffffffff1660e01b81526004016114f69190613c2e565b60006040518083038186803b15801561150e57600080fd5b505afa158015611522573d6000803e3d6000fd5b505050506040513d6000823e3d601f19601f8201168201806040525081019061154b9190612e24565b6101000151151514611592576040517f08c379a000000000000000000000000000000000000000000000000000000000815260040161158990613b2e565b60405180910390fd5b6060806060600760009054906101000a900473ffffffffffffffffffffffffffffffffffffffff1673ffffffffffffffffffffffffffffffffffffffff166336cc49928787858533898b6040518863ffffffff1660e01b81526004016115fe9796959493929190613ce8565b602060405180830381600087803b15801561161857600080fd5b505af115801561162c573d6000803e3d6000fd5b505050506040513d601f19601f820116820180604052508101906116509190612e8e565b50505050505050565b6116616124b1565b73ffffffffffffffffffffffffffffffffffffffff1661167f611350565b73ffffffffffffffffffffffffffffffffffffffff16146116d5576040517f08c379a00000000000000000000000000000000000000000000000000000000081526004016116cc90613b6e565b60405180910390fd5b73__Generica______________________________6360353db9836040518263ffffffff1660e01b815260040161170c9190613879565b60206040518083038186803b15801561172457600080fd5b505af4158015611738573d6000803e3d6000fd5b505050506040513d601f19601f8201168201806040525081019061175c9190612d66565b806117ea575073__Generica______________________________6360353db9836040518263ffffffff1660e01b815260040161179991906138ae565b60206040518083038186803b1580156117b157600080fd5b505af41580156117c5573d6000803e3d6000fd5b505050506040513d601f19601f820116820180604052508101906117e99190612d66565b5b80611878575073__Generica______________________________6360353db9836040518263ffffffff1660e01b815260040161182791906138e3565b60206040518083038186803b15801561183f57600080fd5b505af4158015611853573d6000803e3d6000fd5b505050506040513d601f19601f820116820180604052508101906118779190612d66565b5b6118b7576040517f08c379a00000000000000000000000000000000000000000000000000000000081526004016118ae90613a2e565b60405180910390fd5b6118c182826104ce565b611900576040517f08c379a00000000000000000000000000000000000000000000000000000000081526004016118f790613bae565b60405180910390fd5b73__Generica______________________________6360353db9836040518263ffffffff1660e01b81526004016119379190613879565b60206040518083038186803b15801561194f57600080fd5b505af4158015611963573d6000803e3d6000fd5b505050506040513d601f19601f820116820180604052508101906119879190612d66565b156119f9578060016000600454815260200190815260200160002060006101000a81548173ffffffffffffffffffffffffffffffffffffffff021916908373ffffffffffffffffffffffffffffffffffffffff160217905550600460008154809291906119f3906140bb565b91905055505b73__Generica______________________________6360353db9836040518263ffffffff1660e01b8152600401611a3091906138ae565b60206040518083038186803b158015611a4857600080fd5b505af4158015611a5c573d6000803e3d6000fd5b505050506040513d601f19601f82011682018060405250810190611a809190612d66565b15611af2578060026000600554815260200190815260200160002060006101000a81548173ffffffffffffffffffffffffffffffffffffffff021916908373ffffffffffffffffffffffffffffffffffffffff16021790555060056000815480929190611aec906140bb565b91905055505b73__Generica______________________________6360353db9836040518263ffffffff1660e01b8152600401611b2991906138e3565b60206040518083038186803b158015611b4157600080fd5b505af4158015611b55573d6000803e3d6000fd5b505050506040513d601f19601f82011682018060405250810190611b799190612d66565b15611beb578060036000600654815260200190815260200160002060006101000a81548173ffffffffffffffffffffffffffffffffffffffff021916908373ffffffffffffffffffffffffffffffffffffffff16021790555060066000815480929190611be5906140bb565b91905055505b5050565b60606000600760009054906101000a900473ffffffffffffffffffffffffffffffffffffffff1673ffffffffffffffffffffffffffffffffffffffff1663836c081d6040518163ffffffff1660e01b815260040160206040518083038186803b158015611c5b57600080fd5b505afa158015611c6f573d6000803e3d6000fd5b505050506040513d601f19601f82011682018060405250810190611c939190612e8e565b67ffffffffffffffff811115611cd2577f4e487b7100000000000000000000000000000000000000000000000000000000600052604160045260246000fd5b604051908082528060200260200182016040528015611d0b57816020015b611cf861257d565b815260200190600190039081611cf05790505b509050600080600190505b600760009054906101000a900473ffffffffffffffffffffffffffffffffffffffff1673ffffffffffffffffffffffffffffffffffffffff1663836c081d6040518163ffffffff1660e01b815260040160206040518083038186803b158015611d7e57600080fd5b505afa158015611d92573d6000803e3d6000fd5b505050506040513d601f19601f82011682018060405250810190611db69190612e8e565b8111611f6a576000600760009054906101000a900473ffffffffffffffffffffffffffffffffffffffff1673ffffffffffffffffffffffffffffffffffffffff166378e1fa8f836040518263ffffffff1660e01b8152600401611e199190613c2e565b60006040518083038186803b158015611e3157600080fd5b505afa158015611e45573d6000803e3d6000fd5b505050506040513d6000823e3d601f19601f82011682018060405250810190611e6e9190612e24565b905073__Generica______________________________6360353db98260000151886040518363ffffffff1660e01b8152600401611ead929190613842565b60206040518083038186803b158015611ec557600080fd5b505af4158015611ed9573d6000803e3d6000fd5b505050506040513d601f19601f82011682018060405250810190611efd9190612d66565b15611f565780848481518110611f3c577f4e487b7100000000000000000000000000000000000000000000000000000000600052603260045260246000fd5b60200260200101819052508280611f52906140bb565b9350505b508080611f62906140bb565b915050611d16565b506000811415611faf576040517f08c379a0000000000000000000000000000000000000000000000000000000008152600401611fa690613a0e565b60405180910390fd5b8192505050919050565b600080821415611ffe576040517f08c379a0000000000000000000000000000000000000000000000000000000008152600401611ff5906139ee565b60405180910390fd5b600760009054906101000a900473ffffffffffffffffffffffffffffffffffffffff1673ffffffffffffffffffffffffffffffffffffffff1663836c081d6040518163ffffffff1660e01b815260040160206040518083038186803b15801561206657600080fd5b505afa15801561207a573d6000803e3d6000fd5b505050506040513d601f19601f8201168201806040525081019061209e9190612e8e565b8211156120e0576040517f08c379a00000000000000000000000000000000000000000000000000000000081526004016120d790613b8e565b60405180910390fd5b600760009054906101000a900473ffffffffffffffffffffffffffffffffffffffff1673ffffffffffffffffffffffffffffffffffffffff16636352211e836040518263ffffffff1660e01b815260040161213b9190613c2e565b60206040518083038186803b15801561215357600080fd5b505afa158015612167573d6000803e3d6000fd5b505050506040513d601f19601f8201168201806040525081019061218b9190612c17565b9050919050565b60016020528060005260406000206000915054906101000a900473ffffffffffffffffffffffffffffffffffffffff1681565b6121cd6124b1565b73ffffffffffffffffffffffffffffffffffffffff166121eb611350565b73ffffffffffffffffffffffffffffffffffffffff1614612241576040517f08c379a000000000000000000000000000000000000000000000000000000000815260040161223890613b6e565b60405180910390fd5b600073ffffffffffffffffffffffffffffffffffffffff168173ffffffffffffffffffffffffffffffffffffffff1614156122b1576040517f08c379a00000000000000000000000000000000000000000000000000000000081526004016122a890613a8e565b60405180910390fd5b6122ba816124b9565b50565b60036020528060005260406000206000915054906101000a900473ffffffffffffffffffffffffffffffffffffffff1681565b6000805b600454811015612382576001600082815260200190815260200160002060009054906101000a900473ffffffffffffffffffffffffffffffffffffffff1673ffffffffffffffffffffffffffffffffffffffff168373ffffffffffffffffffffffffffffffffffffffff16141561236f5760009150506124ac565b808061237a906140bb565b9150506122f4565b5060005b600554811015612414576002600082815260200190815260200160002060009054906101000a900473ffffffffffffffffffffffffffffffffffffffff1673ffffffffffffffffffffffffffffffffffffffff168373ffffffffffffffffffffffffffffffffffffffff1614156124015760009150506124ac565b808061240c906140bb565b915050612386565b5060005b6006548110156124a6576003600082815260200190815260200160002060009054906101000a900473ffffffffffffffffffffffffffffffffffffffff1673ffffffffffffffffffffffffffffffffffffffff168373ffffffffffffffffffffffffffffffffffffffff1614156124935760009150506124ac565b808061249e906140bb565b915050612418565b50600190505b919050565b600033905090565b60008060009054906101000a900473ffffffffffffffffffffffffffffffffffffffff169050816000806101000a81548173ffffffffffffffffffffffffffffffffffffffff021916908373ffffffffffffffffffffffffffffffffffffffff1602179055508173ffffffffffffffffffffffffffffffffffffffff168173ffffffffffffffffffffffffffffffffffffffff167f8be0079c531659141344cd1fd0a4f28419497f9722a3daafe3b4186f6b6457e060405160405180910390a35050565b60405180610120016040528060608152602001600081526020016060815260200160608152602001600063ffffffff1681526020016060815260200160608152602001600081526020016000151581525090565b60006125e46125df84613dac565b613d87565b9050808382526020820190508260005b85811015612624578135850161260a88826129f2565b8452602084019350602083019250506001810190506125f4565b5050509392505050565b600061264161263c84613dac565b613d87565b9050808382526020820190508260005b8581101561268157815185016126678882612a1c565b845260208401935060208301925050600181019050612651565b5050509392505050565b600061269e61269984613dd8565b613d87565b905080838252602082019050828560208602820111156126bd57600080fd5b60005b858110156126ed57816126d38882612b9a565b8452602084019350602083019250506001810190506126c0565b5050509392505050565b600061270a61270584613dd8565b613d87565b9050808382526020820190508285602086028201111561272957600080fd5b60005b85811015612759578161273f8882612baf565b84526020840193506020830192505060018101905061272c565b5050509392505050565b600061277661277184613e04565b613d87565b9050808382526020820190508285602086028201111561279557600080fd5b60005b858110156127c557816127ab8882612bc4565b845260208401935060208301925050600181019050612798565b5050509392505050565b60006127e26127dd84613e04565b613d87565b9050808382526020820190508285602086028201111561280157600080fd5b60005b8581101561283157816128178882612bd9565b845260208401935060208301925050600181019050612804565b5050509392505050565b600061284e61284984613e30565b613d87565b90508281526020810184848401111561286657600080fd5b612871848285614048565b509392505050565b600061288c61288784613e30565b613d87565b9050828152602081018484840111156128a457600080fd5b6128af848285614057565b509392505050565b6000813590506128c681614710565b92915050565b6000815190506128db81614710565b92915050565b600082601f8301126128f257600080fd5b81356129028482602086016125d1565b91505092915050565b600082601f83011261291c57600080fd5b815161292c84826020860161262e565b91505092915050565b600082601f83011261294657600080fd5b813561295684826020860161268b565b91505092915050565b600082601f83011261297057600080fd5b81516129808482602086016126f7565b91505092915050565b600082601f83011261299a57600080fd5b81356129aa848260208601612763565b91505092915050565b600082601f8301126129c457600080fd5b81516129d48482602086016127cf565b91505092915050565b6000815190506129ec81614727565b92915050565b600082601f830112612a0357600080fd5b8135612a1384826020860161283b565b91505092915050565b600082601f830112612a2d57600080fd5b8151612a3d848260208601612879565b91505092915050565b60006101208284031215612a5957600080fd5b612a64610120613d87565b9050600082015167ffffffffffffffff811115612a8057600080fd5b612a8c84828501612a1c565b6000830152506020612aa084828501612baf565b602083015250604082015167ffffffffffffffff811115612ac057600080fd5b612acc8482850161290b565b604083015250606082015167ffffffffffffffff811115612aec57600080fd5b612af8848285016129b3565b6060830152506080612b0c84828501612bd9565b60808301525060a082015167ffffffffffffffff811115612b2c57600080fd5b612b3884828501612a1c565b60a08301525060c082015167ffffffffffffffff811115612b5857600080fd5b612b648482850161295f565b60c08301525060e0612b7884828501612baf565b60e083015250610100612b8d848285016129dd565b6101008301525092915050565b600081359050612ba98161473e565b92915050565b600081519050612bbe8161473e565b92915050565b600081359050612bd381614755565b92915050565b600081519050612be881614755565b92915050565b600060208284031215612c0057600080fd5b6000612c0e848285016128b7565b91505092915050565b600060208284031215612c2957600080fd5b6000612c37848285016128cc565b91505092915050565b600080600060608486031215612c5557600080fd5b6000612c63868287016128b7565b9350506020612c7486828701612b9a565b9250506040612c85868287016128b7565b9150509250925092565b600080600080600060a08688031215612ca757600080fd5b600086013567ffffffffffffffff811115612cc157600080fd5b612ccd888289016128e1565b955050602086013567ffffffffffffffff811115612cea57600080fd5b612cf688828901612989565b945050604086013567ffffffffffffffff811115612d1357600080fd5b612d1f888289016129f2565b935050606086013567ffffffffffffffff811115612d3c57600080fd5b612d4888828901612935565b9250506080612d5988828901612b9a565b9150509295509295909350565b600060208284031215612d7857600080fd5b6000612d86848285016129dd565b91505092915050565b600060208284031215612da157600080fd5b600082013567ffffffffffffffff811115612dbb57600080fd5b612dc7848285016129f2565b91505092915050565b60008060408385031215612de357600080fd5b600083013567ffffffffffffffff811115612dfd57600080fd5b612e09858286016129f2565b9250506020612e1a858286016128b7565b9150509250929050565b600060208284031215612e3657600080fd5b600082015167ffffffffffffffff811115612e5057600080fd5b612e5c84828501612a46565b91505092915050565b600060208284031215612e7757600080fd5b6000612e8584828501612b9a565b91505092915050565b600060208284031215612ea057600080fd5b6000612eae84828501612baf565b91505092915050565b600080600060608486031215612ecc57600080fd5b6000612eda86828701612b9a565b9350506020612eeb86828701612bc4565b925050604084013567ffffffffffffffff811115612f0857600080fd5b612f14868287016129f2565b9150509250925092565b6000612f2a838361327a565b905092915050565b6000612f3e838361366d565b905092915050565b6000612f52838361374e565b60208301905092915050565b6000612f6a838361376c565b60208301905092915050565b612f7f81613ff0565b82525050565b6000612f9082613ea1565b612f9a8185613f0c565b935083602082028501612fac85613e61565b8060005b85811015612fe85784840389528151612fc98582612f1e565b9450612fd483613ed8565b925060208a01995050600181019050612fb0565b50829750879550505050505092915050565b600061300582613ea1565b61300f8185613f1d565b93508360208202850161302185613e61565b8060005b8581101561305d578484038952815161303e8582612f1e565b945061304983613ed8565b925060208a01995050600181019050613025565b50829750879550505050505092915050565b600061307a82613eac565b6130848185613f2e565b93508360208202850161309685613e71565b8060005b858110156130d257848403895281516130b38582612f32565b94506130be83613ee5565b925060208a0199505060018101905061309a565b50829750879550505050505092915050565b60006130ef82613eb7565b6130f98185613f3f565b935061310483613e81565b8060005b8381101561313557815161311c8882612f46565b975061312783613ef2565b925050600181019050613108565b5085935050505092915050565b600061314d82613eb7565b6131578185613f50565b935061316283613e81565b8060005b8381101561319357815161317a8882612f46565b975061318583613ef2565b925050600181019050613166565b5085935050505092915050565b60006131ab82613ec2565b6131b58185613f61565b93506131c083613e91565b8060005b838110156131f15781516131d88882612f5e565b97506131e383613eff565b9250506001810190506131c4565b5085935050505092915050565b600061320982613ec2565b6132138185613f72565b935061321e83613e91565b8060005b8381101561324f5781516132368882612f5e565b975061324183613eff565b925050600181019050613222565b5085935050505092915050565b61326581614002565b82525050565b61327481614002565b82525050565b600061328582613ecd565b61328f8185613f83565b935061329f818560208601614057565b6132a881614162565b840191505092915050565b60006132be82613ecd565b6132c88185613f94565b93506132d8818560208601614057565b6132e181614162565b840191505092915050565b60006132f782613ecd565b6133018185613fa5565b9350613311818560208601614057565b61331a81614162565b840191505092915050565b6000613332601f83613f94565b915061333d82614173565b602082019050919050565b6000613355602483613f94565b91506133608261419c565b604082019050919050565b6000613378604283613f94565b9150613383826141eb565b606082019050919050565b600061339b601f83613f94565b91506133a682614260565b602082019050919050565b60006133be603183613f94565b91506133c982614289565b604082019050919050565b60006133e1602683613f94565b91506133ec826142d8565b604082019050919050565b6000613404601883613f94565b915061340f82614327565b602082019050919050565b6000613427601383613f94565b915061343282614350565b602082019050919050565b600061344a600a83613fa5565b915061345582614379565b602082019050919050565b600061346d604683613f94565b9150613478826143a2565b606082019050919050565b6000613490602283613f94565b915061349b82614417565b604082019050919050565b60006134b3601683613f94565b91506134be82614466565b602082019050919050565b60006134d6601883613f94565b91506134e18261448f565b602082019050919050565b60006134f9602083613f94565b9150613504826144b8565b602082019050919050565b600061351c601483613f94565b9150613527826144e1565b602082019050919050565b600061353f602483613f94565b915061354a8261450a565b604082019050919050565b6000613562602683613f94565b915061356d82614559565b604082019050919050565b6000613585603f83613f94565b9150613590826145a8565b604082019050919050565b60006135a8600d83613fa5565b91506135b3826145f7565b602082019050919050565b60006135cb603283613f94565b91506135d682614620565b604082019050919050565b60006135ee600783613fa5565b91506135f98261466f565b602082019050919050565b6000613611603483613f94565b915061361c82614698565b604082019050919050565b6000613634600d83613f94565b915061363f826146e7565b602082019050919050565b6000613657600d83613fa5565b9150613662826146e7565b602082019050919050565b600061012083016000830151848203600086015261368b828261327a565b91505060208301516136a0602086018261374e565b50604083015184820360408601526136b88282612f85565b915050606083015184820360608601526136d282826131a0565b91505060808301516136e7608086018261376c565b5060a083015184820360a08601526136ff828261327a565b91505060c083015184820360c086015261371982826130e4565b91505060e083015161372e60e086018261374e565b5061010083015161374361010086018261325c565b508091505092915050565b6137578161402e565b82525050565b6137668161402e565b82525050565b61377581614038565b82525050565b61378481614038565b82525050565b600060208201905061379f6000830184612f76565b92915050565b60006060820190506137ba6000830186612f76565b6137c76020830185612f76565b6137d4604083018461375d565b949350505050565b60006040820190506137f16000830185612f76565b6137fe602083018461375d565b9392505050565b6000602082019050818103600083015261381f818461306f565b905092915050565b600060208201905061383c600083018461326b565b92915050565b6000604082019050818103600083015261385c81856132ec565b9050818103602083015261387081846132ec565b90509392505050565b6000604082019050818103600083015261389381846132ec565b905081810360208301526138a68161343d565b905092915050565b600060408201905081810360008301526138c881846132ec565b905081810360208301526138db8161359b565b905092915050565b600060408201905081810360008301526138fd81846132ec565b90508181036020830152613910816135e1565b905092915050565b6000604082019050818103600083015261393281846132ec565b905081810360208301526139458161364a565b905092915050565b6000610100820190508181036000830152613968818b6132b3565b9050613977602083018a61375d565b81810360408301526139898189612ffa565b9050818103606083015261399d81886131fe565b90506139ac608083018761377b565b81810360a08301526139be81866132b3565b905081810360c08301526139d28185613142565b90506139e160e083018461375d565b9998505050505050505050565b60006020820190508181036000830152613a0781613325565b9050919050565b60006020820190508181036000830152613a2781613348565b9050919050565b60006020820190508181036000830152613a478161336b565b9050919050565b60006020820190508181036000830152613a678161338e565b9050919050565b60006020820190508181036000830152613a87816133b1565b9050919050565b60006020820190508181036000830152613aa7816133d4565b9050919050565b60006020820190508181036000830152613ac7816133f7565b9050919050565b60006020820190508181036000830152613ae78161341a565b9050919050565b60006020820190508181036000830152613b0781613460565b9050919050565b60006020820190508181036000830152613b2781613483565b9050919050565b60006020820190508181036000830152613b47816134a6565b9050919050565b60006020820190508181036000830152613b67816134c9565b9050919050565b60006020820190508181036000830152613b87816134ec565b9050919050565b60006020820190508181036000830152613ba781613532565b9050919050565b60006020820190508181036000830152613bc781613555565b9050919050565b60006020820190508181036000830152613be781613578565b9050919050565b60006020820190508181036000830152613c07816135be565b9050919050565b60006020820190508181036000830152613c2781613604565b9050919050565b6000602082019050613c43600083018461375d565b92915050565b600061010082019050613c5f600083018a61375d565b613c6c602083018961377b565b8181036040830152613c7e8188612ffa565b90508181036060830152613c9281876131fe565b90508181036080830152613ca58161350f565b9050613cb460a0830186612f76565b81810360c0830152613cc68185613142565b905081810360e0830152613cda81846132b3565b905098975050505050505050565b600061010082019050613cfe600083018a61375d565b613d0b602083018961377b565b8181036040830152613d1d8188612ffa565b90508181036060830152613d3181876131fe565b90508181036080830152613d4481613627565b9050613d5360a0830186612f76565b81810360c0830152613d658185613142565b905081810360e0830152613d7981846132b3565b905098975050505050505050565b6000613d91613da2565b9050613d9d828261408a565b919050565b6000604051905090565b600067ffffffffffffffff821115613dc757613dc6614133565b5b602082029050602081019050919050565b600067ffffffffffffffff821115613df357613df2614133565b5b602082029050602081019050919050565b600067ffffffffffffffff821115613e1f57613e1e614133565b5b602082029050602081019050919050565b600067ffffffffffffffff821115613e4b57613e4a614133565b5b613e5482614162565b9050602081019050919050565b6000819050602082019050919050565b6000819050602082019050919050565b6000819050602082019050919050565b6000819050602082019050919050565b600081519050919050565b600081519050919050565b600081519050919050565b600081519050919050565b600081519050919050565b6000602082019050919050565b6000602082019050919050565b6000602082019050919050565b6000602082019050919050565b600082825260208201905092915050565b600082825260208201905092915050565b600082825260208201905092915050565b600082825260208201905092915050565b600082825260208201905092915050565b600082825260208201905092915050565b600082825260208201905092915050565b600082825260208201905092915050565b600082825260208201905092915050565b600082825260208201905092915050565b6000613fc182614038565b9150613fcc83614038565b92508263ffffffff03821115613fe557613fe4614104565b5b828201905092915050565b6000613ffb8261400e565b9050919050565b60008115159050919050565b600073ffffffffffffffffffffffffffffffffffffffff82169050919050565b6000819050919050565b600063ffffffff82169050919050565b82818337600083830152505050565b60005b8381101561407557808201518184015260208101905061405a565b83811115614084576000848401525b50505050565b61409382614162565b810181811067ffffffffffffffff821117156140b2576140b1614133565b5b80604052505050565b60006140c68261402e565b91507fffffffffffffffffffffffffffffffffffffffffffffffffffffffffffffffff8214156140f9576140f8614104565b5b600182019050919050565b7f4e487b7100000000000000000000000000000000000000000000000000000000600052601160045260246000fd5b7f4e487b7100000000000000000000000000000000000000000000000000000000600052604160045260246000fd5b6000601f19601f8301169050919050565b7f496c20746f6b656e20696e73657269746f206e6f6e20c3a82076616c69646f00600082015250565b7f4e657373756e2070726f646f74746f20636f6e20696c206e6f6d6520696e736560008201527f7269746f00000000000000000000000000000000000000000000000000000000602082015250565b7f492072756f6c6920646973706f6e6962696c6920736f6e6f3a205f70726f647560008201527f74746f72655f205f74726173666f726d61746f72655f2065205f636c69656e7460208201527f655f000000000000000000000000000000000000000000000000000000000000604082015250565b7f496c206c6f74746f20696e73657269746f206e6f6e20c3a82076616c69646f00600082015250565b7f4e6f6e2073656920696e20706f73736573736f2064656c6c61206d617465726960008201527f61207072696d6120636f6e206c6f74746f000000000000000000000000000000602082015250565b7f4f776e61626c653a206e6577206f776e657220697320746865207a65726f206160008201527f6464726573730000000000000000000000000000000000000000000000000000602082015250565b7f496c206c6f74746f2030206e6f6e20c3a82076616c69646f0000000000000000600082015250565b7f4964206c6f74746f206e6f6e2076616c69646f00000000000000000000000000600082015250565b7f70726f647574746f726500000000000000000000000000000000000000000000600082015250565b7f4c27696e646972697a7a6f206465766520617070617274656e6572652061642060008201527f756e2070726f647574746f72652c2074726173666f726d61746f7265206f206360208201527f6c69656e74650000000000000000000000000000000000000000000000000000604082015250565b7f496c206c6f74746f20696e73657269746f20c3a8206769c3a02070726573656e60008201527f7465000000000000000000000000000000000000000000000000000000000000602082015250565b7f4964206c6f74746f206769c3a02070726573656e746500000000000000000000600082015250565b7f56616c6f726520646920434f32206e6f6e2076616c69646f0000000000000000600082015250565b7f4f776e61626c653a2063616c6c6572206973206e6f7420746865206f776e6572600082015250565b7f70726f646f74746f2074726173666f726d61746f000000000000000000000000600082015250565b7f50726f646f74746f2f6d617465726961207072696d61206e6f6e20657369737460008201527f656e746500000000000000000000000000000000000000000000000000000000602082015250565b7f4163636f756e74206769c3a02070726573656e746520636f6e2071756573746f60008201527f2072756f6c6f0000000000000000000000000000000000000000000000000000602082015250565b7f536f6c6f20692074726173666f726d61746f726920706f73736f6e6f2061676760008201527f69756e6765726520756e2070726f646f74746f2074726173666f726d61746f00602082015250565b7f74726173666f726d61746f726500000000000000000000000000000000000000600082015250565b7f536f6c6f20692070726f647574746f726920706f73736f6e6f2061676769756e60008201527f67657265206d617465726965207072696d650000000000000000000000000000602082015250565b7f636c69656e746500000000000000000000000000000000000000000000000000600082015250565b7f4c27656c656d656e746f20636f6e206c6f74746f20706172692061206e6f6e2060008201527fc3a820756e61206d617465726961207072696d61000000000000000000000000602082015250565b7f6d617465726961207072696d6100000000000000000000000000000000000000600082015250565b61471981613ff0565b811461472457600080fd5b50565b61473081614002565b811461473b57600080fd5b50565b6147478161402e565b811461475257600080fd5b50565b61475e81614038565b811461476957600080fd5b5056fea2646970667358221220f8fd83a292536a6dd7a937b8b77647c36ad54b364b902c36d45d37253023b7bb64736f6c6343000801003360806040523480156200001157600080fd5b506040518060400160405280600f81526020017f436172626f6e466f6f747072696e7400000000000000000000000000000000008152506040518060400160405280600381526020017f4346500000000000000000000000000000000000000000000000000000000000815250816000908051906020019062000096929190620000b8565b508060019080519060200190620000af929190620000b8565b505050620001cd565b828054620000c69062000168565b90600052602060002090601f016020900481019282620000ea576000855562000136565b82601f106200010557805160ff191683800117855562000136565b8280016001018555821562000136579182015b828111156200013557825182559160200191906001019062000118565b5b50905062000145919062000149565b5090565b5b80821115620001645760008160009055506001016200014a565b5090565b600060028204905060018216806200018157607f821691505b602082108114156200019857620001976200019e565b5b50919050565b7f4e487b7100000000000000000000000000000000000000000000000000000000600052602260045260246000fd5b613c6880620001dd6000396000f3fe608060405234801561001057600080fd5b50600436106101165760003560e01c806372f74f43116100a2578063a22cb46511610071578063a22cb46514610319578063b3157ba614610335578063b88d4fde14610351578063c87b56dd1461036d578063e985e9c51461039d57610116565b806372f74f431461027d57806378e1fa8f146102ad578063836c081d146102dd57806395d89b41146102fb57610116565b806323b872dd116100e957806323b872dd146101b557806336cc4992146101d157806342842e0e146102015780636352211e1461021d57806370a082311461024d57610116565b806301ffc9a71461011b57806306fdde031461014b578063081812fc14610169578063095ea7b314610199575b600080fd5b610135600480360381019061013091906128ca565b6103cd565b6040516101429190613070565b60405180910390f35b6101536104af565b604051610160919061308b565b60405180910390f35b610183600480360381019061017e919061291c565b610541565b6040516101909190613009565b60405180910390f35b6101b360048036038101906101ae919061288e565b6105c6565b005b6101cf60048036038101906101ca9190612788565b6106de565b005b6101eb60048036038101906101e69190612945565b61073e565b6040516101f8919061328f565b60405180910390f35b61021b60048036038101906102169190612788565b6109c8565b005b6102376004803603810190610232919061291c565b6109e8565b6040516102449190613009565b60405180910390f35b61026760048036038101906102629190612723565b610a9a565b604051610274919061328f565b60405180910390f35b6102976004803603810190610292919061291c565b610b52565b6040516102a4919061326d565b60405180910390f35b6102c760048036038101906102c2919061291c565b610eae565b6040516102d4919061326d565b60405180910390f35b6102e561120a565b6040516102f2919061328f565b60405180910390f35b61030361121b565b604051610310919061308b565b60405180910390f35b610333600480360381019061032e9190612852565b6112ad565b005b61034f600480360381019061034a919061291c565b6112c3565b005b61036b600480360381019061036691906127d7565b6113a2565b005b6103876004803603810190610382919061291c565b611404565b604051610394919061308b565b60405180910390f35b6103b760048036038101906103b2919061274c565b6114ab565b6040516103c49190613070565b60405180910390f35b60007f80ac58cd000000000000000000000000000000000000000000000000000000007bffffffffffffffffffffffffffffffffffffffffffffffffffffffff1916827bffffffffffffffffffffffffffffffffffffffffffffffffffffffff1916148061049857507f5b5e139f000000000000000000000000000000000000000000000000000000007bffffffffffffffffffffffffffffffffffffffffffffffffffffffff1916827bffffffffffffffffffffffffffffffffffffffffffffffffffffffff1916145b806104a857506104a78261153f565b5b9050919050565b6060600080546104be90613635565b80601f01602080910402602001604051908101604052809291908181526020018280546104ea90613635565b80156105375780601f1061050c57610100808354040283529160200191610537565b820191906000526020600020905b81548152906001019060200180831161051a57829003601f168201915b5050505050905090565b600061054c826115a9565b61058b576040517f08c379a0000000000000000000000000000000000000000000000000000000008152600401610582906131ed565b60405180910390fd5b6004600083815260200190815260200160002060009054906101000a900473ffffffffffffffffffffffffffffffffffffffff169050919050565b60006105d1826109e8565b90508073ffffffffffffffffffffffffffffffffffffffff168373ffffffffffffffffffffffffffffffffffffffff161415610642576040517f08c379a00000000000000000000000000000000000000000000000000000000081526004016106399061322d565b60405180910390fd5b8073ffffffffffffffffffffffffffffffffffffffff16610661611615565b73ffffffffffffffffffffffffffffffffffffffff161480610690575061068f8161068a611615565b6114ab565b5b6106cf576040517f08c379a00000000000000000000000000000000000000000000000000000000081526004016106c69061316d565b60405180910390fd5b6106d9838361161d565b505050565b6106ef6106e9611615565b826116d6565b61072e576040517f08c379a00000000000000000000000000000000000000000000000000000000081526004016107259061324d565b60405180910390fd5b6107398383836117b4565b505050565b600061074a6006611a1b565b60006107566006611a31565b905060006040518061012001604052808581526020018c81526020018a81526020018981526020018b63ffffffff16815260200188815260200186815260200183815260200160011515815250905080600760008d815260200190815260200160002060008201518160000190805190602001906107d592919061216a565b506020820151816001015560408201518160020190805190602001906107fc9291906121f0565b506060820151816003019080519060200190610819929190612250565b5060808201518160040160006101000a81548163ffffffff021916908363ffffffff16021790555060a082015181600501908051906020019061085d92919061216a565b5060c082015181600601908051906020019061087a929190612300565b5060e082015181600701556101008201518160080160006101000a81548160ff021916908315150217905550905050806008600084815260200190815260200160002060008201518160000190805190602001906108d992919061216a565b506020820151816001015560408201518160020190805190602001906109009291906121f0565b50606082015181600301908051906020019061091d929190612250565b5060808201518160040160006101000a81548163ffffffff021916908363ffffffff16021790555060a082015181600501908051906020019061096192919061216a565b5060c082015181600601908051906020019061097e929190612300565b5060e082015181600701556101008201518160080160006101000a81548160ff0219169083151502179055509050506109b78683611a3f565b819250505098975050505050505050565b6109e3838383604051806020016040528060008152506113a2565b505050565b6000806002600084815260200190815260200160002060009054906101000a900473ffffffffffffffffffffffffffffffffffffffff169050600073ffffffffffffffffffffffffffffffffffffffff168173ffffffffffffffffffffffffffffffffffffffff161415610a91576040517f08c379a0000000000000000000000000000000000000000000000000000000008152600401610a88906131ad565b60405180910390fd5b80915050919050565b60008073ffffffffffffffffffffffffffffffffffffffff168273ffffffffffffffffffffffffffffffffffffffff161415610b0b576040517f08c379a0000000000000000000000000000000000000000000000000000000008152600401610b029061318d565b60405180910390fd5b600360008373ffffffffffffffffffffffffffffffffffffffff1673ffffffffffffffffffffffffffffffffffffffff168152602001908152602001600020549050919050565b610b5a61234d565b6007600083815260200190815260200160002060405180610120016040529081600082018054610b8990613635565b80601f0160208091040260200160405190810160405280929190818152602001828054610bb590613635565b8015610c025780601f10610bd757610100808354040283529160200191610c02565b820191906000526020600020905b815481529060010190602001808311610be557829003601f168201915b505050505081526020016001820154815260200160028201805480602002602001604051908101604052809291908181526020016000905b82821015610ce6578382906000526020600020018054610c5990613635565b80601f0160208091040260200160405190810160405280929190818152602001828054610c8590613635565b8015610cd25780601f10610ca757610100808354040283529160200191610cd2565b820191906000526020600020905b815481529060010190602001808311610cb557829003601f168201915b505050505081526020019060010190610c3a565b50505050815260200160038201805480602002602001604051908101604052809291908181526020018280548015610d6957602002820191906000526020600020906000905b82829054906101000a900463ffffffff1663ffffffff1681526020019060040190602082600301049283019260010382029150808411610d2c5790505b505050505081526020016004820160009054906101000a900463ffffffff1663ffffffff1663ffffffff168152602001600582018054610da890613635565b80601f0160208091040260200160405190810160405280929190818152602001828054610dd490613635565b8015610e215780601f10610df657610100808354040283529160200191610e21565b820191906000526020600020905b815481529060010190602001808311610e0457829003601f168201915b5050505050815260200160068201805480602002602001604051908101604052809291908181526020018280548015610e7957602002820191906000526020600020905b815481526020019060010190808311610e65575b50505050508152602001600782015481526020016008820160009054906101000a900460ff1615151515815250509050919050565b610eb661234d565b6008600083815260200190815260200160002060405180610120016040529081600082018054610ee590613635565b80601f0160208091040260200160405190810160405280929190818152602001828054610f1190613635565b8015610f5e5780601f10610f3357610100808354040283529160200191610f5e565b820191906000526020600020905b815481529060010190602001808311610f4157829003601f168201915b505050505081526020016001820154815260200160028201805480602002602001604051908101604052809291908181526020016000905b82821015611042578382906000526020600020018054610fb590613635565b80601f0160208091040260200160405190810160405280929190818152602001828054610fe190613635565b801561102e5780601f106110035761010080835404028352916020019161102e565b820191906000526020600020905b81548152906001019060200180831161101157829003601f168201915b505050505081526020019060010190610f96565b505050508152602001600382018054806020026020016040519081016040528092919081815260200182805480156110c557602002820191906000526020600020906000905b82829054906101000a900463ffffffff1663ffffffff16815260200190600401906020826003010492830192600103820291508084116110885790505b505050505081526020016004820160009054906101000a900463ffffffff1663ffffffff1663ffffffff16815260200160058201805461110490613635565b80601f016020809104026020016040519081016040528092919081815260200182805461113090613635565b801561117d5780601f106111525761010080835404028352916020019161117d565b820191906000526020600020905b81548152906001019060200180831161116057829003601f168201915b50505050508152602001600682018054806020026020016040519081016040528092919081815260200182805480156111d557602002820191906000526020600020905b8154815260200190600101908083116111c1575b50505050508152602001600782015481526020016008820160009054906101000a900460ff1615151515815250509050919050565b60006112166006611a31565b905090565b60606001805461122a90613635565b80601f016020809104026020016040519081016040528092919081815260200182805461125690613635565b80156112a35780601f10611278576101008083540402835291602001916112a3565b820191906000526020600020905b81548152906001019060200180831161128657829003601f168201915b5050505050905090565b6112bf6112b8611615565b8383611c19565b5050565b6040518060400160405280600a81526020017f7574696c697a7a6174610000000000000000000000000000000000000000000081525060076000838152602001908152602001600020600501908051906020019061132292919061216a565b506000600760008381526020019081526020016000206007015490506040518060400160405280600a81526020017f7574696c697a7a6174610000000000000000000000000000000000000000000081525060086000838152602001908152602001600020600501908051906020019061139d92919061216a565b505050565b6113b36113ad611615565b836116d6565b6113f2576040517f08c379a00000000000000000000000000000000000000000000000000000000081526004016113e99061324d565b60405180910390fd5b6113fe84848484611d86565b50505050565b606061140f826115a9565b61144e576040517f08c379a00000000000000000000000000000000000000000000000000000000081526004016114459061320d565b60405180910390fd5b6000611458611de2565b9050600081511161147857604051806020016040528060008152506114a3565b8061148284611df9565b604051602001611493929190612fe5565b6040516020818303038152906040525b915050919050565b6000600560008473ffffffffffffffffffffffffffffffffffffffff1673ffffffffffffffffffffffffffffffffffffffff16815260200190815260200160002060008373ffffffffffffffffffffffffffffffffffffffff1673ffffffffffffffffffffffffffffffffffffffff16815260200190815260200160002060009054906101000a900460ff16905092915050565b60007f01ffc9a7000000000000000000000000000000000000000000000000000000007bffffffffffffffffffffffffffffffffffffffffffffffffffffffff1916827bffffffffffffffffffffffffffffffffffffffffffffffffffffffff1916149050919050565b60008073ffffffffffffffffffffffffffffffffffffffff166002600084815260200190815260200160002060009054906101000a900473ffffffffffffffffffffffffffffffffffffffff1673ffffffffffffffffffffffffffffffffffffffff1614159050919050565b600033905090565b816004600083815260200190815260200160002060006101000a81548173ffffffffffffffffffffffffffffffffffffffff021916908373ffffffffffffffffffffffffffffffffffffffff160217905550808273ffffffffffffffffffffffffffffffffffffffff16611690836109e8565b73ffffffffffffffffffffffffffffffffffffffff167f8c5be1e5ebec7d5bd14f71427d1e84f3dd0314c0f7b2291e5b200ac8c7c3b92560405160405180910390a45050565b60006116e1826115a9565b611720576040517f08c379a00000000000000000000000000000000000000000000000000000000081526004016117179061314d565b60405180910390fd5b600061172b836109e8565b90508073ffffffffffffffffffffffffffffffffffffffff168473ffffffffffffffffffffffffffffffffffffffff16148061179a57508373ffffffffffffffffffffffffffffffffffffffff1661178284610541565b73ffffffffffffffffffffffffffffffffffffffff16145b806117ab57506117aa81856114ab565b5b91505092915050565b8273ffffffffffffffffffffffffffffffffffffffff166117d4826109e8565b73ffffffffffffffffffffffffffffffffffffffff161461182a576040517f08c379a0000000000000000000000000000000000000000000000000000000008152600401611821906130cd565b60405180910390fd5b600073ffffffffffffffffffffffffffffffffffffffff168273ffffffffffffffffffffffffffffffffffffffff16141561189a576040517f08c379a00000000000000000000000000000000000000000000000000000000081526004016118919061310d565b60405180910390fd5b6118a5838383611fa6565b6118b060008261161d565b6001600360008573ffffffffffffffffffffffffffffffffffffffff1673ffffffffffffffffffffffffffffffffffffffff1681526020019081526020016000206000828254611900919061353b565b925050819055506001600360008473ffffffffffffffffffffffffffffffffffffffff1673ffffffffffffffffffffffffffffffffffffffff168152602001908152602001600020600082825461195791906134b4565b92505081905550816002600083815260200190815260200160002060006101000a81548173ffffffffffffffffffffffffffffffffffffffff021916908373ffffffffffffffffffffffffffffffffffffffff160217905550808273ffffffffffffffffffffffffffffffffffffffff168473ffffffffffffffffffffffffffffffffffffffff167fddf252ad1be2c89b69c2b068fc378daa952ba7f163c4a11628f55a4df523b3ef60405160405180910390a4611a16838383611fab565b505050565b6001816000016000828254019250508190555050565b600081600001549050919050565b600073ffffffffffffffffffffffffffffffffffffffff168273ffffffffffffffffffffffffffffffffffffffff161415611aaf576040517f08c379a0000000000000000000000000000000000000000000000000000000008152600401611aa6906131cd565b60405180910390fd5b611ab8816115a9565b15611af8576040517f08c379a0000000000000000000000000000000000000000000000000000000008152600401611aef906130ed565b60405180910390fd5b611b0460008383611fa6565b6001600360008473ffffffffffffffffffffffffffffffffffffffff1673ffffffffffffffffffffffffffffffffffffffff1681526020019081526020016000206000828254611b5491906134b4565b92505081905550816002600083815260200190815260200160002060006101000a81548173ffffffffffffffffffffffffffffffffffffffff021916908373ffffffffffffffffffffffffffffffffffffffff160217905550808273ffffffffffffffffffffffffffffffffffffffff16600073ffffffffffffffffffffffffffffffffffffffff167fddf252ad1be2c89b69c2b068fc378daa952ba7f163c4a11628f55a4df523b3ef60405160405180910390a4611c1560008383611fab565b5050565b8173ffffffffffffffffffffffffffffffffffffffff168373ffffffffffffffffffffffffffffffffffffffff161415611c88576040517f08c379a0000000000000000000000000000000000000000000000000000000008152600401611c7f9061312d565b60405180910390fd5b80600560008573ffffffffffffffffffffffffffffffffffffffff1673ffffffffffffffffffffffffffffffffffffffff16815260200190815260200160002060008473ffffffffffffffffffffffffffffffffffffffff1673ffffffffffffffffffffffffffffffffffffffff16815260200190815260200160002060006101000a81548160ff0219169083151502179055508173ffffffffffffffffffffffffffffffffffffffff168373ffffffffffffffffffffffffffffffffffffffff167f17307eab39ab6107e8899845ad3d59bd9653f200f220920489ca2b5937696c3183604051611d799190613070565b60405180910390a3505050565b611d918484846117b4565b611d9d84848484611fb0565b611ddc576040517f08c379a0000000000000000000000000000000000000000000000000000000008152600401611dd3906130ad565b60405180910390fd5b50505050565b606060405180602001604052806000815250905090565b60606000821415611e41576040518060400160405280600181526020017f30000000000000000000000000000000000000000000000000000000000000008152509050611fa1565b600082905060005b60008214611e73578080611e5c90613698565b915050600a82611e6c919061350a565b9150611e49565b60008167ffffffffffffffff811115611eb5577f4e487b7100000000000000000000000000000000000000000000000000000000600052604160045260246000fd5b6040519080825280601f01601f191660200182016040528015611ee75781602001600182028036833780820191505090505b5090505b60008514611f9a57600182611f00919061353b565b9150600a85611f0f91906136e1565b6030611f1b91906134b4565b60f81b818381518110611f57577f4e487b7100000000000000000000000000000000000000000000000000000000600052603260045260246000fd5b60200101907effffffffffffffffffffffffffffffffffffffffffffffffffffffffffffff1916908160001a905350600a85611f93919061350a565b9450611eeb565b8093505050505b919050565b505050565b505050565b6000611fd18473ffffffffffffffffffffffffffffffffffffffff16612147565b1561213a578373ffffffffffffffffffffffffffffffffffffffff1663150b7a02611ffa611615565b8786866040518563ffffffff1660e01b815260040161201c9493929190613024565b602060405180830381600087803b15801561203657600080fd5b505af192505050801561206757506040513d601f19601f8201168201806040525081019061206491906128f3565b60015b6120ea573d8060008114612097576040519150601f19603f3d011682016040523d82523d6000602084013e61209c565b606091505b506000815114156120e2576040517f08c379a00000000000000000000000000000000000000000000000000000000081526004016120d9906130ad565b60405180910390fd5b805181602001fd5b63150b7a0260e01b7bffffffffffffffffffffffffffffffffffffffffffffffffffffffff1916817bffffffffffffffffffffffffffffffffffffffffffffffffffffffff19161491505061213f565b600190505b949350505050565b6000808273ffffffffffffffffffffffffffffffffffffffff163b119050919050565b82805461217690613635565b90600052602060002090601f01602090048101928261219857600085556121df565b82601f106121b157805160ff19168380011785556121df565b828001600101855582156121df579182015b828111156121de5782518255916020019190600101906121c3565b5b5090506121ec91906123a1565b5090565b82805482825590600052602060002090810192821561223f579160200282015b8281111561223e57825182908051906020019061222e92919061216a565b5091602001919060010190612210565b5b50905061224c91906123be565b5090565b828054828255906000526020600020906007016008900481019282156122ef5791602002820160005b838211156122bd57835183826101000a81548163ffffffff021916908363ffffffff1602179055509260200192600401602081600301049283019260010302612279565b80156122ed5782816101000a81549063ffffffff02191690556004016020816003010492830192600103026122bd565b505b5090506122fc91906123a1565b5090565b82805482825590600052602060002090810192821561233c579160200282015b8281111561233b578251825591602001919060010190612320565b5b50905061234991906123a1565b5090565b60405180610120016040528060608152602001600081526020016060815260200160608152602001600063ffffffff1681526020016060815260200160608152602001600081526020016000151581525090565b5b808211156123ba5760008160009055506001016123a2565b5090565b5b808211156123de57600081816123d591906123e2565b506001016123bf565b5090565b5080546123ee90613635565b6000825580601f10612400575061241f565b601f01602090049060005260206000209081019061241e91906123a1565b5b50565b6000612435612430846132cf565b6132aa565b9050808382526020820190508260005b85811015612475578135850161245b88826126cf565b845260208401935060208301925050600181019050612445565b5050509392505050565b600061249261248d846132fb565b6132aa565b905080838252602082019050828560208602820111156124b157600080fd5b60005b858110156124e157816124c788826126f9565b8452602084019350602083019250506001810190506124b4565b5050509392505050565b60006124fe6124f984613327565b6132aa565b9050808382526020820190508285602086028201111561251d57600080fd5b60005b8581101561254d5781612533888261270e565b845260208401935060208301925050600181019050612520565b5050509392505050565b600061256a61256584613353565b6132aa565b90508281526020810184848401111561258257600080fd5b61258d8482856135f3565b509392505050565b60006125a86125a384613384565b6132aa565b9050828152602081018484840111156125c057600080fd5b6125cb8482856135f3565b509392505050565b6000813590506125e281613bbf565b92915050565b600082601f8301126125f957600080fd5b8135612609848260208601612422565b91505092915050565b600082601f83011261262357600080fd5b813561263384826020860161247f565b91505092915050565b600082601f83011261264d57600080fd5b813561265d8482602086016124eb565b91505092915050565b60008135905061267581613bd6565b92915050565b60008135905061268a81613bed565b92915050565b60008151905061269f81613bed565b92915050565b600082601f8301126126b657600080fd5b81356126c6848260208601612557565b91505092915050565b600082601f8301126126e057600080fd5b81356126f0848260208601612595565b91505092915050565b60008135905061270881613c04565b92915050565b60008135905061271d81613c1b565b92915050565b60006020828403121561273557600080fd5b6000612743848285016125d3565b91505092915050565b6000806040838503121561275f57600080fd5b600061276d858286016125d3565b925050602061277e858286016125d3565b9150509250929050565b60008060006060848603121561279d57600080fd5b60006127ab868287016125d3565b93505060206127bc868287016125d3565b92505060406127cd868287016126f9565b9150509250925092565b600080600080608085870312156127ed57600080fd5b60006127fb878288016125d3565b945050602061280c878288016125d3565b935050604061281d878288016126f9565b925050606085013567ffffffffffffffff81111561283a57600080fd5b612846878288016126a5565b91505092959194509250565b6000806040838503121561286557600080fd5b6000612873858286016125d3565b925050602061288485828601612666565b9150509250929050565b600080604083850312156128a157600080fd5b60006128af858286016125d3565b92505060206128c0858286016126f9565b9150509250929050565b6000602082840312156128dc57600080fd5b60006128ea8482850161267b565b91505092915050565b60006020828403121561290557600080fd5b600061291384828501612690565b91505092915050565b60006020828403121561292e57600080fd5b600061293c848285016126f9565b91505092915050565b600080600080600080600080610100898b03121561296257600080fd5b60006129708b828c016126f9565b98505060206129818b828c0161270e565b975050604089013567ffffffffffffffff81111561299e57600080fd5b6129aa8b828c016125e8565b965050606089013567ffffffffffffffff8111156129c757600080fd5b6129d38b828c0161263c565b955050608089013567ffffffffffffffff8111156129f057600080fd5b6129fc8b828c016126cf565b94505060a0612a0d8b828c016125d3565b93505060c089013567ffffffffffffffff811115612a2a57600080fd5b612a368b828c01612612565b92505060e089013567ffffffffffffffff811115612a5357600080fd5b612a5f8b828c016126cf565b9150509295985092959890939650565b6000612a7b8383612c4a565b905092915050565b6000612a8f8383612fb8565b60208301905092915050565b6000612aa78383612fd6565b60208301905092915050565b612abc8161356f565b82525050565b6000612acd826133e5565b612ad78185613443565b935083602082028501612ae9856133b5565b8060005b85811015612b255784840389528151612b068582612a6f565b9450612b118361341c565b925060208a01995050600181019050612aed565b50829750879550505050505092915050565b6000612b42826133f0565b612b4c8185613454565b9350612b57836133c5565b8060005b83811015612b88578151612b6f8882612a83565b9750612b7a83613429565b925050600181019050612b5b565b5085935050505092915050565b6000612ba0826133fb565b612baa8185613465565b9350612bb5836133d5565b8060005b83811015612be6578151612bcd8882612a9b565b9750612bd883613436565b925050600181019050612bb9565b5085935050505092915050565b612bfc81613581565b82525050565b612c0b81613581565b82525050565b6000612c1c82613406565b612c268185613476565b9350612c36818560208601613602565b612c3f816137ce565b840191505092915050565b6000612c5582613411565b612c5f8185613487565b9350612c6f818560208601613602565b612c78816137ce565b840191505092915050565b6000612c8e82613411565b612c988185613498565b9350612ca8818560208601613602565b612cb1816137ce565b840191505092915050565b6000612cc782613411565b612cd181856134a9565b9350612ce1818560208601613602565b80840191505092915050565b6000612cfa603283613498565b9150612d05826137df565b604082019050919050565b6000612d1d602583613498565b9150612d288261382e565b604082019050919050565b6000612d40601c83613498565b9150612d4b8261387d565b602082019050919050565b6000612d63602483613498565b9150612d6e826138a6565b604082019050919050565b6000612d86601983613498565b9150612d91826138f5565b602082019050919050565b6000612da9602c83613498565b9150612db48261391e565b604082019050919050565b6000612dcc603883613498565b9150612dd78261396d565b604082019050919050565b6000612def602a83613498565b9150612dfa826139bc565b604082019050919050565b6000612e12602983613498565b9150612e1d82613a0b565b604082019050919050565b6000612e35602083613498565b9150612e4082613a5a565b602082019050919050565b6000612e58602c83613498565b9150612e6382613a83565b604082019050919050565b6000612e7b602f83613498565b9150612e8682613ad2565b604082019050919050565b6000612e9e602183613498565b9150612ea982613b21565b604082019050919050565b6000612ec1603183613498565b9150612ecc82613b70565b604082019050919050565b6000610120830160008301518482036000860152612ef58282612c4a565b9150506020830151612f0a6020860182612fb8565b5060408301518482036040860152612f228282612ac2565b91505060608301518482036060860152612f3c8282612b95565b9150506080830151612f516080860182612fd6565b5060a083015184820360a0860152612f698282612c4a565b91505060c083015184820360c0860152612f838282612b37565b91505060e0830151612f9860e0860182612fb8565b50610100830151612fad610100860182612bf3565b508091505092915050565b612fc1816135d9565b82525050565b612fd0816135d9565b82525050565b612fdf816135e3565b82525050565b6000612ff18285612cbc565b9150612ffd8284612cbc565b91508190509392505050565b600060208201905061301e6000830184612ab3565b92915050565b60006080820190506130396000830187612ab3565b6130466020830186612ab3565b6130536040830185612fc7565b81810360608301526130658184612c11565b905095945050505050565b60006020820190506130856000830184612c02565b92915050565b600060208201905081810360008301526130a58184612c83565b905092915050565b600060208201905081810360008301526130c681612ced565b9050919050565b600060208201905081810360008301526130e681612d10565b9050919050565b6000602082019050818103600083015261310681612d33565b9050919050565b6000602082019050818103600083015261312681612d56565b9050919050565b6000602082019050818103600083015261314681612d79565b9050919050565b6000602082019050818103600083015261316681612d9c565b9050919050565b6000602082019050818103600083015261318681612dbf565b9050919050565b600060208201905081810360008301526131a681612de2565b9050919050565b600060208201905081810360008301526131c681612e05565b9050919050565b600060208201905081810360008301526131e681612e28565b9050919050565b6000602082019050818103600083015261320681612e4b565b9050919050565b6000602082019050818103600083015261322681612e6e565b9050919050565b6000602082019050818103600083015261324681612e91565b9050919050565b6000602082019050818103600083015261326681612eb4565b9050919050565b600060208201905081810360008301526132878184612ed7565b905092915050565b60006020820190506132a46000830184612fc7565b92915050565b60006132b46132c5565b90506132c08282613667565b919050565b6000604051905090565b600067ffffffffffffffff8211156132ea576132e961379f565b5b602082029050602081019050919050565b600067ffffffffffffffff8211156133165761331561379f565b5b602082029050602081019050919050565b600067ffffffffffffffff8211156133425761334161379f565b5b602082029050602081019050919050565b600067ffffffffffffffff82111561336e5761336d61379f565b5b613377826137ce565b9050602081019050919050565b600067ffffffffffffffff82111561339f5761339e61379f565b5b6133a8826137ce565b9050602081019050919050565b6000819050602082019050919050565b6000819050602082019050919050565b6000819050602082019050919050565b600081519050919050565b600081519050919050565b600081519050919050565b600081519050919050565b600081519050919050565b6000602082019050919050565b6000602082019050919050565b6000602082019050919050565b600082825260208201905092915050565b600082825260208201905092915050565b600082825260208201905092915050565b600082825260208201905092915050565b600082825260208201905092915050565b600082825260208201905092915050565b600081905092915050565b60006134bf826135d9565b91506134ca836135d9565b9250827fffffffffffffffffffffffffffffffffffffffffffffffffffffffffffffffff038211156134ff576134fe613712565b5b828201905092915050565b6000613515826135d9565b9150613520836135d9565b9250826135305761352f613741565b5b828204905092915050565b6000613546826135d9565b9150613551836135d9565b92508282101561356457613563613712565b5b828203905092915050565b600061357a826135b9565b9050919050565b60008115159050919050565b60007fffffffff0000000000000000000000000000000000000000000000000000000082169050919050565b600073ffffffffffffffffffffffffffffffffffffffff82169050919050565b6000819050919050565b600063ffffffff82169050919050565b82818337600083830152505050565b60005b83811015613620578082015181840152602081019050613605565b8381111561362f576000848401525b50505050565b6000600282049050600182168061364d57607f821691505b6020821081141561366157613660613770565b5b50919050565b613670826137ce565b810181811067ffffffffffffffff8211171561368f5761368e61379f565b5b80604052505050565b60006136a3826135d9565b91507fffffffffffffffffffffffffffffffffffffffffffffffffffffffffffffffff8214156136d6576136d5613712565b5b600182019050919050565b60006136ec826135d9565b91506136f7836135d9565b92508261370757613706613741565b5b828206905092915050565b7f4e487b7100000000000000000000000000000000000000000000000000000000600052601160045260246000fd5b7f4e487b7100000000000000000000000000000000000000000000000000000000600052601260045260246000fd5b7f4e487b7100000000000000000000000000000000000000000000000000000000600052602260045260246000fd5b7f4e487b7100000000000000000000000000000000000000000000000000000000600052604160045260246000fd5b6000601f19601f8301169050919050565b7f4552433732313a207472616e7366657220746f206e6f6e20455243373231526560008201527f63656976657220696d706c656d656e7465720000000000000000000000000000602082015250565b7f4552433732313a207472616e736665722066726f6d20696e636f72726563742060008201527f6f776e6572000000000000000000000000000000000000000000000000000000602082015250565b7f4552433732313a20746f6b656e20616c7265616479206d696e74656400000000600082015250565b7f4552433732313a207472616e7366657220746f20746865207a65726f2061646460008201527f7265737300000000000000000000000000000000000000000000000000000000602082015250565b7f4552433732313a20617070726f766520746f2063616c6c657200000000000000600082015250565b7f4552433732313a206f70657261746f7220717565727920666f72206e6f6e657860008201527f697374656e7420746f6b656e0000000000000000000000000000000000000000602082015250565b7f4552433732313a20617070726f76652063616c6c6572206973206e6f74206f7760008201527f6e6572206e6f7220617070726f76656420666f7220616c6c0000000000000000602082015250565b7f4552433732313a2062616c616e636520717565727920666f7220746865207a6560008201527f726f206164647265737300000000000000000000000000000000000000000000602082015250565b7f4552433732313a206f776e657220717565727920666f72206e6f6e657869737460008201527f656e7420746f6b656e0000000000000000000000000000000000000000000000602082015250565b7f4552433732313a206d696e7420746f20746865207a65726f2061646472657373600082015250565b7f4552433732313a20617070726f76656420717565727920666f72206e6f6e657860008201527f697374656e7420746f6b656e0000000000000000000000000000000000000000602082015250565b7f4552433732314d657461646174613a2055524920717565727920666f72206e6f60008201527f6e6578697374656e7420746f6b656e0000000000000000000000000000000000602082015250565b7f4552433732313a20617070726f76616c20746f2063757272656e74206f776e6560008201527f7200000000000000000000000000000000000000000000000000000000000000602082015250565b7f4552433732313a207472616e736665722063616c6c6572206973206e6f74206f60008201527f776e6572206e6f7220617070726f766564000000000000000000000000000000602082015250565b613bc88161356f565b8114613bd357600080fd5b50565b613bdf81613581565b8114613bea57600080fd5b50565b613bf68161358d565b8114613c0157600080fd5b50565b613c0d816135d9565b8114613c1857600080fd5b50565b613c24816135e3565b8114613c2f57600080fd5b5056fea2646970667358221220e977042d47e2f8394fe151beaa68b921f24e1ae5be76746d176e36fca885f61a64736f6c63430008010033",
  "immutableReferences": {},
  "source": "// SPDX-License-Identifier: MIT\r\n\r\npragma solidity>=0.5.16;\r\n\r\nimport \"./CarbonFootprint.sol\";\r\nimport \"./Generica.sol\";\r\nimport \"@openzeppelin/contracts/access/Ownable.sol\";\r\n\r\n\r\n\r\ncontract Gestore_nft is Ownable {\r\n\r\n\r\n\r\n\r\n\r\n    // mapping attraverso i quali posso ricavare i produttori, trasformatori e clienti\r\n    mapping(uint256=>address) public produttori;\r\n    mapping(uint256=>address) public trasformatori;\r\n    mapping(uint256=>address) public clienti;\r\n    uint256 numero_produttori = 0;\r\n    uint256 numero_trasformatori = 0;\r\n    uint256 numero_clienti = 0;\r\n\r\n\r\n    // creo l'oggetto che rappresenta il token non fungibile\r\n    CarbonFootprint carbonFootprint = new CarbonFootprint();\r\n\r\n\r\n    \r\n\r\n\r\n    //funzione con cui il creatore dello smartContract pu aggiungere un nuovo produttore, trasformatore o cliente\r\n    function aggiungiAttore(\r\n        string memory _tipo, address _indirizzo_account\r\n    ) external onlyOwner {\r\n\r\n        // errore se il ruolo inserito  diverso dai 3 disponibili\r\n        require(\r\n            (Generica.stringCompare(_tipo, \"produttore\")) || \r\n            (Generica.stringCompare(_tipo, \"trasformatore\")) || \r\n            (Generica.stringCompare(_tipo, \"cliente\")),\r\n            \"I ruoli disponibili sono: _produttore_ _trasformatore_ e _cliente_\"\r\n            );\r\n\r\n\r\n        // errore se l'account inserito compare gi nel mapping relativo al ruolo richiesto\r\n        require(\r\n            nonEsistente(_tipo, _indirizzo_account),\r\n            \"Account gi\\xC3\\xa0 presente con questo ruolo\"\r\n            );\r\n\r\n\r\n        // in base al ruolo passato, l'account viene inserito nel corrispondente mapping\r\n        if(Generica.stringCompare(_tipo, \"produttore\")) {\r\n            produttori[numero_produttori] = _indirizzo_account;\r\n            numero_produttori++;\r\n        }\r\n\r\n        if(Generica.stringCompare(_tipo, \"trasformatore\")) {\r\n            trasformatori[numero_trasformatori] = _indirizzo_account;\r\n            numero_trasformatori++;\r\n        }\r\n\r\n\r\n        if(Generica.stringCompare(_tipo, \"cliente\")) {\r\n            clienti[numero_clienti] = _indirizzo_account;\r\n            numero_clienti++;\r\n        }\r\n\r\n    }\r\n\r\n\r\n\r\n\r\n\r\n    //crea una materia prima a partire da noe, valore di CO2 e lotto\r\n    function creaMateriaPrima(\r\n        uint256 _lotto, uint32 _valore_CO2, string memory _nome\r\n    ) external {\r\n\r\n        // errore se il richiedente non  un produttore\r\n        require(!nonEsistente(\"produttore\", msg.sender), \"Solo i produttori possono aggiungere materie prime\");\r\n        // errore se il lotto inserito  0\r\n        require(_lotto != 0, \"Id lotto non valido\");\r\n        // errore se i valori di CO2 non rispettano le richieste\r\n        require(_valore_CO2>0 && _valore_CO2<100, \"Valore di CO2 non valido\");\r\n        // errore se il lotto inserito  gi presente nel catalogo\r\n        require(carbonFootprint.getRisorsaByLotto(_lotto).exists==false, \"Id lotto gi\\xC3\\xa0 presente\");\r\n        // creo 3 array vuoti, perch al \"crea prodotto\" devono essere passati anche le riorse usate per produrre la risorsa\r\n        // le attivit svolte ed il loro consumo, ma poich stiamo inserendo una materia prima, tali valori sono nulli\r\n        uint256[] memory vettore_risorse;\r\n        string[] memory nomi_attivita;\r\n        uint32[] memory consumi_attivita;\r\n\r\n        // creo effettivamente la materia prima\r\n        carbonFootprint.creaProdotto(_lotto, _valore_CO2, nomi_attivita, consumi_attivita, \"materia prima\", msg.sender, vettore_risorse, _nome);\r\n\r\n    }\r\n\r\n\r\n    // consente di trasferire una materia prima ad un altro attore\r\n    function trasferimentoMateriaPrima(\r\n        address _destinatario, uint256 _lotto, address _contract\r\n        ) external {  \r\n\r\n        CarbonFootprint.Risorsa memory risorsa = carbonFootprint.getRisorsaByLotto(_lotto);\r\n\r\n             \r\n        require(!nonEsistente(_destinatario), \"L'indirizzo deve appartenere ad un produttore, trasformatore o cliente\");\r\n        carbonFootprint.approve(_contract, risorsa.token);\r\n        carbonFootprint.safeTransferFrom(msg.sender, _destinatario, risorsa.token);\r\n    }\r\n\r\n\r\n    // crea un nuovo prodotto a partire da un vettore di lotti di materie prime, un vettore di nomi di attivit svolte\r\n    // un vettore di consumi delle attivit svolte, un nome ed un lotto\r\n    function creaProdotto(\r\n        string[] memory _nomi_attivita, uint32[] memory _valori_CO2_attivita, string memory _nome, uint256[] memory _lotti_materie_prime, uint256 _lotto\r\n    ) external {\r\n\r\n        // errore se il lotto del prodotto da creare esiste gi \r\n        require(carbonFootprint.getRisorsaByLotto(_lotto).exists==false, \"Il lotto inserito \\xc3\\xa8 gi\\xC3\\xa0 presente\");\r\n        // errore se il richiedente non  un trasformatore\r\n        require(!nonEsistente(\"trasformatore\", msg.sender), \"Solo i trasformatori possono aggiungere un prodotto trasformato\");\r\n        // inizializzo la CO2 totale a 0, poi ci sommer quella delle attivit svolte e quella delle materie prime utilizzate\r\n        uint32 CO2_totale = 0; \r\n\r\n        // per ogni materia prima controllo se  valida ed utilizzabile, poi sommo i corrispondenti contributi in CO2\r\n        for (uint i=0;i<_lotti_materie_prime.length;i++) {\r\n\r\n            // estraggo la risorsa dal catalogo conoscendone il lotto\r\n            CarbonFootprint.Risorsa memory risorsa = carbonFootprint.getRisorsaByLotto(_lotti_materie_prime[i]);\r\n\r\n            // errore se il lotto  0 \r\n            require(_lotti_materie_prime[i] != 0, \"Il lotto 0 non \\xc3\\xa8 valido\");\r\n            // errore se il richiedente non possiede la risorsa\r\n            require(getOwnerByToken(risorsa.token)==msg.sender, \"Non sei in possesso della materia prima con lotto\" /*+ risorsa.lotto*/);\r\n            // errore se la risorsa non  una materia prima\r\n            require(Generica.stringCompare(string(risorsa.tipologia),\"materia prima\"),\"L'elemento con lotto pari a non \\xc3\\xa8 una materia prima\");\r\n\r\n            // settiamo il valore \"tipologia\" della risorsa a \"utilizzata\" in modo che non possa essere usata per \r\n            // produrre nuovi prodotti\r\n            carbonFootprint.setTipologiaUtilizzato(_lotti_materie_prime[i]);\r\n\r\n            // sommo alla CO2 totale quella della materia prima corrente\r\n            CO2_totale+=risorsa.valore_CO2;\r\n\r\n        }\r\n        \r\n\r\n        // per ogni attivit sommo i consumi di CO2 al valore di CO2 totale\r\n        for (uint i=0;i<_valori_CO2_attivita.length;i++) {  \r\n\r\n            CO2_totale += (_valori_CO2_attivita[i]);\r\n        }\r\n            \r\n        // creo il prodotto passando id del lotto, CO2 totale, vettore con i nomi delle attivit svolte, vettore con i \r\n        // consumi delle attivit svolte, tipologia (prodotto trasformato), possessore (chi ha mandato il messaggio),\r\n        // lotti di materie prime utilizzate e nome\r\n        carbonFootprint.creaProdotto(_lotto, CO2_totale, _nomi_attivita, _valori_CO2_attivita, \"prodotto trasformato\", msg.sender, _lotti_materie_prime, _nome);\r\n\r\n    }\r\n    \r\n\r\n\r\n\r\n\r\n    // funzione che riceve un token e restituisce l'indirizzo del possessore\r\n    function getOwnerByToken(\r\n        uint256 _token\r\n\r\n    ) public view returns(address) {\r\n        // errore se il token  0\r\n    require(_token!=0, \"Il token inserito non \\xc3\\xa8 valido\"); \r\n    // errore se il token inserito  maggiore di quello corrente\r\n    require(_token<=carbonFootprint.currentToken(), \"Prodotto/materia prima non esistente\"); \r\n           return carbonFootprint.ownerOf(_token);\r\n\r\n    }\r\n\r\n\r\n\r\n\r\n\r\n    // funzione che riceve un token e restituisce le informazioni relative alla risorsa con quel token\r\n    function getInfoByToken(\r\n        uint256 _token\r\n    ) public view returns(string memory, uint256, string[] memory, uint32[] memory, uint32, string memory, \r\n        uint256[] memory, uint256) {\r\n\r\n            // errore se il token passato  0 o  maggiore del token corrente \r\n        require(_token!=0 && _token<=carbonFootprint.currentToken(), \"Il token inserito non \\xc3\\xa8 valido\");\r\n        // estraggo dal catalogo la risorsa con token pari a quello passato\r\n        CarbonFootprint.Risorsa memory risorsa = carbonFootprint.getRisorsaByIdProdotto(_token);\r\n        return (risorsa.nome, risorsa.lotto, risorsa.nomi_attivita, risorsa.valori_CO2_attivita, risorsa.valore_CO2, risorsa.tipologia, risorsa.lotti_materie_prime, risorsa.token);\r\n\r\n    }\r\n\r\n\r\n    // funzione che riceve un lotto e restituisce le informazioni relative alla risorsa con quel lotto\r\n    function getInfoByLotto(\r\n        uint256 _lotto\r\n    ) public view returns(string memory, uint256, string[] memory, uint32[] memory, uint32, string memory, \r\n        uint256[] memory, uint256) {\r\n\r\n        CarbonFootprint.Risorsa memory risorsa = carbonFootprint.getRisorsaByLotto(_lotto);\r\n        // errore se il lotto appartiene ad una risorsa che non esiste\r\n        require(_lotto!=0 && risorsa.exists!=false, \"Il lotto inserito non \\xc3\\xa8 valido\");\r\n        return (risorsa.nome, risorsa.lotto, risorsa.nomi_attivita, risorsa.valori_CO2_attivita, risorsa.valore_CO2, risorsa.tipologia, risorsa.lotti_materie_prime, risorsa.token);\r\n                \r\n    }\r\n\r\n\r\n\r\n    // funzione che riceve un nome e restituisce una lista di informazioni relative alle risorse con quel nome\r\n    function getInfoByNome(\r\n        string memory _nome\r\n    ) public view returns(CarbonFootprint.Risorsa[] memory) {\r\n            \r\n        // creo un vettore di dimensione pari al numero di risorse prodotte fino ad ora \r\n        CarbonFootprint.Risorsa[] memory risorse = new CarbonFootprint.Risorsa[](carbonFootprint.currentToken());\r\n        uint256 j=0;\r\n        // scorro tutto il catalogo alla ricerca di risorse con il nome passato\r\n        for (uint256 i=1;i<=carbonFootprint.currentToken();i++) {\r\n            CarbonFootprint.Risorsa memory risorsa_i = carbonFootprint.getRisorsaByIdProdotto(i);\r\n            // se la risorsa ha nome pari a quello passato allora aggiungo la risorsa al vettore e aggiungo uno a j\r\n            if(Generica.stringCompare(risorsa_i.nome,_nome)) {\r\n                risorse[j] = risorsa_i;\r\n                j++;\r\n            }\r\n        }\r\n        // errore se nessun prodotto ha il nome passato\r\n        require(j!=0, \"Nessun prodotto con il nome inserito\");\r\n\r\n        return risorse;\r\n                \r\n    }  \r\n\r\n\r\n    //funzione che verifica che non sia gi presente un account con lo stesso tipo di quello passato\r\n    function nonEsistente(\r\n        string memory _tipo, address _indirizzo_account\r\n    ) public view returns(bool) {\r\n\r\n        // se il tipo passato  produttore allora cerco sul mapping dei produttori\r\n        if(Generica.stringCompare(_tipo,\"produttore\")) {\r\n            for (uint i;i<numero_produttori;i++) {\r\n                if(_indirizzo_account == produttori[i]) return false;\r\n            }\r\n        }\r\n        // se il tipo passato  trasformatore allora cerco sul mapping dei trasformatore\r\n        else if(Generica.stringCompare(_tipo, \"trasformatore\")) {\r\n            for (uint i;i<numero_trasformatori;i++) {\r\n                if(_indirizzo_account == trasformatori[i]) return false;\r\n            }\r\n        }\r\n        // se il tipo passato  cliente allora cerco sul mapping dei clienti\r\n        else if(Generica.stringCompare(_tipo, \"cliente\")) {\r\n            for (uint i;i<numero_clienti;i++) {\r\n                if(_indirizzo_account == clienti[i]) return false;\r\n            }\r\n        }\r\n\r\n        return true;\r\n\r\n    }\r\n\r\n\r\n\r\n\r\n    // funzione che scorre tutti e tre i mapping degli attori per controllare se l'account appartiene ad un \r\n    // produttore, trasformatore o destinatario\r\n    function nonEsistente(\r\n        address _indirizzo_account\r\n    ) private view returns(bool) {\r\n\r\n        for (uint i;i<numero_produttori;i++) {\r\n            if(_indirizzo_account == produttori[i]) return false;\r\n        }\r\n\r\n        for (uint i;i<numero_trasformatori;i++) {\r\n            if(_indirizzo_account == trasformatori[i]) return false;\r\n        }\r\n        \r\n\r\n        for (uint i;i<numero_clienti;i++) {\r\n            if(_indirizzo_account == clienti[i]) return false;\r\n        }\r\n\r\n        return true;\r\n    }\r\n\r\n}",
  "sourcePath": "C:/Windows/System32/network/3-nodes-istanbul-tessera-docker-compose/contracts/Gestore_nft.sol",
  "compiler": {
    "name": "solc",
    "version": "0.8.1+commit.df193b15.Emscripten.clang"
  },
  "schemaVersion": "3.4.1",
  "updatedAt": "2022-02-20T16:43:36.226Z",
  "networkType": "quorum",
  "devdoc": {
    "kind": "dev",
    "methods": {
      "owner()": {
        "details": "Returns the address of the current owner."
      },
      "renounceOwnership()": {
        "details": "Leaves the contract without owner. It will not be possible to call `onlyOwner` functions anymore. Can only be called by the current owner. NOTE: Renouncing ownership will leave the contract without an owner, thereby removing any functionality that is only available to the owner."
      },
      "transferOwnership(address)": {
        "details": "Transfers ownership of the contract to a new account (`newOwner`). Can only be called by the current owner."
      }
    },
    "version": 1
  },
  "userdoc": {
    "kind": "user",
    "methods": {},
    "version": 1
  }
}