{
  "contractName": "Gestore_nft",
  "abi": [
    {
      "anonymous": false,
      "inputs": [
        {
          "indexed": true,
          "internalType": "address",
          "name": "previousOwner",
          "type": "address"
        },
        {
          "indexed": true,
          "internalType": "address",
          "name": "newOwner",
          "type": "address"
        }
      ],
      "name": "OwnershipTransferred",
      "type": "event"
    },
    {
      "inputs": [
        {
          "internalType": "uint256",
          "name": "",
          "type": "uint256"
        }
      ],
      "name": "clienti",
      "outputs": [
        {
          "internalType": "address",
          "name": "",
          "type": "address"
        }
      ],
      "stateMutability": "view",
      "type": "function",
      "constant": true
    },
    {
      "inputs": [],
      "name": "owner",
      "outputs": [
        {
          "internalType": "address",
          "name": "",
          "type": "address"
        }
      ],
      "stateMutability": "view",
      "type": "function",
      "constant": true
    },
    {
      "inputs": [
        {
          "internalType": "uint256",
          "name": "",
          "type": "uint256"
        }
      ],
      "name": "produttori",
      "outputs": [
        {
          "internalType": "address",
          "name": "",
          "type": "address"
        }
      ],
      "stateMutability": "view",
      "type": "function",
      "constant": true
    },
    {
      "inputs": [],
      "name": "renounceOwnership",
      "outputs": [],
      "stateMutability": "nonpayable",
      "type": "function"
    },
    {
      "inputs": [
        {
          "internalType": "address",
          "name": "newOwner",
          "type": "address"
        }
      ],
      "name": "transferOwnership",
      "outputs": [],
      "stateMutability": "nonpayable",
      "type": "function"
    },
    {
      "inputs": [
        {
          "internalType": "uint256",
          "name": "",
          "type": "uint256"
        }
      ],
      "name": "trasformatori",
      "outputs": [
        {
          "internalType": "address",
          "name": "",
          "type": "address"
        }
      ],
      "stateMutability": "view",
      "type": "function",
      "constant": true
    },
    {
      "inputs": [
        {
          "internalType": "string",
          "name": "_tipo",
          "type": "string"
        },
        {
          "internalType": "address",
          "name": "_indirizzo_account",
          "type": "address"
        }
      ],
      "name": "aggiungiAttore",
      "outputs": [],
      "stateMutability": "nonpayable",
      "type": "function"
    },
    {
      "inputs": [
        {
          "internalType": "uint256",
          "name": "_id_lotto",
          "type": "uint256"
        },
        {
          "internalType": "uint32",
          "name": "_valore_CO2",
          "type": "uint32"
        },
        {
          "internalType": "string",
          "name": "_nome",
          "type": "string"
        }
      ],
      "name": "creaMateriaPrima",
      "outputs": [
        {
          "internalType": "uint256",
          "name": "",
          "type": "uint256"
        }
      ],
      "stateMutability": "nonpayable",
      "type": "function"
    },
    {
      "inputs": [
        {
          "internalType": "address",
          "name": "_destinatario",
          "type": "address"
        },
        {
          "internalType": "uint256",
          "name": "_tokenId",
          "type": "uint256"
        },
        {
          "internalType": "address",
          "name": "_contract",
          "type": "address"
        }
      ],
      "name": "trasferimentoMateriaPrima",
      "outputs": [
        {
          "internalType": "string",
          "name": "",
          "type": "string"
        }
      ],
      "stateMutability": "nonpayable",
      "type": "function"
    },
    {
      "inputs": [
        {
          "internalType": "string[2]",
          "name": "_nome_attivita",
          "type": "string[2]"
        },
        {
          "internalType": "uint32[2]",
          "name": "_CO2_attivita",
          "type": "uint32[2]"
        },
        {
          "internalType": "string",
          "name": "_nome",
          "type": "string"
        },
        {
          "internalType": "uint256[2]",
          "name": "_id_materie_prime",
          "type": "uint256[2]"
        },
        {
          "internalType": "uint256",
          "name": "_id_lotto",
          "type": "uint256"
        }
      ],
      "name": "creaProdotto",
      "outputs": [
        {
          "internalType": "uint256",
          "name": "",
          "type": "uint256"
        }
      ],
      "stateMutability": "nonpayable",
      "type": "function"
    },
    {
      "inputs": [
        {
          "internalType": "uint256",
          "name": "_token",
          "type": "uint256"
        }
      ],
      "name": "getOwnerByToken",
      "outputs": [
        {
          "internalType": "address",
          "name": "",
          "type": "address"
        }
      ],
      "stateMutability": "view",
      "type": "function",
      "constant": true
    },
    {
      "inputs": [
        {
          "internalType": "uint256",
          "name": "_token",
          "type": "uint256"
        }
      ],
      "name": "getInfoByToken",
      "outputs": [
        {
          "internalType": "string",
          "name": "",
          "type": "string"
        },
        {
          "internalType": "uint256",
          "name": "",
          "type": "uint256"
        },
        {
          "internalType": "uint256",
          "name": "",
          "type": "uint256"
        },
        {
          "internalType": "string",
          "name": "",
          "type": "string"
        }
      ],
      "stateMutability": "view",
      "type": "function",
      "constant": true
    },
    {
      "inputs": [
        {
          "internalType": "uint256",
          "name": "_lotto",
          "type": "uint256"
        }
      ],
      "name": "getInfoByLotto",
      "outputs": [
        {
          "internalType": "string",
          "name": "",
          "type": "string"
        },
        {
          "internalType": "uint256",
          "name": "",
          "type": "uint256"
        },
        {
          "internalType": "uint256",
          "name": "",
          "type": "uint256"
        },
        {
          "internalType": "string",
          "name": "",
          "type": "string"
        }
      ],
      "stateMutability": "view",
      "type": "function",
      "constant": true
    },
    {
      "inputs": [
        {
          "internalType": "string",
          "name": "_nome",
          "type": "string"
        }
      ],
      "name": "getInfoByNome",
      "outputs": [
        {
          "components": [
            {
              "internalType": "string",
              "name": "nome",
              "type": "string"
            },
            {
              "internalType": "uint256",
              "name": "lotto",
              "type": "uint256"
            },
            {
              "internalType": "uint32",
              "name": "valore_CO2",
              "type": "uint32"
            },
            {
              "internalType": "string",
              "name": "tipologia",
              "type": "string"
            },
            {
              "internalType": "uint256[2]",
              "name": "id_materie_prime",
              "type": "uint256[2]"
            },
            {
              "internalType": "uint256",
              "name": "token",
              "type": "uint256"
            },
            {
              "internalType": "bool",
              "name": "exists",
              "type": "bool"
            }
          ],
          "internalType": "struct CarbonFootprint.Risorsa[]",
          "name": "",
          "type": "tuple[]"
        }
      ],
      "stateMutability": "view",
      "type": "function",
      "constant": true
    }
  ],
  "bytecode": "0x608060405260006004556000600555600060065560405162000021906200017f565b604051809103906000f0801580156200003e573d6000803e3d6000fd5b50600760006101000a81548173ffffffffffffffffffffffffffffffffffffffff021916908373ffffffffffffffffffffffffffffffffffffffff1602179055503480156200008c57600080fd5b50620000ad620000a1620000b360201b60201c565b620000bb60201b60201c565b6200018d565b600033905090565b60008060009054906101000a900473ffffffffffffffffffffffffffffffffffffffff169050816000806101000a81548173ffffffffffffffffffffffffffffffffffffffff021916908373ffffffffffffffffffffffffffffffffffffffff1602179055508173ffffffffffffffffffffffffffffffffffffffff168173ffffffffffffffffffffffffffffffffffffffff167f8be0079c531659141344cd1fd0a4f28419497f9722a3daafe3b4186f6b6457e060405160405180910390a35050565b6135b3806200418e83390190565b613ff1806200019d6000396000f3fe608060405234801561001057600080fd5b50600436106100ea5760003560e01c806399213e271161008c578063e7ddd4ea11610066578063e7ddd4ea14610289578063eb2cc752146102b9578063f2fde38b146102e9578063f6f9d05514610305576100ea565b806399213e271461020d5780639b1414c01461023d578063ae6c17f314610259576100ea565b8063602ef7ed116100c8578063602ef7ed14610182578063715018a6146101b2578063789ce91f146101bc5780638da5cb5b146101ef576100ea565b8063162d3e9e146100ef5780631896a5af1461011f57806320cf45f81461014f575b600080fd5b61010960048036038101906101049190612a0a565b610335565b604051610116919061363d565b60405180910390f35b61013960048036038101906101349190612bb0565b6109ce565b6040516101469190613240565b60405180910390f35b61016960048036038101906101649190612bb0565b610a01565b604051610179949392919061340a565b60405180910390f35b61019c600480360381019061019791906129bb565b610b42565b6040516101a991906132dd565b60405180910390f35b6101ba610ccf565b005b6101d660048036038101906101d19190612bb0565b610d57565b6040516101e6949392919061340a565b60405180910390f35b6101f7610f2e565b6040516102049190613240565b60405180910390f35b61022760048036038101906102229190612c02565b610f57565b604051610234919061363d565b60405180910390f35b61025760048036038101906102529190612b1b565b61123e565b005b610273600480360381019061026e9190612ada565b6117d4565b60405161028091906132bb565b60405180910390f35b6102a3600480360381019061029e9190612bb0565b611b9e565b6040516102b09190613240565b60405180910390f35b6102d360048036038101906102ce9190612bb0565b611d40565b6040516102e09190613240565b60405180910390f35b61030360048036038101906102fe9190612969565b611d73565b005b61031f600480360381019061031a9190612bb0565b611e6b565b60405161032c9190613240565b60405180910390f35b6000801515600760009054906101000a900473ffffffffffffffffffffffffffffffffffffffff1673ffffffffffffffffffffffffffffffffffffffff166372f74f43846040518263ffffffff1660e01b8152600401610395919061363d565b60006040518083038186803b1580156103ad57600080fd5b505afa1580156103c1573d6000803e3d6000fd5b505050506040513d6000823e3d601f19601f820116820180604052508101906103ea9190612b6f565b60c00151151514610430576040517f08c379a00000000000000000000000000000000000000000000000000000000081526004016104279061351d565b60405180910390fd5b61046f6040518060400160405280600d81526020017f74726173666f726d61746f72650000000000000000000000000000000000000081525033611e9e565b156104af576040517f08c379a00000000000000000000000000000000000000000000000000000000081526004016104a6906135fd565b60405180910390fd5b6000805b600281101561089b576000600760009054906101000a900473ffffffffffffffffffffffffffffffffffffffff1673ffffffffffffffffffffffffffffffffffffffff166378e1fa8f878460028110610535577f4e487b7100000000000000000000000000000000000000000000000000000000600052603260045260246000fd5b60200201516040518263ffffffff1660e01b8152600401610556919061363d565b60006040518083038186803b15801561056e57600080fd5b505afa158015610582573d6000803e3d6000fd5b505050506040513d6000823e3d601f19601f820116820180604052508101906105ab9190612b6f565b9050600760009054906101000a900473ffffffffffffffffffffffffffffffffffffffff1673ffffffffffffffffffffffffffffffffffffffff1663b3157ba6878460028110610624577f4e487b7100000000000000000000000000000000000000000000000000000000600052603260045260246000fd5b60200201516040518263ffffffff1660e01b8152600401610645919061363d565b600060405180830381600087803b15801561065f57600080fd5b505af1158015610673573d6000803e3d6000fd5b5050505060008683600281106106b2577f4e487b7100000000000000000000000000000000000000000000000000000000600052603260045260246000fd5b602002015114156106f8576040517f08c379a00000000000000000000000000000000000000000000000000000000081526004016106ef906134fd565b60405180910390fd5b3373ffffffffffffffffffffffffffffffffffffffff1661075587846002811061074b577f4e487b7100000000000000000000000000000000000000000000000000000000600052603260045260246000fd5b6020020151611b9e565b73ffffffffffffffffffffffffffffffffffffffff16146107ab576040517f08c379a00000000000000000000000000000000000000000000000000000000081526004016107a2906135bd565b60405180910390fd5b73__Generica______________________________6360353db982606001516040518263ffffffff1660e01b81526004016107e691906133d5565b60206040518083038186803b1580156107fe57600080fd5b505af4158015610812573d6000803e3d6000fd5b505050506040513d601f19601f820116820180604052508101906108369190612ab1565b610875576040517f08c379a000000000000000000000000000000000000000000000000000000000815260040161086c9061359d565b60405180910390fd5b80604001518361088591906138a9565b9250508080610893906139ae565b9150506104b3565b5060005b6002811015610906578681600281106108e1577f4e487b7100000000000000000000000000000000000000000000000000000000600052603260045260246000fd5b6020020151826108f191906138a9565b915080806108fe906139ae565b91505061089f565b506000600760009054906101000a900473ffffffffffffffffffffffffffffffffffffffff1673ffffffffffffffffffffffffffffffffffffffff1663b0472bc0858433898b6040518663ffffffff1660e01b815260040161096c959493929190613658565b602060405180830381600087803b15801561098657600080fd5b505af115801561099a573d6000803e3d6000fd5b505050506040513d601f19601f820116820180604052508101906109be9190612bd9565b9050809250505095945050505050565b60026020528060005260406000206000915054906101000a900473ffffffffffffffffffffffffffffffffffffffff1681565b606060008060606000600760009054906101000a900473ffffffffffffffffffffffffffffffffffffffff1673ffffffffffffffffffffffffffffffffffffffff166372f74f43876040518263ffffffff1660e01b8152600401610a65919061363d565b60006040518083038186803b158015610a7d57600080fd5b505afa158015610a91573d6000803e3d6000fd5b505050506040513d6000823e3d601f19601f82011682018060405250810190610aba9190612b6f565b905060008614158015610ad65750600015158160c00151151514155b610b15576040517f08c379a0000000000000000000000000000000000000000000000000000000008152600401610b0c906134bd565b60405180910390fd5b80600001518160200151826040015183606001518163ffffffff1691509450945094509450509193509193565b6060610b4d84612212565b15610b8d576040517f08c379a0000000000000000000000000000000000000000000000000000000008152600401610b849061353d565b60405180910390fd5b600760009054906101000a900473ffffffffffffffffffffffffffffffffffffffff1673ffffffffffffffffffffffffffffffffffffffff1663095ea7b383856040518363ffffffff1660e01b8152600401610bea929190613292565b600060405180830381600087803b158015610c0457600080fd5b505af1158015610c18573d6000803e3d6000fd5b50505050600760009054906101000a900473ffffffffffffffffffffffffffffffffffffffff1673ffffffffffffffffffffffffffffffffffffffff166342842e0e3386866040518463ffffffff1660e01b8152600401610c7b9392919061325b565b600060405180830381600087803b158015610c9557600080fd5b505af1158015610ca9573d6000803e3d6000fd5b50505050604051806060016040528060238152602001613f996023913990509392505050565b610cd76123d3565b73ffffffffffffffffffffffffffffffffffffffff16610cf5610f2e565b73ffffffffffffffffffffffffffffffffffffffff1614610d4b576040517f08c379a0000000000000000000000000000000000000000000000000000000008152600401610d429061357d565b60405180910390fd5b610d5560006123db565b565b606060008060606000600760009054906101000a900473ffffffffffffffffffffffffffffffffffffffff1673ffffffffffffffffffffffffffffffffffffffff166378e1fa8f876040518263ffffffff1660e01b8152600401610dbb919061363d565b60006040518083038186803b158015610dd357600080fd5b505afa158015610de7573d6000803e3d6000fd5b505050506040513d6000823e3d601f19601f82011682018060405250810190610e109190612b6f565b905060008614158015610ec25750600760009054906101000a900473ffffffffffffffffffffffffffffffffffffffff1673ffffffffffffffffffffffffffffffffffffffff1663836c081d6040518163ffffffff1660e01b815260040160206040518083038186803b158015610e8657600080fd5b505afa158015610e9a573d6000803e3d6000fd5b505050506040513d601f19601f82011682018060405250810190610ebe9190612bd9565b8611155b610f01576040517f08c379a0000000000000000000000000000000000000000000000000000000008152600401610ef89061345d565b60405180910390fd5b80600001518160200151826040015183606001518163ffffffff1691509450945094509450509193509193565b60008060009054906101000a900473ffffffffffffffffffffffffffffffffffffffff16905090565b6000610f986040518060400160405280600a81526020017f70726f647574746f72650000000000000000000000000000000000000000000081525033611e9e565b15610fd8576040517f08c379a0000000000000000000000000000000000000000000000000000000008152600401610fcf9061361d565b60405180910390fd5b600084141561101c576040517f08c379a0000000000000000000000000000000000000000000000000000000008152600401611013906134fd565b60405180910390fd5b60008363ffffffff16118015611038575060648363ffffffff16105b611077576040517f08c379a000000000000000000000000000000000000000000000000000000000815260040161106e9061355d565b60405180910390fd5b60001515600760009054906101000a900473ffffffffffffffffffffffffffffffffffffffff1673ffffffffffffffffffffffffffffffffffffffff166372f74f43866040518263ffffffff1660e01b81526004016110d6919061363d565b60006040518083038186803b1580156110ee57600080fd5b505afa158015611102573d6000803e3d6000fd5b505050506040513d6000823e3d601f19601f8201168201806040525081019061112b9190612b6f565b60c00151151514611171576040517f08c379a00000000000000000000000000000000000000000000000000000000081526004016111689061351d565b60405180910390fd5b61117961249f565b6000600760009054906101000a900473ffffffffffffffffffffffffffffffffffffffff1673ffffffffffffffffffffffffffffffffffffffff1663b0472bc087873386896040518663ffffffff1660e01b81526004016111de9594939291906136c5565b602060405180830381600087803b1580156111f857600080fd5b505af115801561120c573d6000803e3d6000fd5b505050506040513d601f19601f820116820180604052508101906112309190612bd9565b905080925050509392505050565b6112466123d3565b73ffffffffffffffffffffffffffffffffffffffff16611264610f2e565b73ffffffffffffffffffffffffffffffffffffffff16146112ba576040517f08c379a00000000000000000000000000000000000000000000000000000000081526004016112b19061357d565b60405180910390fd5b73__Generica______________________________6360353db9836040518263ffffffff1660e01b81526004016112f19190613336565b60206040518083038186803b15801561130957600080fd5b505af415801561131d573d6000803e3d6000fd5b505050506040513d601f19601f820116820180604052508101906113419190612ab1565b806113cf575073__Generica______________________________6360353db9836040518263ffffffff1660e01b815260040161137e919061336b565b60206040518083038186803b15801561139657600080fd5b505af41580156113aa573d6000803e3d6000fd5b505050506040513d601f19601f820116820180604052508101906113ce9190612ab1565b5b8061145d575073__Generica______________________________6360353db9836040518263ffffffff1660e01b815260040161140c91906133a0565b60206040518083038186803b15801561142457600080fd5b505af4158015611438573d6000803e3d6000fd5b505050506040513d601f19601f8201168201806040525081019061145c9190612ab1565b5b61149c576040517f08c379a00000000000000000000000000000000000000000000000000000000081526004016114939061349d565b60405180910390fd5b6114a68282611e9e565b6114e5576040517f08c379a00000000000000000000000000000000000000000000000000000000081526004016114dc906135dd565b60405180910390fd5b73__Generica______________________________6360353db9836040518263ffffffff1660e01b815260040161151c9190613336565b60206040518083038186803b15801561153457600080fd5b505af4158015611548573d6000803e3d6000fd5b505050506040513d601f19601f8201168201806040525081019061156c9190612ab1565b156115de578060016000600454815260200190815260200160002060006101000a81548173ffffffffffffffffffffffffffffffffffffffff021916908373ffffffffffffffffffffffffffffffffffffffff160217905550600460008154809291906115d8906139ae565b91905055505b73__Generica______________________________6360353db9836040518263ffffffff1660e01b8152600401611615919061336b565b60206040518083038186803b15801561162d57600080fd5b505af4158015611641573d6000803e3d6000fd5b505050506040513d601f19601f820116820180604052508101906116659190612ab1565b156116d7578060026000600554815260200190815260200160002060006101000a81548173ffffffffffffffffffffffffffffffffffffffff021916908373ffffffffffffffffffffffffffffffffffffffff160217905550600560008154809291906116d1906139ae565b91905055505b73__Generica______________________________6360353db9836040518263ffffffff1660e01b815260040161170e91906133a0565b60206040518083038186803b15801561172657600080fd5b505af415801561173a573d6000803e3d6000fd5b505050506040513d601f19601f8201168201806040525081019061175e9190612ab1565b156117d0578060036000600654815260200190815260200160002060006101000a81548173ffffffffffffffffffffffffffffffffffffffff021916908373ffffffffffffffffffffffffffffffffffffffff160217905550600660008154809291906117ca906139ae565b91905055505b5050565b60606000600760009054906101000a900473ffffffffffffffffffffffffffffffffffffffff1673ffffffffffffffffffffffffffffffffffffffff1663836c081d6040518163ffffffff1660e01b815260040160206040518083038186803b15801561184057600080fd5b505afa158015611854573d6000803e3d6000fd5b505050506040513d601f19601f820116820180604052508101906118789190612bd9565b67ffffffffffffffff8111156118b7577f4e487b7100000000000000000000000000000000000000000000000000000000600052604160045260246000fd5b6040519080825280602002602001820160405280156118f057816020015b6118dd6124c1565b8152602001906001900390816118d55790505b509050600080600190505b600760009054906101000a900473ffffffffffffffffffffffffffffffffffffffff1673ffffffffffffffffffffffffffffffffffffffff1663836c081d6040518163ffffffff1660e01b815260040160206040518083038186803b15801561196357600080fd5b505afa158015611977573d6000803e3d6000fd5b505050506040513d601f19601f8201168201806040525081019061199b9190612bd9565b8111611b4f576000600760009054906101000a900473ffffffffffffffffffffffffffffffffffffffff1673ffffffffffffffffffffffffffffffffffffffff166378e1fa8f836040518263ffffffff1660e01b81526004016119fe919061363d565b60006040518083038186803b158015611a1657600080fd5b505afa158015611a2a573d6000803e3d6000fd5b505050506040513d6000823e3d601f19601f82011682018060405250810190611a539190612b6f565b905073__Generica______________________________6360353db98260000151886040518363ffffffff1660e01b8152600401611a929291906132ff565b60206040518083038186803b158015611aaa57600080fd5b505af4158015611abe573d6000803e3d6000fd5b505050506040513d601f19601f82011682018060405250810190611ae29190612ab1565b15611b3b5780848481518110611b21577f4e487b7100000000000000000000000000000000000000000000000000000000600052603260045260246000fd5b60200260200101819052508280611b37906139ae565b9350505b508080611b47906139ae565b9150506118fb565b506000811415611b94576040517f08c379a0000000000000000000000000000000000000000000000000000000008152600401611b8b9061347d565b60405180910390fd5b8192505050919050565b6000808214158015611c4f5750600760009054906101000a900473ffffffffffffffffffffffffffffffffffffffff1673ffffffffffffffffffffffffffffffffffffffff1663836c081d6040518163ffffffff1660e01b815260040160206040518083038186803b158015611c1357600080fd5b505afa158015611c27573d6000803e3d6000fd5b505050506040513d601f19601f82011682018060405250810190611c4b9190612bd9565b8211155b611c8e576040517f08c379a0000000000000000000000000000000000000000000000000000000008152600401611c859061345d565b60405180910390fd5b600760009054906101000a900473ffffffffffffffffffffffffffffffffffffffff1673ffffffffffffffffffffffffffffffffffffffff16636352211e836040518263ffffffff1660e01b8152600401611ce9919061363d565b60206040518083038186803b158015611d0157600080fd5b505afa158015611d15573d6000803e3d6000fd5b505050506040513d601f19601f82011682018060405250810190611d399190612992565b9050919050565b60016020528060005260406000206000915054906101000a900473ffffffffffffffffffffffffffffffffffffffff1681565b611d7b6123d3565b73ffffffffffffffffffffffffffffffffffffffff16611d99610f2e565b73ffffffffffffffffffffffffffffffffffffffff1614611def576040517f08c379a0000000000000000000000000000000000000000000000000000000008152600401611de69061357d565b60405180910390fd5b600073ffffffffffffffffffffffffffffffffffffffff168173ffffffffffffffffffffffffffffffffffffffff161415611e5f576040517f08c379a0000000000000000000000000000000000000000000000000000000008152600401611e56906134dd565b60405180910390fd5b611e68816123db565b50565b60036020528060005260406000206000915054906101000a900473ffffffffffffffffffffffffffffffffffffffff1681565b600073__Generica______________________________6360353db9846040518263ffffffff1660e01b8152600401611ed79190613336565b60206040518083038186803b158015611eef57600080fd5b505af4158015611f03573d6000803e3d6000fd5b505050506040513d601f19601f82011682018060405250810190611f279190612ab1565b15611fc35760005b600454811015611fbd576001600082815260200190815260200160002060009054906101000a900473ffffffffffffffffffffffffffffffffffffffff1673ffffffffffffffffffffffffffffffffffffffff168373ffffffffffffffffffffffffffffffffffffffff161415611faa57600091505061220c565b8080611fb5906139ae565b915050611f2f565b50612207565b73__Generica______________________________6360353db9846040518263ffffffff1660e01b8152600401611ffa919061336b565b60206040518083038186803b15801561201257600080fd5b505af4158015612026573d6000803e3d6000fd5b505050506040513d601f19601f8201168201806040525081019061204a9190612ab1565b156120e65760005b6005548110156120e0576002600082815260200190815260200160002060009054906101000a900473ffffffffffffffffffffffffffffffffffffffff1673ffffffffffffffffffffffffffffffffffffffff168373ffffffffffffffffffffffffffffffffffffffff1614156120cd57600091505061220c565b80806120d8906139ae565b915050612052565b50612206565b73__Generica______________________________6360353db9846040518263ffffffff1660e01b815260040161211d91906133a0565b60206040518083038186803b15801561213557600080fd5b505af4158015612149573d6000803e3d6000fd5b505050506040513d601f19601f8201168201806040525081019061216d9190612ab1565b156122055760005b600654811015612203576003600082815260200190815260200160002060009054906101000a900473ffffffffffffffffffffffffffffffffffffffff1673ffffffffffffffffffffffffffffffffffffffff168373ffffffffffffffffffffffffffffffffffffffff1614156121f057600091505061220c565b80806121fb906139ae565b915050612175565b505b5b5b600190505b92915050565b6000805b6004548110156122a4576001600082815260200190815260200160002060009054906101000a900473ffffffffffffffffffffffffffffffffffffffff1673ffffffffffffffffffffffffffffffffffffffff168373ffffffffffffffffffffffffffffffffffffffff1614156122915760009150506123ce565b808061229c906139ae565b915050612216565b5060005b600554811015612336576002600082815260200190815260200160002060009054906101000a900473ffffffffffffffffffffffffffffffffffffffff1673ffffffffffffffffffffffffffffffffffffffff168373ffffffffffffffffffffffffffffffffffffffff1614156123235760009150506123ce565b808061232e906139ae565b9150506122a8565b5060005b6006548110156123c8576003600082815260200190815260200160002060009054906101000a900473ffffffffffffffffffffffffffffffffffffffff1673ffffffffffffffffffffffffffffffffffffffff168373ffffffffffffffffffffffffffffffffffffffff1614156123b55760009150506123ce565b80806123c0906139ae565b91505061233a565b50600190505b919050565b600033905090565b60008060009054906101000a900473ffffffffffffffffffffffffffffffffffffffff169050816000806101000a81548173ffffffffffffffffffffffffffffffffffffffff021916908373ffffffffffffffffffffffffffffffffffffffff1602179055508173ffffffffffffffffffffffffffffffffffffffff168173ffffffffffffffffffffffffffffffffffffffff167f8be0079c531659141344cd1fd0a4f28419497f9722a3daafe3b4186f6b6457e060405160405180910390a35050565b6040518060400160405280600290602082028036833780820191505090505090565b6040518060e001604052806060815260200160008152602001600063ffffffff168152602001606081526020016124f661249f565b8152602001600081526020016000151581525090565b600061251f61251a84613757565b613732565b9050808260005b85811015612556578135850161253c88826127e0565b845260208401935060208301925050600181019050612526565b5050509392505050565b600061257361256e8461377d565b613732565b9050808285602086028201111561258957600080fd5b60005b858110156125b9578161259f8882612915565b84526020840193506020830192505060018101905061258c565b5050509392505050565b60006125d66125d18461377d565b613732565b905080828560208602820111156125ec57600080fd5b60005b8581101561261c5781612602888261292a565b8452602084019350602083019250506001810190506125ef565b5050509392505050565b6000612639612634846137a3565b613732565b9050808285602086028201111561264f57600080fd5b60005b8581101561267f5781612665888261293f565b845260208401935060208301925050600181019050612652565b5050509392505050565b600061269c612697846137c9565b613732565b9050828152602081018484840111156126b457600080fd5b6126bf84828561393b565b509392505050565b60006126da6126d5846137c9565b613732565b9050828152602081018484840111156126f257600080fd5b6126fd84828561394a565b509392505050565b60008135905061271481613f3c565b92915050565b60008151905061272981613f3c565b92915050565b600082601f83011261274057600080fd5b600261274d84828561250c565b91505092915050565b600082601f83011261276757600080fd5b6002612774848285612560565b91505092915050565b600082601f83011261278e57600080fd5b600261279b8482856125c3565b91505092915050565b600082601f8301126127b557600080fd5b60026127c2848285612626565b91505092915050565b6000815190506127da81613f53565b92915050565b600082601f8301126127f157600080fd5b8135612801848260208601612689565b91505092915050565b600082601f83011261281b57600080fd5b815161282b8482602086016126c7565b91505092915050565b6000610100828403121561284757600080fd5b61285160e0613732565b9050600082015167ffffffffffffffff81111561286d57600080fd5b6128798482850161280a565b600083015250602061288d8482850161292a565b60208301525060406128a184828501612954565b604083015250606082015167ffffffffffffffff8111156128c157600080fd5b6128cd8482850161280a565b60608301525060806128e18482850161277d565b60808301525060c06128f58482850161292a565b60a08301525060e0612909848285016127cb565b60c08301525092915050565b60008135905061292481613f6a565b92915050565b60008151905061293981613f6a565b92915050565b60008135905061294e81613f81565b92915050565b60008151905061296381613f81565b92915050565b60006020828403121561297b57600080fd5b600061298984828501612705565b91505092915050565b6000602082840312156129a457600080fd5b60006129b28482850161271a565b91505092915050565b6000806000606084860312156129d057600080fd5b60006129de86828701612705565b93505060206129ef86828701612915565b9250506040612a0086828701612705565b9150509250925092565b600080600080600060e08688031215612a2257600080fd5b600086013567ffffffffffffffff811115612a3c57600080fd5b612a488882890161272f565b9550506020612a59888289016127a4565b945050606086013567ffffffffffffffff811115612a7657600080fd5b612a82888289016127e0565b9350506080612a9388828901612756565b92505060c0612aa488828901612915565b9150509295509295909350565b600060208284031215612ac357600080fd5b6000612ad1848285016127cb565b91505092915050565b600060208284031215612aec57600080fd5b600082013567ffffffffffffffff811115612b0657600080fd5b612b12848285016127e0565b91505092915050565b60008060408385031215612b2e57600080fd5b600083013567ffffffffffffffff811115612b4857600080fd5b612b54858286016127e0565b9250506020612b6585828601612705565b9150509250929050565b600060208284031215612b8157600080fd5b600082015167ffffffffffffffff811115612b9b57600080fd5b612ba784828501612834565b91505092915050565b600060208284031215612bc257600080fd5b6000612bd084828501612915565b91505092915050565b600060208284031215612beb57600080fd5b6000612bf98482850161292a565b91505092915050565b600080600060608486031215612c1757600080fd5b6000612c2586828701612915565b9350506020612c368682870161293f565b925050604084013567ffffffffffffffff811115612c5357600080fd5b612c5f868287016127e0565b9150509250925092565b6000612c758383613160565b905092915050565b6000612c898383613204565b60208301905092915050565b612c9e816138e3565b82525050565b6000612caf82613814565b612cb9818561384f565b935083602082028501612ccb856137fa565b8060005b85811015612d075784840389528151612ce88582612c69565b9450612cf383613835565b925060208a01995050600181019050612ccf565b50829750879550505050505092915050565b612d228161381f565b612d2c8184613860565b9250612d378261380a565b8060005b83811015612d68578151612d4f8782612c7d565b9650612d5a83613842565b925050600181019050612d3b565b505050505050565b612d798161381f565b612d83818461386b565b9250612d8e8261380a565b8060005b83811015612dbf578151612da68782612c7d565b9650612db183613842565b925050600181019050612d92565b505050505050565b612dd0816138f5565b82525050565b6000612de18261382a565b612deb8185613876565b9350612dfb81856020860161394a565b612e0481613a55565b840191505092915050565b6000612e1a8261382a565b612e248185613887565b9350612e3481856020860161394a565b612e3d81613a55565b840191505092915050565b6000612e538261382a565b612e5d8185613898565b9350612e6d81856020860161394a565b612e7681613a55565b840191505092915050565b6000612e8e601f83613887565b9150612e9982613a66565b602082019050919050565b6000612eb1602483613887565b9150612ebc82613a8f565b604082019050919050565b6000612ed4604283613887565b9150612edf82613ade565b606082019050919050565b6000612ef7601f83613887565b9150612f0282613b53565b602082019050919050565b6000612f1a602683613887565b9150612f2582613b7c565b604082019050919050565b6000612f3d601383613887565b9150612f4882613bcb565b602082019050919050565b6000612f60600a83613898565b9150612f6b82613bf4565b602082019050919050565b6000612f83601683613887565b9150612f8e82613c1d565b602082019050919050565b6000612fa6604583613887565b9150612fb182613c46565b606082019050919050565b6000612fc9601883613887565b9150612fd482613cbb565b602082019050919050565b6000612fec602083613887565b9150612ff782613ce4565b602082019050919050565b600061300f602f83613887565b915061301a82613d0d565b604082019050919050565b6000613032601483613887565b915061303d82613d5c565b602082019050919050565b6000613055603083613887565b915061306082613d85565b604082019050919050565b6000613078602683613887565b915061308382613dd4565b604082019050919050565b600061309b603f83613887565b91506130a682613e23565b604082019050919050565b60006130be600d83613898565b91506130c982613e72565b602082019050919050565b60006130e1603283613887565b91506130ec82613e9b565b604082019050919050565b6000613104600783613898565b915061310f82613eea565b602082019050919050565b6000613127600d83613887565b915061313282613f13565b602082019050919050565b600061314a600d83613898565b915061315582613f13565b602082019050919050565b600061010083016000830151848203600086015261317e8282612dd6565b91505060208301516131936020860182613204565b5060408301516131a66040860182613222565b50606083015184820360608601526131be8282612dd6565b91505060808301516131d36080860182612d19565b5060a08301516131e660c0860182613204565b5060c08301516131f960e0860182612dc7565b508091505092915050565b61320d81613921565b82525050565b61321c81613921565b82525050565b61322b8161392b565b82525050565b61323a8161392b565b82525050565b60006020820190506132556000830184612c95565b92915050565b60006060820190506132706000830186612c95565b61327d6020830185612c95565b61328a6040830184613213565b949350505050565b60006040820190506132a76000830185612c95565b6132b46020830184613213565b9392505050565b600060208201905081810360008301526132d58184612ca4565b905092915050565b600060208201905081810360008301526132f78184612e0f565b905092915050565b600060408201905081810360008301526133198185612e48565b9050818103602083015261332d8184612e48565b90509392505050565b600060408201905081810360008301526133508184612e48565b9050818103602083015261336381612f53565b905092915050565b600060408201905081810360008301526133858184612e48565b90508181036020830152613398816130b1565b905092915050565b600060408201905081810360008301526133ba8184612e48565b905081810360208301526133cd816130f7565b905092915050565b600060408201905081810360008301526133ef8184612e48565b905081810360208301526134028161313d565b905092915050565b600060808201905081810360008301526134248187612e0f565b90506134336020830186613213565b6134406040830185613213565b81810360608301526134528184612e0f565b905095945050505050565b6000602082019050818103600083015261347681612e81565b9050919050565b6000602082019050818103600083015261349681612ea4565b9050919050565b600060208201905081810360008301526134b681612ec7565b9050919050565b600060208201905081810360008301526134d681612eea565b9050919050565b600060208201905081810360008301526134f681612f0d565b9050919050565b6000602082019050818103600083015261351681612f30565b9050919050565b6000602082019050818103600083015261353681612f76565b9050919050565b6000602082019050818103600083015261355681612f99565b9050919050565b6000602082019050818103600083015261357681612fbc565b9050919050565b6000602082019050818103600083015261359681612fdf565b9050919050565b600060208201905081810360008301526135b681613002565b9050919050565b600060208201905081810360008301526135d681613048565b9050919050565b600060208201905081810360008301526135f68161306b565b9050919050565b600060208201905081810360008301526136168161308e565b9050919050565b60006020820190508181036000830152613636816130d4565b9050919050565b60006020820190506136526000830184613213565b92915050565b600060e08201905061366d6000830188613213565b61367a6020830187613231565b818103604083015261368b81613025565b905061369a6060830186612c95565b6136a76080830185612d70565b81810360c08301526136b98184612e0f565b90509695505050505050565b600060e0820190506136da6000830188613213565b6136e76020830187613231565b81810360408301526136f88161311a565b90506137076060830186612c95565b6137146080830185612d70565b81810360c08301526137268184612e0f565b90509695505050505050565b600061373c61374d565b9050613748828261397d565b919050565b6000604051905090565b600067ffffffffffffffff82111561377257613771613a26565b5b602082029050919050565b600067ffffffffffffffff82111561379857613797613a26565b5b602082029050919050565b600067ffffffffffffffff8211156137be576137bd613a26565b5b602082029050919050565b600067ffffffffffffffff8211156137e4576137e3613a26565b5b6137ed82613a55565b9050602081019050919050565b6000819050602082019050919050565b6000819050919050565b600081519050919050565b600060029050919050565b600081519050919050565b6000602082019050919050565b6000602082019050919050565b600082825260208201905092915050565b600081905092915050565b600081905092915050565b600082825260208201905092915050565b600082825260208201905092915050565b600082825260208201905092915050565b60006138b48261392b565b91506138bf8361392b565b92508263ffffffff038211156138d8576138d76139f7565b5b828201905092915050565b60006138ee82613901565b9050919050565b60008115159050919050565b600073ffffffffffffffffffffffffffffffffffffffff82169050919050565b6000819050919050565b600063ffffffff82169050919050565b82818337600083830152505050565b60005b8381101561396857808201518184015260208101905061394d565b83811115613977576000848401525b50505050565b61398682613a55565b810181811067ffffffffffffffff821117156139a5576139a4613a26565b5b80604052505050565b60006139b982613921565b91507fffffffffffffffffffffffffffffffffffffffffffffffffffffffffffffffff8214156139ec576139eb6139f7565b5b600182019050919050565b7f4e487b7100000000000000000000000000000000000000000000000000000000600052601160045260246000fd5b7f4e487b7100000000000000000000000000000000000000000000000000000000600052604160045260246000fd5b6000601f19601f8301169050919050565b7f496c20746f6b656e20696e73657269746f206e6f6e20c3a82076616c69646f00600082015250565b7f4e657373756e2070726f646f74746f20636f6e20696c206e6f6d6520696e736560008201527f7269746f00000000000000000000000000000000000000000000000000000000602082015250565b7f492072756f6c6920646973706f6e6962696c6920736f6e6f3a205f70726f647560008201527f74746f72655f205f74726173666f726d61746f72655f2065205f636c69656e7460208201527f655f000000000000000000000000000000000000000000000000000000000000604082015250565b7f496c206c6f74746f20696e73657269746f206e6f6e20c3a82076616c69646f00600082015250565b7f4f776e61626c653a206e6577206f776e657220697320746865207a65726f206160008201527f6464726573730000000000000000000000000000000000000000000000000000602082015250565b7f4964206c6f74746f206e6f6e2076616c69646f00000000000000000000000000600082015250565b7f70726f647574746f726500000000000000000000000000000000000000000000600082015250565b7f4964206c6f74746f206769c3a02070726573656e746500000000000000000000600082015250565b7f4c27696e646972697a7a6f206465766520617070617274656e6572652061642060008201527f756e2070726f647574746f72652c2074726173666f726d61747265206f20636c60208201527f69656e7465000000000000000000000000000000000000000000000000000000604082015250565b7f56616c6f726520646920434f32206e6f6e2076616c69646f0000000000000000600082015250565b7f4f776e61626c653a2063616c6c6572206973206e6f7420746865206f776e6572600082015250565b7f4c27656c656d656e746f2073656c657a696f6e61746f206e6f6e20c3a820756e60008201527f61206d617465726961207072696d610000000000000000000000000000000000602082015250565b7f70726f646f74746f2074726173666f726d61746f000000000000000000000000600082015250565b7f4e6f6e2073656920696e20706f73736573736f2064656c6c61206d617465726960008201527f61207072696d6120696e73657269746100000000000000000000000000000000602082015250565b7f4163636f756e74206769c3a02070726573656e746520636f6e2071756573746f60008201527f2072756f6c6f0000000000000000000000000000000000000000000000000000602082015250565b7f536f6c6f20692074726173666f726d61746f726920706f73736f6e6f2061676760008201527f69756e6765726520756e2070726f646f74746f2074726173666f726d61746f00602082015250565b7f74726173666f726d61746f726500000000000000000000000000000000000000600082015250565b7f536f6c6f20692070726f647574746f726920706f73736f6e6f2061676769756e60008201527f67657265206d617465726965207072696d650000000000000000000000000000602082015250565b7f636c69656e746500000000000000000000000000000000000000000000000000600082015250565b7f6d617465726961207072696d6100000000000000000000000000000000000000600082015250565b613f45816138e3565b8114613f5057600080fd5b50565b613f5c816138f5565b8114613f6757600080fd5b50565b613f7381613921565b8114613f7e57600080fd5b50565b613f8a8161392b565b8114613f9557600080fd5b5056fe74726173666572696d656e746f20617676656e75746f20636f6e20737563636573736fa26469706673582212200bc6846bff5c65ce6b6c9f72a4cf404f9af7b4c681609bcf5b829291a913127e64736f6c6343000801003360806040523480156200001157600080fd5b506040518060400160405280600f81526020017f436172626f6e466f6f747072696e7400000000000000000000000000000000008152506040518060400160405280600381526020017f4346500000000000000000000000000000000000000000000000000000000000815250816000908051906020019062000096929190620000b8565b508060019080519060200190620000af929190620000b8565b505050620001cd565b828054620000c69062000168565b90600052602060002090601f016020900481019282620000ea576000855562000136565b82601f106200010557805160ff191683800117855562000136565b8280016001018555821562000136579182015b828111156200013557825182559160200191906001019062000118565b5b50905062000145919062000149565b5090565b5b80821115620001645760008160009055506001016200014a565b5090565b600060028204905060018216806200018157607f821691505b602082108114156200019857620001976200019e565b5b50919050565b7f4e487b7100000000000000000000000000000000000000000000000000000000600052602260045260246000fd5b6133d680620001dd6000396000f3fe608060405234801561001057600080fd5b50600436106101165760003560e01c806378e1fa8f116100a2578063b0472bc011610071578063b0472bc014610305578063b3157ba614610335578063b88d4fde14610351578063c87b56dd1461036d578063e985e9c51461039d57610116565b806378e1fa8f1461027d578063836c081d146102ad57806395d89b41146102cb578063a22cb465146102e957610116565b806323b872dd116100e957806323b872dd146101b557806342842e0e146101d15780636352211e146101ed57806370a082311461021d57806372f74f431461024d57610116565b806301ffc9a71461011b57806306fdde031461014b578063081812fc14610169578063095ea7b314610199575b600080fd5b610135600480360381019061013091906122c8565b6103cd565b60405161014291906128ba565b60405180910390f35b6101536104af565b60405161016091906128d5565b60405180910390f35b610183600480360381019061017e919061231a565b610541565b6040516101909190612853565b60405180910390f35b6101b360048036038101906101ae919061228c565b6105c6565b005b6101cf60048036038101906101ca9190612186565b6106de565b005b6101eb60048036038101906101e69190612186565b61073e565b005b6102076004803603810190610202919061231a565b61075e565b6040516102149190612853565b60405180910390f35b61023760048036038101906102329190612121565b610810565b6040516102449190612ad9565b60405180910390f35b6102676004803603810190610262919061231a565b6108c8565b6040516102749190612ab7565b60405180910390f35b6102976004803603810190610292919061231a565b610ab3565b6040516102a49190612ab7565b60405180910390f35b6102b5610c9e565b6040516102c29190612ad9565b60405180910390f35b6102d3610caf565b6040516102e091906128d5565b60405180910390f35b61030360048036038101906102fe9190612250565b610d41565b005b61031f600480360381019061031a9190612343565b610d57565b60405161032c9190612ad9565b60405180910390f35b61034f600480360381019061034a919061231a565b610f52565b005b61036b600480360381019061036691906121d5565b611031565b005b6103876004803603810190610382919061231a565b611093565b60405161039491906128d5565b60405180910390f35b6103b760048036038101906103b2919061214a565b61113a565b6040516103c491906128ba565b60405180910390f35b60007f80ac58cd000000000000000000000000000000000000000000000000000000007bffffffffffffffffffffffffffffffffffffffffffffffffffffffff1916827bffffffffffffffffffffffffffffffffffffffffffffffffffffffff1916148061049857507f5b5e139f000000000000000000000000000000000000000000000000000000007bffffffffffffffffffffffffffffffffffffffffffffffffffffffff1916827bffffffffffffffffffffffffffffffffffffffffffffffffffffffff1916145b806104a857506104a7826111ce565b5b9050919050565b6060600080546104be90612da3565b80601f01602080910402602001604051908101604052809291908181526020018280546104ea90612da3565b80156105375780601f1061050c57610100808354040283529160200191610537565b820191906000526020600020905b81548152906001019060200180831161051a57829003601f168201915b5050505050905090565b600061054c82611238565b61058b576040517f08c379a000000000000000000000000000000000000000000000000000000000815260040161058290612a37565b60405180910390fd5b6004600083815260200190815260200160002060009054906101000a900473ffffffffffffffffffffffffffffffffffffffff169050919050565b60006105d18261075e565b90508073ffffffffffffffffffffffffffffffffffffffff168373ffffffffffffffffffffffffffffffffffffffff161415610642576040517f08c379a000000000000000000000000000000000000000000000000000000000815260040161063990612a77565b60405180910390fd5b8073ffffffffffffffffffffffffffffffffffffffff166106616112a4565b73ffffffffffffffffffffffffffffffffffffffff161480610690575061068f8161068a6112a4565b61113a565b5b6106cf576040517f08c379a00000000000000000000000000000000000000000000000000000000081526004016106c6906129b7565b60405180910390fd5b6106d983836112ac565b505050565b6106ef6106e96112a4565b82611365565b61072e576040517f08c379a000000000000000000000000000000000000000000000000000000000815260040161072590612a97565b60405180910390fd5b610739838383611443565b505050565b61075983838360405180602001604052806000815250611031565b505050565b6000806002600084815260200190815260200160002060009054906101000a900473ffffffffffffffffffffffffffffffffffffffff169050600073ffffffffffffffffffffffffffffffffffffffff168173ffffffffffffffffffffffffffffffffffffffff161415610807576040517f08c379a00000000000000000000000000000000000000000000000000000000081526004016107fe906129f7565b60405180910390fd5b80915050919050565b60008073ffffffffffffffffffffffffffffffffffffffff168273ffffffffffffffffffffffffffffffffffffffff161415610881576040517f08c379a0000000000000000000000000000000000000000000000000000000008152600401610878906129d7565b60405180910390fd5b600360008373ffffffffffffffffffffffffffffffffffffffff1673ffffffffffffffffffffffffffffffffffffffff168152602001908152602001600020549050919050565b6108d0611df9565b600760008381526020019081526020016000206040518060e00160405290816000820180546108fe90612da3565b80601f016020809104026020016040519081016040528092919081815260200182805461092a90612da3565b80156109775780601f1061094c57610100808354040283529160200191610977565b820191906000526020600020905b81548152906001019060200180831161095a57829003601f168201915b50505050508152602001600182015481526020016002820160009054906101000a900463ffffffff1663ffffffff1663ffffffff1681526020016003820180546109c090612da3565b80601f01602080910402602001604051908101604052809291908181526020018280546109ec90612da3565b8015610a395780601f10610a0e57610100808354040283529160200191610a39565b820191906000526020600020905b815481529060010190602001808311610a1c57829003601f168201915b5050505050815260200160048201600280602002604051908101604052809291908260028015610a7e576020028201915b815481526020019060010190808311610a6a575b50505050508152602001600682015481526020016007820160009054906101000a900460ff1615151515815250509050919050565b610abb611df9565b600860008381526020019081526020016000206040518060e0016040529081600082018054610ae990612da3565b80601f0160208091040260200160405190810160405280929190818152602001828054610b1590612da3565b8015610b625780601f10610b3757610100808354040283529160200191610b62565b820191906000526020600020905b815481529060010190602001808311610b4557829003601f168201915b50505050508152602001600182015481526020016002820160009054906101000a900463ffffffff1663ffffffff1663ffffffff168152602001600382018054610bab90612da3565b80601f0160208091040260200160405190810160405280929190818152602001828054610bd790612da3565b8015610c245780601f10610bf957610100808354040283529160200191610c24565b820191906000526020600020905b815481529060010190602001808311610c0757829003601f168201915b5050505050815260200160048201600280602002604051908101604052809291908260028015610c69576020028201915b815481526020019060010190808311610c55575b50505050508152602001600682015481526020016007820160009054906101000a900460ff1615151515815250509050919050565b6000610caa60066116aa565b905090565b606060018054610cbe90612da3565b80601f0160208091040260200160405190810160405280929190818152602001828054610cea90612da3565b8015610d375780601f10610d0c57610100808354040283529160200191610d37565b820191906000526020600020905b815481529060010190602001808311610d1a57829003601f168201915b5050505050905090565b610d53610d4c6112a4565b83836116b8565b5050565b6000610d636006611825565b6000610d6f60066116aa565b905060006040518060e001604052808581526020018a81526020018963ffffffff16815260200188815260200186815260200183815260200160011515815250905080600760008b81526020019081526020016000206000820151816000019080519060200190610de1929190611e44565b506020820151816001015560408201518160020160006101000a81548163ffffffff021916908363ffffffff1602179055506060820151816003019080519060200190610e2f929190611e44565b50608082015181600401906002610e47929190611eca565b5060a0820151816006015560c08201518160070160006101000a81548160ff02191690831515021790555090505080600860008481526020019081526020016000206000820151816000019080519060200190610ea5929190611e44565b506020820151816001015560408201518160020160006101000a81548163ffffffff021916908363ffffffff1602179055506060820151816003019080519060200190610ef3929190611e44565b50608082015181600401906002610f0b929190611eca565b5060a0820151816006015560c08201518160070160006101000a81548160ff021916908315150217905550905050610f43868361183b565b81925050509695505050505050565b6040518060400160405280600a81526020017f7574696c697a7a61746100000000000000000000000000000000000000000000815250600760008381526020019081526020016000206003019080519060200190610fb1929190611e44565b506000600760008381526020019081526020016000206006015490506040518060400160405280600a81526020017f7574696c697a7a6174610000000000000000000000000000000000000000000081525060086000838152602001908152602001600020600301908051906020019061102c929190611e44565b505050565b61104261103c6112a4565b83611365565b611081576040517f08c379a000000000000000000000000000000000000000000000000000000000815260040161107890612a97565b60405180910390fd5b61108d84848484611a15565b50505050565b606061109e82611238565b6110dd576040517f08c379a00000000000000000000000000000000000000000000000000000000081526004016110d490612a57565b60405180910390fd5b60006110e7611a71565b905060008151116111075760405180602001604052806000815250611132565b8061111184611a88565b60405160200161112292919061282f565b6040516020818303038152906040525b915050919050565b6000600560008473ffffffffffffffffffffffffffffffffffffffff1673ffffffffffffffffffffffffffffffffffffffff16815260200190815260200160002060008373ffffffffffffffffffffffffffffffffffffffff1673ffffffffffffffffffffffffffffffffffffffff16815260200190815260200160002060009054906101000a900460ff16905092915050565b60007f01ffc9a7000000000000000000000000000000000000000000000000000000007bffffffffffffffffffffffffffffffffffffffffffffffffffffffff1916827bffffffffffffffffffffffffffffffffffffffffffffffffffffffff1916149050919050565b60008073ffffffffffffffffffffffffffffffffffffffff166002600084815260200190815260200160002060009054906101000a900473ffffffffffffffffffffffffffffffffffffffff1673ffffffffffffffffffffffffffffffffffffffff1614159050919050565b600033905090565b816004600083815260200190815260200160002060006101000a81548173ffffffffffffffffffffffffffffffffffffffff021916908373ffffffffffffffffffffffffffffffffffffffff160217905550808273ffffffffffffffffffffffffffffffffffffffff1661131f8361075e565b73ffffffffffffffffffffffffffffffffffffffff167f8c5be1e5ebec7d5bd14f71427d1e84f3dd0314c0f7b2291e5b200ac8c7c3b92560405160405180910390a45050565b600061137082611238565b6113af576040517f08c379a00000000000000000000000000000000000000000000000000000000081526004016113a690612997565b60405180910390fd5b60006113ba8361075e565b90508073ffffffffffffffffffffffffffffffffffffffff168473ffffffffffffffffffffffffffffffffffffffff16148061142957508373ffffffffffffffffffffffffffffffffffffffff1661141184610541565b73ffffffffffffffffffffffffffffffffffffffff16145b8061143a5750611439818561113a565b5b91505092915050565b8273ffffffffffffffffffffffffffffffffffffffff166114638261075e565b73ffffffffffffffffffffffffffffffffffffffff16146114b9576040517f08c379a00000000000000000000000000000000000000000000000000000000081526004016114b090612917565b60405180910390fd5b600073ffffffffffffffffffffffffffffffffffffffff168273ffffffffffffffffffffffffffffffffffffffff161415611529576040517f08c379a000000000000000000000000000000000000000000000000000000000815260040161152090612957565b60405180910390fd5b611534838383611c35565b61153f6000826112ac565b6001600360008573ffffffffffffffffffffffffffffffffffffffff1673ffffffffffffffffffffffffffffffffffffffff168152602001908152602001600020600082825461158f9190612ca9565b925050819055506001600360008473ffffffffffffffffffffffffffffffffffffffff1673ffffffffffffffffffffffffffffffffffffffff16815260200190815260200160002060008282546115e69190612c22565b92505081905550816002600083815260200190815260200160002060006101000a81548173ffffffffffffffffffffffffffffffffffffffff021916908373ffffffffffffffffffffffffffffffffffffffff160217905550808273ffffffffffffffffffffffffffffffffffffffff168473ffffffffffffffffffffffffffffffffffffffff167fddf252ad1be2c89b69c2b068fc378daa952ba7f163c4a11628f55a4df523b3ef60405160405180910390a46116a5838383611c3a565b505050565b600081600001549050919050565b8173ffffffffffffffffffffffffffffffffffffffff168373ffffffffffffffffffffffffffffffffffffffff161415611727576040517f08c379a000000000000000000000000000000000000000000000000000000000815260040161171e90612977565b60405180910390fd5b80600560008573ffffffffffffffffffffffffffffffffffffffff1673ffffffffffffffffffffffffffffffffffffffff16815260200190815260200160002060008473ffffffffffffffffffffffffffffffffffffffff1673ffffffffffffffffffffffffffffffffffffffff16815260200190815260200160002060006101000a81548160ff0219169083151502179055508173ffffffffffffffffffffffffffffffffffffffff168373ffffffffffffffffffffffffffffffffffffffff167f17307eab39ab6107e8899845ad3d59bd9653f200f220920489ca2b5937696c318360405161181891906128ba565b60405180910390a3505050565b6001816000016000828254019250508190555050565b600073ffffffffffffffffffffffffffffffffffffffff168273ffffffffffffffffffffffffffffffffffffffff1614156118ab576040517f08c379a00000000000000000000000000000000000000000000000000000000081526004016118a290612a17565b60405180910390fd5b6118b481611238565b156118f4576040517f08c379a00000000000000000000000000000000000000000000000000000000081526004016118eb90612937565b60405180910390fd5b61190060008383611c35565b6001600360008473ffffffffffffffffffffffffffffffffffffffff1673ffffffffffffffffffffffffffffffffffffffff16815260200190815260200160002060008282546119509190612c22565b92505081905550816002600083815260200190815260200160002060006101000a81548173ffffffffffffffffffffffffffffffffffffffff021916908373ffffffffffffffffffffffffffffffffffffffff160217905550808273ffffffffffffffffffffffffffffffffffffffff16600073ffffffffffffffffffffffffffffffffffffffff167fddf252ad1be2c89b69c2b068fc378daa952ba7f163c4a11628f55a4df523b3ef60405160405180910390a4611a1160008383611c3a565b5050565b611a20848484611443565b611a2c84848484611c3f565b611a6b576040517f08c379a0000000000000000000000000000000000000000000000000000000008152600401611a62906128f7565b60405180910390fd5b50505050565b606060405180602001604052806000815250905090565b60606000821415611ad0576040518060400160405280600181526020017f30000000000000000000000000000000000000000000000000000000000000008152509050611c30565b600082905060005b60008214611b02578080611aeb90612e06565b915050600a82611afb9190612c78565b9150611ad8565b60008167ffffffffffffffff811115611b44577f4e487b7100000000000000000000000000000000000000000000000000000000600052604160045260246000fd5b6040519080825280601f01601f191660200182016040528015611b765781602001600182028036833780820191505090505b5090505b60008514611c2957600182611b8f9190612ca9565b9150600a85611b9e9190612e4f565b6030611baa9190612c22565b60f81b818381518110611be6577f4e487b7100000000000000000000000000000000000000000000000000000000600052603260045260246000fd5b60200101907effffffffffffffffffffffffffffffffffffffffffffffffffffffffffffff1916908160001a905350600a85611c229190612c78565b9450611b7a565b8093505050505b919050565b505050565b505050565b6000611c608473ffffffffffffffffffffffffffffffffffffffff16611dd6565b15611dc9578373ffffffffffffffffffffffffffffffffffffffff1663150b7a02611c896112a4565b8786866040518563ffffffff1660e01b8152600401611cab949392919061286e565b602060405180830381600087803b158015611cc557600080fd5b505af1925050508015611cf657506040513d601f19601f82011682018060405250810190611cf391906122f1565b60015b611d79573d8060008114611d26576040519150601f19603f3d011682016040523d82523d6000602084013e611d2b565b606091505b50600081511415611d71576040517f08c379a0000000000000000000000000000000000000000000000000000000008152600401611d68906128f7565b60405180910390fd5b805181602001fd5b63150b7a0260e01b7bffffffffffffffffffffffffffffffffffffffffffffffffffffffff1916817bffffffffffffffffffffffffffffffffffffffffffffffffffffffff191614915050611dce565b600190505b949350505050565b6000808273ffffffffffffffffffffffffffffffffffffffff163b119050919050565b6040518060e001604052806060815260200160008152602001600063ffffffff16815260200160608152602001611e2e611f0a565b8152602001600081526020016000151581525090565b828054611e5090612da3565b90600052602060002090601f016020900481019282611e725760008555611eb9565b82601f10611e8b57805160ff1916838001178555611eb9565b82800160010185558215611eb9579182015b82811115611eb8578251825591602001919060010190611e9d565b5b509050611ec69190611f2c565b5090565b8260028101928215611ef9579160200282015b82811115611ef8578251825591602001919060010190611edd565b5b509050611f069190611f2c565b5090565b6040518060400160405280600290602082028036833780820191505090505090565b5b80821115611f45576000816000905550600101611f2d565b5090565b6000611f5c611f5784612b19565b612af4565b90508082856020860282011115611f7257600080fd5b60005b85811015611fa25781611f8888826120f7565b845260208401935060208301925050600181019050611f75565b5050509392505050565b6000611fbf611fba84612b3f565b612af4565b905082815260208101848484011115611fd757600080fd5b611fe2848285612d61565b509392505050565b6000611ffd611ff884612b70565b612af4565b90508281526020810184848401111561201557600080fd5b612020848285612d61565b509392505050565b6000813590506120378161332d565b92915050565b600082601f83011261204e57600080fd5b600261205b848285611f49565b91505092915050565b60008135905061207381613344565b92915050565b6000813590506120888161335b565b92915050565b60008151905061209d8161335b565b92915050565b600082601f8301126120b457600080fd5b81356120c4848260208601611fac565b91505092915050565b600082601f8301126120de57600080fd5b81356120ee848260208601611fea565b91505092915050565b60008135905061210681613372565b92915050565b60008135905061211b81613389565b92915050565b60006020828403121561213357600080fd5b600061214184828501612028565b91505092915050565b6000806040838503121561215d57600080fd5b600061216b85828601612028565b925050602061217c85828601612028565b9150509250929050565b60008060006060848603121561219b57600080fd5b60006121a986828701612028565b93505060206121ba86828701612028565b92505060406121cb868287016120f7565b9150509250925092565b600080600080608085870312156121eb57600080fd5b60006121f987828801612028565b945050602061220a87828801612028565b935050604061221b878288016120f7565b925050606085013567ffffffffffffffff81111561223857600080fd5b612244878288016120a3565b91505092959194509250565b6000806040838503121561226357600080fd5b600061227185828601612028565b925050602061228285828601612064565b9150509250929050565b6000806040838503121561229f57600080fd5b60006122ad85828601612028565b92505060206122be858286016120f7565b9150509250929050565b6000602082840312156122da57600080fd5b60006122e884828501612079565b91505092915050565b60006020828403121561230357600080fd5b60006123118482850161208e565b91505092915050565b60006020828403121561232c57600080fd5b600061233a848285016120f7565b91505092915050565b60008060008060008060e0878903121561235c57600080fd5b600061236a89828a016120f7565b965050602061237b89828a0161210c565b955050604087013567ffffffffffffffff81111561239857600080fd5b6123a489828a016120cd565b94505060606123b589828a01612028565b93505060806123c689828a0161203d565b92505060c087013567ffffffffffffffff8111156123e357600080fd5b6123ef89828a016120cd565b9150509295509295509295565b60006124088383612802565b60208301905092915050565b61241d81612cdd565b82525050565b61242c81612bab565b6124368184612bd9565b925061244182612ba1565b8060005b8381101561247257815161245987826123fc565b965061246483612bcc565b925050600181019050612445565b505050505050565b61248381612cef565b82525050565b61249281612cef565b82525050565b60006124a382612bb6565b6124ad8185612be4565b93506124bd818560208601612d70565b6124c681612f3c565b840191505092915050565b60006124dc82612bc1565b6124e68185612bf5565b93506124f6818560208601612d70565b6124ff81612f3c565b840191505092915050565b600061251582612bc1565b61251f8185612c06565b935061252f818560208601612d70565b61253881612f3c565b840191505092915050565b600061254e82612bc1565b6125588185612c17565b9350612568818560208601612d70565b80840191505092915050565b6000612581603283612c06565b915061258c82612f4d565b604082019050919050565b60006125a4602583612c06565b91506125af82612f9c565b604082019050919050565b60006125c7601c83612c06565b91506125d282612feb565b602082019050919050565b60006125ea602483612c06565b91506125f582613014565b604082019050919050565b600061260d601983612c06565b915061261882613063565b602082019050919050565b6000612630602c83612c06565b915061263b8261308c565b604082019050919050565b6000612653603883612c06565b915061265e826130db565b604082019050919050565b6000612676602a83612c06565b91506126818261312a565b604082019050919050565b6000612699602983612c06565b91506126a482613179565b604082019050919050565b60006126bc602083612c06565b91506126c7826131c8565b602082019050919050565b60006126df602c83612c06565b91506126ea826131f1565b604082019050919050565b6000612702602f83612c06565b915061270d82613240565b604082019050919050565b6000612725602183612c06565b91506127308261328f565b604082019050919050565b6000612748603183612c06565b9150612753826132de565b604082019050919050565b600061010083016000830151848203600086015261277c82826124d1565b91505060208301516127916020860182612802565b5060408301516127a46040860182612820565b50606083015184820360608601526127bc82826124d1565b91505060808301516127d16080860182612423565b5060a08301516127e460c0860182612802565b5060c08301516127f760e086018261247a565b508091505092915050565b61280b81612d47565b82525050565b61281a81612d47565b82525050565b61282981612d51565b82525050565b600061283b8285612543565b91506128478284612543565b91508190509392505050565b60006020820190506128686000830184612414565b92915050565b60006080820190506128836000830187612414565b6128906020830186612414565b61289d6040830185612811565b81810360608301526128af8184612498565b905095945050505050565b60006020820190506128cf6000830184612489565b92915050565b600060208201905081810360008301526128ef818461250a565b905092915050565b6000602082019050818103600083015261291081612574565b9050919050565b6000602082019050818103600083015261293081612597565b9050919050565b60006020820190508181036000830152612950816125ba565b9050919050565b60006020820190508181036000830152612970816125dd565b9050919050565b6000602082019050818103600083015261299081612600565b9050919050565b600060208201905081810360008301526129b081612623565b9050919050565b600060208201905081810360008301526129d081612646565b9050919050565b600060208201905081810360008301526129f081612669565b9050919050565b60006020820190508181036000830152612a108161268c565b9050919050565b60006020820190508181036000830152612a30816126af565b9050919050565b60006020820190508181036000830152612a50816126d2565b9050919050565b60006020820190508181036000830152612a70816126f5565b9050919050565b60006020820190508181036000830152612a9081612718565b9050919050565b60006020820190508181036000830152612ab08161273b565b9050919050565b60006020820190508181036000830152612ad1818461275e565b905092915050565b6000602082019050612aee6000830184612811565b92915050565b6000612afe612b0f565b9050612b0a8282612dd5565b919050565b6000604051905090565b600067ffffffffffffffff821115612b3457612b33612f0d565b5b602082029050919050565b600067ffffffffffffffff821115612b5a57612b59612f0d565b5b612b6382612f3c565b9050602081019050919050565b600067ffffffffffffffff821115612b8b57612b8a612f0d565b5b612b9482612f3c565b9050602081019050919050565b6000819050919050565b600060029050919050565b600081519050919050565b600081519050919050565b6000602082019050919050565b600081905092915050565b600082825260208201905092915050565b600082825260208201905092915050565b600082825260208201905092915050565b600081905092915050565b6000612c2d82612d47565b9150612c3883612d47565b9250827fffffffffffffffffffffffffffffffffffffffffffffffffffffffffffffffff03821115612c6d57612c6c612e80565b5b828201905092915050565b6000612c8382612d47565b9150612c8e83612d47565b925082612c9e57612c9d612eaf565b5b828204905092915050565b6000612cb482612d47565b9150612cbf83612d47565b925082821015612cd257612cd1612e80565b5b828203905092915050565b6000612ce882612d27565b9050919050565b60008115159050919050565b60007fffffffff0000000000000000000000000000000000000000000000000000000082169050919050565b600073ffffffffffffffffffffffffffffffffffffffff82169050919050565b6000819050919050565b600063ffffffff82169050919050565b82818337600083830152505050565b60005b83811015612d8e578082015181840152602081019050612d73565b83811115612d9d576000848401525b50505050565b60006002820490506001821680612dbb57607f821691505b60208210811415612dcf57612dce612ede565b5b50919050565b612dde82612f3c565b810181811067ffffffffffffffff82111715612dfd57612dfc612f0d565b5b80604052505050565b6000612e1182612d47565b91507fffffffffffffffffffffffffffffffffffffffffffffffffffffffffffffffff821415612e4457612e43612e80565b5b600182019050919050565b6000612e5a82612d47565b9150612e6583612d47565b925082612e7557612e74612eaf565b5b828206905092915050565b7f4e487b7100000000000000000000000000000000000000000000000000000000600052601160045260246000fd5b7f4e487b7100000000000000000000000000000000000000000000000000000000600052601260045260246000fd5b7f4e487b7100000000000000000000000000000000000000000000000000000000600052602260045260246000fd5b7f4e487b7100000000000000000000000000000000000000000000000000000000600052604160045260246000fd5b6000601f19601f8301169050919050565b7f4552433732313a207472616e7366657220746f206e6f6e20455243373231526560008201527f63656976657220696d706c656d656e7465720000000000000000000000000000602082015250565b7f4552433732313a207472616e736665722066726f6d20696e636f72726563742060008201527f6f776e6572000000000000000000000000000000000000000000000000000000602082015250565b7f4552433732313a20746f6b656e20616c7265616479206d696e74656400000000600082015250565b7f4552433732313a207472616e7366657220746f20746865207a65726f2061646460008201527f7265737300000000000000000000000000000000000000000000000000000000602082015250565b7f4552433732313a20617070726f766520746f2063616c6c657200000000000000600082015250565b7f4552433732313a206f70657261746f7220717565727920666f72206e6f6e657860008201527f697374656e7420746f6b656e0000000000000000000000000000000000000000602082015250565b7f4552433732313a20617070726f76652063616c6c6572206973206e6f74206f7760008201527f6e6572206e6f7220617070726f76656420666f7220616c6c0000000000000000602082015250565b7f4552433732313a2062616c616e636520717565727920666f7220746865207a6560008201527f726f206164647265737300000000000000000000000000000000000000000000602082015250565b7f4552433732313a206f776e657220717565727920666f72206e6f6e657869737460008201527f656e7420746f6b656e0000000000000000000000000000000000000000000000602082015250565b7f4552433732313a206d696e7420746f20746865207a65726f2061646472657373600082015250565b7f4552433732313a20617070726f76656420717565727920666f72206e6f6e657860008201527f697374656e7420746f6b656e0000000000000000000000000000000000000000602082015250565b7f4552433732314d657461646174613a2055524920717565727920666f72206e6f60008201527f6e6578697374656e7420746f6b656e0000000000000000000000000000000000602082015250565b7f4552433732313a20617070726f76616c20746f2063757272656e74206f776e6560008201527f7200000000000000000000000000000000000000000000000000000000000000602082015250565b7f4552433732313a207472616e736665722063616c6c6572206973206e6f74206f60008201527f776e6572206e6f7220617070726f766564000000000000000000000000000000602082015250565b61333681612cdd565b811461334157600080fd5b50565b61334d81612cef565b811461335857600080fd5b50565b61336481612cfb565b811461336f57600080fd5b50565b61337b81612d47565b811461338657600080fd5b50565b61339281612d51565b811461339d57600080fd5b5056fea2646970667358221220359e8b699ee6ee8ab917594220cfccbc4cc3fd3af30fc0254d7bb4f79c3bfa4f64736f6c63430008010033",
  "immutableReferences": {},
  "source": "// SPDX-License-Identifier: MIT\r\n\r\npragma solidity>=0.5.16;\r\n\r\nimport \"./CarbonFootprint.sol\";\r\nimport \"./Generica.sol\";\r\nimport \"@openzeppelin/contracts/access/Ownable.sol\";\r\n\r\n\r\n\r\ncontract Gestore_nft is Ownable {\r\n\r\n    uint8 constant ATTIVITA_MASSIME = 2;\r\n    uint8 constant MATERIE_MASSIME = 2;\r\n\r\n\r\n\r\n    mapping(uint256=>address) public produttori;\r\n    mapping(uint256=>address) public trasformatori;\r\n    mapping(uint256=>address) public clienti;\r\n    uint256 numero_produttori = 0;\r\n    uint256 numero_trasformatori = 0;\r\n    uint256 numero_clienti = 0;\r\n\r\n\r\n    CarbonFootprint carbonFootprint = new CarbonFootprint();\r\n\r\n\r\n    //funzione con cui il creatore dello smartContract pu aggiungere un nuovo produttore, trasformatore o cliente\r\n    function aggiungiAttore(\r\n        string memory _tipo, address _indirizzo_account\r\n    ) external onlyOwner {\r\n\r\n        require(\r\n            (Generica.stringCompare(_tipo, \"produttore\")) || \r\n            (Generica.stringCompare(_tipo, \"trasformatore\")) || \r\n            (Generica.stringCompare(_tipo, \"cliente\")),\r\n            \"I ruoli disponibili sono: _produttore_ _trasformatore_ e _cliente_\"\r\n            );\r\n\r\n        require(\r\n            nonEsistente(_tipo, _indirizzo_account),\r\n            \"Account gi\\xC3\\xa0 presente con questo ruolo\"\r\n            );\r\n\r\n        if(Generica.stringCompare(_tipo, \"produttore\")) {\r\n            produttori[numero_produttori] = _indirizzo_account;\r\n            numero_produttori++;\r\n        }\r\n\r\n        if(Generica.stringCompare(_tipo, \"trasformatore\")) {\r\n            trasformatori[numero_trasformatori] = _indirizzo_account;\r\n            numero_trasformatori++;\r\n        }\r\n\r\n\r\n        if(Generica.stringCompare(_tipo, \"cliente\")) {\r\n            clienti[numero_clienti] = _indirizzo_account;\r\n            numero_clienti++;\r\n        }\r\n\r\n    }\r\n\r\n\r\n\r\n\r\n\r\n    //crea una materia prima\r\n    function creaMateriaPrima(\r\n        uint256 _id_lotto, uint32 _valore_CO2, string memory _nome\r\n    ) external returns(uint256) {\r\n\r\n        require(!nonEsistente(\"produttore\", msg.sender), \"Solo i produttori possono aggiungere materie prime\");\r\n        require(_id_lotto != 0, \"Id lotto non valido\");\r\n        require(_valore_CO2>0 && _valore_CO2<100, \"Valore di CO2 non valido\");\r\n        require(carbonFootprint.getRisorsaByLotto(_id_lotto).exists==false, \"Id lotto gi\\xC3\\xa0 presente\");\r\n        uint256[MATERIE_MASSIME] memory vettore_risorse;\r\n        uint256 _id_nuovo_prodotto = carbonFootprint.creaProdotto(_id_lotto, _valore_CO2, \"materia prima\", msg.sender, vettore_risorse, _nome);\r\n        return _id_nuovo_prodotto;\r\n\r\n    }\r\n\r\n\r\n    // consente di trasferire una materia prima o prodotto ad un altro attore\r\n    function trasferimentoMateriaPrima(\r\n        address _destinatario, uint256 _tokenId, address _contract\r\n        ) external returns(string memory){  \r\n             \r\n        require(!nonEsistente(_destinatario), \"L'indirizzo deve appartenere ad un produttore, trasformatre o cliente\");\r\n        carbonFootprint.approve(_contract, _tokenId);\r\n        carbonFootprint.safeTransferFrom(msg.sender, _destinatario, _tokenId);\r\n        return \"trasferimento avvenuto con successo\";\r\n\r\n    }\r\n\r\n\r\n    // crea un nuovo prodotto a partire da una serie di attivit ed una serie di lotti di materie prime\r\n    function creaProdotto(\r\n        string[ATTIVITA_MASSIME] memory _nome_attivita,uint32[MATERIE_MASSIME] memory _CO2_attivita, string memory _nome, uint256[MATERIE_MASSIME] memory _id_materie_prime, uint256 _id_lotto\r\n    ) external returns(uint256) {\r\n\r\n        require(carbonFootprint.getRisorsaByLotto(_id_lotto).exists==false, \"Id lotto gi\\xC3\\xa0 presente\");\r\n        require(!nonEsistente(\"trasformatore\", msg.sender), \"Solo i trasformatori possono aggiungere un prodotto trasformato\");\r\n        uint32 CO2_totale = 0; \r\n\r\n        // per ogni materia prima controllo se  valida ed utilizzabile, poi sommo i corrispondenti contributi in CO2\r\n        for (uint i=0;i<_id_materie_prime.length;i++) {\r\n\r\n            CarbonFootprint.Risorsa memory risorsa = carbonFootprint.getRisorsaByIdProdotto(_id_materie_prime[i]);\r\n            carbonFootprint.setTipologiaUtilizzato(_id_materie_prime[i]);\r\n\r\n\r\n            require(_id_materie_prime[i] != 0, \"Id lotto non valido\");\r\n            require(getOwnerByToken(_id_materie_prime[i])==msg.sender, \"Non sei in possesso della materia prima inserita\");\r\n            require(Generica.stringCompare(string(risorsa.tipologia),\"materia prima\"),\"L'elemento selezionato non \\xc3\\xa8 una materia prima\");\r\n\r\n            CO2_totale+=risorsa.valore_CO2;\r\n\r\n        }\r\n        \r\n        // per ogni attivit sommo i consumi di CO2\r\n        for (uint i=0;i<_CO2_attivita.length;i++) {  \r\n\r\n            // trasformo in uint256 poi in uint32\r\n            CO2_totale += (_CO2_attivita[i]);\r\n        }\r\n            \r\n        // creo il prodotto passando id del lotto, CO2 totale, tipologia (prodotto trasformato), possessore (chi ha \r\n        // mandato il messaggio), lotti di materie prime utilizzate e nome\r\n        uint256 _id_nuovo_prodotto = carbonFootprint.creaProdotto(_id_lotto, CO2_totale, \"prodotto trasformato\", msg.sender, _id_materie_prime, _nome);\r\n        return _id_nuovo_prodotto;\r\n\r\n    }\r\n    \r\n\r\n\r\n\r\n\r\n\r\n    function getOwnerByToken(\r\n        uint256 _token\r\n\r\n    ) public view returns(address) {\r\n    require(_token!=0 && _token<=carbonFootprint.currentToken(), \"Il token inserito non \\xc3\\xa8 valido\"); \r\n           return carbonFootprint.ownerOf(_token);\r\n\r\n    }\r\n\r\n\r\n\r\n\r\n\r\n\r\n    function getInfoByToken(\r\n        uint256 _token\r\n    ) public view returns(string memory, uint256, uint256, string memory) {\r\n\r\n        CarbonFootprint.Risorsa memory risorsa = carbonFootprint.getRisorsaByIdProdotto(_token);\r\n        require(_token!=0 && _token<=carbonFootprint.currentToken(), \"Il token inserito non \\xc3\\xa8 valido\");\r\n        return (risorsa.nome, risorsa.lotto, risorsa.valore_CO2, risorsa.tipologia);\r\n\r\n    }\r\n\r\n\r\n\r\n    function getInfoByLotto(\r\n        uint256 _lotto\r\n    ) public view returns(string memory, uint256, uint256, string memory) {\r\n\r\n        CarbonFootprint.Risorsa memory risorsa = carbonFootprint.getRisorsaByLotto(_lotto);\r\n        require(_lotto!=0 && risorsa.exists!=false, \"Il lotto inserito non \\xc3\\xa8 valido\");\r\n        return (risorsa.nome, risorsa.lotto, risorsa.valore_CO2, risorsa.tipologia);\r\n                \r\n    }\r\n\r\n\r\n    function getInfoByNome(\r\n        string memory _nome\r\n    ) public view returns(CarbonFootprint.Risorsa[] memory) {\r\n            \r\n        CarbonFootprint.Risorsa[] memory risorse = new CarbonFootprint.Risorsa[](carbonFootprint.currentToken());\r\n        uint j=0;\r\n        for (uint i=1;i<=carbonFootprint.currentToken();i++) {\r\n            CarbonFootprint.Risorsa memory risorsa_i = carbonFootprint.getRisorsaByIdProdotto(i);\r\n            if(Generica.stringCompare(risorsa_i.nome,_nome)) {\r\n                risorse[j] = risorsa_i;\r\n                j++;\r\n            }\r\n        }\r\n        require(j!=0, \"Nessun prodotto con il nome inserito\");\r\n\r\n        return risorse;\r\n                \r\n    }  \r\n\r\n\r\n    //funzione che verifica che non sia gi presente un account con lo stesso tipo di quello passato\r\n    function nonEsistente(\r\n        string memory _tipo, address _indirizzo_account\r\n    ) private view returns(bool) {\r\n\r\n        if(Generica.stringCompare(_tipo,\"produttore\")) {\r\n            for (uint i;i<numero_produttori;i++) {\r\n                if(_indirizzo_account == produttori[i]) return false;\r\n            }\r\n        }\r\n\r\n        else if(Generica.stringCompare(_tipo, \"trasformatore\")) {\r\n            for (uint i;i<numero_trasformatori;i++) {\r\n                if(_indirizzo_account == trasformatori[i]) return false;\r\n            }\r\n        }\r\n\r\n        else if(Generica.stringCompare(_tipo, \"cliente\")) {\r\n            for (uint i;i<numero_clienti;i++) {\r\n                if(_indirizzo_account == clienti[i]) return false;\r\n            }\r\n        }\r\n\r\n        return true;\r\n\r\n    }\r\n\r\n\r\n\r\n\r\n    function nonEsistente(\r\n        address _indirizzo_account\r\n    ) private view returns(bool) {\r\n\r\n        for (uint i;i<numero_produttori;i++) {\r\n            if(_indirizzo_account == produttori[i]) return false;\r\n        }\r\n\r\n        for (uint i;i<numero_trasformatori;i++) {\r\n            if(_indirizzo_account == trasformatori[i]) return false;\r\n        }\r\n        \r\n\r\n        for (uint i;i<numero_clienti;i++) {\r\n            if(_indirizzo_account == clienti[i]) return false;\r\n        }\r\n\r\n        return true;\r\n    }\r\n\r\n}",
  "sourcePath": "C:/Windows/System32/network/3-nodes-istanbul-tessera-docker-compose/contracts/Gestore_nft.sol",
  "compiler": {
    "name": "solc",
    "version": "0.8.1+commit.df193b15.Emscripten.clang"
  },
  "schemaVersion": "3.4.1",
  "updatedAt": "2022-02-17T16:01:17.626Z",
  "networkType": "quorum",
  "devdoc": {
    "kind": "dev",
    "methods": {
      "owner()": {
        "details": "Returns the address of the current owner."
      },
      "renounceOwnership()": {
        "details": "Leaves the contract without owner. It will not be possible to call `onlyOwner` functions anymore. Can only be called by the current owner. NOTE: Renouncing ownership will leave the contract without an owner, thereby removing any functionality that is only available to the owner."
      },
      "transferOwnership(address)": {
        "details": "Transfers ownership of the contract to a new account (`newOwner`). Can only be called by the current owner."
      }
    },
    "version": 1
  },
  "userdoc": {
    "kind": "user",
    "methods": {},
    "version": 1
  }
}