{
  "contractName": "Gestore_nft",
  "abi": [
    {
      "anonymous": false,
      "inputs": [
        {
          "indexed": true,
          "internalType": "address",
          "name": "previousOwner",
          "type": "address"
        },
        {
          "indexed": true,
          "internalType": "address",
          "name": "newOwner",
          "type": "address"
        }
      ],
      "name": "OwnershipTransferred",
      "type": "event"
    },
    {
      "inputs": [
        {
          "internalType": "uint256",
          "name": "",
          "type": "uint256"
        }
      ],
      "name": "clienti",
      "outputs": [
        {
          "internalType": "address",
          "name": "",
          "type": "address"
        }
      ],
      "stateMutability": "view",
      "type": "function",
      "constant": true
    },
    {
      "inputs": [],
      "name": "owner",
      "outputs": [
        {
          "internalType": "address",
          "name": "",
          "type": "address"
        }
      ],
      "stateMutability": "view",
      "type": "function",
      "constant": true
    },
    {
      "inputs": [
        {
          "internalType": "uint256",
          "name": "",
          "type": "uint256"
        }
      ],
      "name": "produttori",
      "outputs": [
        {
          "internalType": "address",
          "name": "",
          "type": "address"
        }
      ],
      "stateMutability": "view",
      "type": "function",
      "constant": true
    },
    {
      "inputs": [],
      "name": "renounceOwnership",
      "outputs": [],
      "stateMutability": "nonpayable",
      "type": "function"
    },
    {
      "inputs": [
        {
          "internalType": "address",
          "name": "newOwner",
          "type": "address"
        }
      ],
      "name": "transferOwnership",
      "outputs": [],
      "stateMutability": "nonpayable",
      "type": "function"
    },
    {
      "inputs": [
        {
          "internalType": "uint256",
          "name": "",
          "type": "uint256"
        }
      ],
      "name": "trasformatori",
      "outputs": [
        {
          "internalType": "address",
          "name": "",
          "type": "address"
        }
      ],
      "stateMutability": "view",
      "type": "function",
      "constant": true
    },
    {
      "inputs": [
        {
          "internalType": "string",
          "name": "_tipo",
          "type": "string"
        },
        {
          "internalType": "address",
          "name": "_indirizzo_account",
          "type": "address"
        }
      ],
      "name": "aggiungiAttore",
      "outputs": [],
      "stateMutability": "nonpayable",
      "type": "function"
    },
    {
      "inputs": [
        {
          "internalType": "uint256",
          "name": "_id_lotto",
          "type": "uint256"
        },
        {
          "internalType": "uint32",
          "name": "_valore_CO2",
          "type": "uint32"
        },
        {
          "internalType": "string",
          "name": "_nome",
          "type": "string"
        }
      ],
      "name": "creaMateriaPrima",
      "outputs": [],
      "stateMutability": "nonpayable",
      "type": "function"
    },
    {
      "inputs": [
        {
          "internalType": "address",
          "name": "_destinatario",
          "type": "address"
        },
        {
          "internalType": "uint256",
          "name": "_tokenId",
          "type": "uint256"
        },
        {
          "internalType": "address",
          "name": "_contract",
          "type": "address"
        }
      ],
      "name": "trasferimentoMateriaPrima",
      "outputs": [],
      "stateMutability": "nonpayable",
      "type": "function"
    },
    {
      "inputs": [
        {
          "internalType": "string[]",
          "name": "_nome_attivita",
          "type": "string[]"
        },
        {
          "internalType": "uint32[]",
          "name": "_CO2_attivita",
          "type": "uint32[]"
        },
        {
          "internalType": "string",
          "name": "_nome",
          "type": "string"
        },
        {
          "internalType": "uint256[]",
          "name": "_lotti_materie_prime",
          "type": "uint256[]"
        },
        {
          "internalType": "uint256",
          "name": "_id_lotto",
          "type": "uint256"
        }
      ],
      "name": "creaProdotto",
      "outputs": [],
      "stateMutability": "nonpayable",
      "type": "function"
    },
    {
      "inputs": [
        {
          "internalType": "uint256",
          "name": "_token",
          "type": "uint256"
        }
      ],
      "name": "getOwnerByToken",
      "outputs": [
        {
          "internalType": "address",
          "name": "",
          "type": "address"
        }
      ],
      "stateMutability": "view",
      "type": "function",
      "constant": true
    },
    {
      "inputs": [
        {
          "internalType": "uint256",
          "name": "_token",
          "type": "uint256"
        }
      ],
      "name": "getInfoByToken",
      "outputs": [
        {
          "internalType": "string",
          "name": "",
          "type": "string"
        },
        {
          "internalType": "uint32",
          "name": "",
          "type": "uint32"
        },
        {
          "internalType": "uint256",
          "name": "",
          "type": "uint256"
        },
        {
          "internalType": "string",
          "name": "",
          "type": "string"
        },
        {
          "internalType": "uint256[]",
          "name": "",
          "type": "uint256[]"
        },
        {
          "internalType": "uint256",
          "name": "",
          "type": "uint256"
        }
      ],
      "stateMutability": "view",
      "type": "function",
      "constant": true
    },
    {
      "inputs": [
        {
          "internalType": "uint256",
          "name": "_lotto",
          "type": "uint256"
        }
      ],
      "name": "getInfoByLotto",
      "outputs": [
        {
          "internalType": "string",
          "name": "",
          "type": "string"
        },
        {
          "internalType": "uint32",
          "name": "",
          "type": "uint32"
        },
        {
          "internalType": "uint256",
          "name": "",
          "type": "uint256"
        },
        {
          "internalType": "string",
          "name": "",
          "type": "string"
        },
        {
          "internalType": "uint256[]",
          "name": "",
          "type": "uint256[]"
        },
        {
          "internalType": "uint256",
          "name": "",
          "type": "uint256"
        }
      ],
      "stateMutability": "view",
      "type": "function",
      "constant": true
    },
    {
      "inputs": [
        {
          "internalType": "string",
          "name": "_nome",
          "type": "string"
        }
      ],
      "name": "getInfoByNome",
      "outputs": [
        {
          "components": [
            {
              "internalType": "string",
              "name": "nome",
              "type": "string"
            },
            {
              "internalType": "uint256",
              "name": "lotto",
              "type": "uint256"
            },
            {
              "internalType": "uint32",
              "name": "valore_CO2",
              "type": "uint32"
            },
            {
              "internalType": "string",
              "name": "tipologia",
              "type": "string"
            },
            {
              "internalType": "uint256[]",
              "name": "id_materie_prime",
              "type": "uint256[]"
            },
            {
              "internalType": "uint256",
              "name": "token",
              "type": "uint256"
            },
            {
              "internalType": "bool",
              "name": "exists",
              "type": "bool"
            }
          ],
          "internalType": "struct CarbonFootprint.Risorsa[]",
          "name": "",
          "type": "tuple[]"
        }
      ],
      "stateMutability": "view",
      "type": "function",
      "constant": true
    }
  ],
  "bytecode": "0x608060405260006004556000600555600060065560405162000021906200017f565b604051809103906000f0801580156200003e573d6000803e3d6000fd5b50600760006101000a81548173ffffffffffffffffffffffffffffffffffffffff021916908373ffffffffffffffffffffffffffffffffffffffff1602179055503480156200008c57600080fd5b50620000ad620000a1620000b360201b60201c565b620000bb60201b60201c565b6200018d565b600033905090565b60008060009054906101000a900473ffffffffffffffffffffffffffffffffffffffff169050816000806101000a81548173ffffffffffffffffffffffffffffffffffffffff021916908373ffffffffffffffffffffffffffffffffffffffff1602179055508173ffffffffffffffffffffffffffffffffffffffff168173ffffffffffffffffffffffffffffffffffffffff167f8be0079c531659141344cd1fd0a4f28419497f9722a3daafe3b4186f6b6457e060405160405180910390a35050565b61360b806200427283390190565b6140d5806200019d6000396000f3fe608060405234801561001057600080fd5b50600436106100ea5760003560e01c806399213e271161008c578063e7ddd4ea11610066578063e7ddd4ea14610251578063eb2cc75214610281578063f2fde38b146102b1578063f6f9d055146102cd576100ea565b806399213e27146101e95780639b1414c014610205578063ae6c17f314610221576100ea565b8063715018a6116100c8578063715018a614610170578063789ce91f1461017a5780637f824152146101af5780638da5cb5b146101cb576100ea565b80631896a5af146100ef57806320cf45f81461011f578063602ef7ed14610154575b600080fd5b61010960048036038101906101049190612b72565b6102fd565b604051610116919061325c565b60405180910390f35b61013960048036038101906101349190612b72565b610330565b60405161014b96959493929190613404565b60405180910390f35b61016e6004803603810190610169919061294d565b61047a565b005b6101786105e8565b005b610194600480360381019061018f9190612b72565b610670565b6040516101a696959493929190613404565b60405180910390f35b6101c960048036038101906101c4919061299c565b610850565b005b6101d3610eb2565b6040516101e0919061325c565b60405180910390f35b61020360048036038101906101fe9190612bc4565b610edb565b005b61021f600480360381019061021a9190612add565b6111b1565b005b61023b60048036038101906102369190612a9c565b611747565b60405161024891906132d7565b60405180910390f35b61026b60048036038101906102669190612b72565b611b11565b604051610278919061325c565b60405180910390f35b61029b60048036038101906102969190612b72565b611cb3565b6040516102a8919061325c565b60405180910390f35b6102cb60048036038101906102c691906128fb565b611ce6565b005b6102e760048036038101906102e29190612b72565b611dde565b6040516102f4919061325c565b60405180910390f35b60026020528060005260406000206000915054906101000a900473ffffffffffffffffffffffffffffffffffffffff1681565b6060600080606080600080600760009054906101000a900473ffffffffffffffffffffffffffffffffffffffff1673ffffffffffffffffffffffffffffffffffffffff166372f74f43896040518263ffffffff1660e01b8152600401610396919061369a565b60006040518083038186803b1580156103ae57600080fd5b505afa1580156103c2573d6000803e3d6000fd5b505050506040513d6000823e3d601f19601f820116820180604052508101906103eb9190612b31565b9050600088141580156104075750600015158160c00151151514155b610446576040517f08c379a000000000000000000000000000000000000000000000000000000000815260040161043d906134da565b60405180910390fd5b806000015181604001518260200151836060015184608001518560a001519650965096509650965096505091939550919395565b61048383611e11565b156104c3576040517f08c379a00000000000000000000000000000000000000000000000000000000081526004016104ba906135ba565b60405180910390fd5b600760009054906101000a900473ffffffffffffffffffffffffffffffffffffffff1673ffffffffffffffffffffffffffffffffffffffff1663095ea7b382846040518363ffffffff1660e01b81526004016105209291906132ae565b600060405180830381600087803b15801561053a57600080fd5b505af115801561054e573d6000803e3d6000fd5b50505050600760009054906101000a900473ffffffffffffffffffffffffffffffffffffffff1673ffffffffffffffffffffffffffffffffffffffff166342842e0e3385856040518463ffffffff1660e01b81526004016105b193929190613277565b600060405180830381600087803b1580156105cb57600080fd5b505af11580156105df573d6000803e3d6000fd5b50505050505050565b6105f0611fd2565b73ffffffffffffffffffffffffffffffffffffffff1661060e610eb2565b73ffffffffffffffffffffffffffffffffffffffff1614610664576040517f08c379a000000000000000000000000000000000000000000000000000000000815260040161065b9061361a565b60405180910390fd5b61066e6000611fda565b565b6060600080606080600080600760009054906101000a900473ffffffffffffffffffffffffffffffffffffffff1673ffffffffffffffffffffffffffffffffffffffff166378e1fa8f896040518263ffffffff1660e01b81526004016106d6919061369a565b60006040518083038186803b1580156106ee57600080fd5b505afa158015610702573d6000803e3d6000fd5b505050506040513d6000823e3d601f19601f8201168201806040525081019061072b9190612b31565b9050600088141580156107dd5750600760009054906101000a900473ffffffffffffffffffffffffffffffffffffffff1673ffffffffffffffffffffffffffffffffffffffff1663836c081d6040518163ffffffff1660e01b815260040160206040518083038186803b1580156107a157600080fd5b505afa1580156107b5573d6000803e3d6000fd5b505050506040513d601f19601f820116820180604052508101906107d99190612b9b565b8811155b61081c576040517f08c379a00000000000000000000000000000000000000000000000000000000081526004016108139061347a565b60405180910390fd5b806000015181604001518260200151836060015184608001518560a001519650965096509650965096505091939550919395565b60001515600760009054906101000a900473ffffffffffffffffffffffffffffffffffffffff1673ffffffffffffffffffffffffffffffffffffffff166372f74f43836040518263ffffffff1660e01b81526004016108af919061369a565b60006040518083038186803b1580156108c757600080fd5b505afa1580156108db573d6000803e3d6000fd5b505050506040513d6000823e3d601f19601f820116820180604052508101906109049190612b31565b60c0015115151461094a576040517f08c379a00000000000000000000000000000000000000000000000000000000081526004016109419061357a565b60405180910390fd5b6109896040518060400160405280600d81526020017f74726173666f726d61746f7265000000000000000000000000000000000000008152503361209e565b156109c9576040517f08c379a00000000000000000000000000000000000000000000000000000000081526004016109c09061365a565b60405180910390fd5b6000805b8351811015610d85576000600760009054906101000a900473ffffffffffffffffffffffffffffffffffffffff1673ffffffffffffffffffffffffffffffffffffffff166372f74f43868481518110610a4f577f4e487b7100000000000000000000000000000000000000000000000000000000600052603260045260246000fd5b60200260200101516040518263ffffffff1660e01b8152600401610a73919061369a565b60006040518083038186803b158015610a8b57600080fd5b505afa158015610a9f573d6000803e3d6000fd5b505050506040513d6000823e3d601f19601f82011682018060405250810190610ac89190612b31565b90506000858381518110610b05577f4e487b7100000000000000000000000000000000000000000000000000000000600052603260045260246000fd5b60200260200101511415610b4e576040517f08c379a0000000000000000000000000000000000000000000000000000000008152600401610b459061353a565b60405180910390fd5b3373ffffffffffffffffffffffffffffffffffffffff16610b728260a00151611b11565b73ffffffffffffffffffffffffffffffffffffffff1614610bc8576040517f08c379a0000000000000000000000000000000000000000000000000000000008152600401610bbf906134fa565b60405180910390fd5b73__Generica______________________________6360353db982606001516040518263ffffffff1660e01b8152600401610c0391906133cf565b60206040518083038186803b158015610c1b57600080fd5b505af4158015610c2f573d6000803e3d6000fd5b505050506040513d601f19601f82011682018060405250810190610c539190612a73565b610c92576040517f08c379a0000000000000000000000000000000000000000000000000000000008152600401610c89906135da565b60405180910390fd5b600760009054906101000a900473ffffffffffffffffffffffffffffffffffffffff1673ffffffffffffffffffffffffffffffffffffffff1663b3157ba6868481518110610d09577f4e487b7100000000000000000000000000000000000000000000000000000000600052603260045260246000fd5b60200260200101516040518263ffffffff1660e01b8152600401610d2d919061369a565b600060405180830381600087803b158015610d4757600080fd5b505af1158015610d5b573d6000803e3d6000fd5b50505050806040015183610d6f9190613938565b9250508080610d7d90613a3d565b9150506109cd565b5060005b8551811015610df357858181518110610dcb577f4e487b7100000000000000000000000000000000000000000000000000000000600052603260045260246000fd5b602002602001015182610dde9190613938565b91508080610deb90613a3d565b915050610d89565b50600760009054906101000a900473ffffffffffffffffffffffffffffffffffffffff1673ffffffffffffffffffffffffffffffffffffffff1663eb3b583683833387896040518663ffffffff1660e01b8152600401610e579594939291906136b5565b602060405180830381600087803b158015610e7157600080fd5b505af1158015610e85573d6000803e3d6000fd5b505050506040513d601f19601f82011682018060405250810190610ea99190612b9b565b50505050505050565b60008060009054906101000a900473ffffffffffffffffffffffffffffffffffffffff16905090565b610f1a6040518060400160405280600a81526020017f70726f647574746f7265000000000000000000000000000000000000000000008152503361209e565b15610f5a576040517f08c379a0000000000000000000000000000000000000000000000000000000008152600401610f519061367a565b60405180910390fd5b6000831415610f9e576040517f08c379a0000000000000000000000000000000000000000000000000000000008152600401610f959061355a565b60405180910390fd5b60008263ffffffff16118015610fba575060648263ffffffff16105b610ff9576040517f08c379a0000000000000000000000000000000000000000000000000000000008152600401610ff0906135fa565b60405180910390fd5b60001515600760009054906101000a900473ffffffffffffffffffffffffffffffffffffffff1673ffffffffffffffffffffffffffffffffffffffff166372f74f43856040518263ffffffff1660e01b8152600401611058919061369a565b60006040518083038186803b15801561107057600080fd5b505afa158015611084573d6000803e3d6000fd5b505050506040513d6000823e3d601f19601f820116820180604052508101906110ad9190612b31565b60c001511515146110f3576040517f08c379a00000000000000000000000000000000000000000000000000000000081526004016110ea9061359a565b60405180910390fd5b6060600760009054906101000a900473ffffffffffffffffffffffffffffffffffffffff1673ffffffffffffffffffffffffffffffffffffffff1663eb3b583685853385876040518663ffffffff1660e01b8152600401611158959493929190613729565b602060405180830381600087803b15801561117257600080fd5b505af1158015611186573d6000803e3d6000fd5b505050506040513d601f19601f820116820180604052508101906111aa9190612b9b565b5050505050565b6111b9611fd2565b73ffffffffffffffffffffffffffffffffffffffff166111d7610eb2565b73ffffffffffffffffffffffffffffffffffffffff161461122d576040517f08c379a00000000000000000000000000000000000000000000000000000000081526004016112249061361a565b60405180910390fd5b73__Generica______________________________6360353db9836040518263ffffffff1660e01b81526004016112649190613330565b60206040518083038186803b15801561127c57600080fd5b505af4158015611290573d6000803e3d6000fd5b505050506040513d601f19601f820116820180604052508101906112b49190612a73565b80611342575073__Generica______________________________6360353db9836040518263ffffffff1660e01b81526004016112f19190613365565b60206040518083038186803b15801561130957600080fd5b505af415801561131d573d6000803e3d6000fd5b505050506040513d601f19601f820116820180604052508101906113419190612a73565b5b806113d0575073__Generica______________________________6360353db9836040518263ffffffff1660e01b815260040161137f919061339a565b60206040518083038186803b15801561139757600080fd5b505af41580156113ab573d6000803e3d6000fd5b505050506040513d601f19601f820116820180604052508101906113cf9190612a73565b5b61140f576040517f08c379a0000000000000000000000000000000000000000000000000000000008152600401611406906134ba565b60405180910390fd5b611419828261209e565b611458576040517f08c379a000000000000000000000000000000000000000000000000000000000815260040161144f9061363a565b60405180910390fd5b73__Generica______________________________6360353db9836040518263ffffffff1660e01b815260040161148f9190613330565b60206040518083038186803b1580156114a757600080fd5b505af41580156114bb573d6000803e3d6000fd5b505050506040513d601f19601f820116820180604052508101906114df9190612a73565b15611551578060016000600454815260200190815260200160002060006101000a81548173ffffffffffffffffffffffffffffffffffffffff021916908373ffffffffffffffffffffffffffffffffffffffff1602179055506004600081548092919061154b90613a3d565b91905055505b73__Generica______________________________6360353db9836040518263ffffffff1660e01b81526004016115889190613365565b60206040518083038186803b1580156115a057600080fd5b505af41580156115b4573d6000803e3d6000fd5b505050506040513d601f19601f820116820180604052508101906115d89190612a73565b1561164a578060026000600554815260200190815260200160002060006101000a81548173ffffffffffffffffffffffffffffffffffffffff021916908373ffffffffffffffffffffffffffffffffffffffff1602179055506005600081548092919061164490613a3d565b91905055505b73__Generica______________________________6360353db9836040518263ffffffff1660e01b8152600401611681919061339a565b60206040518083038186803b15801561169957600080fd5b505af41580156116ad573d6000803e3d6000fd5b505050506040513d601f19601f820116820180604052508101906116d19190612a73565b15611743578060036000600654815260200190815260200160002060006101000a81548173ffffffffffffffffffffffffffffffffffffffff021916908373ffffffffffffffffffffffffffffffffffffffff1602179055506006600081548092919061173d90613a3d565b91905055505b5050565b60606000600760009054906101000a900473ffffffffffffffffffffffffffffffffffffffff1673ffffffffffffffffffffffffffffffffffffffff1663836c081d6040518163ffffffff1660e01b815260040160206040518083038186803b1580156117b357600080fd5b505afa1580156117c7573d6000803e3d6000fd5b505050506040513d601f19601f820116820180604052508101906117eb9190612b9b565b67ffffffffffffffff81111561182a577f4e487b7100000000000000000000000000000000000000000000000000000000600052604160045260246000fd5b60405190808252806020026020018201604052801561186357816020015b611850612412565b8152602001906001900390816118485790505b509050600080600190505b600760009054906101000a900473ffffffffffffffffffffffffffffffffffffffff1673ffffffffffffffffffffffffffffffffffffffff1663836c081d6040518163ffffffff1660e01b815260040160206040518083038186803b1580156118d657600080fd5b505afa1580156118ea573d6000803e3d6000fd5b505050506040513d601f19601f8201168201806040525081019061190e9190612b9b565b8111611ac2576000600760009054906101000a900473ffffffffffffffffffffffffffffffffffffffff1673ffffffffffffffffffffffffffffffffffffffff166378e1fa8f836040518263ffffffff1660e01b8152600401611971919061369a565b60006040518083038186803b15801561198957600080fd5b505afa15801561199d573d6000803e3d6000fd5b505050506040513d6000823e3d601f19601f820116820180604052508101906119c69190612b31565b905073__Generica______________________________6360353db98260000151886040518363ffffffff1660e01b8152600401611a059291906132f9565b60206040518083038186803b158015611a1d57600080fd5b505af4158015611a31573d6000803e3d6000fd5b505050506040513d601f19601f82011682018060405250810190611a559190612a73565b15611aae5780848481518110611a94577f4e487b7100000000000000000000000000000000000000000000000000000000600052603260045260246000fd5b60200260200101819052508280611aaa90613a3d565b9350505b508080611aba90613a3d565b91505061186e565b506000811415611b07576040517f08c379a0000000000000000000000000000000000000000000000000000000008152600401611afe9061349a565b60405180910390fd5b8192505050919050565b6000808214158015611bc25750600760009054906101000a900473ffffffffffffffffffffffffffffffffffffffff1673ffffffffffffffffffffffffffffffffffffffff1663836c081d6040518163ffffffff1660e01b815260040160206040518083038186803b158015611b8657600080fd5b505afa158015611b9a573d6000803e3d6000fd5b505050506040513d601f19601f82011682018060405250810190611bbe9190612b9b565b8211155b611c01576040517f08c379a0000000000000000000000000000000000000000000000000000000008152600401611bf89061347a565b60405180910390fd5b600760009054906101000a900473ffffffffffffffffffffffffffffffffffffffff1673ffffffffffffffffffffffffffffffffffffffff16636352211e836040518263ffffffff1660e01b8152600401611c5c919061369a565b60206040518083038186803b158015611c7457600080fd5b505afa158015611c88573d6000803e3d6000fd5b505050506040513d601f19601f82011682018060405250810190611cac9190612924565b9050919050565b60016020528060005260406000206000915054906101000a900473ffffffffffffffffffffffffffffffffffffffff1681565b611cee611fd2565b73ffffffffffffffffffffffffffffffffffffffff16611d0c610eb2565b73ffffffffffffffffffffffffffffffffffffffff1614611d62576040517f08c379a0000000000000000000000000000000000000000000000000000000008152600401611d599061361a565b60405180910390fd5b600073ffffffffffffffffffffffffffffffffffffffff168173ffffffffffffffffffffffffffffffffffffffff161415611dd2576040517f08c379a0000000000000000000000000000000000000000000000000000000008152600401611dc99061351a565b60405180910390fd5b611ddb81611fda565b50565b60036020528060005260406000206000915054906101000a900473ffffffffffffffffffffffffffffffffffffffff1681565b6000805b600454811015611ea3576001600082815260200190815260200160002060009054906101000a900473ffffffffffffffffffffffffffffffffffffffff1673ffffffffffffffffffffffffffffffffffffffff168373ffffffffffffffffffffffffffffffffffffffff161415611e90576000915050611fcd565b8080611e9b90613a3d565b915050611e15565b5060005b600554811015611f35576002600082815260200190815260200160002060009054906101000a900473ffffffffffffffffffffffffffffffffffffffff1673ffffffffffffffffffffffffffffffffffffffff168373ffffffffffffffffffffffffffffffffffffffff161415611f22576000915050611fcd565b8080611f2d90613a3d565b915050611ea7565b5060005b600654811015611fc7576003600082815260200190815260200160002060009054906101000a900473ffffffffffffffffffffffffffffffffffffffff1673ffffffffffffffffffffffffffffffffffffffff168373ffffffffffffffffffffffffffffffffffffffff161415611fb4576000915050611fcd565b8080611fbf90613a3d565b915050611f39565b50600190505b919050565b600033905090565b60008060009054906101000a900473ffffffffffffffffffffffffffffffffffffffff169050816000806101000a81548173ffffffffffffffffffffffffffffffffffffffff021916908373ffffffffffffffffffffffffffffffffffffffff1602179055508173ffffffffffffffffffffffffffffffffffffffff168173ffffffffffffffffffffffffffffffffffffffff167f8be0079c531659141344cd1fd0a4f28419497f9722a3daafe3b4186f6b6457e060405160405180910390a35050565b600073__Generica______________________________6360353db9846040518263ffffffff1660e01b81526004016120d79190613330565b60206040518083038186803b1580156120ef57600080fd5b505af4158015612103573d6000803e3d6000fd5b505050506040513d601f19601f820116820180604052508101906121279190612a73565b156121c35760005b6004548110156121bd576001600082815260200190815260200160002060009054906101000a900473ffffffffffffffffffffffffffffffffffffffff1673ffffffffffffffffffffffffffffffffffffffff168373ffffffffffffffffffffffffffffffffffffffff1614156121aa57600091505061240c565b80806121b590613a3d565b91505061212f565b50612407565b73__Generica______________________________6360353db9846040518263ffffffff1660e01b81526004016121fa9190613365565b60206040518083038186803b15801561221257600080fd5b505af4158015612226573d6000803e3d6000fd5b505050506040513d601f19601f8201168201806040525081019061224a9190612a73565b156122e65760005b6005548110156122e0576002600082815260200190815260200160002060009054906101000a900473ffffffffffffffffffffffffffffffffffffffff1673ffffffffffffffffffffffffffffffffffffffff168373ffffffffffffffffffffffffffffffffffffffff1614156122cd57600091505061240c565b80806122d890613a3d565b915050612252565b50612406565b73__Generica______________________________6360353db9846040518263ffffffff1660e01b815260040161231d919061339a565b60206040518083038186803b15801561233557600080fd5b505af4158015612349573d6000803e3d6000fd5b505050506040513d601f19601f8201168201806040525081019061236d9190612a73565b156124055760005b600654811015612403576003600082815260200190815260200160002060009054906101000a900473ffffffffffffffffffffffffffffffffffffffff1673ffffffffffffffffffffffffffffffffffffffff168373ffffffffffffffffffffffffffffffffffffffff1614156123f057600091505061240c565b80806123fb90613a3d565b915050612375565b505b5b5b600190505b92915050565b6040518060e001604052806060815260200160008152602001600063ffffffff1681526020016060815260200160608152602001600081526020016000151581525090565b600061246a612465846137c2565b61379d565b9050808382526020820190508260005b858110156124aa5781358501612490888261275b565b84526020840193506020830192505060018101905061247a565b5050509392505050565b60006124c76124c2846137ee565b61379d565b905080838252602082019050828560208602820111156124e657600080fd5b60005b8581101561251657816124fc88826128a7565b8452602084019350602083019250506001810190506124e9565b5050509392505050565b600061253361252e846137ee565b61379d565b9050808382526020820190508285602086028201111561255257600080fd5b60005b85811015612582578161256888826128bc565b845260208401935060208301925050600181019050612555565b5050509392505050565b600061259f61259a8461381a565b61379d565b905080838252602082019050828560208602820111156125be57600080fd5b60005b858110156125ee57816125d488826128d1565b8452602084019350602083019250506001810190506125c1565b5050509392505050565b600061260b61260684613846565b61379d565b90508281526020810184848401111561262357600080fd5b61262e8482856139ca565b509392505050565b600061264961264484613846565b61379d565b90508281526020810184848401111561266157600080fd5b61266c8482856139d9565b509392505050565b60008135905061268381614043565b92915050565b60008151905061269881614043565b92915050565b600082601f8301126126af57600080fd5b81356126bf848260208601612457565b91505092915050565b600082601f8301126126d957600080fd5b81356126e98482602086016124b4565b91505092915050565b600082601f83011261270357600080fd5b8151612713848260208601612520565b91505092915050565b600082601f83011261272d57600080fd5b813561273d84826020860161258c565b91505092915050565b6000815190506127558161405a565b92915050565b600082601f83011261276c57600080fd5b813561277c8482602086016125f8565b91505092915050565b600082601f83011261279657600080fd5b81516127a6848260208601612636565b91505092915050565b600060e082840312156127c157600080fd5b6127cb60e061379d565b9050600082015167ffffffffffffffff8111156127e757600080fd5b6127f384828501612785565b6000830152506020612807848285016128bc565b602083015250604061281b848285016128e6565b604083015250606082015167ffffffffffffffff81111561283b57600080fd5b61284784828501612785565b606083015250608082015167ffffffffffffffff81111561286757600080fd5b612873848285016126f2565b60808301525060a0612887848285016128bc565b60a08301525060c061289b84828501612746565b60c08301525092915050565b6000813590506128b681614071565b92915050565b6000815190506128cb81614071565b92915050565b6000813590506128e081614088565b92915050565b6000815190506128f581614088565b92915050565b60006020828403121561290d57600080fd5b600061291b84828501612674565b91505092915050565b60006020828403121561293657600080fd5b600061294484828501612689565b91505092915050565b60008060006060848603121561296257600080fd5b600061297086828701612674565b9350506020612981868287016128a7565b925050604061299286828701612674565b9150509250925092565b600080600080600060a086880312156129b457600080fd5b600086013567ffffffffffffffff8111156129ce57600080fd5b6129da8882890161269e565b955050602086013567ffffffffffffffff8111156129f757600080fd5b612a038882890161271c565b945050604086013567ffffffffffffffff811115612a2057600080fd5b612a2c8882890161275b565b935050606086013567ffffffffffffffff811115612a4957600080fd5b612a55888289016126c8565b9250506080612a66888289016128a7565b9150509295509295909350565b600060208284031215612a8557600080fd5b6000612a9384828501612746565b91505092915050565b600060208284031215612aae57600080fd5b600082013567ffffffffffffffff811115612ac857600080fd5b612ad48482850161275b565b91505092915050565b60008060408385031215612af057600080fd5b600083013567ffffffffffffffff811115612b0a57600080fd5b612b168582860161275b565b9250506020612b2785828601612674565b9150509250929050565b600060208284031215612b4357600080fd5b600082015167ffffffffffffffff811115612b5d57600080fd5b612b69848285016127af565b91505092915050565b600060208284031215612b8457600080fd5b6000612b92848285016128a7565b91505092915050565b600060208284031215612bad57600080fd5b6000612bbb848285016128bc565b91505092915050565b600080600060608486031215612bd957600080fd5b6000612be7868287016128a7565b9350506020612bf8868287016128d1565b925050604084013567ffffffffffffffff811115612c1557600080fd5b612c218682870161275b565b9150509250925092565b6000612c378383613176565b905092915050565b6000612c4b8383613220565b60208301905092915050565b612c6081613972565b82525050565b6000612c7182613897565b612c7b81856138d2565b935083602082028501612c8d85613877565b8060005b85811015612cc95784840389528151612caa8582612c2b565b9450612cb5836138b8565b925060208a01995050600181019050612c91565b50829750879550505050505092915050565b6000612ce6826138a2565b612cf081856138e3565b9350612cfb83613887565b8060005b83811015612d2c578151612d138882612c3f565b9750612d1e836138c5565b925050600181019050612cff565b5085935050505092915050565b6000612d44826138a2565b612d4e81856138f4565b9350612d5983613887565b8060005b83811015612d8a578151612d718882612c3f565b9750612d7c836138c5565b925050600181019050612d5d565b5085935050505092915050565b612da081613984565b82525050565b6000612db1826138ad565b612dbb8185613905565b9350612dcb8185602086016139d9565b612dd481613ae4565b840191505092915050565b6000612dea826138ad565b612df48185613916565b9350612e048185602086016139d9565b612e0d81613ae4565b840191505092915050565b6000612e23826138ad565b612e2d8185613927565b9350612e3d8185602086016139d9565b612e4681613ae4565b840191505092915050565b6000612e5e601f83613916565b9150612e6982613af5565b602082019050919050565b6000612e81602483613916565b9150612e8c82613b1e565b604082019050919050565b6000612ea4604283613916565b9150612eaf82613b6d565b606082019050919050565b6000612ec7601f83613916565b9150612ed282613be2565b602082019050919050565b6000612eea603183613916565b9150612ef582613c0b565b604082019050919050565b6000612f0d602683613916565b9150612f1882613c5a565b604082019050919050565b6000612f30601883613916565b9150612f3b82613ca9565b602082019050919050565b6000612f53601383613916565b9150612f5e82613cd2565b602082019050919050565b6000612f76600a83613927565b9150612f8182613cfb565b602082019050919050565b6000612f99602283613916565b9150612fa482613d24565b604082019050919050565b6000612fbc601683613916565b9150612fc782613d73565b602082019050919050565b6000612fdf604583613916565b9150612fea82613d9c565b606082019050919050565b6000613002603183613916565b915061300d82613e11565b604082019050919050565b6000613025601883613916565b915061303082613e60565b602082019050919050565b6000613048602083613916565b915061305382613e89565b602082019050919050565b600061306b601483613916565b915061307682613eb2565b602082019050919050565b600061308e602683613916565b915061309982613edb565b604082019050919050565b60006130b1603f83613916565b91506130bc82613f2a565b604082019050919050565b60006130d4600d83613927565b91506130df82613f79565b602082019050919050565b60006130f7603283613916565b915061310282613fa2565b604082019050919050565b600061311a600783613927565b915061312582613ff1565b602082019050919050565b600061313d600d83613916565b91506131488261401a565b602082019050919050565b6000613160600d83613927565b915061316b8261401a565b602082019050919050565b600060e08301600083015184820360008601526131938282612da6565b91505060208301516131a86020860182613220565b5060408301516131bb604086018261323e565b50606083015184820360608601526131d38282612da6565b915050608083015184820360808601526131ed8282612cdb565b91505060a083015161320260a0860182613220565b5060c083015161321560c0860182612d97565b508091505092915050565b613229816139b0565b82525050565b613238816139b0565b82525050565b613247816139ba565b82525050565b613256816139ba565b82525050565b60006020820190506132716000830184612c57565b92915050565b600060608201905061328c6000830186612c57565b6132996020830185612c57565b6132a6604083018461322f565b949350505050565b60006040820190506132c36000830185612c57565b6132d0602083018461322f565b9392505050565b600060208201905081810360008301526132f18184612c66565b905092915050565b600060408201905081810360008301526133138185612e18565b905081810360208301526133278184612e18565b90509392505050565b6000604082019050818103600083015261334a8184612e18565b9050818103602083015261335d81612f69565b905092915050565b6000604082019050818103600083015261337f8184612e18565b90508181036020830152613392816130c7565b905092915050565b600060408201905081810360008301526133b48184612e18565b905081810360208301526133c78161310d565b905092915050565b600060408201905081810360008301526133e98184612e18565b905081810360208301526133fc81613153565b905092915050565b600060c082019050818103600083015261341e8189612ddf565b905061342d602083018861324d565b61343a604083018761322f565b818103606083015261344c8186612ddf565b905081810360808301526134608185612d39565b905061346f60a083018461322f565b979650505050505050565b6000602082019050818103600083015261349381612e51565b9050919050565b600060208201905081810360008301526134b381612e74565b9050919050565b600060208201905081810360008301526134d381612e97565b9050919050565b600060208201905081810360008301526134f381612eba565b9050919050565b6000602082019050818103600083015261351381612edd565b9050919050565b6000602082019050818103600083015261353381612f00565b9050919050565b6000602082019050818103600083015261355381612f23565b9050919050565b6000602082019050818103600083015261357381612f46565b9050919050565b6000602082019050818103600083015261359381612f8c565b9050919050565b600060208201905081810360008301526135b381612faf565b9050919050565b600060208201905081810360008301526135d381612fd2565b9050919050565b600060208201905081810360008301526135f381612ff5565b9050919050565b6000602082019050818103600083015261361381613018565b9050919050565b600060208201905081810360008301526136338161303b565b9050919050565b6000602082019050818103600083015261365381613081565b9050919050565b60006020820190508181036000830152613673816130a4565b9050919050565b60006020820190508181036000830152613693816130ea565b9050919050565b60006020820190506136af600083018461322f565b92915050565b600060c0820190506136ca600083018861322f565b6136d7602083018761324d565b81810360408301526136e88161305e565b90506136f76060830186612c57565b81810360808301526137098185612d39565b905081810360a083015261371d8184612ddf565b90509695505050505050565b600060c08201905061373e600083018861322f565b61374b602083018761324d565b818103604083015261375c81613130565b905061376b6060830186612c57565b818103608083015261377d8185612d39565b905081810360a08301526137918184612ddf565b90509695505050505050565b60006137a76137b8565b90506137b38282613a0c565b919050565b6000604051905090565b600067ffffffffffffffff8211156137dd576137dc613ab5565b5b602082029050602081019050919050565b600067ffffffffffffffff82111561380957613808613ab5565b5b602082029050602081019050919050565b600067ffffffffffffffff82111561383557613834613ab5565b5b602082029050602081019050919050565b600067ffffffffffffffff82111561386157613860613ab5565b5b61386a82613ae4565b9050602081019050919050565b6000819050602082019050919050565b6000819050602082019050919050565b600081519050919050565b600081519050919050565b600081519050919050565b6000602082019050919050565b6000602082019050919050565b600082825260208201905092915050565b600082825260208201905092915050565b600082825260208201905092915050565b600082825260208201905092915050565b600082825260208201905092915050565b600082825260208201905092915050565b6000613943826139ba565b915061394e836139ba565b92508263ffffffff0382111561396757613966613a86565b5b828201905092915050565b600061397d82613990565b9050919050565b60008115159050919050565b600073ffffffffffffffffffffffffffffffffffffffff82169050919050565b6000819050919050565b600063ffffffff82169050919050565b82818337600083830152505050565b60005b838110156139f75780820151818401526020810190506139dc565b83811115613a06576000848401525b50505050565b613a1582613ae4565b810181811067ffffffffffffffff82111715613a3457613a33613ab5565b5b80604052505050565b6000613a48826139b0565b91507fffffffffffffffffffffffffffffffffffffffffffffffffffffffffffffffff821415613a7b57613a7a613a86565b5b600182019050919050565b7f4e487b7100000000000000000000000000000000000000000000000000000000600052601160045260246000fd5b7f4e487b7100000000000000000000000000000000000000000000000000000000600052604160045260246000fd5b6000601f19601f8301169050919050565b7f496c20746f6b656e20696e73657269746f206e6f6e20c3a82076616c69646f00600082015250565b7f4e657373756e2070726f646f74746f20636f6e20696c206e6f6d6520696e736560008201527f7269746f00000000000000000000000000000000000000000000000000000000602082015250565b7f492072756f6c6920646973706f6e6962696c6920736f6e6f3a205f70726f647560008201527f74746f72655f205f74726173666f726d61746f72655f2065205f636c69656e7460208201527f655f000000000000000000000000000000000000000000000000000000000000604082015250565b7f496c206c6f74746f20696e73657269746f206e6f6e20c3a82076616c69646f00600082015250565b7f4e6f6e2073656920696e20706f73736573736f2064656c6c61206d617465726960008201527f61207072696d6120636f6e206c6f74746f000000000000000000000000000000602082015250565b7f4f776e61626c653a206e6577206f776e657220697320746865207a65726f206160008201527f6464726573730000000000000000000000000000000000000000000000000000602082015250565b7f496c206c6f74746f2030206e6f6e20c3a82076616c69646f0000000000000000600082015250565b7f4964206c6f74746f206e6f6e2076616c69646f00000000000000000000000000600082015250565b7f70726f647574746f726500000000000000000000000000000000000000000000600082015250565b7f496c206c6f74746f20696e73657269746f20c3a8206769c3a02070726573656e60008201527f7465000000000000000000000000000000000000000000000000000000000000602082015250565b7f4964206c6f74746f206769c3a02070726573656e746500000000000000000000600082015250565b7f4c27696e646972697a7a6f206465766520617070617274656e6572652061642060008201527f756e2070726f647574746f72652c2074726173666f726d61747265206f20636c60208201527f69656e7465000000000000000000000000000000000000000000000000000000604082015250565b7f4c27656c656d656e746f20636f6e20696420706172692061206e6f6e20c3a82060008201527f756e61206d617465726961207072696d61000000000000000000000000000000602082015250565b7f56616c6f726520646920434f32206e6f6e2076616c69646f0000000000000000600082015250565b7f4f776e61626c653a2063616c6c6572206973206e6f7420746865206f776e6572600082015250565b7f70726f646f74746f2074726173666f726d61746f000000000000000000000000600082015250565b7f4163636f756e74206769c3a02070726573656e746520636f6e2071756573746f60008201527f2072756f6c6f0000000000000000000000000000000000000000000000000000602082015250565b7f536f6c6f20692074726173666f726d61746f726920706f73736f6e6f2061676760008201527f69756e6765726520756e2070726f646f74746f2074726173666f726d61746f00602082015250565b7f74726173666f726d61746f726500000000000000000000000000000000000000600082015250565b7f536f6c6f20692070726f647574746f726920706f73736f6e6f2061676769756e60008201527f67657265206d617465726965207072696d650000000000000000000000000000602082015250565b7f636c69656e746500000000000000000000000000000000000000000000000000600082015250565b7f6d617465726961207072696d6100000000000000000000000000000000000000600082015250565b61404c81613972565b811461405757600080fd5b50565b61406381613984565b811461406e57600080fd5b50565b61407a816139b0565b811461408557600080fd5b50565b614091816139ba565b811461409c57600080fd5b5056fea26469706673582212202a4c25f5a1877f574d119ccf6335e0063243612cfd51e759e0928c1ade29caad64736f6c6343000801003360806040523480156200001157600080fd5b506040518060400160405280600f81526020017f436172626f6e466f6f747072696e7400000000000000000000000000000000008152506040518060400160405280600381526020017f4346500000000000000000000000000000000000000000000000000000000000815250816000908051906020019062000096929190620000b8565b508060019080519060200190620000af929190620000b8565b505050620001cd565b828054620000c69062000168565b90600052602060002090601f016020900481019282620000ea576000855562000136565b82601f106200010557805160ff191683800117855562000136565b8280016001018555821562000136579182015b828111156200013557825182559160200191906001019062000118565b5b50905062000145919062000149565b5090565b5b80821115620001645760008160009055506001016200014a565b5090565b600060028204905060018216806200018157607f821691505b602082108114156200019857620001976200019e565b5b50919050565b7f4e487b7100000000000000000000000000000000000000000000000000000000600052602260045260246000fd5b61342e80620001dd6000396000f3fe608060405234801561001057600080fd5b50600436106101165760003560e01c806378e1fa8f116100a2578063b3157ba611610071578063b3157ba614610305578063b88d4fde14610321578063c87b56dd1461033d578063e985e9c51461036d578063eb3b58361461039d57610116565b806378e1fa8f1461027d578063836c081d146102ad57806395d89b41146102cb578063a22cb465146102e957610116565b806323b872dd116100e957806323b872dd146101b557806342842e0e146101d15780636352211e146101ed57806370a082311461021d57806372f74f431461024d57610116565b806301ffc9a71461011b57806306fdde031461014b578063081812fc14610169578063095ea7b314610199575b600080fd5b610135600480360381019061013091906122e9565b6103cd565b6040516101429190612900565b60405180910390f35b6101536104af565b604051610160919061291b565b60405180910390f35b610183600480360381019061017e919061233b565b610541565b6040516101909190612899565b60405180910390f35b6101b360048036038101906101ae91906122ad565b6105c6565b005b6101cf60048036038101906101ca91906121a7565b6106de565b005b6101eb60048036038101906101e691906121a7565b61073e565b005b6102076004803603810190610202919061233b565b61075e565b6040516102149190612899565b60405180910390f35b61023760048036038101906102329190612142565b610810565b6040516102449190612b1f565b60405180910390f35b6102676004803603810190610262919061233b565b6108c8565b6040516102749190612afd565b60405180910390f35b6102976004803603810190610292919061233b565b610ac6565b6040516102a49190612afd565b60405180910390f35b6102b5610cc4565b6040516102c29190612b1f565b60405180910390f35b6102d3610cd5565b6040516102e0919061291b565b60405180910390f35b61030360048036038101906102fe9190612271565b610d67565b005b61031f600480360381019061031a919061233b565b610d7d565b005b61033b600480360381019061033691906121f6565b610e5c565b005b6103576004803603810190610352919061233b565b610ebe565b604051610364919061291b565b60405180910390f35b6103876004803603810190610382919061216b565b610f65565b6040516103949190612900565b60405180910390f35b6103b760048036038101906103b29190612364565b610ff9565b6040516103c49190612b1f565b60405180910390f35b60007f80ac58cd000000000000000000000000000000000000000000000000000000007bffffffffffffffffffffffffffffffffffffffffffffffffffffffff1916827bffffffffffffffffffffffffffffffffffffffffffffffffffffffff1916148061049857507f5b5e139f000000000000000000000000000000000000000000000000000000007bffffffffffffffffffffffffffffffffffffffffffffffffffffffff1916827bffffffffffffffffffffffffffffffffffffffffffffffffffffffff1916145b806104a857506104a7826111fe565b5b9050919050565b6060600080546104be90612dfb565b80601f01602080910402602001604051908101604052809291908181526020018280546104ea90612dfb565b80156105375780601f1061050c57610100808354040283529160200191610537565b820191906000526020600020905b81548152906001019060200180831161051a57829003601f168201915b5050505050905090565b600061054c82611268565b61058b576040517f08c379a000000000000000000000000000000000000000000000000000000000815260040161058290612a7d565b60405180910390fd5b6004600083815260200190815260200160002060009054906101000a900473ffffffffffffffffffffffffffffffffffffffff169050919050565b60006105d18261075e565b90508073ffffffffffffffffffffffffffffffffffffffff168373ffffffffffffffffffffffffffffffffffffffff161415610642576040517f08c379a000000000000000000000000000000000000000000000000000000000815260040161063990612abd565b60405180910390fd5b8073ffffffffffffffffffffffffffffffffffffffff166106616112d4565b73ffffffffffffffffffffffffffffffffffffffff161480610690575061068f8161068a6112d4565b610f65565b5b6106cf576040517f08c379a00000000000000000000000000000000000000000000000000000000081526004016106c6906129fd565b60405180910390fd5b6106d983836112dc565b505050565b6106ef6106e96112d4565b82611395565b61072e576040517f08c379a000000000000000000000000000000000000000000000000000000000815260040161072590612add565b60405180910390fd5b610739838383611473565b505050565b61075983838360405180602001604052806000815250610e5c565b505050565b6000806002600084815260200190815260200160002060009054906101000a900473ffffffffffffffffffffffffffffffffffffffff169050600073ffffffffffffffffffffffffffffffffffffffff168173ffffffffffffffffffffffffffffffffffffffff161415610807576040517f08c379a00000000000000000000000000000000000000000000000000000000081526004016107fe90612a3d565b60405180910390fd5b80915050919050565b60008073ffffffffffffffffffffffffffffffffffffffff168273ffffffffffffffffffffffffffffffffffffffff161415610881576040517f08c379a000000000000000000000000000000000000000000000000000000000815260040161087890612a1d565b60405180910390fd5b600360008373ffffffffffffffffffffffffffffffffffffffff1673ffffffffffffffffffffffffffffffffffffffff168152602001908152602001600020549050919050565b6108d0611e29565b600760008381526020019081526020016000206040518060e00160405290816000820180546108fe90612dfb565b80601f016020809104026020016040519081016040528092919081815260200182805461092a90612dfb565b80156109775780601f1061094c57610100808354040283529160200191610977565b820191906000526020600020905b81548152906001019060200180831161095a57829003601f168201915b50505050508152602001600182015481526020016002820160009054906101000a900463ffffffff1663ffffffff1663ffffffff1681526020016003820180546109c090612dfb565b80601f01602080910402602001604051908101604052809291908181526020018280546109ec90612dfb565b8015610a395780601f10610a0e57610100808354040283529160200191610a39565b820191906000526020600020905b815481529060010190602001808311610a1c57829003601f168201915b5050505050815260200160048201805480602002602001604051908101604052809291908181526020018280548015610a9157602002820191906000526020600020905b815481526020019060010190808311610a7d575b50505050508152602001600582015481526020016006820160009054906101000a900460ff1615151515815250509050919050565b610ace611e29565b600860008381526020019081526020016000206040518060e0016040529081600082018054610afc90612dfb565b80601f0160208091040260200160405190810160405280929190818152602001828054610b2890612dfb565b8015610b755780601f10610b4a57610100808354040283529160200191610b75565b820191906000526020600020905b815481529060010190602001808311610b5857829003601f168201915b50505050508152602001600182015481526020016002820160009054906101000a900463ffffffff1663ffffffff1663ffffffff168152602001600382018054610bbe90612dfb565b80601f0160208091040260200160405190810160405280929190818152602001828054610bea90612dfb565b8015610c375780601f10610c0c57610100808354040283529160200191610c37565b820191906000526020600020905b815481529060010190602001808311610c1a57829003601f168201915b5050505050815260200160048201805480602002602001604051908101604052809291908181526020018280548015610c8f57602002820191906000526020600020905b815481526020019060010190808311610c7b575b50505050508152602001600582015481526020016006820160009054906101000a900460ff1615151515815250509050919050565b6000610cd060066116da565b905090565b606060018054610ce490612dfb565b80601f0160208091040260200160405190810160405280929190818152602001828054610d1090612dfb565b8015610d5d5780601f10610d3257610100808354040283529160200191610d5d565b820191906000526020600020905b815481529060010190602001808311610d4057829003601f168201915b5050505050905090565b610d79610d726112d4565b83836116e8565b5050565b6040518060400160405280600a81526020017f7574696c697a7a61746100000000000000000000000000000000000000000000815250600760008381526020019081526020016000206003019080519060200190610ddc929190611e6e565b506000600760008381526020019081526020016000206005015490506040518060400160405280600a81526020017f7574696c697a7a61746100000000000000000000000000000000000000000000815250600860008381526020019081526020016000206003019080519060200190610e57929190611e6e565b505050565b610e6d610e676112d4565b83611395565b610eac576040517f08c379a0000000000000000000000000000000000000000000000000000000008152600401610ea390612add565b60405180910390fd5b610eb884848484611855565b50505050565b6060610ec982611268565b610f08576040517f08c379a0000000000000000000000000000000000000000000000000000000008152600401610eff90612a9d565b60405180910390fd5b6000610f126118b1565b90506000815111610f325760405180602001604052806000815250610f5d565b80610f3c846118c8565b604051602001610f4d929190612875565b6040516020818303038152906040525b915050919050565b6000600560008473ffffffffffffffffffffffffffffffffffffffff1673ffffffffffffffffffffffffffffffffffffffff16815260200190815260200160002060008373ffffffffffffffffffffffffffffffffffffffff1673ffffffffffffffffffffffffffffffffffffffff16815260200190815260200160002060009054906101000a900460ff16905092915050565b60006110056006611a75565b600061101160066116da565b905060006040518060e001604052808581526020018a81526020018963ffffffff16815260200188815260200186815260200183815260200160011515815250905080600760008b81526020019081526020016000206000820151816000019080519060200190611083929190611e6e565b506020820151816001015560408201518160020160006101000a81548163ffffffff021916908363ffffffff16021790555060608201518160030190805190602001906110d1929190611e6e565b5060808201518160040190805190602001906110ee929190611ef4565b5060a0820151816005015560c08201518160060160006101000a81548160ff0219169083151502179055509050508060086000848152602001908152602001600020600082015181600001908051906020019061114c929190611e6e565b506020820151816001015560408201518160020160006101000a81548163ffffffff021916908363ffffffff160217905550606082015181600301908051906020019061119a929190611e6e565b5060808201518160040190805190602001906111b7929190611ef4565b5060a0820151816005015560c08201518160060160006101000a81548160ff0219169083151502179055509050506111ef8683611a8b565b81925050509695505050505050565b60007f01ffc9a7000000000000000000000000000000000000000000000000000000007bffffffffffffffffffffffffffffffffffffffffffffffffffffffff1916827bffffffffffffffffffffffffffffffffffffffffffffffffffffffff1916149050919050565b60008073ffffffffffffffffffffffffffffffffffffffff166002600084815260200190815260200160002060009054906101000a900473ffffffffffffffffffffffffffffffffffffffff1673ffffffffffffffffffffffffffffffffffffffff1614159050919050565b600033905090565b816004600083815260200190815260200160002060006101000a81548173ffffffffffffffffffffffffffffffffffffffff021916908373ffffffffffffffffffffffffffffffffffffffff160217905550808273ffffffffffffffffffffffffffffffffffffffff1661134f8361075e565b73ffffffffffffffffffffffffffffffffffffffff167f8c5be1e5ebec7d5bd14f71427d1e84f3dd0314c0f7b2291e5b200ac8c7c3b92560405160405180910390a45050565b60006113a082611268565b6113df576040517f08c379a00000000000000000000000000000000000000000000000000000000081526004016113d6906129dd565b60405180910390fd5b60006113ea8361075e565b90508073ffffffffffffffffffffffffffffffffffffffff168473ffffffffffffffffffffffffffffffffffffffff16148061145957508373ffffffffffffffffffffffffffffffffffffffff1661144184610541565b73ffffffffffffffffffffffffffffffffffffffff16145b8061146a57506114698185610f65565b5b91505092915050565b8273ffffffffffffffffffffffffffffffffffffffff166114938261075e565b73ffffffffffffffffffffffffffffffffffffffff16146114e9576040517f08c379a00000000000000000000000000000000000000000000000000000000081526004016114e09061295d565b60405180910390fd5b600073ffffffffffffffffffffffffffffffffffffffff168273ffffffffffffffffffffffffffffffffffffffff161415611559576040517f08c379a00000000000000000000000000000000000000000000000000000000081526004016115509061299d565b60405180910390fd5b611564838383611c65565b61156f6000826112dc565b6001600360008573ffffffffffffffffffffffffffffffffffffffff1673ffffffffffffffffffffffffffffffffffffffff16815260200190815260200160002060008282546115bf9190612d01565b925050819055506001600360008473ffffffffffffffffffffffffffffffffffffffff1673ffffffffffffffffffffffffffffffffffffffff16815260200190815260200160002060008282546116169190612c7a565b92505081905550816002600083815260200190815260200160002060006101000a81548173ffffffffffffffffffffffffffffffffffffffff021916908373ffffffffffffffffffffffffffffffffffffffff160217905550808273ffffffffffffffffffffffffffffffffffffffff168473ffffffffffffffffffffffffffffffffffffffff167fddf252ad1be2c89b69c2b068fc378daa952ba7f163c4a11628f55a4df523b3ef60405160405180910390a46116d5838383611c6a565b505050565b600081600001549050919050565b8173ffffffffffffffffffffffffffffffffffffffff168373ffffffffffffffffffffffffffffffffffffffff161415611757576040517f08c379a000000000000000000000000000000000000000000000000000000000815260040161174e906129bd565b60405180910390fd5b80600560008573ffffffffffffffffffffffffffffffffffffffff1673ffffffffffffffffffffffffffffffffffffffff16815260200190815260200160002060008473ffffffffffffffffffffffffffffffffffffffff1673ffffffffffffffffffffffffffffffffffffffff16815260200190815260200160002060006101000a81548160ff0219169083151502179055508173ffffffffffffffffffffffffffffffffffffffff168373ffffffffffffffffffffffffffffffffffffffff167f17307eab39ab6107e8899845ad3d59bd9653f200f220920489ca2b5937696c31836040516118489190612900565b60405180910390a3505050565b611860848484611473565b61186c84848484611c6f565b6118ab576040517f08c379a00000000000000000000000000000000000000000000000000000000081526004016118a29061293d565b60405180910390fd5b50505050565b606060405180602001604052806000815250905090565b60606000821415611910576040518060400160405280600181526020017f30000000000000000000000000000000000000000000000000000000000000008152509050611a70565b600082905060005b6000821461194257808061192b90612e5e565b915050600a8261193b9190612cd0565b9150611918565b60008167ffffffffffffffff811115611984577f4e487b7100000000000000000000000000000000000000000000000000000000600052604160045260246000fd5b6040519080825280601f01601f1916602001820160405280156119b65781602001600182028036833780820191505090505b5090505b60008514611a69576001826119cf9190612d01565b9150600a856119de9190612ea7565b60306119ea9190612c7a565b60f81b818381518110611a26577f4e487b7100000000000000000000000000000000000000000000000000000000600052603260045260246000fd5b60200101907effffffffffffffffffffffffffffffffffffffffffffffffffffffffffffff1916908160001a905350600a85611a629190612cd0565b94506119ba565b8093505050505b919050565b6001816000016000828254019250508190555050565b600073ffffffffffffffffffffffffffffffffffffffff168273ffffffffffffffffffffffffffffffffffffffff161415611afb576040517f08c379a0000000000000000000000000000000000000000000000000000000008152600401611af290612a5d565b60405180910390fd5b611b0481611268565b15611b44576040517f08c379a0000000000000000000000000000000000000000000000000000000008152600401611b3b9061297d565b60405180910390fd5b611b5060008383611c65565b6001600360008473ffffffffffffffffffffffffffffffffffffffff1673ffffffffffffffffffffffffffffffffffffffff1681526020019081526020016000206000828254611ba09190612c7a565b92505081905550816002600083815260200190815260200160002060006101000a81548173ffffffffffffffffffffffffffffffffffffffff021916908373ffffffffffffffffffffffffffffffffffffffff160217905550808273ffffffffffffffffffffffffffffffffffffffff16600073ffffffffffffffffffffffffffffffffffffffff167fddf252ad1be2c89b69c2b068fc378daa952ba7f163c4a11628f55a4df523b3ef60405160405180910390a4611c6160008383611c6a565b5050565b505050565b505050565b6000611c908473ffffffffffffffffffffffffffffffffffffffff16611e06565b15611df9578373ffffffffffffffffffffffffffffffffffffffff1663150b7a02611cb96112d4565b8786866040518563ffffffff1660e01b8152600401611cdb94939291906128b4565b602060405180830381600087803b158015611cf557600080fd5b505af1925050508015611d2657506040513d601f19601f82011682018060405250810190611d239190612312565b60015b611da9573d8060008114611d56576040519150601f19603f3d011682016040523d82523d6000602084013e611d5b565b606091505b50600081511415611da1576040517f08c379a0000000000000000000000000000000000000000000000000000000008152600401611d989061293d565b60405180910390fd5b805181602001fd5b63150b7a0260e01b7bffffffffffffffffffffffffffffffffffffffffffffffffffffffff1916817bffffffffffffffffffffffffffffffffffffffffffffffffffffffff191614915050611dfe565b600190505b949350505050565b6000808273ffffffffffffffffffffffffffffffffffffffff163b119050919050565b6040518060e001604052806060815260200160008152602001600063ffffffff1681526020016060815260200160608152602001600081526020016000151581525090565b828054611e7a90612dfb565b90600052602060002090601f016020900481019282611e9c5760008555611ee3565b82601f10611eb557805160ff1916838001178555611ee3565b82800160010185558215611ee3579182015b82811115611ee2578251825591602001919060010190611ec7565b5b509050611ef09190611f41565b5090565b828054828255906000526020600020908101928215611f30579160200282015b82811115611f2f578251825591602001919060010190611f14565b5b509050611f3d9190611f41565b5090565b5b80821115611f5a576000816000905550600101611f42565b5090565b6000611f71611f6c84612b5f565b612b3a565b90508083825260208201905082856020860282011115611f9057600080fd5b60005b85811015611fc05781611fa68882612118565b845260208401935060208301925050600181019050611f93565b5050509392505050565b6000611fdd611fd884612b8b565b612b3a565b905082815260208101848484011115611ff557600080fd5b612000848285612db9565b509392505050565b600061201b61201684612bbc565b612b3a565b90508281526020810184848401111561203357600080fd5b61203e848285612db9565b509392505050565b60008135905061205581613385565b92915050565b600082601f83011261206c57600080fd5b813561207c848260208601611f5e565b91505092915050565b6000813590506120948161339c565b92915050565b6000813590506120a9816133b3565b92915050565b6000815190506120be816133b3565b92915050565b600082601f8301126120d557600080fd5b81356120e5848260208601611fca565b91505092915050565b600082601f8301126120ff57600080fd5b813561210f848260208601612008565b91505092915050565b600081359050612127816133ca565b92915050565b60008135905061213c816133e1565b92915050565b60006020828403121561215457600080fd5b600061216284828501612046565b91505092915050565b6000806040838503121561217e57600080fd5b600061218c85828601612046565b925050602061219d85828601612046565b9150509250929050565b6000806000606084860312156121bc57600080fd5b60006121ca86828701612046565b93505060206121db86828701612046565b92505060406121ec86828701612118565b9150509250925092565b6000806000806080858703121561220c57600080fd5b600061221a87828801612046565b945050602061222b87828801612046565b935050604061223c87828801612118565b925050606085013567ffffffffffffffff81111561225957600080fd5b612265878288016120c4565b91505092959194509250565b6000806040838503121561228457600080fd5b600061229285828601612046565b92505060206122a385828601612085565b9150509250929050565b600080604083850312156122c057600080fd5b60006122ce85828601612046565b92505060206122df85828601612118565b9150509250929050565b6000602082840312156122fb57600080fd5b60006123098482850161209a565b91505092915050565b60006020828403121561232457600080fd5b6000612332848285016120af565b91505092915050565b60006020828403121561234d57600080fd5b600061235b84828501612118565b91505092915050565b60008060008060008060c0878903121561237d57600080fd5b600061238b89828a01612118565b965050602061239c89828a0161212d565b955050604087013567ffffffffffffffff8111156123b957600080fd5b6123c589828a016120ee565b94505060606123d689828a01612046565b935050608087013567ffffffffffffffff8111156123f357600080fd5b6123ff89828a0161205b565b92505060a087013567ffffffffffffffff81111561241c57600080fd5b61242889828a016120ee565b9150509295509295509295565b60006124418383612848565b60208301905092915050565b61245681612d35565b82525050565b600061246782612bfd565b6124718185612c2b565b935061247c83612bed565b8060005b838110156124ad5781516124948882612435565b975061249f83612c1e565b925050600181019050612480565b5085935050505092915050565b6124c381612d47565b82525050565b6124d281612d47565b82525050565b60006124e382612c08565b6124ed8185612c3c565b93506124fd818560208601612dc8565b61250681612f94565b840191505092915050565b600061251c82612c13565b6125268185612c4d565b9350612536818560208601612dc8565b61253f81612f94565b840191505092915050565b600061255582612c13565b61255f8185612c5e565b935061256f818560208601612dc8565b61257881612f94565b840191505092915050565b600061258e82612c13565b6125988185612c6f565b93506125a8818560208601612dc8565b80840191505092915050565b60006125c1603283612c5e565b91506125cc82612fa5565b604082019050919050565b60006125e4602583612c5e565b91506125ef82612ff4565b604082019050919050565b6000612607601c83612c5e565b915061261282613043565b602082019050919050565b600061262a602483612c5e565b91506126358261306c565b604082019050919050565b600061264d601983612c5e565b9150612658826130bb565b602082019050919050565b6000612670602c83612c5e565b915061267b826130e4565b604082019050919050565b6000612693603883612c5e565b915061269e82613133565b604082019050919050565b60006126b6602a83612c5e565b91506126c182613182565b604082019050919050565b60006126d9602983612c5e565b91506126e4826131d1565b604082019050919050565b60006126fc602083612c5e565b915061270782613220565b602082019050919050565b600061271f602c83612c5e565b915061272a82613249565b604082019050919050565b6000612742602f83612c5e565b915061274d82613298565b604082019050919050565b6000612765602183612c5e565b9150612770826132e7565b604082019050919050565b6000612788603183612c5e565b915061279382613336565b604082019050919050565b600060e08301600083015184820360008601526127bb8282612511565b91505060208301516127d06020860182612848565b5060408301516127e36040860182612866565b50606083015184820360608601526127fb8282612511565b91505060808301518482036080860152612815828261245c565b91505060a083015161282a60a0860182612848565b5060c083015161283d60c08601826124ba565b508091505092915050565b61285181612d9f565b82525050565b61286081612d9f565b82525050565b61286f81612da9565b82525050565b60006128818285612583565b915061288d8284612583565b91508190509392505050565b60006020820190506128ae600083018461244d565b92915050565b60006080820190506128c9600083018761244d565b6128d6602083018661244d565b6128e36040830185612857565b81810360608301526128f581846124d8565b905095945050505050565b600060208201905061291560008301846124c9565b92915050565b60006020820190508181036000830152612935818461254a565b905092915050565b60006020820190508181036000830152612956816125b4565b9050919050565b60006020820190508181036000830152612976816125d7565b9050919050565b60006020820190508181036000830152612996816125fa565b9050919050565b600060208201905081810360008301526129b68161261d565b9050919050565b600060208201905081810360008301526129d681612640565b9050919050565b600060208201905081810360008301526129f681612663565b9050919050565b60006020820190508181036000830152612a1681612686565b9050919050565b60006020820190508181036000830152612a36816126a9565b9050919050565b60006020820190508181036000830152612a56816126cc565b9050919050565b60006020820190508181036000830152612a76816126ef565b9050919050565b60006020820190508181036000830152612a9681612712565b9050919050565b60006020820190508181036000830152612ab681612735565b9050919050565b60006020820190508181036000830152612ad681612758565b9050919050565b60006020820190508181036000830152612af68161277b565b9050919050565b60006020820190508181036000830152612b17818461279e565b905092915050565b6000602082019050612b346000830184612857565b92915050565b6000612b44612b55565b9050612b508282612e2d565b919050565b6000604051905090565b600067ffffffffffffffff821115612b7a57612b79612f65565b5b602082029050602081019050919050565b600067ffffffffffffffff821115612ba657612ba5612f65565b5b612baf82612f94565b9050602081019050919050565b600067ffffffffffffffff821115612bd757612bd6612f65565b5b612be082612f94565b9050602081019050919050565b6000819050602082019050919050565b600081519050919050565b600081519050919050565b600081519050919050565b6000602082019050919050565b600082825260208201905092915050565b600082825260208201905092915050565b600082825260208201905092915050565b600082825260208201905092915050565b600081905092915050565b6000612c8582612d9f565b9150612c9083612d9f565b9250827fffffffffffffffffffffffffffffffffffffffffffffffffffffffffffffffff03821115612cc557612cc4612ed8565b5b828201905092915050565b6000612cdb82612d9f565b9150612ce683612d9f565b925082612cf657612cf5612f07565b5b828204905092915050565b6000612d0c82612d9f565b9150612d1783612d9f565b925082821015612d2a57612d29612ed8565b5b828203905092915050565b6000612d4082612d7f565b9050919050565b60008115159050919050565b60007fffffffff0000000000000000000000000000000000000000000000000000000082169050919050565b600073ffffffffffffffffffffffffffffffffffffffff82169050919050565b6000819050919050565b600063ffffffff82169050919050565b82818337600083830152505050565b60005b83811015612de6578082015181840152602081019050612dcb565b83811115612df5576000848401525b50505050565b60006002820490506001821680612e1357607f821691505b60208210811415612e2757612e26612f36565b5b50919050565b612e3682612f94565b810181811067ffffffffffffffff82111715612e5557612e54612f65565b5b80604052505050565b6000612e6982612d9f565b91507fffffffffffffffffffffffffffffffffffffffffffffffffffffffffffffffff821415612e9c57612e9b612ed8565b5b600182019050919050565b6000612eb282612d9f565b9150612ebd83612d9f565b925082612ecd57612ecc612f07565b5b828206905092915050565b7f4e487b7100000000000000000000000000000000000000000000000000000000600052601160045260246000fd5b7f4e487b7100000000000000000000000000000000000000000000000000000000600052601260045260246000fd5b7f4e487b7100000000000000000000000000000000000000000000000000000000600052602260045260246000fd5b7f4e487b7100000000000000000000000000000000000000000000000000000000600052604160045260246000fd5b6000601f19601f8301169050919050565b7f4552433732313a207472616e7366657220746f206e6f6e20455243373231526560008201527f63656976657220696d706c656d656e7465720000000000000000000000000000602082015250565b7f4552433732313a207472616e736665722066726f6d20696e636f72726563742060008201527f6f776e6572000000000000000000000000000000000000000000000000000000602082015250565b7f4552433732313a20746f6b656e20616c7265616479206d696e74656400000000600082015250565b7f4552433732313a207472616e7366657220746f20746865207a65726f2061646460008201527f7265737300000000000000000000000000000000000000000000000000000000602082015250565b7f4552433732313a20617070726f766520746f2063616c6c657200000000000000600082015250565b7f4552433732313a206f70657261746f7220717565727920666f72206e6f6e657860008201527f697374656e7420746f6b656e0000000000000000000000000000000000000000602082015250565b7f4552433732313a20617070726f76652063616c6c6572206973206e6f74206f7760008201527f6e6572206e6f7220617070726f76656420666f7220616c6c0000000000000000602082015250565b7f4552433732313a2062616c616e636520717565727920666f7220746865207a6560008201527f726f206164647265737300000000000000000000000000000000000000000000602082015250565b7f4552433732313a206f776e657220717565727920666f72206e6f6e657869737460008201527f656e7420746f6b656e0000000000000000000000000000000000000000000000602082015250565b7f4552433732313a206d696e7420746f20746865207a65726f2061646472657373600082015250565b7f4552433732313a20617070726f76656420717565727920666f72206e6f6e657860008201527f697374656e7420746f6b656e0000000000000000000000000000000000000000602082015250565b7f4552433732314d657461646174613a2055524920717565727920666f72206e6f60008201527f6e6578697374656e7420746f6b656e0000000000000000000000000000000000602082015250565b7f4552433732313a20617070726f76616c20746f2063757272656e74206f776e6560008201527f7200000000000000000000000000000000000000000000000000000000000000602082015250565b7f4552433732313a207472616e736665722063616c6c6572206973206e6f74206f60008201527f776e6572206e6f7220617070726f766564000000000000000000000000000000602082015250565b61338e81612d35565b811461339957600080fd5b50565b6133a581612d47565b81146133b057600080fd5b50565b6133bc81612d53565b81146133c757600080fd5b50565b6133d381612d9f565b81146133de57600080fd5b50565b6133ea81612da9565b81146133f557600080fd5b5056fea264697066735822122010e6ee829b5127b75f2e45645d8ed24b444650c8007ce48876c814de702e219f64736f6c63430008010033",
  "immutableReferences": {},
  "source": "// SPDX-License-Identifier: MIT\r\n\r\npragma solidity>=0.5.16;\r\n\r\nimport \"./CarbonFootprint.sol\";\r\nimport \"./Generica.sol\";\r\nimport \"@openzeppelin/contracts/access/Ownable.sol\";\r\n\r\n\r\n\r\ncontract Gestore_nft is Ownable {\r\n\r\n\r\n\r\n\r\n\r\n\r\n    mapping(uint256=>address) public produttori;\r\n    mapping(uint256=>address) public trasformatori;\r\n    mapping(uint256=>address) public clienti;\r\n    uint256 numero_produttori = 0;\r\n    uint256 numero_trasformatori = 0;\r\n    uint256 numero_clienti = 0;\r\n\r\n\r\n    CarbonFootprint carbonFootprint = new CarbonFootprint();\r\n\r\n\r\n    \r\n\r\n\r\n    //funzione con cui il creatore dello smartContract pu aggiungere un nuovo produttore, trasformatore o cliente\r\n    function aggiungiAttore(\r\n        string memory _tipo, address _indirizzo_account\r\n    ) external onlyOwner {\r\n\r\n        require(\r\n            (Generica.stringCompare(_tipo, \"produttore\")) || \r\n            (Generica.stringCompare(_tipo, \"trasformatore\")) || \r\n            (Generica.stringCompare(_tipo, \"cliente\")),\r\n            \"I ruoli disponibili sono: _produttore_ _trasformatore_ e _cliente_\"\r\n            );\r\n\r\n        require(\r\n            nonEsistente(_tipo, _indirizzo_account),\r\n            \"Account gi\\xC3\\xa0 presente con questo ruolo\"\r\n            );\r\n\r\n        if(Generica.stringCompare(_tipo, \"produttore\")) {\r\n            produttori[numero_produttori] = _indirizzo_account;\r\n            numero_produttori++;\r\n        }\r\n\r\n        if(Generica.stringCompare(_tipo, \"trasformatore\")) {\r\n            trasformatori[numero_trasformatori] = _indirizzo_account;\r\n            numero_trasformatori++;\r\n        }\r\n\r\n\r\n        if(Generica.stringCompare(_tipo, \"cliente\")) {\r\n            clienti[numero_clienti] = _indirizzo_account;\r\n            numero_clienti++;\r\n        }\r\n\r\n    }\r\n\r\n\r\n\r\n\r\n\r\n    //crea una materia prima\r\n    function creaMateriaPrima(\r\n        uint256 _id_lotto, uint32 _valore_CO2, string memory _nome\r\n    ) external {\r\n\r\n\r\n        require(!nonEsistente(\"produttore\", msg.sender), \"Solo i produttori possono aggiungere materie prime\");\r\n        require(_id_lotto != 0, \"Id lotto non valido\");\r\n        require(_valore_CO2>0 && _valore_CO2<100, \"Valore di CO2 non valido\");\r\n        require(carbonFootprint.getRisorsaByLotto(_id_lotto).exists==false, \"Id lotto gi\\xC3\\xa0 presente\");\r\n        uint256[] memory vettore_risorse;\r\n        carbonFootprint.creaProdotto(_id_lotto, _valore_CO2, \"materia prima\", msg.sender, vettore_risorse, _nome);\r\n\r\n    }\r\n\r\n\r\n    // consente di trasferire una materia prima o prodotto ad un altro attore\r\n    function trasferimentoMateriaPrima(\r\n        address _destinatario, uint256 _tokenId, address _contract\r\n        ) external {  \r\n             \r\n        require(!nonEsistente(_destinatario), \"L'indirizzo deve appartenere ad un produttore, trasformatre o cliente\");\r\n        carbonFootprint.approve(_contract, _tokenId);\r\n        carbonFootprint.safeTransferFrom(msg.sender, _destinatario, _tokenId);\r\n    }\r\n\r\n\r\n    // crea un nuovo prodotto a partire da una serie di attivit ed una serie di lotti di materie prime\r\n    function creaProdotto(\r\n        string[] memory _nome_attivita, uint32[] memory _CO2_attivita, string memory _nome, uint256[] memory _lotti_materie_prime, uint256 _id_lotto\r\n    ) external {\r\n\r\n        require(carbonFootprint.getRisorsaByLotto(_id_lotto).exists==false, \"Il lotto inserito \\xc3\\xa8 gi\\xC3\\xa0 presente\");\r\n        require(!nonEsistente(\"trasformatore\", msg.sender), \"Solo i trasformatori possono aggiungere un prodotto trasformato\");\r\n        uint32 CO2_totale = 0; \r\n\r\n        // per ogni materia prima controllo se  valida ed utilizzabile, poi sommo i corrispondenti contributi in CO2\r\n        for (uint i=0;i<_lotti_materie_prime.length;i++) {\r\n\r\n            CarbonFootprint.Risorsa memory risorsa = carbonFootprint.getRisorsaByLotto(_lotti_materie_prime[i]);\r\n\r\n\r\n            require(_lotti_materie_prime[i] != 0, \"Il lotto 0 non \\xc3\\xa8 valido\");\r\n            require(getOwnerByToken(risorsa.token)==msg.sender, \"Non sei in possesso della materia prima con lotto\");\r\n            require(Generica.stringCompare(string(risorsa.tipologia),\"materia prima\"),\"L'elemento con id pari a non \\xc3\\xa8 una materia prima\");\r\n\r\n            carbonFootprint.setTipologiaUtilizzato(_lotti_materie_prime[i]);\r\n\r\n            CO2_totale+=risorsa.valore_CO2;\r\n\r\n        }\r\n        \r\n        // per ogni attivit sommo i consumi di CO2\r\n        for (uint i=0;i<_CO2_attivita.length;i++) {  \r\n\r\n            // trasformo in uint256 poi in uint32\r\n            CO2_totale += (_CO2_attivita[i]);\r\n        }\r\n            \r\n        // creo il prodotto passando id del lotto, CO2 totale, tipologia (prodotto trasformato), possessore (chi ha \r\n        // mandato il messaggio), lotti di materie prime utilizzate e nome\r\n        carbonFootprint.creaProdotto(_id_lotto, CO2_totale, \"prodotto trasformato\", msg.sender, _lotti_materie_prime, _nome);\r\n\r\n    }\r\n    \r\n\r\n\r\n\r\n\r\n\r\n    function getOwnerByToken(\r\n        uint256 _token\r\n\r\n    ) public view returns(address) {\r\n    require(_token!=0 && _token<=carbonFootprint.currentToken(), \"Il token inserito non \\xc3\\xa8 valido\"); \r\n           return carbonFootprint.ownerOf(_token);\r\n\r\n    }\r\n\r\n\r\n\r\n\r\n\r\n\r\n    function getInfoByToken(\r\n        uint256 _token\r\n    ) public view returns(string memory, uint32, uint256, string memory, \r\n        uint256[] memory, uint256) {\r\n\r\n        CarbonFootprint.Risorsa memory risorsa = carbonFootprint.getRisorsaByIdProdotto(_token);\r\n        require(_token!=0 && _token<=carbonFootprint.currentToken(), \"Il token inserito non \\xc3\\xa8 valido\");\r\n        return (risorsa.nome, risorsa.valore_CO2, risorsa.lotto,risorsa.tipologia,risorsa.id_materie_prime,risorsa.token);\r\n\r\n    }\r\n\r\n\r\n\r\n    function getInfoByLotto(\r\n        uint256 _lotto\r\n    ) public view returns(string memory, uint32, uint256, string memory, \r\n        uint256[] memory, uint256) {\r\n\r\n        CarbonFootprint.Risorsa memory risorsa = carbonFootprint.getRisorsaByLotto(_lotto);\r\n        require(_lotto!=0 && risorsa.exists!=false, \"Il lotto inserito non \\xc3\\xa8 valido\");\r\n        return (risorsa.nome, risorsa.valore_CO2, risorsa.lotto,risorsa.tipologia,risorsa.id_materie_prime,risorsa.token);\r\n                \r\n    }\r\n\r\n\r\n    function getInfoByNome(\r\n        string memory _nome\r\n    ) public view returns(CarbonFootprint.Risorsa[] memory) {\r\n            \r\n        CarbonFootprint.Risorsa[] memory risorse = new CarbonFootprint.Risorsa[](carbonFootprint.currentToken());\r\n        uint j=0;\r\n        for (uint i=1;i<=carbonFootprint.currentToken();i++) {\r\n            CarbonFootprint.Risorsa memory risorsa_i = carbonFootprint.getRisorsaByIdProdotto(i);\r\n            if(Generica.stringCompare(risorsa_i.nome,_nome)) {\r\n                risorse[j] = risorsa_i;\r\n                j++;\r\n            }\r\n        }\r\n        require(j!=0, \"Nessun prodotto con il nome inserito\");\r\n\r\n        return risorse;\r\n                \r\n    }  \r\n\r\n\r\n    //funzione che verifica che non sia gi presente un account con lo stesso tipo di quello passato\r\n    function nonEsistente(\r\n        string memory _tipo, address _indirizzo_account\r\n    ) private view returns(bool) {\r\n\r\n        if(Generica.stringCompare(_tipo,\"produttore\")) {\r\n            for (uint i;i<numero_produttori;i++) {\r\n                if(_indirizzo_account == produttori[i]) return false;\r\n            }\r\n        }\r\n\r\n        else if(Generica.stringCompare(_tipo, \"trasformatore\")) {\r\n            for (uint i;i<numero_trasformatori;i++) {\r\n                if(_indirizzo_account == trasformatori[i]) return false;\r\n            }\r\n        }\r\n\r\n        else if(Generica.stringCompare(_tipo, \"cliente\")) {\r\n            for (uint i;i<numero_clienti;i++) {\r\n                if(_indirizzo_account == clienti[i]) return false;\r\n            }\r\n        }\r\n\r\n        return true;\r\n\r\n    }\r\n\r\n\r\n\r\n\r\n    function nonEsistente(\r\n        address _indirizzo_account\r\n    ) private view returns(bool) {\r\n\r\n        for (uint i;i<numero_produttori;i++) {\r\n            if(_indirizzo_account == produttori[i]) return false;\r\n        }\r\n\r\n        for (uint i;i<numero_trasformatori;i++) {\r\n            if(_indirizzo_account == trasformatori[i]) return false;\r\n        }\r\n        \r\n\r\n        for (uint i;i<numero_clienti;i++) {\r\n            if(_indirizzo_account == clienti[i]) return false;\r\n        }\r\n\r\n        return true;\r\n    }\r\n\r\n}",
  "sourcePath": "C:\\Windows\\System32\\network\\3-nodes-istanbul-tessera-docker-compose\\contracts\\Gestore_nft.sol",
  "compiler": {
    "name": "solc",
    "version": "0.8.1+commit.df193b15.Emscripten.clang"
  },
  "schemaVersion": "3.4.4",
  "updatedAt": "2022-02-18T00:48:50.736Z",
  "networkType": "quorum",
  "devdoc": {
    "kind": "dev",
    "methods": {
      "owner()": {
        "details": "Returns the address of the current owner."
      },
      "renounceOwnership()": {
        "details": "Leaves the contract without owner. It will not be possible to call `onlyOwner` functions anymore. Can only be called by the current owner. NOTE: Renouncing ownership will leave the contract without an owner, thereby removing any functionality that is only available to the owner."
      },
      "transferOwnership(address)": {
        "details": "Transfers ownership of the contract to a new account (`newOwner`). Can only be called by the current owner."
      }
    },
    "version": 1
  },
  "userdoc": {
    "kind": "user",
    "methods": {},
    "version": 1
  }
}