{
  "contractName": "Gestore_nft",
  "abi": [
    {
      "anonymous": false,
      "inputs": [
        {
          "indexed": true,
          "internalType": "address",
          "name": "previousOwner",
          "type": "address"
        },
        {
          "indexed": true,
          "internalType": "address",
          "name": "newOwner",
          "type": "address"
        }
      ],
      "name": "OwnershipTransferred",
      "type": "event"
    },
    {
      "inputs": [
        {
          "internalType": "uint256",
          "name": "",
          "type": "uint256"
        }
      ],
      "name": "clienti",
      "outputs": [
        {
          "internalType": "address",
          "name": "",
          "type": "address"
        }
      ],
      "stateMutability": "view",
      "type": "function",
      "constant": true
    },
    {
      "inputs": [],
      "name": "owner",
      "outputs": [
        {
          "internalType": "address",
          "name": "",
          "type": "address"
        }
      ],
      "stateMutability": "view",
      "type": "function",
      "constant": true
    },
    {
      "inputs": [
        {
          "internalType": "uint256",
          "name": "",
          "type": "uint256"
        }
      ],
      "name": "produttori",
      "outputs": [
        {
          "internalType": "address",
          "name": "",
          "type": "address"
        }
      ],
      "stateMutability": "view",
      "type": "function",
      "constant": true
    },
    {
      "inputs": [],
      "name": "renounceOwnership",
      "outputs": [],
      "stateMutability": "nonpayable",
      "type": "function"
    },
    {
      "inputs": [
        {
          "internalType": "address",
          "name": "newOwner",
          "type": "address"
        }
      ],
      "name": "transferOwnership",
      "outputs": [],
      "stateMutability": "nonpayable",
      "type": "function"
    },
    {
      "inputs": [
        {
          "internalType": "uint256",
          "name": "",
          "type": "uint256"
        }
      ],
      "name": "trasformatori",
      "outputs": [
        {
          "internalType": "address",
          "name": "",
          "type": "address"
        }
      ],
      "stateMutability": "view",
      "type": "function",
      "constant": true
    },
    {
      "inputs": [
        {
          "internalType": "string",
          "name": "_tipo",
          "type": "string"
        },
        {
          "internalType": "address",
          "name": "_indirizzo_account",
          "type": "address"
        }
      ],
      "name": "aggiungiAttore",
      "outputs": [],
      "stateMutability": "nonpayable",
      "type": "function"
    },
    {
      "inputs": [
        {
          "internalType": "uint256",
          "name": "_id_lotto",
          "type": "uint256"
        },
        {
          "internalType": "uint32",
          "name": "_valore_CO2",
          "type": "uint32"
        },
        {
          "internalType": "string",
          "name": "_nome",
          "type": "string"
        }
      ],
      "name": "creaMateriaPrima",
      "outputs": [],
      "stateMutability": "nonpayable",
      "type": "function"
    },
    {
      "inputs": [
        {
          "internalType": "address",
          "name": "_destinatario",
          "type": "address"
        },
        {
          "internalType": "uint256",
          "name": "_tokenId",
          "type": "uint256"
        },
        {
          "internalType": "address",
          "name": "_contract",
          "type": "address"
        }
      ],
      "name": "trasferimentoMateriaPrima",
      "outputs": [],
      "stateMutability": "nonpayable",
      "type": "function"
    },
    {
      "inputs": [
        {
          "internalType": "string[]",
          "name": "_nome_attivita",
          "type": "string[]"
        },
        {
          "internalType": "uint32[]",
          "name": "_CO2_attivita",
          "type": "uint32[]"
        },
        {
          "internalType": "string",
          "name": "_nome",
          "type": "string"
        },
        {
          "internalType": "uint256[]",
          "name": "_lotti_materie_prime",
          "type": "uint256[]"
        },
        {
          "internalType": "uint256",
          "name": "_id_lotto",
          "type": "uint256"
        }
      ],
      "name": "creaProdotto",
      "outputs": [],
      "stateMutability": "nonpayable",
      "type": "function"
    },
    {
      "inputs": [
        {
          "internalType": "uint256",
          "name": "_token",
          "type": "uint256"
        }
      ],
      "name": "getOwnerByToken",
      "outputs": [
        {
          "internalType": "address",
          "name": "",
          "type": "address"
        }
      ],
      "stateMutability": "view",
      "type": "function",
      "constant": true
    },
    {
      "inputs": [
        {
          "internalType": "uint256",
          "name": "_token",
          "type": "uint256"
        }
      ],
      "name": "getInfoByToken",
      "outputs": [
        {
          "internalType": "string",
          "name": "",
          "type": "string"
        },
        {
          "internalType": "uint256",
          "name": "",
          "type": "uint256"
        },
        {
          "internalType": "uint32",
          "name": "",
          "type": "uint32"
        },
        {
          "internalType": "string",
          "name": "",
          "type": "string"
        },
        {
          "internalType": "uint256[]",
          "name": "",
          "type": "uint256[]"
        },
        {
          "internalType": "uint256",
          "name": "",
          "type": "uint256"
        }
      ],
      "stateMutability": "view",
      "type": "function",
      "constant": true
    },
    {
      "inputs": [
        {
          "internalType": "uint256",
          "name": "_lotto",
          "type": "uint256"
        }
      ],
      "name": "getInfoByLotto",
      "outputs": [
        {
          "internalType": "string",
          "name": "",
          "type": "string"
        },
        {
          "internalType": "uint256",
          "name": "",
          "type": "uint256"
        },
        {
          "internalType": "uint32",
          "name": "",
          "type": "uint32"
        },
        {
          "internalType": "string",
          "name": "",
          "type": "string"
        },
        {
          "internalType": "uint256[]",
          "name": "",
          "type": "uint256[]"
        },
        {
          "internalType": "uint256",
          "name": "",
          "type": "uint256"
        }
      ],
      "stateMutability": "view",
      "type": "function",
      "constant": true
    },
    {
      "inputs": [
        {
          "internalType": "string",
          "name": "_nome",
          "type": "string"
        }
      ],
      "name": "getInfoByNome",
      "outputs": [
        {
          "components": [
            {
              "internalType": "string",
              "name": "nome",
              "type": "string"
            },
            {
              "internalType": "uint256",
              "name": "lotto",
              "type": "uint256"
            },
            {
              "internalType": "uint32",
              "name": "valore_CO2",
              "type": "uint32"
            },
            {
              "internalType": "string",
              "name": "tipologia",
              "type": "string"
            },
            {
              "internalType": "uint256[]",
              "name": "id_materie_prime",
              "type": "uint256[]"
            },
            {
              "internalType": "uint256",
              "name": "token",
              "type": "uint256"
            },
            {
              "internalType": "bool",
              "name": "exists",
              "type": "bool"
            }
          ],
          "internalType": "struct CarbonFootprint.Risorsa[]",
          "name": "",
          "type": "tuple[]"
        }
      ],
      "stateMutability": "view",
      "type": "function",
      "constant": true
    },
    {
      "inputs": [
        {
          "internalType": "string",
          "name": "_tipo",
          "type": "string"
        },
        {
          "internalType": "address",
          "name": "_indirizzo_account",
          "type": "address"
        }
      ],
      "name": "nonEsistente",
      "outputs": [
        {
          "internalType": "bool",
          "name": "",
          "type": "bool"
        }
      ],
      "stateMutability": "view",
      "type": "function",
      "constant": true
    }
  ],
  "bytecode": "0x608060405260006004556000600555600060065560405162000021906200017f565b604051809103906000f0801580156200003e573d6000803e3d6000fd5b50600760006101000a81548173ffffffffffffffffffffffffffffffffffffffff021916908373ffffffffffffffffffffffffffffffffffffffff1602179055503480156200008c57600080fd5b50620000ad620000a1620000b360201b60201c565b620000bb60201b60201c565b6200018d565b600033905090565b60008060009054906101000a900473ffffffffffffffffffffffffffffffffffffffff169050816000806101000a81548173ffffffffffffffffffffffffffffffffffffffff021916908373ffffffffffffffffffffffffffffffffffffffff1602179055508173ffffffffffffffffffffffffffffffffffffffff168173ffffffffffffffffffffffffffffffffffffffff167f8be0079c531659141344cd1fd0a4f28419497f9722a3daafe3b4186f6b6457e060405160405180910390a35050565b61360b80620042d783390190565b61413a806200019d6000396000f3fe608060405234801561001057600080fd5b50600436106100f55760003560e01c80638da5cb5b11610097578063e7ddd4ea11610066578063e7ddd4ea1461028c578063eb2cc752146102bc578063f2fde38b146102ec578063f6f9d05514610308576100f5565b80638da5cb5b1461020657806399213e27146102245780639b1414c014610240578063ae6c17f31461025c576100f5565b8063602ef7ed116100d3578063602ef7ed1461018f578063715018a6146101ab578063789ce91f146101b55780637f824152146101ea576100f5565b80631896a5af146100fa57806320cf45f81461012a5780634e3bb97c1461015f575b600080fd5b610114600480360381019061010f9190612bad565b610338565b60405161012191906132a6565b60405180910390f35b610144600480360381019061013f9190612bad565b61036b565b60405161015696959493929190613469565b60405180910390f35b61017960048036038101906101749190612b18565b6104b5565b6040516101869190613343565b60405180910390f35b6101a960048036038101906101a49190612988565b610829565b005b6101b3610997565b005b6101cf60048036038101906101ca9190612bad565b610a1f565b6040516101e196959493929190613469565b60405180910390f35b61020460048036038101906101ff91906129d7565b610bff565b005b61020e611261565b60405161021b91906132a6565b60405180910390f35b61023e60048036038101906102399190612bff565b61128a565b005b61025a60048036038101906102559190612b18565b611560565b005b61027660048036038101906102719190612ad7565b611af6565b6040516102839190613321565b60405180910390f35b6102a660048036038101906102a19190612bad565b611ec0565b6040516102b391906132a6565b60405180910390f35b6102d660048036038101906102d19190612bad565b612062565b6040516102e391906132a6565b60405180910390f35b61030660048036038101906103019190612936565b612095565b005b610322600480360381019061031d9190612bad565b61218d565b60405161032f91906132a6565b60405180910390f35b60026020528060005260406000206000915054906101000a900473ffffffffffffffffffffffffffffffffffffffff1681565b6060600080606080600080600760009054906101000a900473ffffffffffffffffffffffffffffffffffffffff1673ffffffffffffffffffffffffffffffffffffffff166372f74f43896040518263ffffffff1660e01b81526004016103d191906136ff565b60006040518083038186803b1580156103e957600080fd5b505afa1580156103fd573d6000803e3d6000fd5b505050506040513d6000823e3d601f19601f820116820180604052508101906104269190612b6c565b9050600088141580156104425750600015158160c00151151514155b610481576040517f08c379a00000000000000000000000000000000000000000000000000000000081526004016104789061353f565b60405180910390fd5b806000015181602001518260400151836060015184608001518560a001519650965096509650965096505091939550919395565b600073__Generica______________________________6360353db9846040518263ffffffff1660e01b81526004016104ee9190613395565b60206040518083038186803b15801561050657600080fd5b505af415801561051a573d6000803e3d6000fd5b505050506040513d601f19601f8201168201806040525081019061053e9190612aae565b156105da5760005b6004548110156105d4576001600082815260200190815260200160002060009054906101000a900473ffffffffffffffffffffffffffffffffffffffff1673ffffffffffffffffffffffffffffffffffffffff168373ffffffffffffffffffffffffffffffffffffffff1614156105c1576000915050610823565b80806105cc90613aa2565b915050610546565b5061081e565b73__Generica______________________________6360353db9846040518263ffffffff1660e01b815260040161061191906133ca565b60206040518083038186803b15801561062957600080fd5b505af415801561063d573d6000803e3d6000fd5b505050506040513d601f19601f820116820180604052508101906106619190612aae565b156106fd5760005b6005548110156106f7576002600082815260200190815260200160002060009054906101000a900473ffffffffffffffffffffffffffffffffffffffff1673ffffffffffffffffffffffffffffffffffffffff168373ffffffffffffffffffffffffffffffffffffffff1614156106e4576000915050610823565b80806106ef90613aa2565b915050610669565b5061081d565b73__Generica______________________________6360353db9846040518263ffffffff1660e01b815260040161073491906133ff565b60206040518083038186803b15801561074c57600080fd5b505af4158015610760573d6000803e3d6000fd5b505050506040513d601f19601f820116820180604052508101906107849190612aae565b1561081c5760005b60065481101561081a576003600082815260200190815260200160002060009054906101000a900473ffffffffffffffffffffffffffffffffffffffff1673ffffffffffffffffffffffffffffffffffffffff168373ffffffffffffffffffffffffffffffffffffffff161415610807576000915050610823565b808061081290613aa2565b91505061078c565b505b5b5b600190505b92915050565b610832836121c0565b15610872576040517f08c379a00000000000000000000000000000000000000000000000000000000081526004016108699061361f565b60405180910390fd5b600760009054906101000a900473ffffffffffffffffffffffffffffffffffffffff1673ffffffffffffffffffffffffffffffffffffffff1663095ea7b382846040518363ffffffff1660e01b81526004016108cf9291906132f8565b600060405180830381600087803b1580156108e957600080fd5b505af11580156108fd573d6000803e3d6000fd5b50505050600760009054906101000a900473ffffffffffffffffffffffffffffffffffffffff1673ffffffffffffffffffffffffffffffffffffffff166342842e0e3385856040518463ffffffff1660e01b8152600401610960939291906132c1565b600060405180830381600087803b15801561097a57600080fd5b505af115801561098e573d6000803e3d6000fd5b50505050505050565b61099f612381565b73ffffffffffffffffffffffffffffffffffffffff166109bd611261565b73ffffffffffffffffffffffffffffffffffffffff1614610a13576040517f08c379a0000000000000000000000000000000000000000000000000000000008152600401610a0a9061367f565b60405180910390fd5b610a1d6000612389565b565b6060600080606080600080600760009054906101000a900473ffffffffffffffffffffffffffffffffffffffff1673ffffffffffffffffffffffffffffffffffffffff166378e1fa8f896040518263ffffffff1660e01b8152600401610a8591906136ff565b60006040518083038186803b158015610a9d57600080fd5b505afa158015610ab1573d6000803e3d6000fd5b505050506040513d6000823e3d601f19601f82011682018060405250810190610ada9190612b6c565b905060008814158015610b8c5750600760009054906101000a900473ffffffffffffffffffffffffffffffffffffffff1673ffffffffffffffffffffffffffffffffffffffff1663836c081d6040518163ffffffff1660e01b815260040160206040518083038186803b158015610b5057600080fd5b505afa158015610b64573d6000803e3d6000fd5b505050506040513d601f19601f82011682018060405250810190610b889190612bd6565b8811155b610bcb576040517f08c379a0000000000000000000000000000000000000000000000000000000008152600401610bc2906134df565b60405180910390fd5b806000015181602001518260400151836060015184608001518560a001519650965096509650965096505091939550919395565b60001515600760009054906101000a900473ffffffffffffffffffffffffffffffffffffffff1673ffffffffffffffffffffffffffffffffffffffff166372f74f43836040518263ffffffff1660e01b8152600401610c5e91906136ff565b60006040518083038186803b158015610c7657600080fd5b505afa158015610c8a573d6000803e3d6000fd5b505050506040513d6000823e3d601f19601f82011682018060405250810190610cb39190612b6c565b60c00151151514610cf9576040517f08c379a0000000000000000000000000000000000000000000000000000000008152600401610cf0906135df565b60405180910390fd5b610d386040518060400160405280600d81526020017f74726173666f726d61746f726500000000000000000000000000000000000000815250336104b5565b15610d78576040517f08c379a0000000000000000000000000000000000000000000000000000000008152600401610d6f906136bf565b60405180910390fd5b6000805b8351811015611134576000600760009054906101000a900473ffffffffffffffffffffffffffffffffffffffff1673ffffffffffffffffffffffffffffffffffffffff166372f74f43868481518110610dfe577f4e487b7100000000000000000000000000000000000000000000000000000000600052603260045260246000fd5b60200260200101516040518263ffffffff1660e01b8152600401610e2291906136ff565b60006040518083038186803b158015610e3a57600080fd5b505afa158015610e4e573d6000803e3d6000fd5b505050506040513d6000823e3d601f19601f82011682018060405250810190610e779190612b6c565b90506000858381518110610eb4577f4e487b7100000000000000000000000000000000000000000000000000000000600052603260045260246000fd5b60200260200101511415610efd576040517f08c379a0000000000000000000000000000000000000000000000000000000008152600401610ef49061359f565b60405180910390fd5b3373ffffffffffffffffffffffffffffffffffffffff16610f218260a00151611ec0565b73ffffffffffffffffffffffffffffffffffffffff1614610f77576040517f08c379a0000000000000000000000000000000000000000000000000000000008152600401610f6e9061355f565b60405180910390fd5b73__Generica______________________________6360353db982606001516040518263ffffffff1660e01b8152600401610fb29190613434565b60206040518083038186803b158015610fca57600080fd5b505af4158015610fde573d6000803e3d6000fd5b505050506040513d601f19601f820116820180604052508101906110029190612aae565b611041576040517f08c379a00000000000000000000000000000000000000000000000000000000081526004016110389061363f565b60405180910390fd5b600760009054906101000a900473ffffffffffffffffffffffffffffffffffffffff1673ffffffffffffffffffffffffffffffffffffffff1663b3157ba68684815181106110b8577f4e487b7100000000000000000000000000000000000000000000000000000000600052603260045260246000fd5b60200260200101516040518263ffffffff1660e01b81526004016110dc91906136ff565b600060405180830381600087803b1580156110f657600080fd5b505af115801561110a573d6000803e3d6000fd5b5050505080604001518361111e919061399d565b925050808061112c90613aa2565b915050610d7c565b5060005b85518110156111a25785818151811061117a577f4e487b7100000000000000000000000000000000000000000000000000000000600052603260045260246000fd5b60200260200101518261118d919061399d565b9150808061119a90613aa2565b915050611138565b50600760009054906101000a900473ffffffffffffffffffffffffffffffffffffffff1673ffffffffffffffffffffffffffffffffffffffff1663eb3b583683833387896040518663ffffffff1660e01b815260040161120695949392919061371a565b602060405180830381600087803b15801561122057600080fd5b505af1158015611234573d6000803e3d6000fd5b505050506040513d601f19601f820116820180604052508101906112589190612bd6565b50505050505050565b60008060009054906101000a900473ffffffffffffffffffffffffffffffffffffffff16905090565b6112c96040518060400160405280600a81526020017f70726f647574746f726500000000000000000000000000000000000000000000815250336104b5565b15611309576040517f08c379a0000000000000000000000000000000000000000000000000000000008152600401611300906136df565b60405180910390fd5b600083141561134d576040517f08c379a0000000000000000000000000000000000000000000000000000000008152600401611344906135bf565b60405180910390fd5b60008263ffffffff16118015611369575060648263ffffffff16105b6113a8576040517f08c379a000000000000000000000000000000000000000000000000000000000815260040161139f9061365f565b60405180910390fd5b60001515600760009054906101000a900473ffffffffffffffffffffffffffffffffffffffff1673ffffffffffffffffffffffffffffffffffffffff166372f74f43856040518263ffffffff1660e01b815260040161140791906136ff565b60006040518083038186803b15801561141f57600080fd5b505afa158015611433573d6000803e3d6000fd5b505050506040513d6000823e3d601f19601f8201168201806040525081019061145c9190612b6c565b60c001511515146114a2576040517f08c379a0000000000000000000000000000000000000000000000000000000008152600401611499906135ff565b60405180910390fd5b6060600760009054906101000a900473ffffffffffffffffffffffffffffffffffffffff1673ffffffffffffffffffffffffffffffffffffffff1663eb3b583685853385876040518663ffffffff1660e01b815260040161150795949392919061378e565b602060405180830381600087803b15801561152157600080fd5b505af1158015611535573d6000803e3d6000fd5b505050506040513d601f19601f820116820180604052508101906115599190612bd6565b5050505050565b611568612381565b73ffffffffffffffffffffffffffffffffffffffff16611586611261565b73ffffffffffffffffffffffffffffffffffffffff16146115dc576040517f08c379a00000000000000000000000000000000000000000000000000000000081526004016115d39061367f565b60405180910390fd5b73__Generica______________________________6360353db9836040518263ffffffff1660e01b81526004016116139190613395565b60206040518083038186803b15801561162b57600080fd5b505af415801561163f573d6000803e3d6000fd5b505050506040513d601f19601f820116820180604052508101906116639190612aae565b806116f1575073__Generica______________________________6360353db9836040518263ffffffff1660e01b81526004016116a091906133ca565b60206040518083038186803b1580156116b857600080fd5b505af41580156116cc573d6000803e3d6000fd5b505050506040513d601f19601f820116820180604052508101906116f09190612aae565b5b8061177f575073__Generica______________________________6360353db9836040518263ffffffff1660e01b815260040161172e91906133ff565b60206040518083038186803b15801561174657600080fd5b505af415801561175a573d6000803e3d6000fd5b505050506040513d601f19601f8201168201806040525081019061177e9190612aae565b5b6117be576040517f08c379a00000000000000000000000000000000000000000000000000000000081526004016117b59061351f565b60405180910390fd5b6117c882826104b5565b611807576040517f08c379a00000000000000000000000000000000000000000000000000000000081526004016117fe9061369f565b60405180910390fd5b73__Generica______________________________6360353db9836040518263ffffffff1660e01b815260040161183e9190613395565b60206040518083038186803b15801561185657600080fd5b505af415801561186a573d6000803e3d6000fd5b505050506040513d601f19601f8201168201806040525081019061188e9190612aae565b15611900578060016000600454815260200190815260200160002060006101000a81548173ffffffffffffffffffffffffffffffffffffffff021916908373ffffffffffffffffffffffffffffffffffffffff160217905550600460008154809291906118fa90613aa2565b91905055505b73__Generica______________________________6360353db9836040518263ffffffff1660e01b815260040161193791906133ca565b60206040518083038186803b15801561194f57600080fd5b505af4158015611963573d6000803e3d6000fd5b505050506040513d601f19601f820116820180604052508101906119879190612aae565b156119f9578060026000600554815260200190815260200160002060006101000a81548173ffffffffffffffffffffffffffffffffffffffff021916908373ffffffffffffffffffffffffffffffffffffffff160217905550600560008154809291906119f390613aa2565b91905055505b73__Generica______________________________6360353db9836040518263ffffffff1660e01b8152600401611a3091906133ff565b60206040518083038186803b158015611a4857600080fd5b505af4158015611a5c573d6000803e3d6000fd5b505050506040513d601f19601f82011682018060405250810190611a809190612aae565b15611af2578060036000600654815260200190815260200160002060006101000a81548173ffffffffffffffffffffffffffffffffffffffff021916908373ffffffffffffffffffffffffffffffffffffffff16021790555060066000815480929190611aec90613aa2565b91905055505b5050565b60606000600760009054906101000a900473ffffffffffffffffffffffffffffffffffffffff1673ffffffffffffffffffffffffffffffffffffffff1663836c081d6040518163ffffffff1660e01b815260040160206040518083038186803b158015611b6257600080fd5b505afa158015611b76573d6000803e3d6000fd5b505050506040513d601f19601f82011682018060405250810190611b9a9190612bd6565b67ffffffffffffffff811115611bd9577f4e487b7100000000000000000000000000000000000000000000000000000000600052604160045260246000fd5b604051908082528060200260200182016040528015611c1257816020015b611bff61244d565b815260200190600190039081611bf75790505b509050600080600190505b600760009054906101000a900473ffffffffffffffffffffffffffffffffffffffff1673ffffffffffffffffffffffffffffffffffffffff1663836c081d6040518163ffffffff1660e01b815260040160206040518083038186803b158015611c8557600080fd5b505afa158015611c99573d6000803e3d6000fd5b505050506040513d601f19601f82011682018060405250810190611cbd9190612bd6565b8111611e71576000600760009054906101000a900473ffffffffffffffffffffffffffffffffffffffff1673ffffffffffffffffffffffffffffffffffffffff166378e1fa8f836040518263ffffffff1660e01b8152600401611d2091906136ff565b60006040518083038186803b158015611d3857600080fd5b505afa158015611d4c573d6000803e3d6000fd5b505050506040513d6000823e3d601f19601f82011682018060405250810190611d759190612b6c565b905073__Generica______________________________6360353db98260000151886040518363ffffffff1660e01b8152600401611db492919061335e565b60206040518083038186803b158015611dcc57600080fd5b505af4158015611de0573d6000803e3d6000fd5b505050506040513d601f19601f82011682018060405250810190611e049190612aae565b15611e5d5780848481518110611e43577f4e487b7100000000000000000000000000000000000000000000000000000000600052603260045260246000fd5b60200260200101819052508280611e5990613aa2565b9350505b508080611e6990613aa2565b915050611c1d565b506000811415611eb6576040517f08c379a0000000000000000000000000000000000000000000000000000000008152600401611ead906134ff565b60405180910390fd5b8192505050919050565b6000808214158015611f715750600760009054906101000a900473ffffffffffffffffffffffffffffffffffffffff1673ffffffffffffffffffffffffffffffffffffffff1663836c081d6040518163ffffffff1660e01b815260040160206040518083038186803b158015611f3557600080fd5b505afa158015611f49573d6000803e3d6000fd5b505050506040513d601f19601f82011682018060405250810190611f6d9190612bd6565b8211155b611fb0576040517f08c379a0000000000000000000000000000000000000000000000000000000008152600401611fa7906134df565b60405180910390fd5b600760009054906101000a900473ffffffffffffffffffffffffffffffffffffffff1673ffffffffffffffffffffffffffffffffffffffff16636352211e836040518263ffffffff1660e01b815260040161200b91906136ff565b60206040518083038186803b15801561202357600080fd5b505afa158015612037573d6000803e3d6000fd5b505050506040513d601f19601f8201168201806040525081019061205b919061295f565b9050919050565b60016020528060005260406000206000915054906101000a900473ffffffffffffffffffffffffffffffffffffffff1681565b61209d612381565b73ffffffffffffffffffffffffffffffffffffffff166120bb611261565b73ffffffffffffffffffffffffffffffffffffffff1614612111576040517f08c379a00000000000000000000000000000000000000000000000000000000081526004016121089061367f565b60405180910390fd5b600073ffffffffffffffffffffffffffffffffffffffff168173ffffffffffffffffffffffffffffffffffffffff161415612181576040517f08c379a00000000000000000000000000000000000000000000000000000000081526004016121789061357f565b60405180910390fd5b61218a81612389565b50565b60036020528060005260406000206000915054906101000a900473ffffffffffffffffffffffffffffffffffffffff1681565b6000805b600454811015612252576001600082815260200190815260200160002060009054906101000a900473ffffffffffffffffffffffffffffffffffffffff1673ffffffffffffffffffffffffffffffffffffffff168373ffffffffffffffffffffffffffffffffffffffff16141561223f57600091505061237c565b808061224a90613aa2565b9150506121c4565b5060005b6005548110156122e4576002600082815260200190815260200160002060009054906101000a900473ffffffffffffffffffffffffffffffffffffffff1673ffffffffffffffffffffffffffffffffffffffff168373ffffffffffffffffffffffffffffffffffffffff1614156122d157600091505061237c565b80806122dc90613aa2565b915050612256565b5060005b600654811015612376576003600082815260200190815260200160002060009054906101000a900473ffffffffffffffffffffffffffffffffffffffff1673ffffffffffffffffffffffffffffffffffffffff168373ffffffffffffffffffffffffffffffffffffffff16141561236357600091505061237c565b808061236e90613aa2565b9150506122e8565b50600190505b919050565b600033905090565b60008060009054906101000a900473ffffffffffffffffffffffffffffffffffffffff169050816000806101000a81548173ffffffffffffffffffffffffffffffffffffffff021916908373ffffffffffffffffffffffffffffffffffffffff1602179055508173ffffffffffffffffffffffffffffffffffffffff168173ffffffffffffffffffffffffffffffffffffffff167f8be0079c531659141344cd1fd0a4f28419497f9722a3daafe3b4186f6b6457e060405160405180910390a35050565b6040518060e001604052806060815260200160008152602001600063ffffffff1681526020016060815260200160608152602001600081526020016000151581525090565b60006124a56124a084613827565b613802565b9050808382526020820190508260005b858110156124e557813585016124cb8882612796565b8452602084019350602083019250506001810190506124b5565b5050509392505050565b60006125026124fd84613853565b613802565b9050808382526020820190508285602086028201111561252157600080fd5b60005b85811015612551578161253788826128e2565b845260208401935060208301925050600181019050612524565b5050509392505050565b600061256e61256984613853565b613802565b9050808382526020820190508285602086028201111561258d57600080fd5b60005b858110156125bd57816125a388826128f7565b845260208401935060208301925050600181019050612590565b5050509392505050565b60006125da6125d58461387f565b613802565b905080838252602082019050828560208602820111156125f957600080fd5b60005b85811015612629578161260f888261290c565b8452602084019350602083019250506001810190506125fc565b5050509392505050565b6000612646612641846138ab565b613802565b90508281526020810184848401111561265e57600080fd5b612669848285613a2f565b509392505050565b600061268461267f846138ab565b613802565b90508281526020810184848401111561269c57600080fd5b6126a7848285613a3e565b509392505050565b6000813590506126be816140a8565b92915050565b6000815190506126d3816140a8565b92915050565b600082601f8301126126ea57600080fd5b81356126fa848260208601612492565b91505092915050565b600082601f83011261271457600080fd5b81356127248482602086016124ef565b91505092915050565b600082601f83011261273e57600080fd5b815161274e84826020860161255b565b91505092915050565b600082601f83011261276857600080fd5b81356127788482602086016125c7565b91505092915050565b600081519050612790816140bf565b92915050565b600082601f8301126127a757600080fd5b81356127b7848260208601612633565b91505092915050565b600082601f8301126127d157600080fd5b81516127e1848260208601612671565b91505092915050565b600060e082840312156127fc57600080fd5b61280660e0613802565b9050600082015167ffffffffffffffff81111561282257600080fd5b61282e848285016127c0565b6000830152506020612842848285016128f7565b602083015250604061285684828501612921565b604083015250606082015167ffffffffffffffff81111561287657600080fd5b612882848285016127c0565b606083015250608082015167ffffffffffffffff8111156128a257600080fd5b6128ae8482850161272d565b60808301525060a06128c2848285016128f7565b60a08301525060c06128d684828501612781565b60c08301525092915050565b6000813590506128f1816140d6565b92915050565b600081519050612906816140d6565b92915050565b60008135905061291b816140ed565b92915050565b600081519050612930816140ed565b92915050565b60006020828403121561294857600080fd5b6000612956848285016126af565b91505092915050565b60006020828403121561297157600080fd5b600061297f848285016126c4565b91505092915050565b60008060006060848603121561299d57600080fd5b60006129ab868287016126af565b93505060206129bc868287016128e2565b92505060406129cd868287016126af565b9150509250925092565b600080600080600060a086880312156129ef57600080fd5b600086013567ffffffffffffffff811115612a0957600080fd5b612a15888289016126d9565b955050602086013567ffffffffffffffff811115612a3257600080fd5b612a3e88828901612757565b945050604086013567ffffffffffffffff811115612a5b57600080fd5b612a6788828901612796565b935050606086013567ffffffffffffffff811115612a8457600080fd5b612a9088828901612703565b9250506080612aa1888289016128e2565b9150509295509295909350565b600060208284031215612ac057600080fd5b6000612ace84828501612781565b91505092915050565b600060208284031215612ae957600080fd5b600082013567ffffffffffffffff811115612b0357600080fd5b612b0f84828501612796565b91505092915050565b60008060408385031215612b2b57600080fd5b600083013567ffffffffffffffff811115612b4557600080fd5b612b5185828601612796565b9250506020612b62858286016126af565b9150509250929050565b600060208284031215612b7e57600080fd5b600082015167ffffffffffffffff811115612b9857600080fd5b612ba4848285016127ea565b91505092915050565b600060208284031215612bbf57600080fd5b6000612bcd848285016128e2565b91505092915050565b600060208284031215612be857600080fd5b6000612bf6848285016128f7565b91505092915050565b600080600060608486031215612c1457600080fd5b6000612c22868287016128e2565b9350506020612c338682870161290c565b925050604084013567ffffffffffffffff811115612c5057600080fd5b612c5c86828701612796565b9150509250925092565b6000612c7283836131c0565b905092915050565b6000612c86838361326a565b60208301905092915050565b612c9b816139d7565b82525050565b6000612cac826138fc565b612cb68185613937565b935083602082028501612cc8856138dc565b8060005b85811015612d045784840389528151612ce58582612c66565b9450612cf08361391d565b925060208a01995050600181019050612ccc565b50829750879550505050505092915050565b6000612d2182613907565b612d2b8185613948565b9350612d36836138ec565b8060005b83811015612d67578151612d4e8882612c7a565b9750612d598361392a565b925050600181019050612d3a565b5085935050505092915050565b6000612d7f82613907565b612d898185613959565b9350612d94836138ec565b8060005b83811015612dc5578151612dac8882612c7a565b9750612db78361392a565b925050600181019050612d98565b5085935050505092915050565b612ddb816139e9565b82525050565b612dea816139e9565b82525050565b6000612dfb82613912565b612e05818561396a565b9350612e15818560208601613a3e565b612e1e81613b49565b840191505092915050565b6000612e3482613912565b612e3e818561397b565b9350612e4e818560208601613a3e565b612e5781613b49565b840191505092915050565b6000612e6d82613912565b612e77818561398c565b9350612e87818560208601613a3e565b612e9081613b49565b840191505092915050565b6000612ea8601f8361397b565b9150612eb382613b5a565b602082019050919050565b6000612ecb60248361397b565b9150612ed682613b83565b604082019050919050565b6000612eee60428361397b565b9150612ef982613bd2565b606082019050919050565b6000612f11601f8361397b565b9150612f1c82613c47565b602082019050919050565b6000612f3460318361397b565b9150612f3f82613c70565b604082019050919050565b6000612f5760268361397b565b9150612f6282613cbf565b604082019050919050565b6000612f7a60188361397b565b9150612f8582613d0e565b602082019050919050565b6000612f9d60138361397b565b9150612fa882613d37565b602082019050919050565b6000612fc0600a8361398c565b9150612fcb82613d60565b602082019050919050565b6000612fe360228361397b565b9150612fee82613d89565b604082019050919050565b600061300660168361397b565b915061301182613dd8565b602082019050919050565b600061302960458361397b565b915061303482613e01565b606082019050919050565b600061304c60318361397b565b915061305782613e76565b604082019050919050565b600061306f60188361397b565b915061307a82613ec5565b602082019050919050565b600061309260208361397b565b915061309d82613eee565b602082019050919050565b60006130b560148361397b565b91506130c082613f17565b602082019050919050565b60006130d860268361397b565b91506130e382613f40565b604082019050919050565b60006130fb603f8361397b565b915061310682613f8f565b604082019050919050565b600061311e600d8361398c565b915061312982613fde565b602082019050919050565b600061314160328361397b565b915061314c82614007565b604082019050919050565b600061316460078361398c565b915061316f82614056565b602082019050919050565b6000613187600d8361397b565b91506131928261407f565b602082019050919050565b60006131aa600d8361398c565b91506131b58261407f565b602082019050919050565b600060e08301600083015184820360008601526131dd8282612df0565b91505060208301516131f2602086018261326a565b5060408301516132056040860182613288565b506060830151848203606086015261321d8282612df0565b915050608083015184820360808601526132378282612d16565b91505060a083015161324c60a086018261326a565b5060c083015161325f60c0860182612dd2565b508091505092915050565b61327381613a15565b82525050565b61328281613a15565b82525050565b61329181613a1f565b82525050565b6132a081613a1f565b82525050565b60006020820190506132bb6000830184612c92565b92915050565b60006060820190506132d66000830186612c92565b6132e36020830185612c92565b6132f06040830184613279565b949350505050565b600060408201905061330d6000830185612c92565b61331a6020830184613279565b9392505050565b6000602082019050818103600083015261333b8184612ca1565b905092915050565b60006020820190506133586000830184612de1565b92915050565b600060408201905081810360008301526133788185612e62565b9050818103602083015261338c8184612e62565b90509392505050565b600060408201905081810360008301526133af8184612e62565b905081810360208301526133c281612fb3565b905092915050565b600060408201905081810360008301526133e48184612e62565b905081810360208301526133f781613111565b905092915050565b600060408201905081810360008301526134198184612e62565b9050818103602083015261342c81613157565b905092915050565b6000604082019050818103600083015261344e8184612e62565b905081810360208301526134618161319d565b905092915050565b600060c08201905081810360008301526134838189612e29565b90506134926020830188613279565b61349f6040830187613297565b81810360608301526134b18186612e29565b905081810360808301526134c58185612d74565b90506134d460a0830184613279565b979650505050505050565b600060208201905081810360008301526134f881612e9b565b9050919050565b6000602082019050818103600083015261351881612ebe565b9050919050565b6000602082019050818103600083015261353881612ee1565b9050919050565b6000602082019050818103600083015261355881612f04565b9050919050565b6000602082019050818103600083015261357881612f27565b9050919050565b6000602082019050818103600083015261359881612f4a565b9050919050565b600060208201905081810360008301526135b881612f6d565b9050919050565b600060208201905081810360008301526135d881612f90565b9050919050565b600060208201905081810360008301526135f881612fd6565b9050919050565b6000602082019050818103600083015261361881612ff9565b9050919050565b600060208201905081810360008301526136388161301c565b9050919050565b600060208201905081810360008301526136588161303f565b9050919050565b6000602082019050818103600083015261367881613062565b9050919050565b6000602082019050818103600083015261369881613085565b9050919050565b600060208201905081810360008301526136b8816130cb565b9050919050565b600060208201905081810360008301526136d8816130ee565b9050919050565b600060208201905081810360008301526136f881613134565b9050919050565b60006020820190506137146000830184613279565b92915050565b600060c08201905061372f6000830188613279565b61373c6020830187613297565b818103604083015261374d816130a8565b905061375c6060830186612c92565b818103608083015261376e8185612d74565b905081810360a08301526137828184612e29565b90509695505050505050565b600060c0820190506137a36000830188613279565b6137b06020830187613297565b81810360408301526137c18161317a565b90506137d06060830186612c92565b81810360808301526137e28185612d74565b905081810360a08301526137f68184612e29565b90509695505050505050565b600061380c61381d565b90506138188282613a71565b919050565b6000604051905090565b600067ffffffffffffffff82111561384257613841613b1a565b5b602082029050602081019050919050565b600067ffffffffffffffff82111561386e5761386d613b1a565b5b602082029050602081019050919050565b600067ffffffffffffffff82111561389a57613899613b1a565b5b602082029050602081019050919050565b600067ffffffffffffffff8211156138c6576138c5613b1a565b5b6138cf82613b49565b9050602081019050919050565b6000819050602082019050919050565b6000819050602082019050919050565b600081519050919050565b600081519050919050565b600081519050919050565b6000602082019050919050565b6000602082019050919050565b600082825260208201905092915050565b600082825260208201905092915050565b600082825260208201905092915050565b600082825260208201905092915050565b600082825260208201905092915050565b600082825260208201905092915050565b60006139a882613a1f565b91506139b383613a1f565b92508263ffffffff038211156139cc576139cb613aeb565b5b828201905092915050565b60006139e2826139f5565b9050919050565b60008115159050919050565b600073ffffffffffffffffffffffffffffffffffffffff82169050919050565b6000819050919050565b600063ffffffff82169050919050565b82818337600083830152505050565b60005b83811015613a5c578082015181840152602081019050613a41565b83811115613a6b576000848401525b50505050565b613a7a82613b49565b810181811067ffffffffffffffff82111715613a9957613a98613b1a565b5b80604052505050565b6000613aad82613a15565b91507fffffffffffffffffffffffffffffffffffffffffffffffffffffffffffffffff821415613ae057613adf613aeb565b5b600182019050919050565b7f4e487b7100000000000000000000000000000000000000000000000000000000600052601160045260246000fd5b7f4e487b7100000000000000000000000000000000000000000000000000000000600052604160045260246000fd5b6000601f19601f8301169050919050565b7f496c20746f6b656e20696e73657269746f206e6f6e20c3a82076616c69646f00600082015250565b7f4e657373756e2070726f646f74746f20636f6e20696c206e6f6d6520696e736560008201527f7269746f00000000000000000000000000000000000000000000000000000000602082015250565b7f492072756f6c6920646973706f6e6962696c6920736f6e6f3a205f70726f647560008201527f74746f72655f205f74726173666f726d61746f72655f2065205f636c69656e7460208201527f655f000000000000000000000000000000000000000000000000000000000000604082015250565b7f496c206c6f74746f20696e73657269746f206e6f6e20c3a82076616c69646f00600082015250565b7f4e6f6e2073656920696e20706f73736573736f2064656c6c61206d617465726960008201527f61207072696d6120636f6e206c6f74746f000000000000000000000000000000602082015250565b7f4f776e61626c653a206e6577206f776e657220697320746865207a65726f206160008201527f6464726573730000000000000000000000000000000000000000000000000000602082015250565b7f496c206c6f74746f2030206e6f6e20c3a82076616c69646f0000000000000000600082015250565b7f4964206c6f74746f206e6f6e2076616c69646f00000000000000000000000000600082015250565b7f70726f647574746f726500000000000000000000000000000000000000000000600082015250565b7f496c206c6f74746f20696e73657269746f20c3a8206769c3a02070726573656e60008201527f7465000000000000000000000000000000000000000000000000000000000000602082015250565b7f4964206c6f74746f206769c3a02070726573656e746500000000000000000000600082015250565b7f4c27696e646972697a7a6f206465766520617070617274656e6572652061642060008201527f756e2070726f647574746f72652c2074726173666f726d61747265206f20636c60208201527f69656e7465000000000000000000000000000000000000000000000000000000604082015250565b7f4c27656c656d656e746f20636f6e20696420706172692061206e6f6e20c3a82060008201527f756e61206d617465726961207072696d61000000000000000000000000000000602082015250565b7f56616c6f726520646920434f32206e6f6e2076616c69646f0000000000000000600082015250565b7f4f776e61626c653a2063616c6c6572206973206e6f7420746865206f776e6572600082015250565b7f70726f646f74746f2074726173666f726d61746f000000000000000000000000600082015250565b7f4163636f756e74206769c3a02070726573656e746520636f6e2071756573746f60008201527f2072756f6c6f0000000000000000000000000000000000000000000000000000602082015250565b7f536f6c6f20692074726173666f726d61746f726920706f73736f6e6f2061676760008201527f69756e6765726520756e2070726f646f74746f2074726173666f726d61746f00602082015250565b7f74726173666f726d61746f726500000000000000000000000000000000000000600082015250565b7f536f6c6f20692070726f647574746f726920706f73736f6e6f2061676769756e60008201527f67657265206d617465726965207072696d650000000000000000000000000000602082015250565b7f636c69656e746500000000000000000000000000000000000000000000000000600082015250565b7f6d617465726961207072696d6100000000000000000000000000000000000000600082015250565b6140b1816139d7565b81146140bc57600080fd5b50565b6140c8816139e9565b81146140d357600080fd5b50565b6140df81613a15565b81146140ea57600080fd5b50565b6140f681613a1f565b811461410157600080fd5b5056fea264697066735822122022c62e7a643b59fd244d24cee25de299f7081cda7bb475717a6790f006a6f3c264736f6c6343000801003360806040523480156200001157600080fd5b506040518060400160405280600f81526020017f436172626f6e466f6f747072696e7400000000000000000000000000000000008152506040518060400160405280600381526020017f4346500000000000000000000000000000000000000000000000000000000000815250816000908051906020019062000096929190620000b8565b508060019080519060200190620000af929190620000b8565b505050620001cd565b828054620000c69062000168565b90600052602060002090601f016020900481019282620000ea576000855562000136565b82601f106200010557805160ff191683800117855562000136565b8280016001018555821562000136579182015b828111156200013557825182559160200191906001019062000118565b5b50905062000145919062000149565b5090565b5b80821115620001645760008160009055506001016200014a565b5090565b600060028204905060018216806200018157607f821691505b602082108114156200019857620001976200019e565b5b50919050565b7f4e487b7100000000000000000000000000000000000000000000000000000000600052602260045260246000fd5b61342e80620001dd6000396000f3fe608060405234801561001057600080fd5b50600436106101165760003560e01c806378e1fa8f116100a2578063b3157ba611610071578063b3157ba614610305578063b88d4fde14610321578063c87b56dd1461033d578063e985e9c51461036d578063eb3b58361461039d57610116565b806378e1fa8f1461027d578063836c081d146102ad57806395d89b41146102cb578063a22cb465146102e957610116565b806323b872dd116100e957806323b872dd146101b557806342842e0e146101d15780636352211e146101ed57806370a082311461021d57806372f74f431461024d57610116565b806301ffc9a71461011b57806306fdde031461014b578063081812fc14610169578063095ea7b314610199575b600080fd5b610135600480360381019061013091906122e9565b6103cd565b6040516101429190612900565b60405180910390f35b6101536104af565b604051610160919061291b565b60405180910390f35b610183600480360381019061017e919061233b565b610541565b6040516101909190612899565b60405180910390f35b6101b360048036038101906101ae91906122ad565b6105c6565b005b6101cf60048036038101906101ca91906121a7565b6106de565b005b6101eb60048036038101906101e691906121a7565b61073e565b005b6102076004803603810190610202919061233b565b61075e565b6040516102149190612899565b60405180910390f35b61023760048036038101906102329190612142565b610810565b6040516102449190612b1f565b60405180910390f35b6102676004803603810190610262919061233b565b6108c8565b6040516102749190612afd565b60405180910390f35b6102976004803603810190610292919061233b565b610ac6565b6040516102a49190612afd565b60405180910390f35b6102b5610cc4565b6040516102c29190612b1f565b60405180910390f35b6102d3610cd5565b6040516102e0919061291b565b60405180910390f35b61030360048036038101906102fe9190612271565b610d67565b005b61031f600480360381019061031a919061233b565b610d7d565b005b61033b600480360381019061033691906121f6565b610e5c565b005b6103576004803603810190610352919061233b565b610ebe565b604051610364919061291b565b60405180910390f35b6103876004803603810190610382919061216b565b610f65565b6040516103949190612900565b60405180910390f35b6103b760048036038101906103b29190612364565b610ff9565b6040516103c49190612b1f565b60405180910390f35b60007f80ac58cd000000000000000000000000000000000000000000000000000000007bffffffffffffffffffffffffffffffffffffffffffffffffffffffff1916827bffffffffffffffffffffffffffffffffffffffffffffffffffffffff1916148061049857507f5b5e139f000000000000000000000000000000000000000000000000000000007bffffffffffffffffffffffffffffffffffffffffffffffffffffffff1916827bffffffffffffffffffffffffffffffffffffffffffffffffffffffff1916145b806104a857506104a7826111fe565b5b9050919050565b6060600080546104be90612dfb565b80601f01602080910402602001604051908101604052809291908181526020018280546104ea90612dfb565b80156105375780601f1061050c57610100808354040283529160200191610537565b820191906000526020600020905b81548152906001019060200180831161051a57829003601f168201915b5050505050905090565b600061054c82611268565b61058b576040517f08c379a000000000000000000000000000000000000000000000000000000000815260040161058290612a7d565b60405180910390fd5b6004600083815260200190815260200160002060009054906101000a900473ffffffffffffffffffffffffffffffffffffffff169050919050565b60006105d18261075e565b90508073ffffffffffffffffffffffffffffffffffffffff168373ffffffffffffffffffffffffffffffffffffffff161415610642576040517f08c379a000000000000000000000000000000000000000000000000000000000815260040161063990612abd565b60405180910390fd5b8073ffffffffffffffffffffffffffffffffffffffff166106616112d4565b73ffffffffffffffffffffffffffffffffffffffff161480610690575061068f8161068a6112d4565b610f65565b5b6106cf576040517f08c379a00000000000000000000000000000000000000000000000000000000081526004016106c6906129fd565b60405180910390fd5b6106d983836112dc565b505050565b6106ef6106e96112d4565b82611395565b61072e576040517f08c379a000000000000000000000000000000000000000000000000000000000815260040161072590612add565b60405180910390fd5b610739838383611473565b505050565b61075983838360405180602001604052806000815250610e5c565b505050565b6000806002600084815260200190815260200160002060009054906101000a900473ffffffffffffffffffffffffffffffffffffffff169050600073ffffffffffffffffffffffffffffffffffffffff168173ffffffffffffffffffffffffffffffffffffffff161415610807576040517f08c379a00000000000000000000000000000000000000000000000000000000081526004016107fe90612a3d565b60405180910390fd5b80915050919050565b60008073ffffffffffffffffffffffffffffffffffffffff168273ffffffffffffffffffffffffffffffffffffffff161415610881576040517f08c379a000000000000000000000000000000000000000000000000000000000815260040161087890612a1d565b60405180910390fd5b600360008373ffffffffffffffffffffffffffffffffffffffff1673ffffffffffffffffffffffffffffffffffffffff168152602001908152602001600020549050919050565b6108d0611e29565b600760008381526020019081526020016000206040518060e00160405290816000820180546108fe90612dfb565b80601f016020809104026020016040519081016040528092919081815260200182805461092a90612dfb565b80156109775780601f1061094c57610100808354040283529160200191610977565b820191906000526020600020905b81548152906001019060200180831161095a57829003601f168201915b50505050508152602001600182015481526020016002820160009054906101000a900463ffffffff1663ffffffff1663ffffffff1681526020016003820180546109c090612dfb565b80601f01602080910402602001604051908101604052809291908181526020018280546109ec90612dfb565b8015610a395780601f10610a0e57610100808354040283529160200191610a39565b820191906000526020600020905b815481529060010190602001808311610a1c57829003601f168201915b5050505050815260200160048201805480602002602001604051908101604052809291908181526020018280548015610a9157602002820191906000526020600020905b815481526020019060010190808311610a7d575b50505050508152602001600582015481526020016006820160009054906101000a900460ff1615151515815250509050919050565b610ace611e29565b600860008381526020019081526020016000206040518060e0016040529081600082018054610afc90612dfb565b80601f0160208091040260200160405190810160405280929190818152602001828054610b2890612dfb565b8015610b755780601f10610b4a57610100808354040283529160200191610b75565b820191906000526020600020905b815481529060010190602001808311610b5857829003601f168201915b50505050508152602001600182015481526020016002820160009054906101000a900463ffffffff1663ffffffff1663ffffffff168152602001600382018054610bbe90612dfb565b80601f0160208091040260200160405190810160405280929190818152602001828054610bea90612dfb565b8015610c375780601f10610c0c57610100808354040283529160200191610c37565b820191906000526020600020905b815481529060010190602001808311610c1a57829003601f168201915b5050505050815260200160048201805480602002602001604051908101604052809291908181526020018280548015610c8f57602002820191906000526020600020905b815481526020019060010190808311610c7b575b50505050508152602001600582015481526020016006820160009054906101000a900460ff1615151515815250509050919050565b6000610cd060066116da565b905090565b606060018054610ce490612dfb565b80601f0160208091040260200160405190810160405280929190818152602001828054610d1090612dfb565b8015610d5d5780601f10610d3257610100808354040283529160200191610d5d565b820191906000526020600020905b815481529060010190602001808311610d4057829003601f168201915b5050505050905090565b610d79610d726112d4565b83836116e8565b5050565b6040518060400160405280600a81526020017f7574696c697a7a61746100000000000000000000000000000000000000000000815250600760008381526020019081526020016000206003019080519060200190610ddc929190611e6e565b506000600760008381526020019081526020016000206005015490506040518060400160405280600a81526020017f7574696c697a7a61746100000000000000000000000000000000000000000000815250600860008381526020019081526020016000206003019080519060200190610e57929190611e6e565b505050565b610e6d610e676112d4565b83611395565b610eac576040517f08c379a0000000000000000000000000000000000000000000000000000000008152600401610ea390612add565b60405180910390fd5b610eb884848484611855565b50505050565b6060610ec982611268565b610f08576040517f08c379a0000000000000000000000000000000000000000000000000000000008152600401610eff90612a9d565b60405180910390fd5b6000610f126118b1565b90506000815111610f325760405180602001604052806000815250610f5d565b80610f3c846118c8565b604051602001610f4d929190612875565b6040516020818303038152906040525b915050919050565b6000600560008473ffffffffffffffffffffffffffffffffffffffff1673ffffffffffffffffffffffffffffffffffffffff16815260200190815260200160002060008373ffffffffffffffffffffffffffffffffffffffff1673ffffffffffffffffffffffffffffffffffffffff16815260200190815260200160002060009054906101000a900460ff16905092915050565b60006110056006611a75565b600061101160066116da565b905060006040518060e001604052808581526020018a81526020018963ffffffff16815260200188815260200186815260200183815260200160011515815250905080600760008b81526020019081526020016000206000820151816000019080519060200190611083929190611e6e565b506020820151816001015560408201518160020160006101000a81548163ffffffff021916908363ffffffff16021790555060608201518160030190805190602001906110d1929190611e6e565b5060808201518160040190805190602001906110ee929190611ef4565b5060a0820151816005015560c08201518160060160006101000a81548160ff0219169083151502179055509050508060086000848152602001908152602001600020600082015181600001908051906020019061114c929190611e6e565b506020820151816001015560408201518160020160006101000a81548163ffffffff021916908363ffffffff160217905550606082015181600301908051906020019061119a929190611e6e565b5060808201518160040190805190602001906111b7929190611ef4565b5060a0820151816005015560c08201518160060160006101000a81548160ff0219169083151502179055509050506111ef8683611a8b565b81925050509695505050505050565b60007f01ffc9a7000000000000000000000000000000000000000000000000000000007bffffffffffffffffffffffffffffffffffffffffffffffffffffffff1916827bffffffffffffffffffffffffffffffffffffffffffffffffffffffff1916149050919050565b60008073ffffffffffffffffffffffffffffffffffffffff166002600084815260200190815260200160002060009054906101000a900473ffffffffffffffffffffffffffffffffffffffff1673ffffffffffffffffffffffffffffffffffffffff1614159050919050565b600033905090565b816004600083815260200190815260200160002060006101000a81548173ffffffffffffffffffffffffffffffffffffffff021916908373ffffffffffffffffffffffffffffffffffffffff160217905550808273ffffffffffffffffffffffffffffffffffffffff1661134f8361075e565b73ffffffffffffffffffffffffffffffffffffffff167f8c5be1e5ebec7d5bd14f71427d1e84f3dd0314c0f7b2291e5b200ac8c7c3b92560405160405180910390a45050565b60006113a082611268565b6113df576040517f08c379a00000000000000000000000000000000000000000000000000000000081526004016113d6906129dd565b60405180910390fd5b60006113ea8361075e565b90508073ffffffffffffffffffffffffffffffffffffffff168473ffffffffffffffffffffffffffffffffffffffff16148061145957508373ffffffffffffffffffffffffffffffffffffffff1661144184610541565b73ffffffffffffffffffffffffffffffffffffffff16145b8061146a57506114698185610f65565b5b91505092915050565b8273ffffffffffffffffffffffffffffffffffffffff166114938261075e565b73ffffffffffffffffffffffffffffffffffffffff16146114e9576040517f08c379a00000000000000000000000000000000000000000000000000000000081526004016114e09061295d565b60405180910390fd5b600073ffffffffffffffffffffffffffffffffffffffff168273ffffffffffffffffffffffffffffffffffffffff161415611559576040517f08c379a00000000000000000000000000000000000000000000000000000000081526004016115509061299d565b60405180910390fd5b611564838383611c65565b61156f6000826112dc565b6001600360008573ffffffffffffffffffffffffffffffffffffffff1673ffffffffffffffffffffffffffffffffffffffff16815260200190815260200160002060008282546115bf9190612d01565b925050819055506001600360008473ffffffffffffffffffffffffffffffffffffffff1673ffffffffffffffffffffffffffffffffffffffff16815260200190815260200160002060008282546116169190612c7a565b92505081905550816002600083815260200190815260200160002060006101000a81548173ffffffffffffffffffffffffffffffffffffffff021916908373ffffffffffffffffffffffffffffffffffffffff160217905550808273ffffffffffffffffffffffffffffffffffffffff168473ffffffffffffffffffffffffffffffffffffffff167fddf252ad1be2c89b69c2b068fc378daa952ba7f163c4a11628f55a4df523b3ef60405160405180910390a46116d5838383611c6a565b505050565b600081600001549050919050565b8173ffffffffffffffffffffffffffffffffffffffff168373ffffffffffffffffffffffffffffffffffffffff161415611757576040517f08c379a000000000000000000000000000000000000000000000000000000000815260040161174e906129bd565b60405180910390fd5b80600560008573ffffffffffffffffffffffffffffffffffffffff1673ffffffffffffffffffffffffffffffffffffffff16815260200190815260200160002060008473ffffffffffffffffffffffffffffffffffffffff1673ffffffffffffffffffffffffffffffffffffffff16815260200190815260200160002060006101000a81548160ff0219169083151502179055508173ffffffffffffffffffffffffffffffffffffffff168373ffffffffffffffffffffffffffffffffffffffff167f17307eab39ab6107e8899845ad3d59bd9653f200f220920489ca2b5937696c31836040516118489190612900565b60405180910390a3505050565b611860848484611473565b61186c84848484611c6f565b6118ab576040517f08c379a00000000000000000000000000000000000000000000000000000000081526004016118a29061293d565b60405180910390fd5b50505050565b606060405180602001604052806000815250905090565b60606000821415611910576040518060400160405280600181526020017f30000000000000000000000000000000000000000000000000000000000000008152509050611a70565b600082905060005b6000821461194257808061192b90612e5e565b915050600a8261193b9190612cd0565b9150611918565b60008167ffffffffffffffff811115611984577f4e487b7100000000000000000000000000000000000000000000000000000000600052604160045260246000fd5b6040519080825280601f01601f1916602001820160405280156119b65781602001600182028036833780820191505090505b5090505b60008514611a69576001826119cf9190612d01565b9150600a856119de9190612ea7565b60306119ea9190612c7a565b60f81b818381518110611a26577f4e487b7100000000000000000000000000000000000000000000000000000000600052603260045260246000fd5b60200101907effffffffffffffffffffffffffffffffffffffffffffffffffffffffffffff1916908160001a905350600a85611a629190612cd0565b94506119ba565b8093505050505b919050565b6001816000016000828254019250508190555050565b600073ffffffffffffffffffffffffffffffffffffffff168273ffffffffffffffffffffffffffffffffffffffff161415611afb576040517f08c379a0000000000000000000000000000000000000000000000000000000008152600401611af290612a5d565b60405180910390fd5b611b0481611268565b15611b44576040517f08c379a0000000000000000000000000000000000000000000000000000000008152600401611b3b9061297d565b60405180910390fd5b611b5060008383611c65565b6001600360008473ffffffffffffffffffffffffffffffffffffffff1673ffffffffffffffffffffffffffffffffffffffff1681526020019081526020016000206000828254611ba09190612c7a565b92505081905550816002600083815260200190815260200160002060006101000a81548173ffffffffffffffffffffffffffffffffffffffff021916908373ffffffffffffffffffffffffffffffffffffffff160217905550808273ffffffffffffffffffffffffffffffffffffffff16600073ffffffffffffffffffffffffffffffffffffffff167fddf252ad1be2c89b69c2b068fc378daa952ba7f163c4a11628f55a4df523b3ef60405160405180910390a4611c6160008383611c6a565b5050565b505050565b505050565b6000611c908473ffffffffffffffffffffffffffffffffffffffff16611e06565b15611df9578373ffffffffffffffffffffffffffffffffffffffff1663150b7a02611cb96112d4565b8786866040518563ffffffff1660e01b8152600401611cdb94939291906128b4565b602060405180830381600087803b158015611cf557600080fd5b505af1925050508015611d2657506040513d601f19601f82011682018060405250810190611d239190612312565b60015b611da9573d8060008114611d56576040519150601f19603f3d011682016040523d82523d6000602084013e611d5b565b606091505b50600081511415611da1576040517f08c379a0000000000000000000000000000000000000000000000000000000008152600401611d989061293d565b60405180910390fd5b805181602001fd5b63150b7a0260e01b7bffffffffffffffffffffffffffffffffffffffffffffffffffffffff1916817bffffffffffffffffffffffffffffffffffffffffffffffffffffffff191614915050611dfe565b600190505b949350505050565b6000808273ffffffffffffffffffffffffffffffffffffffff163b119050919050565b6040518060e001604052806060815260200160008152602001600063ffffffff1681526020016060815260200160608152602001600081526020016000151581525090565b828054611e7a90612dfb565b90600052602060002090601f016020900481019282611e9c5760008555611ee3565b82601f10611eb557805160ff1916838001178555611ee3565b82800160010185558215611ee3579182015b82811115611ee2578251825591602001919060010190611ec7565b5b509050611ef09190611f41565b5090565b828054828255906000526020600020908101928215611f30579160200282015b82811115611f2f578251825591602001919060010190611f14565b5b509050611f3d9190611f41565b5090565b5b80821115611f5a576000816000905550600101611f42565b5090565b6000611f71611f6c84612b5f565b612b3a565b90508083825260208201905082856020860282011115611f9057600080fd5b60005b85811015611fc05781611fa68882612118565b845260208401935060208301925050600181019050611f93565b5050509392505050565b6000611fdd611fd884612b8b565b612b3a565b905082815260208101848484011115611ff557600080fd5b612000848285612db9565b509392505050565b600061201b61201684612bbc565b612b3a565b90508281526020810184848401111561203357600080fd5b61203e848285612db9565b509392505050565b60008135905061205581613385565b92915050565b600082601f83011261206c57600080fd5b813561207c848260208601611f5e565b91505092915050565b6000813590506120948161339c565b92915050565b6000813590506120a9816133b3565b92915050565b6000815190506120be816133b3565b92915050565b600082601f8301126120d557600080fd5b81356120e5848260208601611fca565b91505092915050565b600082601f8301126120ff57600080fd5b813561210f848260208601612008565b91505092915050565b600081359050612127816133ca565b92915050565b60008135905061213c816133e1565b92915050565b60006020828403121561215457600080fd5b600061216284828501612046565b91505092915050565b6000806040838503121561217e57600080fd5b600061218c85828601612046565b925050602061219d85828601612046565b9150509250929050565b6000806000606084860312156121bc57600080fd5b60006121ca86828701612046565b93505060206121db86828701612046565b92505060406121ec86828701612118565b9150509250925092565b6000806000806080858703121561220c57600080fd5b600061221a87828801612046565b945050602061222b87828801612046565b935050604061223c87828801612118565b925050606085013567ffffffffffffffff81111561225957600080fd5b612265878288016120c4565b91505092959194509250565b6000806040838503121561228457600080fd5b600061229285828601612046565b92505060206122a385828601612085565b9150509250929050565b600080604083850312156122c057600080fd5b60006122ce85828601612046565b92505060206122df85828601612118565b9150509250929050565b6000602082840312156122fb57600080fd5b60006123098482850161209a565b91505092915050565b60006020828403121561232457600080fd5b6000612332848285016120af565b91505092915050565b60006020828403121561234d57600080fd5b600061235b84828501612118565b91505092915050565b60008060008060008060c0878903121561237d57600080fd5b600061238b89828a01612118565b965050602061239c89828a0161212d565b955050604087013567ffffffffffffffff8111156123b957600080fd5b6123c589828a016120ee565b94505060606123d689828a01612046565b935050608087013567ffffffffffffffff8111156123f357600080fd5b6123ff89828a0161205b565b92505060a087013567ffffffffffffffff81111561241c57600080fd5b61242889828a016120ee565b9150509295509295509295565b60006124418383612848565b60208301905092915050565b61245681612d35565b82525050565b600061246782612bfd565b6124718185612c2b565b935061247c83612bed565b8060005b838110156124ad5781516124948882612435565b975061249f83612c1e565b925050600181019050612480565b5085935050505092915050565b6124c381612d47565b82525050565b6124d281612d47565b82525050565b60006124e382612c08565b6124ed8185612c3c565b93506124fd818560208601612dc8565b61250681612f94565b840191505092915050565b600061251c82612c13565b6125268185612c4d565b9350612536818560208601612dc8565b61253f81612f94565b840191505092915050565b600061255582612c13565b61255f8185612c5e565b935061256f818560208601612dc8565b61257881612f94565b840191505092915050565b600061258e82612c13565b6125988185612c6f565b93506125a8818560208601612dc8565b80840191505092915050565b60006125c1603283612c5e565b91506125cc82612fa5565b604082019050919050565b60006125e4602583612c5e565b91506125ef82612ff4565b604082019050919050565b6000612607601c83612c5e565b915061261282613043565b602082019050919050565b600061262a602483612c5e565b91506126358261306c565b604082019050919050565b600061264d601983612c5e565b9150612658826130bb565b602082019050919050565b6000612670602c83612c5e565b915061267b826130e4565b604082019050919050565b6000612693603883612c5e565b915061269e82613133565b604082019050919050565b60006126b6602a83612c5e565b91506126c182613182565b604082019050919050565b60006126d9602983612c5e565b91506126e4826131d1565b604082019050919050565b60006126fc602083612c5e565b915061270782613220565b602082019050919050565b600061271f602c83612c5e565b915061272a82613249565b604082019050919050565b6000612742602f83612c5e565b915061274d82613298565b604082019050919050565b6000612765602183612c5e565b9150612770826132e7565b604082019050919050565b6000612788603183612c5e565b915061279382613336565b604082019050919050565b600060e08301600083015184820360008601526127bb8282612511565b91505060208301516127d06020860182612848565b5060408301516127e36040860182612866565b50606083015184820360608601526127fb8282612511565b91505060808301518482036080860152612815828261245c565b91505060a083015161282a60a0860182612848565b5060c083015161283d60c08601826124ba565b508091505092915050565b61285181612d9f565b82525050565b61286081612d9f565b82525050565b61286f81612da9565b82525050565b60006128818285612583565b915061288d8284612583565b91508190509392505050565b60006020820190506128ae600083018461244d565b92915050565b60006080820190506128c9600083018761244d565b6128d6602083018661244d565b6128e36040830185612857565b81810360608301526128f581846124d8565b905095945050505050565b600060208201905061291560008301846124c9565b92915050565b60006020820190508181036000830152612935818461254a565b905092915050565b60006020820190508181036000830152612956816125b4565b9050919050565b60006020820190508181036000830152612976816125d7565b9050919050565b60006020820190508181036000830152612996816125fa565b9050919050565b600060208201905081810360008301526129b68161261d565b9050919050565b600060208201905081810360008301526129d681612640565b9050919050565b600060208201905081810360008301526129f681612663565b9050919050565b60006020820190508181036000830152612a1681612686565b9050919050565b60006020820190508181036000830152612a36816126a9565b9050919050565b60006020820190508181036000830152612a56816126cc565b9050919050565b60006020820190508181036000830152612a76816126ef565b9050919050565b60006020820190508181036000830152612a9681612712565b9050919050565b60006020820190508181036000830152612ab681612735565b9050919050565b60006020820190508181036000830152612ad681612758565b9050919050565b60006020820190508181036000830152612af68161277b565b9050919050565b60006020820190508181036000830152612b17818461279e565b905092915050565b6000602082019050612b346000830184612857565b92915050565b6000612b44612b55565b9050612b508282612e2d565b919050565b6000604051905090565b600067ffffffffffffffff821115612b7a57612b79612f65565b5b602082029050602081019050919050565b600067ffffffffffffffff821115612ba657612ba5612f65565b5b612baf82612f94565b9050602081019050919050565b600067ffffffffffffffff821115612bd757612bd6612f65565b5b612be082612f94565b9050602081019050919050565b6000819050602082019050919050565b600081519050919050565b600081519050919050565b600081519050919050565b6000602082019050919050565b600082825260208201905092915050565b600082825260208201905092915050565b600082825260208201905092915050565b600082825260208201905092915050565b600081905092915050565b6000612c8582612d9f565b9150612c9083612d9f565b9250827fffffffffffffffffffffffffffffffffffffffffffffffffffffffffffffffff03821115612cc557612cc4612ed8565b5b828201905092915050565b6000612cdb82612d9f565b9150612ce683612d9f565b925082612cf657612cf5612f07565b5b828204905092915050565b6000612d0c82612d9f565b9150612d1783612d9f565b925082821015612d2a57612d29612ed8565b5b828203905092915050565b6000612d4082612d7f565b9050919050565b60008115159050919050565b60007fffffffff0000000000000000000000000000000000000000000000000000000082169050919050565b600073ffffffffffffffffffffffffffffffffffffffff82169050919050565b6000819050919050565b600063ffffffff82169050919050565b82818337600083830152505050565b60005b83811015612de6578082015181840152602081019050612dcb565b83811115612df5576000848401525b50505050565b60006002820490506001821680612e1357607f821691505b60208210811415612e2757612e26612f36565b5b50919050565b612e3682612f94565b810181811067ffffffffffffffff82111715612e5557612e54612f65565b5b80604052505050565b6000612e6982612d9f565b91507fffffffffffffffffffffffffffffffffffffffffffffffffffffffffffffffff821415612e9c57612e9b612ed8565b5b600182019050919050565b6000612eb282612d9f565b9150612ebd83612d9f565b925082612ecd57612ecc612f07565b5b828206905092915050565b7f4e487b7100000000000000000000000000000000000000000000000000000000600052601160045260246000fd5b7f4e487b7100000000000000000000000000000000000000000000000000000000600052601260045260246000fd5b7f4e487b7100000000000000000000000000000000000000000000000000000000600052602260045260246000fd5b7f4e487b7100000000000000000000000000000000000000000000000000000000600052604160045260246000fd5b6000601f19601f8301169050919050565b7f4552433732313a207472616e7366657220746f206e6f6e20455243373231526560008201527f63656976657220696d706c656d656e7465720000000000000000000000000000602082015250565b7f4552433732313a207472616e736665722066726f6d20696e636f72726563742060008201527f6f776e6572000000000000000000000000000000000000000000000000000000602082015250565b7f4552433732313a20746f6b656e20616c7265616479206d696e74656400000000600082015250565b7f4552433732313a207472616e7366657220746f20746865207a65726f2061646460008201527f7265737300000000000000000000000000000000000000000000000000000000602082015250565b7f4552433732313a20617070726f766520746f2063616c6c657200000000000000600082015250565b7f4552433732313a206f70657261746f7220717565727920666f72206e6f6e657860008201527f697374656e7420746f6b656e0000000000000000000000000000000000000000602082015250565b7f4552433732313a20617070726f76652063616c6c6572206973206e6f74206f7760008201527f6e6572206e6f7220617070726f76656420666f7220616c6c0000000000000000602082015250565b7f4552433732313a2062616c616e636520717565727920666f7220746865207a6560008201527f726f206164647265737300000000000000000000000000000000000000000000602082015250565b7f4552433732313a206f776e657220717565727920666f72206e6f6e657869737460008201527f656e7420746f6b656e0000000000000000000000000000000000000000000000602082015250565b7f4552433732313a206d696e7420746f20746865207a65726f2061646472657373600082015250565b7f4552433732313a20617070726f76656420717565727920666f72206e6f6e657860008201527f697374656e7420746f6b656e0000000000000000000000000000000000000000602082015250565b7f4552433732314d657461646174613a2055524920717565727920666f72206e6f60008201527f6e6578697374656e7420746f6b656e0000000000000000000000000000000000602082015250565b7f4552433732313a20617070726f76616c20746f2063757272656e74206f776e6560008201527f7200000000000000000000000000000000000000000000000000000000000000602082015250565b7f4552433732313a207472616e736665722063616c6c6572206973206e6f74206f60008201527f776e6572206e6f7220617070726f766564000000000000000000000000000000602082015250565b61338e81612d35565b811461339957600080fd5b50565b6133a581612d47565b81146133b057600080fd5b50565b6133bc81612d53565b81146133c757600080fd5b50565b6133d381612d9f565b81146133de57600080fd5b50565b6133ea81612da9565b81146133f557600080fd5b5056fea264697066735822122010e6ee829b5127b75f2e45645d8ed24b444650c8007ce48876c814de702e219f64736f6c63430008010033",
  "immutableReferences": {},
  "source": "// SPDX-License-Identifier: MIT\r\n\r\npragma solidity>=0.5.16;\r\n\r\nimport \"./CarbonFootprint.sol\";\r\nimport \"./Generica.sol\";\r\nimport \"@openzeppelin/contracts/access/Ownable.sol\";\r\n\r\n\r\n\r\ncontract Gestore_nft is Ownable {\r\n\r\n\r\n\r\n\r\n\r\n\r\n    mapping(uint256=>address) public produttori;\r\n    mapping(uint256=>address) public trasformatori;\r\n    mapping(uint256=>address) public clienti;\r\n    uint256 numero_produttori = 0;\r\n    uint256 numero_trasformatori = 0;\r\n    uint256 numero_clienti = 0;\r\n\r\n\r\n    CarbonFootprint carbonFootprint = new CarbonFootprint();\r\n\r\n\r\n    \r\n\r\n\r\n    //funzione con cui il creatore dello smartContract pu aggiungere un nuovo produttore, trasformatore o cliente\r\n    function aggiungiAttore(\r\n        string memory _tipo, address _indirizzo_account\r\n    ) external onlyOwner {\r\n\r\n        require(\r\n            (Generica.stringCompare(_tipo, \"produttore\")) || \r\n            (Generica.stringCompare(_tipo, \"trasformatore\")) || \r\n            (Generica.stringCompare(_tipo, \"cliente\")),\r\n            \"I ruoli disponibili sono: _produttore_ _trasformatore_ e _cliente_\"\r\n            );\r\n\r\n        require(\r\n            nonEsistente(_tipo, _indirizzo_account),\r\n            \"Account gi\\xC3\\xa0 presente con questo ruolo\"\r\n            );\r\n\r\n        if(Generica.stringCompare(_tipo, \"produttore\")) {\r\n            produttori[numero_produttori] = _indirizzo_account;\r\n            numero_produttori++;\r\n        }\r\n\r\n        if(Generica.stringCompare(_tipo, \"trasformatore\")) {\r\n            trasformatori[numero_trasformatori] = _indirizzo_account;\r\n            numero_trasformatori++;\r\n        }\r\n\r\n\r\n        if(Generica.stringCompare(_tipo, \"cliente\")) {\r\n            clienti[numero_clienti] = _indirizzo_account;\r\n            numero_clienti++;\r\n        }\r\n\r\n    }\r\n\r\n\r\n\r\n\r\n\r\n    //crea una materia prima\r\n    function creaMateriaPrima(\r\n        uint256 _id_lotto, uint32 _valore_CO2, string memory _nome\r\n    ) external {\r\n\r\n\r\n        require(!nonEsistente(\"produttore\", msg.sender), \"Solo i produttori possono aggiungere materie prime\");\r\n        require(_id_lotto != 0, \"Id lotto non valido\");\r\n        require(_valore_CO2>0 && _valore_CO2<100, \"Valore di CO2 non valido\");\r\n        require(carbonFootprint.getRisorsaByLotto(_id_lotto).exists==false, \"Id lotto gi\\xC3\\xa0 presente\");\r\n        uint256[] memory vettore_risorse;\r\n        carbonFootprint.creaProdotto(_id_lotto, _valore_CO2, \"materia prima\", msg.sender, vettore_risorse, _nome);\r\n\r\n    }\r\n\r\n\r\n    // consente di trasferire una materia prima o prodotto ad un altro attore\r\n    function trasferimentoMateriaPrima(\r\n        address _destinatario, uint256 _tokenId, address _contract\r\n        ) external {  \r\n             \r\n        require(!nonEsistente(_destinatario), \"L'indirizzo deve appartenere ad un produttore, trasformatre o cliente\");\r\n        carbonFootprint.approve(_contract, _tokenId);\r\n        carbonFootprint.safeTransferFrom(msg.sender, _destinatario, _tokenId);\r\n    }\r\n\r\n\r\n    // crea un nuovo prodotto a partire da una serie di attivit ed una serie di lotti di materie prime\r\n    function creaProdotto(\r\n        string[] memory _nome_attivita, uint32[] memory _CO2_attivita, string memory _nome, uint256[] memory _lotti_materie_prime, uint256 _id_lotto\r\n    ) external {\r\n\r\n        require(carbonFootprint.getRisorsaByLotto(_id_lotto).exists==false, \"Il lotto inserito \\xc3\\xa8 gi\\xC3\\xa0 presente\");\r\n        require(!nonEsistente(\"trasformatore\", msg.sender), \"Solo i trasformatori possono aggiungere un prodotto trasformato\");\r\n        uint32 CO2_totale = 0; \r\n\r\n        // per ogni materia prima controllo se  valida ed utilizzabile, poi sommo i corrispondenti contributi in CO2\r\n        for (uint i=0;i<_lotti_materie_prime.length;i++) {\r\n\r\n            CarbonFootprint.Risorsa memory risorsa = carbonFootprint.getRisorsaByLotto(_lotti_materie_prime[i]);\r\n\r\n\r\n            require(_lotti_materie_prime[i] != 0, \"Il lotto 0 non \\xc3\\xa8 valido\");\r\n            require(getOwnerByToken(risorsa.token)==msg.sender, \"Non sei in possesso della materia prima con lotto\");\r\n            require(Generica.stringCompare(string(risorsa.tipologia),\"materia prima\"),\"L'elemento con id pari a non \\xc3\\xa8 una materia prima\");\r\n\r\n            carbonFootprint.setTipologiaUtilizzato(_lotti_materie_prime[i]);\r\n\r\n            CO2_totale+=risorsa.valore_CO2;\r\n\r\n        }\r\n        \r\n        // per ogni attivit sommo i consumi di CO2\r\n        for (uint i=0;i<_CO2_attivita.length;i++) {  \r\n\r\n            // trasformo in uint256 poi in uint32\r\n            CO2_totale += (_CO2_attivita[i]);\r\n        }\r\n            \r\n        // creo il prodotto passando id del lotto, CO2 totale, tipologia (prodotto trasformato), possessore (chi ha \r\n        // mandato il messaggio), lotti di materie prime utilizzate e nome\r\n        carbonFootprint.creaProdotto(_id_lotto, CO2_totale, \"prodotto trasformato\", msg.sender, _lotti_materie_prime, _nome);\r\n\r\n    }\r\n    \r\n\r\n\r\n\r\n\r\n\r\n    function getOwnerByToken(\r\n        uint256 _token\r\n\r\n    ) public view returns(address) {\r\n    require(_token!=0 && _token<=carbonFootprint.currentToken(), \"Il token inserito non \\xc3\\xa8 valido\"); \r\n           return carbonFootprint.ownerOf(_token);\r\n\r\n    }\r\n\r\n\r\n\r\n\r\n\r\n\r\n    function getInfoByToken(\r\n        uint256 _token\r\n    ) public view returns(string memory, uint256, uint32, string memory, \r\n        uint256[] memory, uint256) {\r\n\r\n        CarbonFootprint.Risorsa memory risorsa = carbonFootprint.getRisorsaByIdProdotto(_token);\r\n        require(_token!=0 && _token<=carbonFootprint.currentToken(), \"Il token inserito non \\xc3\\xa8 valido\");\r\n        return (risorsa.nome, risorsa.lotto, risorsa.valore_CO2, risorsa.tipologia, risorsa.id_materie_prime, risorsa.token);\r\n\r\n    }\r\n\r\n\r\n\r\n    function getInfoByLotto(\r\n        uint256 _lotto\r\n    ) public view returns(string memory, uint256, uint32, string memory, \r\n        uint256[] memory, uint256) {\r\n\r\n        CarbonFootprint.Risorsa memory risorsa = carbonFootprint.getRisorsaByLotto(_lotto);\r\n        require(_lotto!=0 && risorsa.exists!=false, \"Il lotto inserito non \\xc3\\xa8 valido\");\r\n        return (risorsa.nome, risorsa.lotto, risorsa.valore_CO2, risorsa.tipologia, risorsa.id_materie_prime, risorsa.token);\r\n                \r\n    }\r\n\r\n\r\n    function getInfoByNome(\r\n        string memory _nome\r\n    ) public view returns(CarbonFootprint.Risorsa[] memory) {\r\n            \r\n        CarbonFootprint.Risorsa[] memory risorse = new CarbonFootprint.Risorsa[](carbonFootprint.currentToken());\r\n        uint256 j=0;\r\n        for (uint256 i=1;i<=carbonFootprint.currentToken();i++) {\r\n            CarbonFootprint.Risorsa memory risorsa_i = carbonFootprint.getRisorsaByIdProdotto(i);\r\n            if(Generica.stringCompare(risorsa_i.nome,_nome)) {\r\n                risorse[j] = risorsa_i;\r\n                j++;\r\n            }\r\n        }\r\n        require(j!=0, \"Nessun prodotto con il nome inserito\");\r\n\r\n        return risorse;\r\n                \r\n    }  \r\n\r\n\r\n    //funzione che verifica che non sia gi presente un account con lo stesso tipo di quello passato\r\n    function nonEsistente(\r\n        string memory _tipo, address _indirizzo_account\r\n    ) public view returns(bool) {\r\n\r\n        if(Generica.stringCompare(_tipo,\"produttore\")) {\r\n            for (uint i;i<numero_produttori;i++) {\r\n                if(_indirizzo_account == produttori[i]) return false;\r\n            }\r\n        }\r\n\r\n        else if(Generica.stringCompare(_tipo, \"trasformatore\")) {\r\n            for (uint i;i<numero_trasformatori;i++) {\r\n                if(_indirizzo_account == trasformatori[i]) return false;\r\n            }\r\n        }\r\n\r\n        else if(Generica.stringCompare(_tipo, \"cliente\")) {\r\n            for (uint i;i<numero_clienti;i++) {\r\n                if(_indirizzo_account == clienti[i]) return false;\r\n            }\r\n        }\r\n\r\n        return true;\r\n\r\n    }\r\n\r\n\r\n\r\n\r\n    function nonEsistente(\r\n        address _indirizzo_account\r\n    ) private view returns(bool) {\r\n\r\n        for (uint i;i<numero_produttori;i++) {\r\n            if(_indirizzo_account == produttori[i]) return false;\r\n        }\r\n\r\n        for (uint i;i<numero_trasformatori;i++) {\r\n            if(_indirizzo_account == trasformatori[i]) return false;\r\n        }\r\n        \r\n\r\n        for (uint i;i<numero_clienti;i++) {\r\n            if(_indirizzo_account == clienti[i]) return false;\r\n        }\r\n\r\n        return true;\r\n    }\r\n\r\n}",
  "sourcePath": "C:\\Windows\\System32\\network\\3-nodes-istanbul-tessera-docker-compose\\contracts\\Gestore_nft.sol",
  "compiler": {
    "name": "solc",
    "version": "0.8.1+commit.df193b15.Emscripten.clang"
  },
  "schemaVersion": "3.4.4",
  "updatedAt": "2022-02-19T01:02:45.951Z",
  "networkType": "quorum",
  "devdoc": {
    "kind": "dev",
    "methods": {
      "owner()": {
        "details": "Returns the address of the current owner."
      },
      "renounceOwnership()": {
        "details": "Leaves the contract without owner. It will not be possible to call `onlyOwner` functions anymore. Can only be called by the current owner. NOTE: Renouncing ownership will leave the contract without an owner, thereby removing any functionality that is only available to the owner."
      },
      "transferOwnership(address)": {
        "details": "Transfers ownership of the contract to a new account (`newOwner`). Can only be called by the current owner."
      }
    },
    "version": 1
  },
  "userdoc": {
    "kind": "user",
    "methods": {},
    "version": 1
  }
}