{
  "contractName": "Gestore_nft",
  "abi": [
    {
      "anonymous": false,
      "inputs": [
        {
          "indexed": true,
          "internalType": "address",
          "name": "previousOwner",
          "type": "address"
        },
        {
          "indexed": true,
          "internalType": "address",
          "name": "newOwner",
          "type": "address"
        }
      ],
      "name": "OwnershipTransferred",
      "type": "event"
    },
    {
      "inputs": [
        {
          "internalType": "uint256",
          "name": "",
          "type": "uint256"
        }
      ],
      "name": "clienti",
      "outputs": [
        {
          "internalType": "address",
          "name": "",
          "type": "address"
        }
      ],
      "stateMutability": "view",
      "type": "function",
      "constant": true
    },
    {
      "inputs": [],
      "name": "owner",
      "outputs": [
        {
          "internalType": "address",
          "name": "",
          "type": "address"
        }
      ],
      "stateMutability": "view",
      "type": "function",
      "constant": true
    },
    {
      "inputs": [
        {
          "internalType": "uint256",
          "name": "",
          "type": "uint256"
        }
      ],
      "name": "produttori",
      "outputs": [
        {
          "internalType": "address",
          "name": "",
          "type": "address"
        }
      ],
      "stateMutability": "view",
      "type": "function",
      "constant": true
    },
    {
      "inputs": [],
      "name": "renounceOwnership",
      "outputs": [],
      "stateMutability": "nonpayable",
      "type": "function"
    },
    {
      "inputs": [
        {
          "internalType": "address",
          "name": "newOwner",
          "type": "address"
        }
      ],
      "name": "transferOwnership",
      "outputs": [],
      "stateMutability": "nonpayable",
      "type": "function"
    },
    {
      "inputs": [
        {
          "internalType": "uint256",
          "name": "",
          "type": "uint256"
        }
      ],
      "name": "trasformatori",
      "outputs": [
        {
          "internalType": "address",
          "name": "",
          "type": "address"
        }
      ],
      "stateMutability": "view",
      "type": "function",
      "constant": true
    },
    {
      "inputs": [
        {
          "internalType": "string",
          "name": "_tipo",
          "type": "string"
        },
        {
          "internalType": "address",
          "name": "_indirizzo_account",
          "type": "address"
        }
      ],
      "name": "aggiungiAttore",
      "outputs": [],
      "stateMutability": "nonpayable",
      "type": "function"
    },
    {
      "inputs": [
        {
          "internalType": "uint256",
          "name": "_lotto",
          "type": "uint256"
        },
        {
          "internalType": "uint32",
          "name": "_valore_CO2",
          "type": "uint32"
        },
        {
          "internalType": "string",
          "name": "_nome",
          "type": "string"
        }
      ],
      "name": "creaMateriaPrima",
      "outputs": [],
      "stateMutability": "nonpayable",
      "type": "function"
    },
    {
      "inputs": [
        {
          "internalType": "address",
          "name": "_destinatario",
          "type": "address"
        },
        {
          "internalType": "uint256",
          "name": "_lotto",
          "type": "uint256"
        }
      ],
      "name": "trasferimentoMateriaPrima",
      "outputs": [],
      "stateMutability": "nonpayable",
      "type": "function"
    },
    {
      "inputs": [
        {
          "internalType": "string[]",
          "name": "_nomi_attivita",
          "type": "string[]"
        },
        {
          "internalType": "uint32[]",
          "name": "_valori_CO2_attivita",
          "type": "uint32[]"
        },
        {
          "internalType": "string",
          "name": "_nome",
          "type": "string"
        },
        {
          "internalType": "uint256[]",
          "name": "_lotti_materie_prime",
          "type": "uint256[]"
        },
        {
          "internalType": "uint256",
          "name": "_lotto_nuovo_prodotto",
          "type": "uint256"
        }
      ],
      "name": "creaProdotto",
      "outputs": [],
      "stateMutability": "nonpayable",
      "type": "function"
    },
    {
      "inputs": [
        {
          "internalType": "uint256",
          "name": "_token",
          "type": "uint256"
        }
      ],
      "name": "getOwnerByToken",
      "outputs": [
        {
          "internalType": "address",
          "name": "",
          "type": "address"
        }
      ],
      "stateMutability": "view",
      "type": "function",
      "constant": true
    },
    {
      "inputs": [
        {
          "internalType": "uint256",
          "name": "_token",
          "type": "uint256"
        }
      ],
      "name": "getInfoByToken",
      "outputs": [
        {
          "internalType": "string",
          "name": "",
          "type": "string"
        },
        {
          "internalType": "uint256",
          "name": "",
          "type": "uint256"
        },
        {
          "internalType": "string[]",
          "name": "",
          "type": "string[]"
        },
        {
          "internalType": "uint32[]",
          "name": "",
          "type": "uint32[]"
        },
        {
          "internalType": "uint32",
          "name": "",
          "type": "uint32"
        },
        {
          "internalType": "string",
          "name": "",
          "type": "string"
        },
        {
          "internalType": "uint256[]",
          "name": "",
          "type": "uint256[]"
        },
        {
          "internalType": "uint256",
          "name": "",
          "type": "uint256"
        }
      ],
      "stateMutability": "view",
      "type": "function",
      "constant": true
    },
    {
      "inputs": [
        {
          "internalType": "uint256",
          "name": "_lotto",
          "type": "uint256"
        }
      ],
      "name": "getInfoByLotto",
      "outputs": [
        {
          "internalType": "string",
          "name": "",
          "type": "string"
        },
        {
          "internalType": "uint256",
          "name": "",
          "type": "uint256"
        },
        {
          "internalType": "string[]",
          "name": "",
          "type": "string[]"
        },
        {
          "internalType": "uint32[]",
          "name": "",
          "type": "uint32[]"
        },
        {
          "internalType": "uint32",
          "name": "",
          "type": "uint32"
        },
        {
          "internalType": "string",
          "name": "",
          "type": "string"
        },
        {
          "internalType": "uint256[]",
          "name": "",
          "type": "uint256[]"
        },
        {
          "internalType": "uint256",
          "name": "",
          "type": "uint256"
        }
      ],
      "stateMutability": "view",
      "type": "function",
      "constant": true
    },
    {
      "inputs": [
        {
          "internalType": "string",
          "name": "_nome",
          "type": "string"
        }
      ],
      "name": "getInfoByNome",
      "outputs": [
        {
          "internalType": "string",
          "name": "",
          "type": "string"
        }
      ],
      "stateMutability": "view",
      "type": "function",
      "constant": true
    },
    {
      "inputs": [
        {
          "internalType": "string",
          "name": "_ruolo",
          "type": "string"
        },
        {
          "internalType": "address",
          "name": "_indirizzo_account",
          "type": "address"
        }
      ],
      "name": "esistente",
      "outputs": [
        {
          "internalType": "bool",
          "name": "",
          "type": "bool"
        }
      ],
      "stateMutability": "view",
      "type": "function",
      "constant": true
    }
  ],
  "bytecode": "0x608060405260006004556000600555600060065560405162000021906200017f565b604051809103906000f0801580156200003e573d6000803e3d6000fd5b50600760006101000a81548173ffffffffffffffffffffffffffffffffffffffff021916908373ffffffffffffffffffffffffffffffffffffffff1602179055503480156200008c57600080fd5b50620000ad620000a1620000b360201b60201c565b620000bb60201b60201c565b6200018d565b600033905090565b60008060009054906101000a900473ffffffffffffffffffffffffffffffffffffffff169050816000806101000a81548173ffffffffffffffffffffffffffffffffffffffff021916908373ffffffffffffffffffffffffffffffffffffffff1602179055508173ffffffffffffffffffffffffffffffffffffffff168173ffffffffffffffffffffffffffffffffffffffff167f8be0079c531659141344cd1fd0a4f28419497f9722a3daafe3b4186f6b6457e060405160405180910390a35050565b613df580620059be83390190565b615821806200019d6000396000f3fe608060405234801561001057600080fd5b50600436106100f55760003560e01c80639b1414c011610097578063eb2cc75211610066578063eb2cc752146102a4578063f2fde38b146102d4578063f5b19ccf146102f0578063f6f9d0551461030c576100f5565b80639b1414c0146101f8578063ae6c17f314610214578063dda4bbd014610244578063e7ddd4ea14610274576100f5565b8063789ce91f116100d3578063789ce91f1461016b5780637f824152146101a25780638da5cb5b146101be57806399213e27146101dc576100f5565b80631896a5af146100fa57806320cf45f81461012a578063715018a614610161575b600080fd5b610114600480360381019061010f9190613d5e565b61033c565b60405161012191906144ce565b60405180910390f35b610144600480360381019061013f9190613d5e565b61036f565b60405161015898979695949392919061473c565b60405180910390f35b6101696104ce565b005b61018560048036038101906101809190613d5e565b610556565b60405161019998979695949392919061473c565b60405180910390f35b6101bc60048036038101906101b79190613b47565b61074a565b005b6101c6611017565b6040516101d391906144ce565b60405180910390f35b6101f660048036038101906101f19190613db0565b611040565b005b610212600480360381019061020d9190613cc9565b61131f565b005b61022e60048036038101906102299190613c47565b6118c0565b60405161023b919061453b565b60405180910390f35b61025e60048036038101906102599190613cc9565b612745565b60405161026b9190614520565b60405180910390f35b61028e60048036038101906102899190613d5e565b612ab9565b60405161029b91906144ce565b60405180910390f35b6102be60048036038101906102b99190613d5e565b612c92565b6040516102cb91906144ce565b60405180910390f35b6102ee60048036038101906102e99190613ab9565b612cc5565b005b61030a60048036038101906103059190613b0b565b612dbd565b005b61032660048036038101906103219190613d5e565b613019565b60405161033391906144ce565b60405180910390f35b60026020528060005260406000206000915054906101000a900473ffffffffffffffffffffffffffffffffffffffff1681565b606060006060806000606080600080600760009054906101000a900473ffffffffffffffffffffffffffffffffffffffff1673ffffffffffffffffffffffffffffffffffffffff166372f74f438b6040518263ffffffff1660e01b81526004016103d99190614aa7565b60006040518083038186803b1580156103f157600080fd5b505afa158015610405573d6000803e3d6000fd5b505050506040513d6000823e3d601f19601f8201168201806040525081019061042e9190613d1d565b905060008a1415801561044b575060001515816101000151151514155b61048a576040517f08c379a000000000000000000000000000000000000000000000000000000000815260040161048190614a07565b60405180910390fd5b806000015181602001518260400151836060015184608001518560a001518660c001518760e001519850985098509850985098509850985050919395975091939597565b6104d661304c565b73ffffffffffffffffffffffffffffffffffffffff166104f4611017565b73ffffffffffffffffffffffffffffffffffffffff161461054a576040517f08c379a000000000000000000000000000000000000000000000000000000000815260040161054190614987565b60405180910390fd5b6105546000613054565b565b60606000606080600060608060008089141580156106135750600760009054906101000a900473ffffffffffffffffffffffffffffffffffffffff1673ffffffffffffffffffffffffffffffffffffffff1663836c081d6040518163ffffffff1660e01b815260040160206040518083038186803b1580156105d757600080fd5b505afa1580156105eb573d6000803e3d6000fd5b505050506040513d601f19601f8201168201806040525081019061060f9190613d87565b8911155b610652576040517f08c379a0000000000000000000000000000000000000000000000000000000008152600401610649906148b2565b60405180910390fd5b6000600760009054906101000a900473ffffffffffffffffffffffffffffffffffffffff1673ffffffffffffffffffffffffffffffffffffffff166378e1fa8f8b6040518263ffffffff1660e01b81526004016106af9190614aa7565b60006040518083038186803b1580156106c757600080fd5b505afa1580156106db573d6000803e3d6000fd5b505050506040513d6000823e3d601f19601f820116820180604052508101906107049190613d1d565b9050806000015181602001518260400151836060015184608001518560a001518660c001518760e001519850985098509850985098509850985050919395975091939597565b60001515600760009054906101000a900473ffffffffffffffffffffffffffffffffffffffff1673ffffffffffffffffffffffffffffffffffffffff166372f74f43836040518263ffffffff1660e01b81526004016107a99190614aa7565b60006040518083038186803b1580156107c157600080fd5b505afa1580156107d5573d6000803e3d6000fd5b505050506040513d6000823e3d601f19601f820116820180604052508101906107fe9190613d1d565b6101000151151514610845576040517f08c379a000000000000000000000000000000000000000000000000000000000815260040161083c906149c7565b60405180910390fd5b6108846040518060400160405280600d81526020017f74726173666f726d61746f72650000000000000000000000000000000000000081525033612745565b6108c3576040517f08c379a00000000000000000000000000000000000000000000000000000000081526004016108ba906149e7565b60405180910390fd5b6000805b8351811015610ed4576000600760009054906101000a900473ffffffffffffffffffffffffffffffffffffffff1673ffffffffffffffffffffffffffffffffffffffff166372f74f43868481518110610949577f4e487b7100000000000000000000000000000000000000000000000000000000600052603260045260246000fd5b60200260200101516040518263ffffffff1660e01b815260040161096d9190614aa7565b60006040518083038186803b15801561098557600080fd5b505afa158015610999573d6000803e3d6000fd5b505050506040513d6000823e3d601f19601f820116820180604052508101906109c29190613d1d565b905060011515816101000151151514610a10576040517f08c379a0000000000000000000000000000000000000000000000000000000008152600401610a0790614872565b60405180910390fd5b6000858381518110610a4b577f4e487b7100000000000000000000000000000000000000000000000000000000600052603260045260246000fd5b60200260200101511415610a94576040517f08c379a0000000000000000000000000000000000000000000000000000000008152600401610a8b90614a87565b60405180910390fd5b6000610adf868481518110610ad2577f4e487b7100000000000000000000000000000000000000000000000000000000600052603260045260246000fd5b6020026020010151613118565b90503373ffffffffffffffffffffffffffffffffffffffff16610b058360e00151612ab9565b73ffffffffffffffffffffffffffffffffffffffff161473__Generica______________________________63266001d3836040518263ffffffff1660e01b8152600401610b53919061481d565b60006040518083038186803b158015610b6b57600080fd5b505af4158015610b7f573d6000803e3d6000fd5b505050506040513d6000823e3d601f19601f82011682018060405250810190610ba89190613c88565b90610be9576040517f08c379a0000000000000000000000000000000000000000000000000000000008152600401610be0919061453b565b60405180910390fd5b5073__Generica______________________________6360353db98360a001516040518263ffffffff1660e01b8152600401610c259190614707565b60206040518083038186803b158015610c3d57600080fd5b505af4158015610c51573d6000803e3d6000fd5b505050506040513d601f19601f82011682018060405250810190610c759190613c1e565b73__Generica______________________________63266001d373__Generica______________________________63266001d3856040518263ffffffff1660e01b8152600401610cc691906148d2565b60006040518083038186803b158015610cde57600080fd5b505af4158015610cf2573d6000803e3d6000fd5b505050506040513d6000823e3d601f19601f82011682018060405250810190610d1b9190613c88565b6040518263ffffffff1660e01b8152600401610d379190614594565b60006040518083038186803b158015610d4f57600080fd5b505af4158015610d63573d6000803e3d6000fd5b505050506040513d6000823e3d601f19601f82011682018060405250810190610d8c9190613c88565b90610dcd576040517f08c379a0000000000000000000000000000000000000000000000000000000008152600401610dc4919061453b565b60405180910390fd5b50600760009054906101000a900473ffffffffffffffffffffffffffffffffffffffff1673ffffffffffffffffffffffffffffffffffffffff1663b3157ba6878581518110610e45577f4e487b7100000000000000000000000000000000000000000000000000000000600052603260045260246000fd5b60200260200101516040518263ffffffff1660e01b8152600401610e699190614aa7565b600060405180830381600087803b158015610e8357600080fd5b505af1158015610e97573d6000803e3d6000fd5b50505050610ebe826080015163ffffffff168563ffffffff166132c590919063ffffffff16565b5050508080610ecc90614f49565b9150506108c7565b5060005b8551811015610f5457610f40868281518110610f1d577f4e487b7100000000000000000000000000000000000000000000000000000000600052603260045260246000fd5b602002602001015163ffffffff168363ffffffff166132c590919063ffffffff16565b508080610f4c90614f49565b915050610ed8565b50600760009054906101000a900473ffffffffffffffffffffffffffffffffffffffff1673ffffffffffffffffffffffffffffffffffffffff166336cc49928383898933898b6040518863ffffffff1660e01b8152600401610fbc9796959493929190614ac2565b602060405180830381600087803b158015610fd657600080fd5b505af1158015610fea573d6000803e3d6000fd5b505050506040513d601f19601f8201168201806040525081019061100e9190613d87565b50505050505050565b60008060009054906101000a900473ffffffffffffffffffffffffffffffffffffffff16905090565b61107f6040518060400160405280600a81526020017f70726f647574746f72650000000000000000000000000000000000000000000081525033612745565b6110be576040517f08c379a00000000000000000000000000000000000000000000000000000000081526004016110b590614a27565b60405180910390fd5b6000831415611102576040517f08c379a00000000000000000000000000000000000000000000000000000000081526004016110f990614892565b60405180910390fd5b60008263ffffffff1611801561111e575060648263ffffffff16105b61115d576040517f08c379a000000000000000000000000000000000000000000000000000000000815260040161115490614967565b60405180910390fd5b60001515600760009054906101000a900473ffffffffffffffffffffffffffffffffffffffff1673ffffffffffffffffffffffffffffffffffffffff166372f74f43856040518263ffffffff1660e01b81526004016111bc9190614aa7565b60006040518083038186803b1580156111d457600080fd5b505afa1580156111e8573d6000803e3d6000fd5b505050506040513d6000823e3d601f19601f820116820180604052508101906112119190613d1d565b6101000151151514611258576040517f08c379a000000000000000000000000000000000000000000000000000000000815260040161124f90614a67565b60405180910390fd5b6060806060600760009054906101000a900473ffffffffffffffffffffffffffffffffffffffff1673ffffffffffffffffffffffffffffffffffffffff166336cc49928787858533898b6040518863ffffffff1660e01b81526004016112c49796959493929190614b61565b602060405180830381600087803b1580156112de57600080fd5b505af11580156112f2573d6000803e3d6000fd5b505050506040513d601f19601f820116820180604052508101906113169190613d87565b50505050505050565b61132761304c565b73ffffffffffffffffffffffffffffffffffffffff16611345611017565b73ffffffffffffffffffffffffffffffffffffffff161461139b576040517f08c379a000000000000000000000000000000000000000000000000000000000815260040161139290614987565b60405180910390fd5b73__Generica______________________________6360353db9836040518263ffffffff1660e01b81526004016113d291906145c9565b60206040518083038186803b1580156113ea57600080fd5b505af41580156113fe573d6000803e3d6000fd5b505050506040513d601f19601f820116820180604052508101906114229190613c1e565b806114b0575073__Generica______________________________6360353db9836040518263ffffffff1660e01b815260040161145f919061469d565b60206040518083038186803b15801561147757600080fd5b505af415801561148b573d6000803e3d6000fd5b505050506040513d601f19601f820116820180604052508101906114af9190613c1e565b5b8061153e575073__Generica______________________________6360353db9836040518263ffffffff1660e01b81526004016114ed91906146d2565b60206040518083038186803b15801561150557600080fd5b505af4158015611519573d6000803e3d6000fd5b505050506040513d601f19601f8201168201806040525081019061153d9190613c1e565b5b61157d576040517f08c379a0000000000000000000000000000000000000000000000000000000008152600401611574906147fd565b60405180910390fd5b6115878282612745565b156115c7576040517f08c379a00000000000000000000000000000000000000000000000000000000081526004016115be90614907565b60405180910390fd5b73__Generica______________________________6360353db9836040518263ffffffff1660e01b81526004016115fe91906145c9565b60206040518083038186803b15801561161657600080fd5b505af415801561162a573d6000803e3d6000fd5b505050506040513d601f19601f8201168201806040525081019061164e9190613c1e565b156116c4578060016000600454815260200190815260200160002060006101000a81548173ffffffffffffffffffffffffffffffffffffffff021916908373ffffffffffffffffffffffffffffffffffffffff160217905550600460008154809291906116ba90614f49565b91905055506118bc565b73__Generica______________________________6360353db9836040518263ffffffff1660e01b81526004016116fb919061469d565b60206040518083038186803b15801561171357600080fd5b505af4158015611727573d6000803e3d6000fd5b505050506040513d601f19601f8201168201806040525081019061174b9190613c1e565b156117c1578060026000600554815260200190815260200160002060006101000a81548173ffffffffffffffffffffffffffffffffffffffff021916908373ffffffffffffffffffffffffffffffffffffffff160217905550600560008154809291906117b790614f49565b91905055506118bb565b73__Generica______________________________6360353db9836040518263ffffffff1660e01b81526004016117f891906146d2565b60206040518083038186803b15801561181057600080fd5b505af4158015611824573d6000803e3d6000fd5b505050506040513d601f19601f820116820180604052508101906118489190613c1e565b156118ba578060036000600654815260200190815260200160002060006101000a81548173ffffffffffffffffffffffffffffffffffffffff021916908373ffffffffffffffffffffffffffffffffffffffff160217905550600660008154809291906118b490614f49565b91905055505b5b5b5050565b6060600060606000600190505b600760009054906101000a900473ffffffffffffffffffffffffffffffffffffffff1673ffffffffffffffffffffffffffffffffffffffff1663836c081d6040518163ffffffff1660e01b815260040160206040518083038186803b15801561193557600080fd5b505afa158015611949573d6000803e3d6000fd5b505050506040513d601f19601f8201168201806040525081019061196d9190613d87565b81116126f6576000600760009054906101000a900473ffffffffffffffffffffffffffffffffffffffff1673ffffffffffffffffffffffffffffffffffffffff166378e1fa8f836040518263ffffffff1660e01b81526004016119d09190614aa7565b60006040518083038186803b1580156119e857600080fd5b505afa1580156119fc573d6000803e3d6000fd5b505050506040513d6000823e3d601f19601f82011682018060405250810190611a259190613d1d565b905073__Generica______________________________6360353db98260000151886040518363ffffffff1660e01b8152600401611a6492919061455d565b60206040518083038186803b158015611a7c57600080fd5b505af4158015611a90573d6000803e3d6000fd5b505050506040513d601f19601f82011682018060405250810190611ab49190613c1e565b156126e25773__Generica______________________________63266001d38483600001516040518363ffffffff1660e01b8152600401611af692919061455d565b60006040518083038186803b158015611b0e57600080fd5b505af4158015611b22573d6000803e3d6000fd5b505050506040513d6000823e3d601f19601f82011682018060405250810190611b4b9190613c88565b925073__Generica______________________________63266001d3846040518263ffffffff1660e01b8152600401611b8491906145fe565b60006040518083038186803b158015611b9c57600080fd5b505af4158015611bb0573d6000803e3d6000fd5b505050506040513d6000823e3d601f19601f82011682018060405250810190611bd99190613c88565b925073__Generica______________________________63266001d384611c038460200151613118565b6040518363ffffffff1660e01b8152600401611c2092919061455d565b60006040518083038186803b158015611c3857600080fd5b505af4158015611c4c573d6000803e3d6000fd5b505050506040513d6000823e3d601f19601f82011682018060405250810190611c759190613c88565b925073__Generica______________________________63266001d3846040518263ffffffff1660e01b8152600401611cae91906145fe565b60006040518083038186803b158015611cc657600080fd5b505af4158015611cda573d6000803e3d6000fd5b505050506040513d6000823e3d601f19601f82011682018060405250810190611d039190613c88565b925073__Generica______________________________63266001d384611d33846080015163ffffffff16613118565b6040518363ffffffff1660e01b8152600401611d5092919061455d565b60006040518083038186803b158015611d6857600080fd5b505af4158015611d7c573d6000803e3d6000fd5b505050506040513d6000823e3d601f19601f82011682018060405250810190611da59190613c88565b925073__Generica______________________________63266001d3846040518263ffffffff1660e01b8152600401611dde91906145fe565b60006040518083038186803b158015611df657600080fd5b505af4158015611e0a573d6000803e3d6000fd5b505050506040513d6000823e3d601f19601f82011682018060405250810190611e339190613c88565b925073__Generica______________________________63266001d384611e5d8460e00151613118565b6040518363ffffffff1660e01b8152600401611e7a92919061455d565b60006040518083038186803b158015611e9257600080fd5b505af4158015611ea6573d6000803e3d6000fd5b505050506040513d6000823e3d601f19601f82011682018060405250810190611ecf9190613c88565b925073__Generica______________________________63266001d3846040518263ffffffff1660e01b8152600401611f0891906145fe565b60006040518083038186803b158015611f2057600080fd5b505af4158015611f34573d6000803e3d6000fd5b505050506040513d6000823e3d601f19601f82011682018060405250810190611f5d9190613c88565b925073__Generica______________________________63266001d3848360a001516040518363ffffffff1660e01b8152600401611f9c92919061455d565b60006040518083038186803b158015611fb457600080fd5b505af4158015611fc8573d6000803e3d6000fd5b505050506040513d6000823e3d601f19601f82011682018060405250810190611ff19190613c88565b925073__Generica______________________________63266001d3846040518263ffffffff1660e01b815260040161202a91906145fe565b60006040518083038186803b15801561204257600080fd5b505af4158015612056573d6000803e3d6000fd5b505050506040513d6000823e3d601f19601f8201168201806040525081019061207f9190613c88565b925060005b8160400151518110156122065773__Generica______________________________63266001d385846040015184815181106120e9577f4e487b7100000000000000000000000000000000000000000000000000000000600052603260045260246000fd5b60200260200101516040518363ffffffff1660e01b815260040161210e92919061455d565b60006040518083038186803b15801561212657600080fd5b505af415801561213a573d6000803e3d6000fd5b505050506040513d6000823e3d601f19601f820116820180604052508101906121639190613c88565b935073__Generica______________________________63266001d3856040518263ffffffff1660e01b815260040161219c9190614633565b60006040518083038186803b1580156121b457600080fd5b505af41580156121c8573d6000803e3d6000fd5b505050506040513d6000823e3d601f19601f820116820180604052508101906121f19190613c88565b935080806121fe90614f49565b915050612084565b5073__Generica______________________________63266001d3846040518263ffffffff1660e01b815260040161223e91906145fe565b60006040518083038186803b15801561225657600080fd5b505af415801561226a573d6000803e3d6000fd5b505050506040513d6000823e3d601f19601f820116820180604052508101906122939190613c88565b925060005b8160600151518110156124285773__Generica______________________________63266001d38561231385606001518581518110612300577f4e487b7100000000000000000000000000000000000000000000000000000000600052603260045260246000fd5b602002602001015163ffffffff16613118565b6040518363ffffffff1660e01b815260040161233092919061455d565b60006040518083038186803b15801561234857600080fd5b505af415801561235c573d6000803e3d6000fd5b505050506040513d6000823e3d601f19601f820116820180604052508101906123859190613c88565b935073__Generica______________________________63266001d3856040518263ffffffff1660e01b81526004016123be9190614633565b60006040518083038186803b1580156123d657600080fd5b505af41580156123ea573d6000803e3d6000fd5b505050506040513d6000823e3d601f19601f820116820180604052508101906124139190613c88565b9350808061242090614f49565b915050612298565b5073__Generica______________________________63266001d3846040518263ffffffff1660e01b815260040161246091906145fe565b60006040518083038186803b15801561247857600080fd5b505af415801561248c573d6000803e3d6000fd5b505050506040513d6000823e3d601f19601f820116820180604052508101906124b59190613c88565b925060005b8160c00151518110156126445773__Generica______________________________63266001d38561252f8560c001518581518110612522577f4e487b7100000000000000000000000000000000000000000000000000000000600052603260045260246000fd5b6020026020010151613118565b6040518363ffffffff1660e01b815260040161254c92919061455d565b60006040518083038186803b15801561256457600080fd5b505af4158015612578573d6000803e3d6000fd5b505050506040513d6000823e3d601f19601f820116820180604052508101906125a19190613c88565b935073__Generica______________________________63266001d3856040518263ffffffff1660e01b81526004016125da9190614633565b60006040518083038186803b1580156125f257600080fd5b505af4158015612606573d6000803e3d6000fd5b505050506040513d6000823e3d601f19601f8201168201806040525081019061262f9190613c88565b9350808061263c90614f49565b9150506124ba565b5073__Generica______________________________63266001d3846040518263ffffffff1660e01b815260040161267c9190614668565b60006040518083038186803b15801561269457600080fd5b505af41580156126a8573d6000803e3d6000fd5b505050506040513d6000823e3d601f19601f820116820180604052508101906126d19190613c88565b925083806126de90614f49565b9450505b5080806126ee90614f49565b9150506118cd565b50600082141561273b576040517f08c379a0000000000000000000000000000000000000000000000000000000008152600401612732906147dd565b60405180910390fd5b8092505050919050565b600073__Generica______________________________6360353db9846040518263ffffffff1660e01b815260040161277e91906145c9565b60206040518083038186803b15801561279657600080fd5b505af41580156127aa573d6000803e3d6000fd5b505050506040513d601f19601f820116820180604052508101906127ce9190613c1e565b1561286a5760005b600454811015612864576001600082815260200190815260200160002060009054906101000a900473ffffffffffffffffffffffffffffffffffffffff1673ffffffffffffffffffffffffffffffffffffffff168373ffffffffffffffffffffffffffffffffffffffff161415612851576001915050612ab3565b808061285c90614f49565b9150506127d6565b50612aae565b73__Generica______________________________6360353db9846040518263ffffffff1660e01b81526004016128a1919061469d565b60206040518083038186803b1580156128b957600080fd5b505af41580156128cd573d6000803e3d6000fd5b505050506040513d601f19601f820116820180604052508101906128f19190613c1e565b1561298d5760005b600554811015612987576002600082815260200190815260200160002060009054906101000a900473ffffffffffffffffffffffffffffffffffffffff1673ffffffffffffffffffffffffffffffffffffffff168373ffffffffffffffffffffffffffffffffffffffff161415612974576001915050612ab3565b808061297f90614f49565b9150506128f9565b50612aad565b73__Generica______________________________6360353db9846040518263ffffffff1660e01b81526004016129c491906146d2565b60206040518083038186803b1580156129dc57600080fd5b505af41580156129f0573d6000803e3d6000fd5b505050506040513d601f19601f82011682018060405250810190612a149190613c1e565b15612aac5760005b600654811015612aaa576003600082815260200190815260200160002060009054906101000a900473ffffffffffffffffffffffffffffffffffffffff1673ffffffffffffffffffffffffffffffffffffffff168373ffffffffffffffffffffffffffffffffffffffff161415612a97576001915050612ab3565b8080612aa290614f49565b915050612a1c565b505b5b5b600090505b92915050565b600080821415612afe576040517f08c379a0000000000000000000000000000000000000000000000000000000008152600401612af5906148b2565b60405180910390fd5b600760009054906101000a900473ffffffffffffffffffffffffffffffffffffffff1673ffffffffffffffffffffffffffffffffffffffff1663836c081d6040518163ffffffff1660e01b815260040160206040518083038186803b158015612b6657600080fd5b505afa158015612b7a573d6000803e3d6000fd5b505050506040513d601f19601f82011682018060405250810190612b9e9190613d87565b821115612be0576040517f08c379a0000000000000000000000000000000000000000000000000000000008152600401612bd7906149a7565b60405180910390fd5b600760009054906101000a900473ffffffffffffffffffffffffffffffffffffffff1673ffffffffffffffffffffffffffffffffffffffff16636352211e836040518263ffffffff1660e01b8152600401612c3b9190614aa7565b60206040518083038186803b158015612c5357600080fd5b505afa158015612c67573d6000803e3d6000fd5b505050506040513d601f19601f82011682018060405250810190612c8b9190613ae2565b9050919050565b60016020528060005260406000206000915054906101000a900473ffffffffffffffffffffffffffffffffffffffff1681565b612ccd61304c565b73ffffffffffffffffffffffffffffffffffffffff16612ceb611017565b73ffffffffffffffffffffffffffffffffffffffff1614612d41576040517f08c379a0000000000000000000000000000000000000000000000000000000008152600401612d3890614987565b60405180910390fd5b600073ffffffffffffffffffffffffffffffffffffffff168173ffffffffffffffffffffffffffffffffffffffff161415612db1576040517f08c379a0000000000000000000000000000000000000000000000000000000008152600401612da890614852565b60405180910390fd5b612dba81613054565b50565b6000600760009054906101000a900473ffffffffffffffffffffffffffffffffffffffff1673ffffffffffffffffffffffffffffffffffffffff166372f74f43836040518263ffffffff1660e01b8152600401612e1a9190614aa7565b60006040518083038186803b158015612e3257600080fd5b505afa158015612e46573d6000803e3d6000fd5b505050506040513d6000823e3d601f19601f82011682018060405250810190612e6f9190613d1d565b905060011515816101000151151514612ebd576040517f08c379a0000000000000000000000000000000000000000000000000000000008152600401612eb490614a47565b60405180910390fd5b3373ffffffffffffffffffffffffffffffffffffffff16612ee18260e00151612ab9565b73ffffffffffffffffffffffffffffffffffffffff1614612f37576040517f08c379a0000000000000000000000000000000000000000000000000000000008152600401612f2e90614947565b60405180910390fd5b612f40836132db565b612f7f576040517f08c379a0000000000000000000000000000000000000000000000000000000008152600401612f7690614927565b60405180910390fd5b600760009054906101000a900473ffffffffffffffffffffffffffffffffffffffff1673ffffffffffffffffffffffffffffffffffffffff166323b872dd33858460e001516040518463ffffffff1660e01b8152600401612fe2939291906144e9565b600060405180830381600087803b158015612ffc57600080fd5b505af1158015613010573d6000803e3d6000fd5b50505050505050565b60036020528060005260406000206000915054906101000a900473ffffffffffffffffffffffffffffffffffffffff1681565b600033905090565b60008060009054906101000a900473ffffffffffffffffffffffffffffffffffffffff169050816000806101000a81548173ffffffffffffffffffffffffffffffffffffffff021916908373ffffffffffffffffffffffffffffffffffffffff1602179055508173ffffffffffffffffffffffffffffffffffffffff168173ffffffffffffffffffffffffffffffffffffffff167f8be0079c531659141344cd1fd0a4f28419497f9722a3daafe3b4186f6b6457e060405160405180910390a35050565b60606000821415613160576040518060400160405280600181526020017f300000000000000000000000000000000000000000000000000000000000000081525090506132c0565b600082905060005b6000821461319257808061317b90614f49565b915050600a8261318b9190614e19565b9150613168565b60008167ffffffffffffffff8111156131d4577f4e487b7100000000000000000000000000000000000000000000000000000000600052604160045260246000fd5b6040519080825280601f01601f1916602001820160405280156132065781602001600182028036833780820191505090505b5090505b600085146132b95760018261321f9190614e4a565b9150600a8561322e9190614f92565b603061323a9190614dc3565b60f81b818381518110613276577f4e487b7100000000000000000000000000000000000000000000000000000000600052603260045260246000fd5b60200101907effffffffffffffffffffffffffffffffffffffffffffffffffffffffffffff1916908160001a905350600a856132b29190614e19565b945061320a565b8093505050505b919050565b600081836132d39190614dc3565b905092915050565b6000805b60045481101561336d576001600082815260200190815260200160002060009054906101000a900473ffffffffffffffffffffffffffffffffffffffff1673ffffffffffffffffffffffffffffffffffffffff168373ffffffffffffffffffffffffffffffffffffffff16141561335a576001915050613497565b808061336590614f49565b9150506132df565b5060005b6005548110156133ff576002600082815260200190815260200160002060009054906101000a900473ffffffffffffffffffffffffffffffffffffffff1673ffffffffffffffffffffffffffffffffffffffff168373ffffffffffffffffffffffffffffffffffffffff1614156133ec576001915050613497565b80806133f790614f49565b915050613371565b5060005b600654811015613491576003600082815260200190815260200160002060009054906101000a900473ffffffffffffffffffffffffffffffffffffffff1673ffffffffffffffffffffffffffffffffffffffff168373ffffffffffffffffffffffffffffffffffffffff16141561347e576001915050613497565b808061348990614f49565b915050613403565b50600090505b919050565b60006134af6134aa84614c25565b614c00565b9050808382526020820190508260005b858110156134ef57813585016134d588826138bd565b8452602084019350602083019250506001810190506134bf565b5050509392505050565b600061350c61350784614c25565b614c00565b9050808382526020820190508260005b8581101561354c578151850161353288826138e7565b84526020840193506020830192505060018101905061351c565b5050509392505050565b600061356961356484614c51565b614c00565b9050808382526020820190508285602086028201111561358857600080fd5b60005b858110156135b8578161359e8882613a65565b84526020840193506020830192505060018101905061358b565b5050509392505050565b60006135d56135d084614c51565b614c00565b905080838252602082019050828560208602820111156135f457600080fd5b60005b85811015613624578161360a8882613a7a565b8452602084019350602083019250506001810190506135f7565b5050509392505050565b600061364161363c84614c7d565b614c00565b9050808382526020820190508285602086028201111561366057600080fd5b60005b8581101561369057816136768882613a8f565b845260208401935060208301925050600181019050613663565b5050509392505050565b60006136ad6136a884614c7d565b614c00565b905080838252602082019050828560208602820111156136cc57600080fd5b60005b858110156136fc57816136e28882613aa4565b8452602084019350602083019250506001810190506136cf565b5050509392505050565b600061371961371484614ca9565b614c00565b90508281526020810184848401111561373157600080fd5b61373c848285614ed6565b509392505050565b600061375761375284614ca9565b614c00565b90508281526020810184848401111561376f57600080fd5b61377a848285614ee5565b509392505050565b6000813590506137918161578f565b92915050565b6000815190506137a68161578f565b92915050565b600082601f8301126137bd57600080fd5b81356137cd84826020860161349c565b91505092915050565b600082601f8301126137e757600080fd5b81516137f78482602086016134f9565b91505092915050565b600082601f83011261381157600080fd5b8135613821848260208601613556565b91505092915050565b600082601f83011261383b57600080fd5b815161384b8482602086016135c2565b91505092915050565b600082601f83011261386557600080fd5b813561387584826020860161362e565b91505092915050565b600082601f83011261388f57600080fd5b815161389f84826020860161369a565b91505092915050565b6000815190506138b7816157a6565b92915050565b600082601f8301126138ce57600080fd5b81356138de848260208601613706565b91505092915050565b600082601f8301126138f857600080fd5b8151613908848260208601613744565b91505092915050565b6000610120828403121561392457600080fd5b61392f610120614c00565b9050600082015167ffffffffffffffff81111561394b57600080fd5b613957848285016138e7565b600083015250602061396b84828501613a7a565b602083015250604082015167ffffffffffffffff81111561398b57600080fd5b613997848285016137d6565b604083015250606082015167ffffffffffffffff8111156139b757600080fd5b6139c38482850161387e565b60608301525060806139d784828501613aa4565b60808301525060a082015167ffffffffffffffff8111156139f757600080fd5b613a03848285016138e7565b60a08301525060c082015167ffffffffffffffff811115613a2357600080fd5b613a2f8482850161382a565b60c08301525060e0613a4384828501613a7a565b60e083015250610100613a58848285016138a8565b6101008301525092915050565b600081359050613a74816157bd565b92915050565b600081519050613a89816157bd565b92915050565b600081359050613a9e816157d4565b92915050565b600081519050613ab3816157d4565b92915050565b600060208284031215613acb57600080fd5b6000613ad984828501613782565b91505092915050565b600060208284031215613af457600080fd5b6000613b0284828501613797565b91505092915050565b60008060408385031215613b1e57600080fd5b6000613b2c85828601613782565b9250506020613b3d85828601613a65565b9150509250929050565b600080600080600060a08688031215613b5f57600080fd5b600086013567ffffffffffffffff811115613b7957600080fd5b613b85888289016137ac565b955050602086013567ffffffffffffffff811115613ba257600080fd5b613bae88828901613854565b945050604086013567ffffffffffffffff811115613bcb57600080fd5b613bd7888289016138bd565b935050606086013567ffffffffffffffff811115613bf457600080fd5b613c0088828901613800565b9250506080613c1188828901613a65565b9150509295509295909350565b600060208284031215613c3057600080fd5b6000613c3e848285016138a8565b91505092915050565b600060208284031215613c5957600080fd5b600082013567ffffffffffffffff811115613c7357600080fd5b613c7f848285016138bd565b91505092915050565b600060208284031215613c9a57600080fd5b600082015167ffffffffffffffff811115613cb457600080fd5b613cc0848285016138e7565b91505092915050565b60008060408385031215613cdc57600080fd5b600083013567ffffffffffffffff811115613cf657600080fd5b613d02858286016138bd565b9250506020613d1385828601613782565b9150509250929050565b600060208284031215613d2f57600080fd5b600082015167ffffffffffffffff811115613d4957600080fd5b613d5584828501613911565b91505092915050565b600060208284031215613d7057600080fd5b6000613d7e84828501613a65565b91505092915050565b600060208284031215613d9957600080fd5b6000613da784828501613a7a565b91505092915050565b600080600060608486031215613dc557600080fd5b6000613dd386828701613a65565b9350506020613de486828701613a8f565b925050604084013567ffffffffffffffff811115613e0157600080fd5b613e0d868287016138bd565b9150509250925092565b6000613e238383613faa565b905092915050565b6000613e378383614492565b60208301905092915050565b6000613e4f83836144b0565b60208301905092915050565b613e6481614e7e565b82525050565b6000613e7582614d0a565b613e7f8185614d5d565b935083602082028501613e9185614cda565b8060005b85811015613ecd5784840389528151613eae8582613e17565b9450613eb983614d36565b925060208a01995050600181019050613e95565b50829750879550505050505092915050565b6000613eea82614d15565b613ef48185614d6e565b9350613eff83614cea565b8060005b83811015613f30578151613f178882613e2b565b9750613f2283614d43565b925050600181019050613f03565b5085935050505092915050565b6000613f4882614d20565b613f528185614d7f565b9350613f5d83614cfa565b8060005b83811015613f8e578151613f758882613e43565b9750613f8083614d50565b925050600181019050613f61565b5085935050505092915050565b613fa481614e90565b82525050565b6000613fb582614d2b565b613fbf8185614d90565b9350613fcf818560208601614ee5565b613fd881615050565b840191505092915050565b6000613fee82614d2b565b613ff88185614da1565b9350614008818560208601614ee5565b61401181615050565b840191505092915050565b600061402782614d2b565b6140318185614db2565b9350614041818560208601614ee5565b61404a81615050565b840191505092915050565b6000614062601883614db2565b915061406d82615061565b602082019050919050565b6000614085604683614da1565b91506140908261508a565b606082019050919050565b60006140a8604283614da1565b91506140b3826150ff565b606082019050919050565b60006140cb603183614db2565b91506140d682615174565b604082019050919050565b60006140ee602683614da1565b91506140f9826151c3565b604082019050919050565b6000614111601a83614da1565b915061411c82615212565b602082019050919050565b6000614134601383614da1565b915061413f8261523b565b602082019050919050565b6000614157601f83614da1565b915061416282615264565b602082019050919050565b600061417a601b83614db2565b91506141858261528d565b602082019050919050565b600061419d600a83614db2565b91506141a8826152b6565b602082019050919050565b60006141c0600183614db2565b91506141cb826152df565b602082019050919050565b60006141e3602683614da1565b91506141ee82615308565b604082019050919050565b6000614206604283614da1565b915061421182615357565b606082019050919050565b6000614229600383614db2565b9150614234826153cc565b602082019050919050565b600061424c600183614db2565b9150614257826153f5565b602082019050919050565b600061426f602183614da1565b915061427a8261541e565b604082019050919050565b6000614292601883614da1565b915061429d8261546d565b602082019050919050565b60006142b5602083614da1565b91506142c082615496565b602082019050919050565b60006142d8601483614da1565b91506142e3826154bf565b602082019050919050565b60006142fb602483614da1565b9150614306826154e8565b604082019050919050565b600061431e602283614da1565b915061432982615537565b604082019050919050565b6000614341603f83614da1565b915061434c82615586565b604082019050919050565b6000614364600d83614db2565b915061436f826155d5565b602082019050919050565b6000614387601f83614da1565b9150614392826155fe565b602082019050919050565b60006143aa603283614da1565b91506143b582615627565b604082019050919050565b60006143cd600783614db2565b91506143d882615676565b602082019050919050565b60006143f0604283614da1565b91506143fb8261569f565b606082019050919050565b6000614413601683614da1565b915061441e82615714565b602082019050919050565b6000614436601883614da1565b91506144418261573d565b602082019050919050565b6000614459600d83614da1565b915061446482615766565b602082019050919050565b600061447c600d83614db2565b915061448782615766565b602082019050919050565b61449b81614ebc565b82525050565b6144aa81614ebc565b82525050565b6144b981614ec6565b82525050565b6144c881614ec6565b82525050565b60006020820190506144e36000830184613e5b565b92915050565b60006060820190506144fe6000830186613e5b565b61450b6020830185613e5b565b61451860408301846144a1565b949350505050565b60006020820190506145356000830184613f9b565b92915050565b600060208201905081810360008301526145558184613fe3565b905092915050565b60006040820190508181036000830152614577818561401c565b9050818103602083015261458b818461401c565b90509392505050565b600060408201905081810360008301526145ae818461401c565b905081810360208301526145c181614055565b905092915050565b600060408201905081810360008301526145e3818461401c565b905081810360208301526145f681614190565b905092915050565b60006040820190508181036000830152614618818461401c565b9050818103602083015261462b816141b3565b905092915050565b6000604082019050818103600083015261464d818461401c565b905081810360208301526146608161421c565b905092915050565b60006040820190508181036000830152614682818461401c565b905081810360208301526146958161423f565b905092915050565b600060408201905081810360008301526146b7818461401c565b905081810360208301526146ca81614357565b905092915050565b600060408201905081810360008301526146ec818461401c565b905081810360208301526146ff816143c0565b905092915050565b60006040820190508181036000830152614721818461401c565b905081810360208301526147348161446f565b905092915050565b6000610100820190508181036000830152614757818b613fe3565b9050614766602083018a6144a1565b81810360408301526147788189613e6a565b9050818103606083015261478c8188613f3d565b905061479b60808301876144bf565b81810360a08301526147ad8186613fe3565b905081810360c08301526147c18185613edf565b90506147d060e08301846144a1565b9998505050505050505050565b600060208201905081810360008301526147f681614078565b9050919050565b600060208201905081810360008301526148168161409b565b9050919050565b60006040820190508181036000830152614836816140be565b9050818103602083015261484a818461401c565b905092915050565b6000602082019050818103600083015261486b816140e1565b9050919050565b6000602082019050818103600083015261488b81614104565b9050919050565b600060208201905081810360008301526148ab81614127565b9050919050565b600060208201905081810360008301526148cb8161414a565b9050919050565b600060408201905081810360008301526148eb8161416d565b905081810360208301526148ff818461401c565b905092915050565b60006020820190508181036000830152614920816141d6565b9050919050565b60006020820190508181036000830152614940816141f9565b9050919050565b6000602082019050818103600083015261496081614262565b9050919050565b6000602082019050818103600083015261498081614285565b9050919050565b600060208201905081810360008301526149a0816142a8565b9050919050565b600060208201905081810360008301526149c0816142ee565b9050919050565b600060208201905081810360008301526149e081614311565b9050919050565b60006020820190508181036000830152614a0081614334565b9050919050565b60006020820190508181036000830152614a208161437a565b9050919050565b60006020820190508181036000830152614a408161439d565b9050919050565b60006020820190508181036000830152614a60816143e3565b9050919050565b60006020820190508181036000830152614a8081614406565b9050919050565b60006020820190508181036000830152614aa081614429565b9050919050565b6000602082019050614abc60008301846144a1565b92915050565b600061010082019050614ad8600083018a6144a1565b614ae560208301896144bf565b8181036040830152614af78188613e6a565b90508181036060830152614b0b8187613f3d565b90508181036080830152614b1e816142cb565b9050614b2d60a0830186613e5b565b81810360c0830152614b3f8185613edf565b905081810360e0830152614b538184613fe3565b905098975050505050505050565b600061010082019050614b77600083018a6144a1565b614b8460208301896144bf565b8181036040830152614b968188613e6a565b90508181036060830152614baa8187613f3d565b90508181036080830152614bbd8161444c565b9050614bcc60a0830186613e5b565b81810360c0830152614bde8185613edf565b905081810360e0830152614bf28184613fe3565b905098975050505050505050565b6000614c0a614c1b565b9050614c168282614f18565b919050565b6000604051905090565b600067ffffffffffffffff821115614c4057614c3f615021565b5b602082029050602081019050919050565b600067ffffffffffffffff821115614c6c57614c6b615021565b5b602082029050602081019050919050565b600067ffffffffffffffff821115614c9857614c97615021565b5b602082029050602081019050919050565b600067ffffffffffffffff821115614cc457614cc3615021565b5b614ccd82615050565b9050602081019050919050565b6000819050602082019050919050565b6000819050602082019050919050565b6000819050602082019050919050565b600081519050919050565b600081519050919050565b600081519050919050565b600081519050919050565b6000602082019050919050565b6000602082019050919050565b6000602082019050919050565b600082825260208201905092915050565b600082825260208201905092915050565b600082825260208201905092915050565b600082825260208201905092915050565b600082825260208201905092915050565b600082825260208201905092915050565b6000614dce82614ebc565b9150614dd983614ebc565b9250827fffffffffffffffffffffffffffffffffffffffffffffffffffffffffffffffff03821115614e0e57614e0d614fc3565b5b828201905092915050565b6000614e2482614ebc565b9150614e2f83614ebc565b925082614e3f57614e3e614ff2565b5b828204905092915050565b6000614e5582614ebc565b9150614e6083614ebc565b925082821015614e7357614e72614fc3565b5b828203905092915050565b6000614e8982614e9c565b9050919050565b60008115159050919050565b600073ffffffffffffffffffffffffffffffffffffffff82169050919050565b6000819050919050565b600063ffffffff82169050919050565b82818337600083830152505050565b60005b83811015614f03578082015181840152602081019050614ee8565b83811115614f12576000848401525b50505050565b614f2182615050565b810181811067ffffffffffffffff82111715614f4057614f3f615021565b5b80604052505050565b6000614f5482614ebc565b91507fffffffffffffffffffffffffffffffffffffffffffffffffffffffffffffffff821415614f8757614f86614fc3565b5b600182019050919050565b6000614f9d82614ebc565b9150614fa883614ebc565b925082614fb857614fb7614ff2565b5b828206905092915050565b7f4e487b7100000000000000000000000000000000000000000000000000000000600052601160045260246000fd5b7f4e487b7100000000000000000000000000000000000000000000000000000000600052601260045260246000fd5b7f4e487b7100000000000000000000000000000000000000000000000000000000600052604160045260246000fd5b6000601f19601f8301169050919050565b7f6e6f6e20652720756e61206d617465726961207072696d610000000000000000600082015250565b7f4e6f6e20652720737461746f2074726f7661746f20616c63756e2070726f646f60008201527f74746f2f6d617465726961207072696d6120636f6e20696c206e6f6d6520696e60208201527f73657269746f0000000000000000000000000000000000000000000000000000604082015250565b7f492072756f6c6920646973706f6e6962696c6920736f6e6f3a205f70726f647560008201527f74746f72655f205f74726173666f726d61746f72655f2065205f636c69656e7460208201527f655f000000000000000000000000000000000000000000000000000000000000604082015250565b7f4e6f6e2073656920696e20706f73736573736f2064656c6c61206d617465726960008201527f61207072696d6120636f6e206c6f74746f000000000000000000000000000000602082015250565b7f4f776e61626c653a206e6577206f776e657220697320746865207a65726f206160008201527f6464726573730000000000000000000000000000000000000000000000000000602082015250565b7f4d617465726961207072696d61206e6f6e2070726573656e7465000000000000600082015250565b7f4964206c6f74746f206e6f6e2076616c69646f00000000000000000000000000600082015250565b7f496c20746f6b656e20696e73657269746f206e6f6e2065272076616c69646f00600082015250565b7f4c27656c656d656e746f20636f6e206c6f74746f207061726920610000000000600082015250565b7f70726f647574746f726500000000000000000000000000000000000000000000600082015250565b7f2c00000000000000000000000000000000000000000000000000000000000000600082015250565b7f4163636f756e7420676961272070726573656e746520636f6e2071756573746f60008201527f2072756f6c6f0000000000000000000000000000000000000000000000000000602082015250565b7f496c2064657374696e61746172696f20646576652065737365726520756e207060008201527f726f647574746f72652c2074726173666f726d61746f7265206f20636c69656e60208201527f7465000000000000000000000000000000000000000000000000000000000000604082015250565b7f207c200000000000000000000000000000000000000000000000000000000000600082015250565b7f3b00000000000000000000000000000000000000000000000000000000000000600082015250565b7f4e6f6e2073656920696e20706f73736573736f2064656c6c61207269736f727360008201527f6100000000000000000000000000000000000000000000000000000000000000602082015250565b7f56616c6f726520646920434f32206e6f6e2076616c69646f0000000000000000600082015250565b7f4f776e61626c653a2063616c6c6572206973206e6f7420746865206f776e6572600082015250565b7f70726f646f74746f2074726173666f726d61746f000000000000000000000000600082015250565b7f50726f646f74746f2f6d617465726961207072696d61206e6f6e20657369737460008201527f656e746500000000000000000000000000000000000000000000000000000000602082015250565b7f496c206c6f74746f20696e73657269746f20652720676961272070726573656e60008201527f7465000000000000000000000000000000000000000000000000000000000000602082015250565b7f536f6c6f20692074726173666f726d61746f726920706f73736f6e6f2061676760008201527f69756e6765726520756e2070726f646f74746f2074726173666f726d61746f00602082015250565b7f74726173666f726d61746f726500000000000000000000000000000000000000600082015250565b7f496c206c6f74746f20696e73657269746f206e6f6e2065272076616c69646f00600082015250565b7f536f6c6f20692070726f647574746f726920706f73736f6e6f2061676769756e60008201527f67657265206d617465726965207072696d650000000000000000000000000000602082015250565b7f636c69656e746500000000000000000000000000000000000000000000000000600082015250565b7f496c20746f6b656e20696e73657269746f206e6f6e20636f72726973706f6e6460008201527f652061206e657373756e61206d617465726961207072696d612070726573656e60208201527f7465000000000000000000000000000000000000000000000000000000000000604082015250565b7f4964206c6f74746f20676961272070726573656e746500000000000000000000600082015250565b7f496c206c6f74746f2030206e6f6e2065272076616c69646f0000000000000000600082015250565b7f6d617465726961207072696d6100000000000000000000000000000000000000600082015250565b61579881614e7e565b81146157a357600080fd5b50565b6157af81614e90565b81146157ba57600080fd5b50565b6157c681614ebc565b81146157d157600080fd5b50565b6157dd81614ec6565b81146157e857600080fd5b5056fea26469706673582212205eac21abb6ad21dec996eef046511860a03e218bf44f9146de53066a8561b83464736f6c6343000801003360806040523480156200001157600080fd5b506040518060400160405280600f81526020017f436172626f6e466f6f747072696e7400000000000000000000000000000000008152506040518060400160405280600381526020017f4346500000000000000000000000000000000000000000000000000000000000815250816000908051906020019062000096929190620000b8565b508060019080519060200190620000af929190620000b8565b505050620001cd565b828054620000c69062000168565b90600052602060002090601f016020900481019282620000ea576000855562000136565b82601f106200010557805160ff191683800117855562000136565b8280016001018555821562000136579182015b828111156200013557825182559160200191906001019062000118565b5b50905062000145919062000149565b5090565b5b80821115620001645760008160009055506001016200014a565b5090565b600060028204905060018216806200018157607f821691505b602082108114156200019857620001976200019e565b5b50919050565b7f4e487b7100000000000000000000000000000000000000000000000000000000600052602260045260246000fd5b613c1880620001dd6000396000f3fe608060405234801561001057600080fd5b50600436106101165760003560e01c806372f74f43116100a2578063a22cb46511610071578063a22cb46514610319578063b3157ba614610335578063b88d4fde14610351578063c87b56dd1461036d578063e985e9c51461039d57610116565b806372f74f431461027d57806378e1fa8f146102ad578063836c081d146102dd57806395d89b41146102fb57610116565b806323b872dd116100e957806323b872dd146101b557806336cc4992146101d157806342842e0e146102015780636352211e1461021d57806370a082311461024d57610116565b806301ffc9a71461011b57806306fdde031461014b578063081812fc14610169578063095ea7b314610199575b600080fd5b6101356004803603810190610130919061287a565b6103cd565b6040516101429190613020565b60405180910390f35b6101536104af565b604051610160919061303b565b60405180910390f35b610183600480360381019061017e91906128cc565b610541565b6040516101909190612fb9565b60405180910390f35b6101b360048036038101906101ae919061283e565b6105c6565b005b6101cf60048036038101906101ca9190612738565b6106de565b005b6101eb60048036038101906101e691906128f5565b6106ee565b6040516101f8919061323f565b60405180910390f35b61021b60048036038101906102169190612738565b610978565b005b610237600480360381019061023291906128cc565b610998565b6040516102449190612fb9565b60405180910390f35b610267600480360381019061026291906126d3565b610a4a565b604051610274919061323f565b60405180910390f35b610297600480360381019061029291906128cc565b610b02565b6040516102a4919061321d565b60405180910390f35b6102c760048036038101906102c291906128cc565b610e5e565b6040516102d4919061321d565b60405180910390f35b6102e56111ba565b6040516102f2919061323f565b60405180910390f35b6103036111cb565b604051610310919061303b565b60405180910390f35b610333600480360381019061032e9190612802565b61125d565b005b61034f600480360381019061034a91906128cc565b611273565b005b61036b60048036038101906103669190612787565b611352565b005b610387600480360381019061038291906128cc565b6113b4565b604051610394919061303b565b60405180910390f35b6103b760048036038101906103b291906126fc565b61145b565b6040516103c49190613020565b60405180910390f35b60007f80ac58cd000000000000000000000000000000000000000000000000000000007bffffffffffffffffffffffffffffffffffffffffffffffffffffffff1916827bffffffffffffffffffffffffffffffffffffffffffffffffffffffff1916148061049857507f5b5e139f000000000000000000000000000000000000000000000000000000007bffffffffffffffffffffffffffffffffffffffffffffffffffffffff1916827bffffffffffffffffffffffffffffffffffffffffffffffffffffffff1916145b806104a857506104a7826114ef565b5b9050919050565b6060600080546104be906135e5565b80601f01602080910402602001604051908101604052809291908181526020018280546104ea906135e5565b80156105375780601f1061050c57610100808354040283529160200191610537565b820191906000526020600020905b81548152906001019060200180831161051a57829003601f168201915b5050505050905090565b600061054c82611559565b61058b576040517f08c379a00000000000000000000000000000000000000000000000000000000081526004016105829061319d565b60405180910390fd5b6004600083815260200190815260200160002060009054906101000a900473ffffffffffffffffffffffffffffffffffffffff169050919050565b60006105d182610998565b90508073ffffffffffffffffffffffffffffffffffffffff168373ffffffffffffffffffffffffffffffffffffffff161415610642576040517f08c379a0000000000000000000000000000000000000000000000000000000008152600401610639906131dd565b60405180910390fd5b8073ffffffffffffffffffffffffffffffffffffffff166106616115c5565b73ffffffffffffffffffffffffffffffffffffffff161480610690575061068f8161068a6115c5565b61145b565b5b6106cf576040517f08c379a00000000000000000000000000000000000000000000000000000000081526004016106c69061311d565b60405180910390fd5b6106d983836115cd565b505050565b6106e9838383611686565b505050565b60006106fa60066118ed565b60006107066006611903565b905060006040518061012001604052808581526020018c81526020018a81526020018981526020018b63ffffffff16815260200188815260200186815260200183815260200160011515815250905080600760008d8152602001908152602001600020600082015181600001908051906020019061078592919061211a565b506020820151816001015560408201518160020190805190602001906107ac9291906121a0565b5060608201518160030190805190602001906107c9929190612200565b5060808201518160040160006101000a81548163ffffffff021916908363ffffffff16021790555060a082015181600501908051906020019061080d92919061211a565b5060c082015181600601908051906020019061082a9291906122b0565b5060e082015181600701556101008201518160080160006101000a81548160ff0219169083151502179055509050508060086000848152602001908152602001600020600082015181600001908051906020019061088992919061211a565b506020820151816001015560408201518160020190805190602001906108b09291906121a0565b5060608201518160030190805190602001906108cd929190612200565b5060808201518160040160006101000a81548163ffffffff021916908363ffffffff16021790555060a082015181600501908051906020019061091192919061211a565b5060c082015181600601908051906020019061092e9291906122b0565b5060e082015181600701556101008201518160080160006101000a81548160ff0219169083151502179055509050506109678683611911565b819250505098975050505050505050565b61099383838360405180602001604052806000815250611352565b505050565b6000806002600084815260200190815260200160002060009054906101000a900473ffffffffffffffffffffffffffffffffffffffff169050600073ffffffffffffffffffffffffffffffffffffffff168173ffffffffffffffffffffffffffffffffffffffff161415610a41576040517f08c379a0000000000000000000000000000000000000000000000000000000008152600401610a389061315d565b60405180910390fd5b80915050919050565b60008073ffffffffffffffffffffffffffffffffffffffff168273ffffffffffffffffffffffffffffffffffffffff161415610abb576040517f08c379a0000000000000000000000000000000000000000000000000000000008152600401610ab29061313d565b60405180910390fd5b600360008373ffffffffffffffffffffffffffffffffffffffff1673ffffffffffffffffffffffffffffffffffffffff168152602001908152602001600020549050919050565b610b0a6122fd565b6007600083815260200190815260200160002060405180610120016040529081600082018054610b39906135e5565b80601f0160208091040260200160405190810160405280929190818152602001828054610b65906135e5565b8015610bb25780601f10610b8757610100808354040283529160200191610bb2565b820191906000526020600020905b815481529060010190602001808311610b9557829003601f168201915b505050505081526020016001820154815260200160028201805480602002602001604051908101604052809291908181526020016000905b82821015610c96578382906000526020600020018054610c09906135e5565b80601f0160208091040260200160405190810160405280929190818152602001828054610c35906135e5565b8015610c825780601f10610c5757610100808354040283529160200191610c82565b820191906000526020600020905b815481529060010190602001808311610c6557829003601f168201915b505050505081526020019060010190610bea565b50505050815260200160038201805480602002602001604051908101604052809291908181526020018280548015610d1957602002820191906000526020600020906000905b82829054906101000a900463ffffffff1663ffffffff1681526020019060040190602082600301049283019260010382029150808411610cdc5790505b505050505081526020016004820160009054906101000a900463ffffffff1663ffffffff1663ffffffff168152602001600582018054610d58906135e5565b80601f0160208091040260200160405190810160405280929190818152602001828054610d84906135e5565b8015610dd15780601f10610da657610100808354040283529160200191610dd1565b820191906000526020600020905b815481529060010190602001808311610db457829003601f168201915b5050505050815260200160068201805480602002602001604051908101604052809291908181526020018280548015610e2957602002820191906000526020600020905b815481526020019060010190808311610e15575b50505050508152602001600782015481526020016008820160009054906101000a900460ff1615151515815250509050919050565b610e666122fd565b6008600083815260200190815260200160002060405180610120016040529081600082018054610e95906135e5565b80601f0160208091040260200160405190810160405280929190818152602001828054610ec1906135e5565b8015610f0e5780601f10610ee357610100808354040283529160200191610f0e565b820191906000526020600020905b815481529060010190602001808311610ef157829003601f168201915b505050505081526020016001820154815260200160028201805480602002602001604051908101604052809291908181526020016000905b82821015610ff2578382906000526020600020018054610f65906135e5565b80601f0160208091040260200160405190810160405280929190818152602001828054610f91906135e5565b8015610fde5780601f10610fb357610100808354040283529160200191610fde565b820191906000526020600020905b815481529060010190602001808311610fc157829003601f168201915b505050505081526020019060010190610f46565b5050505081526020016003820180548060200260200160405190810160405280929190818152602001828054801561107557602002820191906000526020600020906000905b82829054906101000a900463ffffffff1663ffffffff16815260200190600401906020826003010492830192600103820291508084116110385790505b505050505081526020016004820160009054906101000a900463ffffffff1663ffffffff1663ffffffff1681526020016005820180546110b4906135e5565b80601f01602080910402602001604051908101604052809291908181526020018280546110e0906135e5565b801561112d5780601f106111025761010080835404028352916020019161112d565b820191906000526020600020905b81548152906001019060200180831161111057829003601f168201915b505050505081526020016006820180548060200260200160405190810160405280929190818152602001828054801561118557602002820191906000526020600020905b815481526020019060010190808311611171575b50505050508152602001600782015481526020016008820160009054906101000a900460ff1615151515815250509050919050565b60006111c66006611903565b905090565b6060600180546111da906135e5565b80601f0160208091040260200160405190810160405280929190818152602001828054611206906135e5565b80156112535780601f1061122857610100808354040283529160200191611253565b820191906000526020600020905b81548152906001019060200180831161123657829003601f168201915b5050505050905090565b61126f6112686115c5565b8383611aeb565b5050565b6040518060400160405280600a81526020017f7574696c697a7a617461000000000000000000000000000000000000000000008152506007600083815260200190815260200160002060050190805190602001906112d292919061211a565b506000600760008381526020019081526020016000206007015490506040518060400160405280600a81526020017f7574696c697a7a6174610000000000000000000000000000000000000000000081525060086000838152602001908152602001600020600501908051906020019061134d92919061211a565b505050565b61136361135d6115c5565b83611c58565b6113a2576040517f08c379a0000000000000000000000000000000000000000000000000000000008152600401611399906131fd565b60405180910390fd5b6113ae84848484611d36565b50505050565b60606113bf82611559565b6113fe576040517f08c379a00000000000000000000000000000000000000000000000000000000081526004016113f5906131bd565b60405180910390fd5b6000611408611d92565b905060008151116114285760405180602001604052806000815250611453565b8061143284611da9565b604051602001611443929190612f95565b6040516020818303038152906040525b915050919050565b6000600560008473ffffffffffffffffffffffffffffffffffffffff1673ffffffffffffffffffffffffffffffffffffffff16815260200190815260200160002060008373ffffffffffffffffffffffffffffffffffffffff1673ffffffffffffffffffffffffffffffffffffffff16815260200190815260200160002060009054906101000a900460ff16905092915050565b60007f01ffc9a7000000000000000000000000000000000000000000000000000000007bffffffffffffffffffffffffffffffffffffffffffffffffffffffff1916827bffffffffffffffffffffffffffffffffffffffffffffffffffffffff1916149050919050565b60008073ffffffffffffffffffffffffffffffffffffffff166002600084815260200190815260200160002060009054906101000a900473ffffffffffffffffffffffffffffffffffffffff1673ffffffffffffffffffffffffffffffffffffffff1614159050919050565b600033905090565b816004600083815260200190815260200160002060006101000a81548173ffffffffffffffffffffffffffffffffffffffff021916908373ffffffffffffffffffffffffffffffffffffffff160217905550808273ffffffffffffffffffffffffffffffffffffffff1661164083610998565b73ffffffffffffffffffffffffffffffffffffffff167f8c5be1e5ebec7d5bd14f71427d1e84f3dd0314c0f7b2291e5b200ac8c7c3b92560405160405180910390a45050565b8273ffffffffffffffffffffffffffffffffffffffff166116a682610998565b73ffffffffffffffffffffffffffffffffffffffff16146116fc576040517f08c379a00000000000000000000000000000000000000000000000000000000081526004016116f39061307d565b60405180910390fd5b600073ffffffffffffffffffffffffffffffffffffffff168273ffffffffffffffffffffffffffffffffffffffff16141561176c576040517f08c379a0000000000000000000000000000000000000000000000000000000008152600401611763906130bd565b60405180910390fd5b611777838383611f56565b6117826000826115cd565b6001600360008573ffffffffffffffffffffffffffffffffffffffff1673ffffffffffffffffffffffffffffffffffffffff16815260200190815260200160002060008282546117d291906134eb565b925050819055506001600360008473ffffffffffffffffffffffffffffffffffffffff1673ffffffffffffffffffffffffffffffffffffffff16815260200190815260200160002060008282546118299190613464565b92505081905550816002600083815260200190815260200160002060006101000a81548173ffffffffffffffffffffffffffffffffffffffff021916908373ffffffffffffffffffffffffffffffffffffffff160217905550808273ffffffffffffffffffffffffffffffffffffffff168473ffffffffffffffffffffffffffffffffffffffff167fddf252ad1be2c89b69c2b068fc378daa952ba7f163c4a11628f55a4df523b3ef60405160405180910390a46118e8838383611f5b565b505050565b6001816000016000828254019250508190555050565b600081600001549050919050565b600073ffffffffffffffffffffffffffffffffffffffff168273ffffffffffffffffffffffffffffffffffffffff161415611981576040517f08c379a00000000000000000000000000000000000000000000000000000000081526004016119789061317d565b60405180910390fd5b61198a81611559565b156119ca576040517f08c379a00000000000000000000000000000000000000000000000000000000081526004016119c19061309d565b60405180910390fd5b6119d660008383611f56565b6001600360008473ffffffffffffffffffffffffffffffffffffffff1673ffffffffffffffffffffffffffffffffffffffff1681526020019081526020016000206000828254611a269190613464565b92505081905550816002600083815260200190815260200160002060006101000a81548173ffffffffffffffffffffffffffffffffffffffff021916908373ffffffffffffffffffffffffffffffffffffffff160217905550808273ffffffffffffffffffffffffffffffffffffffff16600073ffffffffffffffffffffffffffffffffffffffff167fddf252ad1be2c89b69c2b068fc378daa952ba7f163c4a11628f55a4df523b3ef60405160405180910390a4611ae760008383611f5b565b5050565b8173ffffffffffffffffffffffffffffffffffffffff168373ffffffffffffffffffffffffffffffffffffffff161415611b5a576040517f08c379a0000000000000000000000000000000000000000000000000000000008152600401611b51906130dd565b60405180910390fd5b80600560008573ffffffffffffffffffffffffffffffffffffffff1673ffffffffffffffffffffffffffffffffffffffff16815260200190815260200160002060008473ffffffffffffffffffffffffffffffffffffffff1673ffffffffffffffffffffffffffffffffffffffff16815260200190815260200160002060006101000a81548160ff0219169083151502179055508173ffffffffffffffffffffffffffffffffffffffff168373ffffffffffffffffffffffffffffffffffffffff167f17307eab39ab6107e8899845ad3d59bd9653f200f220920489ca2b5937696c3183604051611c4b9190613020565b60405180910390a3505050565b6000611c6382611559565b611ca2576040517f08c379a0000000000000000000000000000000000000000000000000000000008152600401611c99906130fd565b60405180910390fd5b6000611cad83610998565b90508073ffffffffffffffffffffffffffffffffffffffff168473ffffffffffffffffffffffffffffffffffffffff161480611d1c57508373ffffffffffffffffffffffffffffffffffffffff16611d0484610541565b73ffffffffffffffffffffffffffffffffffffffff16145b80611d2d5750611d2c818561145b565b5b91505092915050565b611d41848484611686565b611d4d84848484611f60565b611d8c576040517f08c379a0000000000000000000000000000000000000000000000000000000008152600401611d839061305d565b60405180910390fd5b50505050565b606060405180602001604052806000815250905090565b60606000821415611df1576040518060400160405280600181526020017f30000000000000000000000000000000000000000000000000000000000000008152509050611f51565b600082905060005b60008214611e23578080611e0c90613648565b915050600a82611e1c91906134ba565b9150611df9565b60008167ffffffffffffffff811115611e65577f4e487b7100000000000000000000000000000000000000000000000000000000600052604160045260246000fd5b6040519080825280601f01601f191660200182016040528015611e975781602001600182028036833780820191505090505b5090505b60008514611f4a57600182611eb091906134eb565b9150600a85611ebf9190613691565b6030611ecb9190613464565b60f81b818381518110611f07577f4e487b7100000000000000000000000000000000000000000000000000000000600052603260045260246000fd5b60200101907effffffffffffffffffffffffffffffffffffffffffffffffffffffffffffff1916908160001a905350600a85611f4391906134ba565b9450611e9b565b8093505050505b919050565b505050565b505050565b6000611f818473ffffffffffffffffffffffffffffffffffffffff166120f7565b156120ea578373ffffffffffffffffffffffffffffffffffffffff1663150b7a02611faa6115c5565b8786866040518563ffffffff1660e01b8152600401611fcc9493929190612fd4565b602060405180830381600087803b158015611fe657600080fd5b505af192505050801561201757506040513d601f19601f8201168201806040525081019061201491906128a3565b60015b61209a573d8060008114612047576040519150601f19603f3d011682016040523d82523d6000602084013e61204c565b606091505b50600081511415612092576040517f08c379a00000000000000000000000000000000000000000000000000000000081526004016120899061305d565b60405180910390fd5b805181602001fd5b63150b7a0260e01b7bffffffffffffffffffffffffffffffffffffffffffffffffffffffff1916817bffffffffffffffffffffffffffffffffffffffffffffffffffffffff1916149150506120ef565b600190505b949350505050565b6000808273ffffffffffffffffffffffffffffffffffffffff163b119050919050565b828054612126906135e5565b90600052602060002090601f016020900481019282612148576000855561218f565b82601f1061216157805160ff191683800117855561218f565b8280016001018555821561218f579182015b8281111561218e578251825591602001919060010190612173565b5b50905061219c9190612351565b5090565b8280548282559060005260206000209081019282156121ef579160200282015b828111156121ee5782518290805190602001906121de92919061211a565b50916020019190600101906121c0565b5b5090506121fc919061236e565b5090565b8280548282559060005260206000209060070160089004810192821561229f5791602002820160005b8382111561226d57835183826101000a81548163ffffffff021916908363ffffffff1602179055509260200192600401602081600301049283019260010302612229565b801561229d5782816101000a81549063ffffffff021916905560040160208160030104928301926001030261226d565b505b5090506122ac9190612351565b5090565b8280548282559060005260206000209081019282156122ec579160200282015b828111156122eb5782518255916020019190600101906122d0565b5b5090506122f99190612351565b5090565b60405180610120016040528060608152602001600081526020016060815260200160608152602001600063ffffffff1681526020016060815260200160608152602001600081526020016000151581525090565b5b8082111561236a576000816000905550600101612352565b5090565b5b8082111561238e57600081816123859190612392565b5060010161236f565b5090565b50805461239e906135e5565b6000825580601f106123b057506123cf565b601f0160209004906000526020600020908101906123ce9190612351565b5b50565b60006123e56123e08461327f565b61325a565b9050808382526020820190508260005b85811015612425578135850161240b888261267f565b8452602084019350602083019250506001810190506123f5565b5050509392505050565b600061244261243d846132ab565b61325a565b9050808382526020820190508285602086028201111561246157600080fd5b60005b85811015612491578161247788826126a9565b845260208401935060208301925050600181019050612464565b5050509392505050565b60006124ae6124a9846132d7565b61325a565b905080838252602082019050828560208602820111156124cd57600080fd5b60005b858110156124fd57816124e388826126be565b8452602084019350602083019250506001810190506124d0565b5050509392505050565b600061251a61251584613303565b61325a565b90508281526020810184848401111561253257600080fd5b61253d8482856135a3565b509392505050565b600061255861255384613334565b61325a565b90508281526020810184848401111561257057600080fd5b61257b8482856135a3565b509392505050565b60008135905061259281613b6f565b92915050565b600082601f8301126125a957600080fd5b81356125b98482602086016123d2565b91505092915050565b600082601f8301126125d357600080fd5b81356125e384826020860161242f565b91505092915050565b600082601f8301126125fd57600080fd5b813561260d84826020860161249b565b91505092915050565b60008135905061262581613b86565b92915050565b60008135905061263a81613b9d565b92915050565b60008151905061264f81613b9d565b92915050565b600082601f83011261266657600080fd5b8135612676848260208601612507565b91505092915050565b600082601f83011261269057600080fd5b81356126a0848260208601612545565b91505092915050565b6000813590506126b881613bb4565b92915050565b6000813590506126cd81613bcb565b92915050565b6000602082840312156126e557600080fd5b60006126f384828501612583565b91505092915050565b6000806040838503121561270f57600080fd5b600061271d85828601612583565b925050602061272e85828601612583565b9150509250929050565b60008060006060848603121561274d57600080fd5b600061275b86828701612583565b935050602061276c86828701612583565b925050604061277d868287016126a9565b9150509250925092565b6000806000806080858703121561279d57600080fd5b60006127ab87828801612583565b94505060206127bc87828801612583565b93505060406127cd878288016126a9565b925050606085013567ffffffffffffffff8111156127ea57600080fd5b6127f687828801612655565b91505092959194509250565b6000806040838503121561281557600080fd5b600061282385828601612583565b925050602061283485828601612616565b9150509250929050565b6000806040838503121561285157600080fd5b600061285f85828601612583565b9250506020612870858286016126a9565b9150509250929050565b60006020828403121561288c57600080fd5b600061289a8482850161262b565b91505092915050565b6000602082840312156128b557600080fd5b60006128c384828501612640565b91505092915050565b6000602082840312156128de57600080fd5b60006128ec848285016126a9565b91505092915050565b600080600080600080600080610100898b03121561291257600080fd5b60006129208b828c016126a9565b98505060206129318b828c016126be565b975050604089013567ffffffffffffffff81111561294e57600080fd5b61295a8b828c01612598565b965050606089013567ffffffffffffffff81111561297757600080fd5b6129838b828c016125ec565b955050608089013567ffffffffffffffff8111156129a057600080fd5b6129ac8b828c0161267f565b94505060a06129bd8b828c01612583565b93505060c089013567ffffffffffffffff8111156129da57600080fd5b6129e68b828c016125c2565b92505060e089013567ffffffffffffffff811115612a0357600080fd5b612a0f8b828c0161267f565b9150509295985092959890939650565b6000612a2b8383612bfa565b905092915050565b6000612a3f8383612f68565b60208301905092915050565b6000612a578383612f86565b60208301905092915050565b612a6c8161351f565b82525050565b6000612a7d82613395565b612a8781856133f3565b935083602082028501612a9985613365565b8060005b85811015612ad55784840389528151612ab68582612a1f565b9450612ac1836133cc565b925060208a01995050600181019050612a9d565b50829750879550505050505092915050565b6000612af2826133a0565b612afc8185613404565b9350612b0783613375565b8060005b83811015612b38578151612b1f8882612a33565b9750612b2a836133d9565b925050600181019050612b0b565b5085935050505092915050565b6000612b50826133ab565b612b5a8185613415565b9350612b6583613385565b8060005b83811015612b96578151612b7d8882612a4b565b9750612b88836133e6565b925050600181019050612b69565b5085935050505092915050565b612bac81613531565b82525050565b612bbb81613531565b82525050565b6000612bcc826133b6565b612bd68185613426565b9350612be68185602086016135b2565b612bef8161377e565b840191505092915050565b6000612c05826133c1565b612c0f8185613437565b9350612c1f8185602086016135b2565b612c288161377e565b840191505092915050565b6000612c3e826133c1565b612c488185613448565b9350612c588185602086016135b2565b612c618161377e565b840191505092915050565b6000612c77826133c1565b612c818185613459565b9350612c918185602086016135b2565b80840191505092915050565b6000612caa603283613448565b9150612cb58261378f565b604082019050919050565b6000612ccd602583613448565b9150612cd8826137de565b604082019050919050565b6000612cf0601c83613448565b9150612cfb8261382d565b602082019050919050565b6000612d13602483613448565b9150612d1e82613856565b604082019050919050565b6000612d36601983613448565b9150612d41826138a5565b602082019050919050565b6000612d59602c83613448565b9150612d64826138ce565b604082019050919050565b6000612d7c603883613448565b9150612d878261391d565b604082019050919050565b6000612d9f602a83613448565b9150612daa8261396c565b604082019050919050565b6000612dc2602983613448565b9150612dcd826139bb565b604082019050919050565b6000612de5602083613448565b9150612df082613a0a565b602082019050919050565b6000612e08602c83613448565b9150612e1382613a33565b604082019050919050565b6000612e2b602f83613448565b9150612e3682613a82565b604082019050919050565b6000612e4e602183613448565b9150612e5982613ad1565b604082019050919050565b6000612e71603183613448565b9150612e7c82613b20565b604082019050919050565b6000610120830160008301518482036000860152612ea58282612bfa565b9150506020830151612eba6020860182612f68565b5060408301518482036040860152612ed28282612a72565b91505060608301518482036060860152612eec8282612b45565b9150506080830151612f016080860182612f86565b5060a083015184820360a0860152612f198282612bfa565b91505060c083015184820360c0860152612f338282612ae7565b91505060e0830151612f4860e0860182612f68565b50610100830151612f5d610100860182612ba3565b508091505092915050565b612f7181613589565b82525050565b612f8081613589565b82525050565b612f8f81613593565b82525050565b6000612fa18285612c6c565b9150612fad8284612c6c565b91508190509392505050565b6000602082019050612fce6000830184612a63565b92915050565b6000608082019050612fe96000830187612a63565b612ff66020830186612a63565b6130036040830185612f77565b81810360608301526130158184612bc1565b905095945050505050565b60006020820190506130356000830184612bb2565b92915050565b600060208201905081810360008301526130558184612c33565b905092915050565b6000602082019050818103600083015261307681612c9d565b9050919050565b6000602082019050818103600083015261309681612cc0565b9050919050565b600060208201905081810360008301526130b681612ce3565b9050919050565b600060208201905081810360008301526130d681612d06565b9050919050565b600060208201905081810360008301526130f681612d29565b9050919050565b6000602082019050818103600083015261311681612d4c565b9050919050565b6000602082019050818103600083015261313681612d6f565b9050919050565b6000602082019050818103600083015261315681612d92565b9050919050565b6000602082019050818103600083015261317681612db5565b9050919050565b6000602082019050818103600083015261319681612dd8565b9050919050565b600060208201905081810360008301526131b681612dfb565b9050919050565b600060208201905081810360008301526131d681612e1e565b9050919050565b600060208201905081810360008301526131f681612e41565b9050919050565b6000602082019050818103600083015261321681612e64565b9050919050565b600060208201905081810360008301526132378184612e87565b905092915050565b60006020820190506132546000830184612f77565b92915050565b6000613264613275565b90506132708282613617565b919050565b6000604051905090565b600067ffffffffffffffff82111561329a5761329961374f565b5b602082029050602081019050919050565b600067ffffffffffffffff8211156132c6576132c561374f565b5b602082029050602081019050919050565b600067ffffffffffffffff8211156132f2576132f161374f565b5b602082029050602081019050919050565b600067ffffffffffffffff82111561331e5761331d61374f565b5b6133278261377e565b9050602081019050919050565b600067ffffffffffffffff82111561334f5761334e61374f565b5b6133588261377e565b9050602081019050919050565b6000819050602082019050919050565b6000819050602082019050919050565b6000819050602082019050919050565b600081519050919050565b600081519050919050565b600081519050919050565b600081519050919050565b600081519050919050565b6000602082019050919050565b6000602082019050919050565b6000602082019050919050565b600082825260208201905092915050565b600082825260208201905092915050565b600082825260208201905092915050565b600082825260208201905092915050565b600082825260208201905092915050565b600082825260208201905092915050565b600081905092915050565b600061346f82613589565b915061347a83613589565b9250827fffffffffffffffffffffffffffffffffffffffffffffffffffffffffffffffff038211156134af576134ae6136c2565b5b828201905092915050565b60006134c582613589565b91506134d083613589565b9250826134e0576134df6136f1565b5b828204905092915050565b60006134f682613589565b915061350183613589565b925082821015613514576135136136c2565b5b828203905092915050565b600061352a82613569565b9050919050565b60008115159050919050565b60007fffffffff0000000000000000000000000000000000000000000000000000000082169050919050565b600073ffffffffffffffffffffffffffffffffffffffff82169050919050565b6000819050919050565b600063ffffffff82169050919050565b82818337600083830152505050565b60005b838110156135d05780820151818401526020810190506135b5565b838111156135df576000848401525b50505050565b600060028204905060018216806135fd57607f821691505b6020821081141561361157613610613720565b5b50919050565b6136208261377e565b810181811067ffffffffffffffff8211171561363f5761363e61374f565b5b80604052505050565b600061365382613589565b91507fffffffffffffffffffffffffffffffffffffffffffffffffffffffffffffffff821415613686576136856136c2565b5b600182019050919050565b600061369c82613589565b91506136a783613589565b9250826136b7576136b66136f1565b5b828206905092915050565b7f4e487b7100000000000000000000000000000000000000000000000000000000600052601160045260246000fd5b7f4e487b7100000000000000000000000000000000000000000000000000000000600052601260045260246000fd5b7f4e487b7100000000000000000000000000000000000000000000000000000000600052602260045260246000fd5b7f4e487b7100000000000000000000000000000000000000000000000000000000600052604160045260246000fd5b6000601f19601f8301169050919050565b7f4552433732313a207472616e7366657220746f206e6f6e20455243373231526560008201527f63656976657220696d706c656d656e7465720000000000000000000000000000602082015250565b7f4552433732313a207472616e736665722066726f6d20696e636f72726563742060008201527f6f776e6572000000000000000000000000000000000000000000000000000000602082015250565b7f4552433732313a20746f6b656e20616c7265616479206d696e74656400000000600082015250565b7f4552433732313a207472616e7366657220746f20746865207a65726f2061646460008201527f7265737300000000000000000000000000000000000000000000000000000000602082015250565b7f4552433732313a20617070726f766520746f2063616c6c657200000000000000600082015250565b7f4552433732313a206f70657261746f7220717565727920666f72206e6f6e657860008201527f697374656e7420746f6b656e0000000000000000000000000000000000000000602082015250565b7f4552433732313a20617070726f76652063616c6c6572206973206e6f74206f7760008201527f6e6572206e6f7220617070726f76656420666f7220616c6c0000000000000000602082015250565b7f4552433732313a2062616c616e636520717565727920666f7220746865207a6560008201527f726f206164647265737300000000000000000000000000000000000000000000602082015250565b7f4552433732313a206f776e657220717565727920666f72206e6f6e657869737460008201527f656e7420746f6b656e0000000000000000000000000000000000000000000000602082015250565b7f4552433732313a206d696e7420746f20746865207a65726f2061646472657373600082015250565b7f4552433732313a20617070726f76656420717565727920666f72206e6f6e657860008201527f697374656e7420746f6b656e0000000000000000000000000000000000000000602082015250565b7f4552433732314d657461646174613a2055524920717565727920666f72206e6f60008201527f6e6578697374656e7420746f6b656e0000000000000000000000000000000000602082015250565b7f4552433732313a20617070726f76616c20746f2063757272656e74206f776e6560008201527f7200000000000000000000000000000000000000000000000000000000000000602082015250565b7f4552433732313a207472616e736665722063616c6c6572206973206e6f74206f60008201527f776e6572206e6f7220617070726f766564000000000000000000000000000000602082015250565b613b788161351f565b8114613b8357600080fd5b50565b613b8f81613531565b8114613b9a57600080fd5b50565b613ba68161353d565b8114613bb157600080fd5b50565b613bbd81613589565b8114613bc857600080fd5b50565b613bd481613593565b8114613bdf57600080fd5b5056fea2646970667358221220b83a1b4055574f28ab3550446015dca24d7b1827696baade8c213c5d8b82540f64736f6c63430008010033",
  "immutableReferences": {},
  "source": "// SPDX-License-Identifier: MIT\r\n\r\npragma solidity>=0.5.16;\r\n\r\nimport \"./CarbonFootprint.sol\";\r\nimport \"./Generica.sol\";\r\nimport \"@openzeppelin/contracts/access/Ownable.sol\";\r\nimport \"@openzeppelin/contracts/utils/math/SafeMath.sol\";\r\n\r\n\r\n\r\ncontract Gestore_nft is Ownable {\r\n\r\n    using SafeMath for uint32;\r\n\r\n\r\n\r\n\r\n\r\n    // mapping attraverso i quali posso ricavare i produttori, trasformatori e clienti\r\n    mapping(uint256=>address) public produttori;\r\n    mapping(uint256=>address) public trasformatori;\r\n    mapping(uint256=>address) public clienti;\r\n    uint256 numero_produttori = 0;\r\n    uint256 numero_trasformatori = 0;\r\n    uint256 numero_clienti = 0;\r\n\r\n\r\n    // creo l'oggetto che rappresenta il token non fungibile\r\n    CarbonFootprint carbonFootprint = new CarbonFootprint();\r\n\r\n\r\n    \r\n\r\n\r\n    //funzione con cui il creatore dello smartContract pu aggiungere un nuovo produttore, trasformatore o cliente\r\n    function aggiungiAttore(\r\n        string memory _tipo, address _indirizzo_account\r\n    ) external onlyOwner {\r\n\r\n        // errore se il ruolo inserito  diverso dai 3 disponibili\r\n        require(\r\n            (Generica.stringCompare(_tipo, \"produttore\")) || \r\n            (Generica.stringCompare(_tipo, \"trasformatore\")) || \r\n            (Generica.stringCompare(_tipo, \"cliente\")),\r\n            \"I ruoli disponibili sono: _produttore_ _trasformatore_ e _cliente_\"\r\n            );\r\n\r\n\r\n        // errore se l'account inserito compare gi nel mapping relativo al ruolo richiesto\r\n        require(\r\n            !esistente(_tipo, _indirizzo_account),\r\n            \"Account gia' presente con questo ruolo\"\r\n            );\r\n\r\n        // in base al ruolo passato, l'account viene inserito nel corrispondente mapping\r\n        if(Generica.stringCompare(_tipo, \"produttore\")) {\r\n            produttori[numero_produttori] = _indirizzo_account;\r\n            numero_produttori++;\r\n        }\r\n\r\n        else if(Generica.stringCompare(_tipo, \"trasformatore\")) {\r\n            trasformatori[numero_trasformatori] = _indirizzo_account;\r\n            numero_trasformatori++;\r\n        }\r\n\r\n        else if(Generica.stringCompare(_tipo, \"cliente\")) {\r\n            clienti[numero_clienti] = _indirizzo_account;\r\n            numero_clienti++;\r\n        }\r\n    }\r\n\r\n\r\n\r\n\r\n\r\n    //crea una materia prima a partire da noe, valore di CO2 e lotto\r\n    function creaMateriaPrima(\r\n        uint256 _lotto, uint32 _valore_CO2, string memory _nome\r\n    ) external {\r\n\r\n        // errore se il richiedente non  un produttore\r\n        require(esistente(\"produttore\", msg.sender), \"Solo i produttori possono aggiungere materie prime\");\r\n        // errore se il lotto inserito  0\r\n        require(_lotto != 0, \"Id lotto non valido\");\r\n        // errore se i valori di CO2 non rispettano le richieste\r\n        require(_valore_CO2>0 && _valore_CO2<100, \"Valore di CO2 non valido\");\r\n        // errore se il lotto inserito  gi presente nel catalogo\r\n        require(carbonFootprint.getRisorsaByLotto(_lotto).exists==false, \"Id lotto gia' presente\");\r\n        // creo 3 array vuoti, perch al \"crea prodotto\" devono essere passati anche le riorse usate per produrre la risorsa\r\n        // le attivit svolte ed il loro consumo, ma poich stiamo inserendo una materia prima, tali valori sono nulli\r\n        uint256[] memory vettore_risorse;\r\n        string[] memory nomi_attivita;\r\n        uint32[] memory consumi_attivita;\r\n\r\n        // creo effettivamente la materia prima\r\n        carbonFootprint.creaProdotto(_lotto, _valore_CO2, nomi_attivita, consumi_attivita, \"materia prima\", msg.sender, vettore_risorse, _nome);\r\n\r\n    }\r\n\r\n    // consente di trasferire una materia prima ad un altro attore\r\n    function trasferimentoMateriaPrima(\r\n        address _destinatario, uint256 _lotto\r\n        ) external {\r\n        CarbonFootprint.Risorsa memory risorsa = carbonFootprint.getRisorsaByLotto(_lotto);\r\n        require(risorsa.exists==true,\"Il token inserito non corrisponde a nessuna materia prima presente\");\r\n        // errore se il richiedente non possiede la risorsa\r\n        require(getOwnerByToken(risorsa.token)==msg.sender, \"Non sei in possesso della risorsa\");  \r\n        // errore se il destinatario non  un cliente, trasformatore o produttore\r\n        require(esistente(_destinatario), \"Il destinatario deve essere un produttore, trasformatore o cliente\");\r\n        carbonFootprint.transferFrom(msg.sender, _destinatario, risorsa.token);\r\n    }\r\n\r\n    // crea un nuovo prodotto a partire da un vettore di lotti di materie prime, un vettore di nomi di attivit svolte\r\n    // un vettore di consumi delle attivit svolte, un nome ed un lotto\r\n    function creaProdotto(\r\n        string[] memory _nomi_attivita, uint32[] memory _valori_CO2_attivita, string memory _nome, uint256[] memory _lotti_materie_prime, uint256 _lotto_nuovo_prodotto\r\n    ) external {\r\n\r\n        // errore se il lotto del prodotto da creare esiste gi \r\n        require(carbonFootprint.getRisorsaByLotto(_lotto_nuovo_prodotto).exists==false, \"Il lotto inserito e' gia' presente\");\r\n        // errore se il richiedente non  un trasformatore\r\n        require(esistente(\"trasformatore\", msg.sender), \"Solo i trasformatori possono aggiungere un prodotto trasformato\");\r\n        // inizializzo la CO2 totale a 0, poi ci sommer quella delle attivit svolte e quella delle materie prime utilizzate\r\n        uint32 CO2_totale = 0; \r\n\r\n        // per ogni materia prima controllo se  valida ed utilizzabile, poi sommo i corrispondenti contributi in CO2\r\n        for (uint i=0;i<_lotti_materie_prime.length;i++) {\r\n\r\n            // estraggo la risorsa dal catalogo conoscendone il lotto\r\n            CarbonFootprint.Risorsa memory risorsa = carbonFootprint.getRisorsaByLotto(_lotti_materie_prime[i]);\r\n       \r\n            // errore se la materia prima non esiste\r\n            require(risorsa.exists==true, \"Materia prima non presente\");\r\n\r\n            // errore se il lotto  0 \r\n            require(_lotti_materie_prime[i] != 0, \"Il lotto 0 non e' valido\");\r\n            // trasformo l'uint256 in una stringa in modo da concatenarla nell'errore\r\n            string memory stringa_lotto = Generica.toString(_lotti_materie_prime[i]);\r\n            // errore se il richiedente non possiede la risorsa\r\n            require(getOwnerByToken(risorsa.token)==msg.sender, Generica.concatenate(\"Non sei in possesso della materia prima con lotto\", stringa_lotto));\r\n            // errore se la risorsa non  una materia prima\r\n            require(Generica.stringCompare(string(risorsa.tipologia),\"materia prima\"),Generica.concatenate(Generica.concatenate(\"L'elemento con lotto pari a\",stringa_lotto), \"non e' una materia prima\"));\r\n\r\n            // settiamo il valore \"tipologia\" della risorsa a \"utilizzata\" in modo che non possa essere usata per \r\n            // produrre nuovi prodotti\r\n            carbonFootprint.setTipologiaUtilizzato(_lotti_materie_prime[i]);\r\n\r\n            // sommo alla CO2 totale quella della materia prima corrente\r\n            CO2_totale.add(risorsa.valore_CO2);\r\n            \r\n        }\r\n        \r\n\r\n        // per ogni attivit sommo i consumi di CO2 al valore di CO2 totale\r\n        for (uint i=0;i<_valori_CO2_attivita.length;i++) {  \r\n\r\n            // sommo i contributi delle singole attivita\r\n            CO2_totale.add(_valori_CO2_attivita[i]);\r\n           }\r\n            \r\n        // creo il prodotto passando id del lotto, CO2 totale, vettore con i nomi delle attivit svolte, vettore con i \r\n        // consumi delle attivit svolte, tipologia (prodotto trasformato), possessore (chi ha mandato il messaggio),\r\n        // lotti di materie prime utilizzate e nome\r\n        carbonFootprint.creaProdotto(_lotto_nuovo_prodotto, CO2_totale, _nomi_attivita, _valori_CO2_attivita, \"prodotto trasformato\", msg.sender, _lotti_materie_prime, _nome);\r\n\r\n    }\r\n    \r\n\r\n\r\n\r\n\r\n    // funzione che riceve un token e restituisce l'indirizzo del possessore\r\n    function getOwnerByToken(uint256 _token) public view returns(address){\r\n    \r\n    // errore se il token  0\r\n    require(_token!=0, \"Il token inserito non e' valido\"); \r\n    \r\n    // errore se il token inserito  maggiore di quello corrente\r\n    require(_token<=carbonFootprint.currentToken(), \"Prodotto/materia prima non esistente\"); \r\n    \r\n    return carbonFootprint.ownerOf(_token);\r\n    }\r\n\r\n\r\n\r\n\r\n\r\n    // funzione che riceve un token e restituisce le informazioni relative alla risorsa con quel token\r\n    function getInfoByToken(uint256 _token)\r\n        public view returns(string memory, uint256, string[] memory, uint32[] memory, uint32, string memory, uint256[] memory, uint256) {\r\n\r\n        // errore se il token passato  0 o  maggiore del token corrente \r\n        require(_token!=0 && _token<=carbonFootprint.currentToken(), \"Il token inserito non e' valido\");\r\n        \r\n        // estraggo dal catalogo la risorsa con token pari a quello passato\r\n        CarbonFootprint.Risorsa memory risorsa = carbonFootprint.getRisorsaByIdProdotto(_token);\r\n        \r\n        return (risorsa.nome, risorsa.lotto, risorsa.nomi_attivita, risorsa.valori_CO2_attivita, risorsa.valore_CO2, risorsa.tipologia, risorsa.lotti_materie_prime, risorsa.token);\r\n    }\r\n\r\n\r\n    // funzione che riceve un lotto e restituisce le informazioni relative alla risorsa con quel lotto\r\n    function getInfoByLotto(uint256 _lotto)\r\n        public view returns(string memory, uint256, string[] memory, uint32[] memory, uint32, string memory, uint256[] memory, uint256) {\r\n\r\n        CarbonFootprint.Risorsa memory risorsa = carbonFootprint.getRisorsaByLotto(_lotto);\r\n        \r\n        // errore se il lotto appartiene ad una risorsa che non esiste\r\n        require(_lotto!=0 && risorsa.exists!=false, \"Il lotto inserito non e' valido\");\r\n        \r\n        return (risorsa.nome, risorsa.lotto, risorsa.nomi_attivita, risorsa.valori_CO2_attivita, risorsa.valore_CO2, risorsa.tipologia, risorsa.lotti_materie_prime, risorsa.token);\r\n    }\r\n\r\n\r\n\r\n    // funzione che riceve un nome e restituisce una lista di informazioni relative alle risorse con quel nome\r\n    function getInfoByNome(string memory _nome)\r\n        public view returns(string memory) {\r\n        \r\n        uint256 trovati=0;\r\n        string memory results;\r\n        // scorro tutto il catalogo alla ricerca di risorse con il nome passato\r\n        for (uint256 i=1;i<=carbonFootprint.currentToken();i++) {\r\n            CarbonFootprint.Risorsa memory risorsa_i = carbonFootprint.getRisorsaByIdProdotto(i);\r\n            if(Generica.stringCompare(risorsa_i.nome,_nome)) {\r\n                results = Generica.concatenate(results,risorsa_i.nome);\r\n                results = Generica.concatenate(results, \",\");\r\n                results = Generica.concatenate(results,Generica.toString(risorsa_i.lotto));\r\n                results = Generica.concatenate(results, \",\");\r\n                results = Generica.concatenate(results,Generica.toString(risorsa_i.valore_CO2));\r\n                results = Generica.concatenate(results, \",\");\r\n                results = Generica.concatenate(results,Generica.toString(risorsa_i.token));\r\n                results = Generica.concatenate(results, \",\");\r\n                results = Generica.concatenate(results,risorsa_i.tipologia);\r\n                results = Generica.concatenate(results, \",\");\r\n                for(uint j;j<risorsa_i.nomi_attivita.length;j++){\r\n                    results = Generica.concatenate(results,risorsa_i.nomi_attivita[j]);\r\n                    results = Generica.concatenate(results,\" | \");\r\n                }\r\n                results = Generica.concatenate(results, \",\");\r\n                for(uint j;j<risorsa_i.valori_CO2_attivita.length;j++){\r\n                    results = Generica.concatenate(results,Generica.toString(risorsa_i.valori_CO2_attivita[j]));\r\n                    results = Generica.concatenate(results, \" | \");\r\n                }\r\n                results = Generica.concatenate(results, \",\");\r\n                for(uint j;j<risorsa_i.lotti_materie_prime.length;j++){\r\n                    results = Generica.concatenate(results,Generica.toString(risorsa_i.lotti_materie_prime[j]));\r\n                    results = Generica.concatenate(results, \" | \");\r\n                }\r\n                results = Generica.concatenate(results, \";\");\r\n                trovati++;\r\n            }\r\n        }\r\n\r\n        // errore se nessun prodotto ha il nome passato\r\n        require(trovati!=0, \"Non e' stato trovato alcun prodotto/materia prima con il nome inserito\");\r\n\r\n        return results;\r\n    }  \r\n\r\n\r\n    //funzione che restituisce vero se l'account ricopre gi il ruolo passato in input\r\n    function esistente(string memory _ruolo, address _indirizzo_account)\r\n        public view returns(bool) {\r\n\r\n        // se il tipo passato  produttore allora cerco sul mapping dei produttori\r\n        if(Generica.stringCompare(_ruolo,\"produttore\")) {\r\n            for (uint i;i<numero_produttori;i++) {\r\n                if(_indirizzo_account == produttori[i]) return true;\r\n            }\r\n        }\r\n        // se il tipo passato  trasformatore allora cerco sul mapping dei trasformatore\r\n        else if(Generica.stringCompare(_ruolo, \"trasformatore\")) {\r\n            for (uint i;i<numero_trasformatori;i++) {\r\n                if(_indirizzo_account == trasformatori[i]) return true;\r\n            }\r\n        }\r\n        // se il tipo passato  cliente allora cerco sul mapping dei clienti\r\n        else if(Generica.stringCompare(_ruolo, \"cliente\")) {\r\n            for (uint i;i<numero_clienti;i++) {\r\n                if(_indirizzo_account == clienti[i]) return true;\r\n            }\r\n        }\r\n        return false;\r\n    }\r\n\r\n\r\n\r\n\r\n    // funzione che scorre tutti e tre i mapping degli attori per controllare se l'account appartiene ad un \r\n    // produttore, trasformatore o destinatario\r\n    function esistente(address _indirizzo_account)\r\n        private view returns(bool) {\r\n\r\n        for (uint i;i<numero_produttori;i++) {\r\n            if(_indirizzo_account == produttori[i]) return true;\r\n        }\r\n\r\n        for (uint i;i<numero_trasformatori;i++) {\r\n            if(_indirizzo_account == trasformatori[i]) return true;\r\n        }\r\n        \r\n\r\n        for (uint i;i<numero_clienti;i++) {\r\n            if(_indirizzo_account == clienti[i]) return true;\r\n        }\r\n\r\n        return false;\r\n    }\r\n\r\n}",
  "sourcePath": "C:/Users/lucry/Desktop/3-nodes-istanbul-tessera-docker-compose/contracts/Gestore_nft.sol",
  "compiler": {
    "name": "solc",
    "version": "0.8.1+commit.df193b15.Emscripten.clang"
  },
  "schemaVersion": "3.4.1",
  "updatedAt": "2022-02-23T18:32:35.353Z",
  "networkType": "quorum",
  "devdoc": {
    "kind": "dev",
    "methods": {
      "owner()": {
        "details": "Returns the address of the current owner."
      },
      "renounceOwnership()": {
        "details": "Leaves the contract without owner. It will not be possible to call `onlyOwner` functions anymore. Can only be called by the current owner. NOTE: Renouncing ownership will leave the contract without an owner, thereby removing any functionality that is only available to the owner."
      },
      "transferOwnership(address)": {
        "details": "Transfers ownership of the contract to a new account (`newOwner`). Can only be called by the current owner."
      }
    },
    "version": 1
  },
  "userdoc": {
    "kind": "user",
    "methods": {},
    "version": 1
  }
}